{
	"DecentralizedMarketplace.sol": {
		"DecentralizedMarketplace": {
			"abi": [
				{
					"anonymous": false,
					"inputs": [
						{
							"indexed": false,
							"internalType": "string",
							"name": "name",
							"type": "string"
						},
						{
							"indexed": false,
							"internalType": "string",
							"name": "comment",
							"type": "string"
						},
						{
							"indexed": false,
							"internalType": "uint8",
							"name": "star",
							"type": "uint8"
						}
					],
					"name": "CommentAdded",
					"type": "event"
				},
				{
					"anonymous": false,
					"inputs": [
						{
							"indexed": false,
							"internalType": "string",
							"name": "name",
							"type": "string"
						},
						{
							"indexed": false,
							"internalType": "string",
							"name": "description",
							"type": "string"
						},
						{
							"indexed": false,
							"internalType": "uint256",
							"name": "price",
							"type": "uint256"
						},
						{
							"indexed": false,
							"internalType": "address",
							"name": "owner",
							"type": "address"
						},
						{
							"indexed": false,
							"internalType": "bool",
							"name": "sellStatus",
							"type": "bool"
						}
					],
					"name": "GoodAdded",
					"type": "event"
				},
				{
					"anonymous": false,
					"inputs": [
						{
							"indexed": false,
							"internalType": "string",
							"name": "message",
							"type": "string"
						}
					],
					"name": "sellGoodMessage",
					"type": "event"
				},
				{
					"anonymous": false,
					"inputs": [
						{
							"indexed": false,
							"internalType": "uint256",
							"name": "total",
							"type": "uint256"
						}
					],
					"name": "showTotalAmount",
					"type": "event"
				},
				{
					"anonymous": false,
					"inputs": [
						{
							"indexed": false,
							"internalType": "address",
							"name": "user",
							"type": "address"
						},
						{
							"indexed": false,
							"internalType": "string",
							"name": "message",
							"type": "string"
						}
					],
					"name": "updateCart",
					"type": "event"
				},
				{
					"inputs": [
						{
							"internalType": "string",
							"name": "_name",
							"type": "string"
						},
						{
							"internalType": "string",
							"name": "_comment",
							"type": "string"
						},
						{
							"internalType": "uint8",
							"name": "_star",
							"type": "uint8"
						},
						{
							"internalType": "uint256",
							"name": "goodID",
							"type": "uint256"
						}
					],
					"name": "addComment",
					"outputs": [],
					"stateMutability": "nonpayable",
					"type": "function"
				},
				{
					"inputs": [
						{
							"internalType": "string",
							"name": "_name",
							"type": "string"
						},
						{
							"internalType": "string",
							"name": "_description",
							"type": "string"
						},
						{
							"internalType": "uint256",
							"name": "_price",
							"type": "uint256"
						},
						{
							"internalType": "uint256",
							"name": "_amount",
							"type": "uint256"
						},
						{
							"internalType": "string",
							"name": "_image",
							"type": "string"
						},
						{
							"internalType": "string",
							"name": "_categories",
							"type": "string"
						}
					],
					"name": "addGood",
					"outputs": [],
					"stateMutability": "nonpayable",
					"type": "function"
				},
				{
					"inputs": [
						{
							"internalType": "uint256",
							"name": "goodId",
							"type": "uint256"
						},
						{
							"internalType": "uint256",
							"name": "amount",
							"type": "uint256"
						}
					],
					"name": "addToCart",
					"outputs": [],
					"stateMutability": "nonpayable",
					"type": "function"
				},
				{
					"inputs": [
						{
							"internalType": "uint256",
							"name": "_goodID",
							"type": "uint256"
						},
						{
							"internalType": "uint256",
							"name": "_amount",
							"type": "uint256"
						}
					],
					"name": "buyGood",
					"outputs": [],
					"stateMutability": "nonpayable",
					"type": "function"
				},
				{
					"inputs": [
						{
							"internalType": "uint256[]",
							"name": "items",
							"type": "uint256[]"
						}
					],
					"name": "cartCheckOut",
					"outputs": [],
					"stateMutability": "nonpayable",
					"type": "function"
				},
				{
					"inputs": [
						{
							"internalType": "address",
							"name": "",
							"type": "address"
						},
						{
							"internalType": "uint256",
							"name": "",
							"type": "uint256"
						}
					],
					"name": "carts",
					"outputs": [
						{
							"internalType": "uint256",
							"name": "goodId",
							"type": "uint256"
						},
						{
							"internalType": "uint256",
							"name": "amount",
							"type": "uint256"
						}
					],
					"stateMutability": "view",
					"type": "function"
				},
				{
					"inputs": [],
					"name": "ercToken",
					"outputs": [
						{
							"internalType": "contract IERC20",
							"name": "",
							"type": "address"
						}
					],
					"stateMutability": "view",
					"type": "function"
				},
				{
					"inputs": [
						{
							"internalType": "uint256[]",
							"name": "items",
							"type": "uint256[]"
						}
					],
					"name": "getBuyTotalPrice",
					"outputs": [
						{
							"internalType": "uint256",
							"name": "",
							"type": "uint256"
						}
					],
					"stateMutability": "view",
					"type": "function"
				},
				{
					"inputs": [],
					"name": "getCart",
					"outputs": [
						{
							"components": [
								{
									"internalType": "uint256",
									"name": "goodId",
									"type": "uint256"
								},
								{
									"internalType": "uint256",
									"name": "amount",
									"type": "uint256"
								}
							],
							"internalType": "struct DecentralizedMarketplace.CartItem[]",
							"name": "",
							"type": "tuple[]"
						}
					],
					"stateMutability": "view",
					"type": "function"
				},
				{
					"inputs": [],
					"name": "getCartLengh",
					"outputs": [
						{
							"internalType": "uint256",
							"name": "",
							"type": "uint256"
						}
					],
					"stateMutability": "view",
					"type": "function"
				},
				{
					"inputs": [
						{
							"internalType": "uint256",
							"name": "id",
							"type": "uint256"
						}
					],
					"name": "getGoodComment",
					"outputs": [
						{
							"components": [
								{
									"internalType": "string",
									"name": "name",
									"type": "string"
								},
								{
									"internalType": "string",
									"name": "comment",
									"type": "string"
								},
								{
									"internalType": "uint8",
									"name": "star",
									"type": "uint8"
								}
							],
							"internalType": "struct DecentralizedMarketplace.Comment[]",
							"name": "",
							"type": "tuple[]"
						}
					],
					"stateMutability": "view",
					"type": "function"
				},
				{
					"inputs": [],
					"name": "getGoodLengh",
					"outputs": [
						{
							"internalType": "uint256",
							"name": "",
							"type": "uint256"
						}
					],
					"stateMutability": "view",
					"type": "function"
				},
				{
					"inputs": [],
					"name": "getGoods",
					"outputs": [
						{
							"components": [
								{
									"internalType": "string",
									"name": "name",
									"type": "string"
								},
								{
									"internalType": "string",
									"name": "description",
									"type": "string"
								},
								{
									"internalType": "uint256",
									"name": "price",
									"type": "uint256"
								},
								{
									"internalType": "address",
									"name": "owner",
									"type": "address"
								},
								{
									"internalType": "uint256",
									"name": "amount",
									"type": "uint256"
								},
								{
									"components": [
										{
											"internalType": "string",
											"name": "name",
											"type": "string"
										},
										{
											"internalType": "string",
											"name": "comment",
											"type": "string"
										},
										{
											"internalType": "uint8",
											"name": "star",
											"type": "uint8"
										}
									],
									"internalType": "struct DecentralizedMarketplace.Comment[]",
									"name": "comment",
									"type": "tuple[]"
								},
								{
									"internalType": "bool",
									"name": "sellStatus",
									"type": "bool"
								},
								{
									"internalType": "string",
									"name": "image",
									"type": "string"
								},
								{
									"internalType": "address[]",
									"name": "buyBefore",
									"type": "address[]"
								},
								{
									"internalType": "string",
									"name": "categories",
									"type": "string"
								}
							],
							"internalType": "struct DecentralizedMarketplace.Good[]",
							"name": "",
							"type": "tuple[]"
						}
					],
					"stateMutability": "view",
					"type": "function"
				},
				{
					"inputs": [
						{
							"internalType": "uint256",
							"name": "",
							"type": "uint256"
						}
					],
					"name": "goods",
					"outputs": [
						{
							"internalType": "string",
							"name": "name",
							"type": "string"
						},
						{
							"internalType": "string",
							"name": "description",
							"type": "string"
						},
						{
							"internalType": "uint256",
							"name": "price",
							"type": "uint256"
						},
						{
							"internalType": "address",
							"name": "owner",
							"type": "address"
						},
						{
							"internalType": "uint256",
							"name": "amount",
							"type": "uint256"
						},
						{
							"internalType": "bool",
							"name": "sellStatus",
							"type": "bool"
						},
						{
							"internalType": "string",
							"name": "image",
							"type": "string"
						},
						{
							"internalType": "string",
							"name": "categories",
							"type": "string"
						}
					],
					"stateMutability": "view",
					"type": "function"
				},
				{
					"inputs": [
						{
							"internalType": "uint256",
							"name": "goodId",
							"type": "uint256"
						}
					],
					"name": "removeFromCart",
					"outputs": [],
					"stateMutability": "nonpayable",
					"type": "function"
				},
				{
					"inputs": [],
					"name": "setTestData",
					"outputs": [],
					"stateMutability": "nonpayable",
					"type": "function"
				},
				{
					"inputs": [
						{
							"internalType": "uint256",
							"name": "_goodID",
							"type": "uint256"
						},
						{
							"internalType": "string",
							"name": "_name",
							"type": "string"
						},
						{
							"internalType": "string",
							"name": "_description",
							"type": "string"
						},
						{
							"internalType": "uint256",
							"name": "_price",
							"type": "uint256"
						},
						{
							"internalType": "uint256",
							"name": "_amount",
							"type": "uint256"
						},
						{
							"internalType": "bool",
							"name": "_sellStatus",
							"type": "bool"
						},
						{
							"internalType": "string",
							"name": "_categories",
							"type": "string"
						},
						{
							"internalType": "string",
							"name": "_image",
							"type": "string"
						}
					],
					"name": "updateGood",
					"outputs": [],
					"stateMutability": "nonpayable",
					"type": "function"
				}
			],
			"devdoc": {
				"kind": "dev",
				"methods": {},
				"version": 1
			},
			"evm": {
				"assembly": "    /* \"DecentralizedMarketplace.sol\":2994:13443  contract DecentralizedMarketplace{... */\n  mstore(0x40, 0x80)\n    /* \"DecentralizedMarketplace.sol\":3034:3109  IERC20 public ercToken = IERC20(0x3cc603c0e3C897597ef4eFBf53B8fDd0ea900917) */\n  0x00\n  dup1\n  sload\n  not(sub(shl(0xa0, 0x01), 0x01))\n  swap1\n  dup2\n  and\n    /* \"DecentralizedMarketplace.sol\":3066:3108  0x3cc603c0e3C897597ef4eFBf53B8fDd0ea900917 */\n  0x3cc603c0e3c897597ef4efbf53b8fdd0ea900917\n    /* \"DecentralizedMarketplace.sol\":3034:3109  IERC20 public ercToken = IERC20(0x3cc603c0e3C897597ef4eFBf53B8fDd0ea900917) */\n  or\n  swap1\n  swap2\n  sstore\n  0x01\n    /* \"DecentralizedMarketplace.sol\":3133:3146  uint256 a = 1 */\n  dup1\n  sstore\n    /* \"DecentralizedMarketplace.sol\":3844:3910  address private owner = 0x9163f6f9A843827aB2fC1B0fBd95B7eF77763129 */\n  0x03\n  dup1\n  sload\n  swap1\n  swap2\n  and\n    /* \"DecentralizedMarketplace.sol\":3868:3910  0x9163f6f9A843827aB2fC1B0fBd95B7eF77763129 */\n  0x9163f6f9a843827ab2fc1b0fbd95b7ef77763129\n    /* \"DecentralizedMarketplace.sol\":3844:3910  address private owner = 0x9163f6f9A843827aB2fC1B0fBd95B7eF77763129 */\n  or\n  swap1\n  sstore\n    /* \"DecentralizedMarketplace.sol\":2994:13443  contract DecentralizedMarketplace{... */\n  callvalue\n  dup1\n  iszero\n  tag_1\n  jumpi\n  0x00\n  dup1\n  revert\ntag_1:\n  pop\n  dataSize(sub_0)\n  dup1\n  dataOffset(sub_0)\n  0x00\n  codecopy\n  0x00\n  return\nstop\n\nsub_0: assembly {\n        /* \"DecentralizedMarketplace.sol\":2994:13443  contract DecentralizedMarketplace{... */\n      mstore(0x40, 0x80)\n      callvalue\n      dup1\n      iszero\n      tag_1\n      jumpi\n      0x00\n      dup1\n      revert\n    tag_1:\n      pop\n      jumpi(tag_2, lt(calldatasize, 0x04))\n      shr(0xe0, calldataload(0x00))\n      dup1\n      0x6c4bb39f\n      gt\n      tag_20\n      jumpi\n      dup1\n      0x92045cae\n      gt\n      tag_21\n      jumpi\n      dup1\n      0x92045cae\n      eq\n      tag_15\n      jumpi\n      dup1\n      0x9b44f940\n      eq\n      tag_16\n      jumpi\n      dup1\n      0xb6b9e3ee\n      eq\n      tag_17\n      jumpi\n      dup1\n      0xca29610e\n      eq\n      tag_18\n      jumpi\n      dup1\n      0xde43b595\n      eq\n      tag_19\n      jumpi\n      0x00\n      dup1\n      revert\n    tag_21:\n      dup1\n      0x6c4bb39f\n      eq\n      tag_11\n      jumpi\n      dup1\n      0x7f2f767e\n      eq\n      tag_12\n      jumpi\n      dup1\n      0x8b1a2d52\n      eq\n      tag_13\n      jumpi\n      dup1\n      0x8c057204\n      eq\n      tag_14\n      jumpi\n      0x00\n      dup1\n      revert\n    tag_20:\n      dup1\n      0x36777a4a\n      gt\n      tag_22\n      jumpi\n      dup1\n      0x36777a4a\n      eq\n      tag_7\n      jumpi\n      dup1\n      0x38687bfd\n      eq\n      tag_8\n      jumpi\n      dup1\n      0x3ab9bbb6\n      eq\n      tag_9\n      jumpi\n      dup1\n      0x565f717d\n      eq\n      tag_10\n      jumpi\n      0x00\n      dup1\n      revert\n    tag_22:\n      dup1\n      0x01d1d3da\n      eq\n      tag_3\n      jumpi\n      dup1\n      0x17e31e28\n      eq\n      tag_4\n      jumpi\n      dup1\n      0x21627dad\n      eq\n      tag_5\n      jumpi\n      dup1\n      0x2f724394\n      eq\n      tag_6\n      jumpi\n    tag_2:\n      0x00\n      dup1\n      revert\n        /* \"DecentralizedMarketplace.sol\":11122:11788  function updateGood(... */\n    tag_3:\n      tag_23\n      tag_24\n      calldatasize\n      0x04\n      tag_25\n      jump\t// in\n    tag_24:\n      tag_26\n      jump\t// in\n    tag_23:\n      stop\n        /* \"DecentralizedMarketplace.sol\":7503:8296  function buyGood(uint256 _goodID, uint256 _amount) public  {... */\n    tag_4:\n      tag_23\n      tag_28\n      calldatasize\n      0x04\n      tag_29\n      jump\t// in\n    tag_28:\n      tag_30\n      jump\t// in\n        /* \"DecentralizedMarketplace.sol\":4886:4989  function getCart() public view  returns (CartItem[] memory) {... */\n    tag_5:\n      tag_31\n      tag_32\n      jump\t// in\n    tag_31:\n      mload(0x40)\n      tag_33\n      swap2\n      swap1\n      tag_34\n      jump\t// in\n    tag_33:\n      mload(0x40)\n      dup1\n      swap2\n      sub\n      swap1\n      return\n        /* \"DecentralizedMarketplace.sol\":3818:3837  Good[] public goods */\n    tag_6:\n      tag_35\n      tag_36\n      calldatasize\n      0x04\n      tag_37\n      jump\t// in\n    tag_36:\n      tag_38\n      jump\t// in\n    tag_35:\n      mload(0x40)\n      tag_33\n      swap9\n      swap8\n      swap7\n      swap6\n      swap5\n      swap4\n      swap3\n      swap2\n      swap1\n      tag_40\n      jump\t// in\n        /* \"DecentralizedMarketplace.sol\":5928:6623  function addGood(... */\n    tag_7:\n      tag_23\n      tag_42\n      calldatasize\n      0x04\n      tag_43\n      jump\t// in\n    tag_42:\n      tag_44\n      jump\t// in\n        /* \"DecentralizedMarketplace.sol\":4672:4765  function getGoodLengh() public view  returns (uint256) {... */\n    tag_8:\n        /* \"DecentralizedMarketplace.sol\":4745:4750  goods */\n      0x02\n        /* \"DecentralizedMarketplace.sol\":4745:4757  goods.length */\n      sload\n        /* \"DecentralizedMarketplace.sol\":4672:4765  function getGoodLengh() public view  returns (uint256) {... */\n    tag_45:\n      mload(0x40)\n        /* \"#utility.yul\":6600:6625   */\n      swap1\n      dup2\n      mstore\n        /* \"#utility.yul\":6588:6590   */\n      0x20\n        /* \"#utility.yul\":6573:6591   */\n      add\n        /* \"DecentralizedMarketplace.sol\":4672:4765  function getGoodLengh() public view  returns (uint256) {... */\n      tag_33\n        /* \"#utility.yul\":6454:6631   */\n      jump\n        /* \"DecentralizedMarketplace.sol\":6678:7495  function addToCart(uint256 goodId, uint256 amount) public {... */\n    tag_9:\n      tag_23\n      tag_50\n      calldatasize\n      0x04\n      tag_29\n      jump\t// in\n    tag_50:\n      tag_51\n      jump\t// in\n        /* \"DecentralizedMarketplace.sol\":4427:4546  function getGoodComment(uint256 id) public view  returns (Comment[] memory) {... */\n    tag_10:\n      tag_52\n      tag_53\n      calldatasize\n      0x04\n      tag_37\n      jump\t// in\n    tag_53:\n      tag_54\n      jump\t// in\n    tag_52:\n      mload(0x40)\n      tag_33\n      swap2\n      swap1\n      tag_56\n      jump\t// in\n        /* \"DecentralizedMarketplace.sol\":9520:11114  function cartCheckOut(uint256[] memory items) public {... */\n    tag_11:\n      tag_23\n      tag_58\n      calldatasize\n      0x04\n      tag_59\n      jump\t// in\n    tag_58:\n      tag_60\n      jump\t// in\n        /* \"DecentralizedMarketplace.sol\":3034:3109  IERC20 public ercToken = IERC20(0x3cc603c0e3C897597ef4eFBf53B8fDd0ea900917) */\n    tag_12:\n      sload(0x00)\n      tag_61\n      swap1\n      sub(shl(0xa0, 0x01), 0x01)\n      and\n      dup2\n      jump\n    tag_61:\n      mload(0x40)\n      sub(shl(0xa0, 0x01), 0x01)\n        /* \"#utility.yul\":9153:9185   */\n      swap1\n      swap2\n      and\n        /* \"#utility.yul\":9135:9186   */\n      dup2\n      mstore\n        /* \"#utility.yul\":9123:9125   */\n      0x20\n        /* \"#utility.yul\":9108:9126   */\n      add\n        /* \"DecentralizedMarketplace.sol\":3034:3109  IERC20 public ercToken = IERC20(0x3cc603c0e3C897597ef4eFBf53B8fDd0ea900917) */\n      tag_33\n        /* \"#utility.yul\":8976:9192   */\n      jump\n        /* \"DecentralizedMarketplace.sol\":3961:4004  mapping(address => CartItem[]) public carts */\n    tag_13:\n      tag_65\n      tag_66\n      calldatasize\n      0x04\n      tag_67\n      jump\t// in\n    tag_66:\n      tag_68\n      jump\t// in\n    tag_65:\n      0x40\n      dup1\n      mload\n        /* \"#utility.yul\":9730:9755   */\n      swap3\n      dup4\n      mstore\n        /* \"#utility.yul\":9786:9788   */\n      0x20\n        /* \"#utility.yul\":9771:9789   */\n      dup4\n      add\n        /* \"#utility.yul\":9764:9798   */\n      swap2\n      swap1\n      swap2\n      mstore\n        /* \"#utility.yul\":9703:9721   */\n      add\n        /* \"DecentralizedMarketplace.sol\":3961:4004  mapping(address => CartItem[]) public carts */\n      tag_33\n        /* \"#utility.yul\":9556:9804   */\n      jump\n        /* \"DecentralizedMarketplace.sol\":8950:9459  function getBuyTotalPrice(uint256[] memory items) public view returns (uint256){... */\n    tag_14:\n      tag_45\n      tag_72\n      calldatasize\n      0x04\n      tag_59\n      jump\t// in\n    tag_72:\n      tag_73\n      jump\t// in\n        /* \"DecentralizedMarketplace.sol\":4773:4878  function getCartLengh() public view  returns (uint256) {... */\n    tag_15:\n        /* \"DecentralizedMarketplace.sol\":4852:4862  msg.sender */\n      caller\n        /* \"DecentralizedMarketplace.sol\":4819:4826  uint256 */\n      0x00\n        /* \"DecentralizedMarketplace.sol\":4846:4863  carts[msg.sender] */\n      swap1\n      dup2\n      mstore\n        /* \"DecentralizedMarketplace.sol\":4846:4851  carts */\n      0x04\n        /* \"DecentralizedMarketplace.sol\":4846:4863  carts[msg.sender] */\n      0x20\n      mstore\n      0x40\n      swap1\n      keccak256\n        /* \"DecentralizedMarketplace.sol\":4846:4870  carts[msg.sender].length */\n      sload\n        /* \"DecentralizedMarketplace.sol\":4773:4878  function getCartLengh() public view  returns (uint256) {... */\n      jump(tag_45)\n        /* \"DecentralizedMarketplace.sol\":4576:4664  function getGoods() public view  returns (Good[] memory) {... */\n    tag_16:\n      tag_78\n      tag_79\n      jump\t// in\n    tag_78:\n      mload(0x40)\n      tag_33\n      swap2\n      swap1\n      tag_81\n      jump\t// in\n        /* \"DecentralizedMarketplace.sol\":11796:12760  function setTestData() public {... */\n    tag_17:\n      tag_23\n      tag_83\n      jump\t// in\n        /* \"DecentralizedMarketplace.sol\":8353:8942  function removeFromCart(uint256 goodId) public {... */\n    tag_18:\n      tag_23\n      tag_85\n      calldatasize\n      0x04\n      tag_37\n      jump\t// in\n    tag_85:\n      tag_86\n      jump\t// in\n        /* \"DecentralizedMarketplace.sol\":5039:5881  function addComment(string memory _name, string memory _comment, uint8 _star, uint256 goodID) public {... */\n    tag_19:\n      tag_23\n      tag_88\n      calldatasize\n      0x04\n      tag_89\n      jump\t// in\n    tag_88:\n      tag_90\n      jump\t// in\n        /* \"DecentralizedMarketplace.sol\":11122:11788  function updateGood(... */\n    tag_26:\n        /* \"DecentralizedMarketplace.sol\":11501:11506  _name */\n      dup7\n        /* \"DecentralizedMarketplace.sol\":11479:11484  goods */\n      0x02\n        /* \"DecentralizedMarketplace.sol\":11485:11492  _goodID */\n      dup10\n        /* \"DecentralizedMarketplace.sol\":11479:11493  goods[_goodID] */\n      dup2\n      sload\n      dup2\n      lt\n      tag_93\n      jumpi\n      tag_93\n      tag_94\n      jump\t// in\n    tag_93:\n      swap1\n      0x00\n      mstore\n      keccak256(0x00, 0x20)\n      swap1\n      0x0a\n      mul\n      add\n        /* \"DecentralizedMarketplace.sol\":11479:11498  goods[_goodID].name */\n      0x00\n      add\n        /* \"DecentralizedMarketplace.sol\":11479:11506  goods[_goodID].name = _name */\n      swap1\n      dup2\n      tag_96\n      swap2\n      swap1\n      tag_97\n      jump\t// in\n    tag_96:\n      pop\n        /* \"DecentralizedMarketplace.sol\":11546:11558  _description */\n      dup6\n        /* \"DecentralizedMarketplace.sol\":11517:11522  goods */\n      0x02\n        /* \"DecentralizedMarketplace.sol\":11523:11530  _goodID */\n      dup10\n        /* \"DecentralizedMarketplace.sol\":11517:11531  goods[_goodID] */\n      dup2\n      sload\n      dup2\n      lt\n      tag_99\n      jumpi\n      tag_99\n      tag_94\n      jump\t// in\n    tag_99:\n      swap1\n      0x00\n      mstore\n      keccak256(0x00, 0x20)\n      swap1\n      0x0a\n      mul\n      add\n        /* \"DecentralizedMarketplace.sol\":11517:11543  goods[_goodID].description */\n      0x01\n      add\n        /* \"DecentralizedMarketplace.sol\":11517:11558  goods[_goodID].description = _description */\n      swap1\n      dup2\n      tag_101\n      swap2\n      swap1\n      tag_97\n      jump\t// in\n    tag_101:\n      pop\n        /* \"DecentralizedMarketplace.sol\":11592:11598  _price */\n      dup5\n        /* \"DecentralizedMarketplace.sol\":11569:11574  goods */\n      0x02\n        /* \"DecentralizedMarketplace.sol\":11575:11582  _goodID */\n      dup10\n        /* \"DecentralizedMarketplace.sol\":11569:11583  goods[_goodID] */\n      dup2\n      sload\n      dup2\n      lt\n      tag_103\n      jumpi\n      tag_103\n      tag_94\n      jump\t// in\n    tag_103:\n      swap1\n      0x00\n      mstore\n      keccak256(0x00, 0x20)\n      swap1\n      0x0a\n      mul\n      add\n        /* \"DecentralizedMarketplace.sol\":11569:11589  goods[_goodID].price */\n      0x02\n      add\n        /* \"DecentralizedMarketplace.sol\":11569:11598  goods[_goodID].price = _price */\n      dup2\n      swap1\n      sstore\n      pop\n        /* \"DecentralizedMarketplace.sol\":11633:11640  _amount */\n      dup4\n        /* \"DecentralizedMarketplace.sol\":11609:11614  goods */\n      0x02\n        /* \"DecentralizedMarketplace.sol\":11615:11622  _goodID */\n      dup10\n        /* \"DecentralizedMarketplace.sol\":11609:11623  goods[_goodID] */\n      dup2\n      sload\n      dup2\n      lt\n      tag_106\n      jumpi\n      tag_106\n      tag_94\n      jump\t// in\n    tag_106:\n      swap1\n      0x00\n      mstore\n      keccak256(0x00, 0x20)\n      swap1\n      0x0a\n      mul\n      add\n        /* \"DecentralizedMarketplace.sol\":11609:11630  goods[_goodID].amount */\n      0x04\n      add\n        /* \"DecentralizedMarketplace.sol\":11609:11640  goods[_goodID].amount = _amount */\n      dup2\n      swap1\n      sstore\n      pop\n        /* \"DecentralizedMarketplace.sol\":11679:11690  _sellStatus */\n      dup3\n        /* \"DecentralizedMarketplace.sol\":11651:11656  goods */\n      0x02\n        /* \"DecentralizedMarketplace.sol\":11657:11664  _goodID */\n      dup10\n        /* \"DecentralizedMarketplace.sol\":11651:11665  goods[_goodID] */\n      dup2\n      sload\n      dup2\n      lt\n      tag_109\n      jumpi\n      tag_109\n      tag_94\n      jump\t// in\n    tag_109:\n      swap1\n      0x00\n      mstore\n      keccak256(0x00, 0x20)\n      swap1\n      0x0a\n      mul\n      add\n        /* \"DecentralizedMarketplace.sol\":11651:11676  goods[_goodID].sellStatus */\n      0x06\n      add\n      0x00\n        /* \"DecentralizedMarketplace.sol\":11651:11690  goods[_goodID].sellStatus = _sellStatus */\n      0x0100\n      exp\n      dup2\n      sload\n      dup2\n      0xff\n      mul\n      not\n      and\n      swap1\n      dup4\n      iszero\n      iszero\n      mul\n      or\n      swap1\n      sstore\n      pop\n        /* \"DecentralizedMarketplace.sol\":11729:11740  _categories */\n      dup2\n        /* \"DecentralizedMarketplace.sol\":11701:11706  goods */\n      0x02\n        /* \"DecentralizedMarketplace.sol\":11707:11714  _goodID */\n      dup10\n        /* \"DecentralizedMarketplace.sol\":11701:11715  goods[_goodID] */\n      dup2\n      sload\n      dup2\n      lt\n      tag_112\n      jumpi\n      tag_112\n      tag_94\n      jump\t// in\n    tag_112:\n      swap1\n      0x00\n      mstore\n      keccak256(0x00, 0x20)\n      swap1\n      0x0a\n      mul\n      add\n        /* \"DecentralizedMarketplace.sol\":11701:11726  goods[_goodID].categories */\n      0x09\n      add\n        /* \"DecentralizedMarketplace.sol\":11701:11740  goods[_goodID].categories = _categories */\n      swap1\n      dup2\n      tag_114\n      swap2\n      swap1\n      tag_97\n      jump\t// in\n    tag_114:\n      pop\n        /* \"DecentralizedMarketplace.sol\":11774:11780  _image */\n      dup1\n        /* \"DecentralizedMarketplace.sol\":11751:11756  goods */\n      0x02\n        /* \"DecentralizedMarketplace.sol\":11757:11764  _goodID */\n      dup10\n        /* \"DecentralizedMarketplace.sol\":11751:11765  goods[_goodID] */\n      dup2\n      sload\n      dup2\n      lt\n      tag_116\n      jumpi\n      tag_116\n      tag_94\n      jump\t// in\n    tag_116:\n      swap1\n      0x00\n      mstore\n      keccak256(0x00, 0x20)\n      swap1\n      0x0a\n      mul\n      add\n        /* \"DecentralizedMarketplace.sol\":11751:11771  goods[_goodID].image */\n      0x07\n      add\n        /* \"DecentralizedMarketplace.sol\":11751:11780  goods[_goodID].image = _image */\n      swap1\n      dup2\n      tag_118\n      swap2\n      swap1\n      tag_97\n      jump\t// in\n    tag_118:\n      pop\n        /* \"DecentralizedMarketplace.sol\":11122:11788  function updateGood(... */\n      pop\n      pop\n      pop\n      pop\n      pop\n      pop\n      pop\n      pop\n      jump\t// out\n        /* \"DecentralizedMarketplace.sol\":7503:8296  function buyGood(uint256 _goodID, uint256 _amount) public  {... */\n    tag_30:\n        /* \"DecentralizedMarketplace.sol\":7652:7657  goods */\n      0x02\n        /* \"DecentralizedMarketplace.sol\":7658:7665  _goodID */\n      dup3\n        /* \"DecentralizedMarketplace.sol\":7652:7666  goods[_goodID] */\n      dup2\n      sload\n      dup2\n      lt\n      tag_121\n      jumpi\n      tag_121\n      tag_94\n      jump\t// in\n    tag_121:\n      swap1\n      0x00\n      mstore\n      keccak256(0x00, 0x20)\n      swap1\n      0x0a\n      mul\n      add\n        /* \"DecentralizedMarketplace.sol\":7652:7672  goods[_goodID].price */\n      0x02\n      add\n      sload\n        /* \"DecentralizedMarketplace.sol\":7644:7651  _amount */\n      dup2\n        /* \"DecentralizedMarketplace.sol\":7644:7672  _amount*goods[_goodID].price */\n      tag_123\n      swap2\n      swap1\n      tag_124\n      jump\t// in\n    tag_123:\n        /* \"DecentralizedMarketplace.sol\":7610:7618  ercToken */\n      sload(0x00)\n        /* \"DecentralizedMarketplace.sol\":7610:7640  ercToken.balanceOf(msg.sender) */\n      mload(0x40)\n      shl(0xe0, 0x70a08231)\n      dup2\n      mstore\n        /* \"DecentralizedMarketplace.sol\":7629:7639  msg.sender */\n      caller\n        /* \"DecentralizedMarketplace.sol\":7610:7640  ercToken.balanceOf(msg.sender) */\n      0x04\n      dup3\n      add\n        /* \"#utility.yul\":9135:9186   */\n      mstore\n      sub(shl(0xa0, 0x01), 0x01)\n        /* \"DecentralizedMarketplace.sol\":7610:7618  ercToken */\n      swap1\n      swap2\n      and\n      swap1\n        /* \"DecentralizedMarketplace.sol\":7610:7628  ercToken.balanceOf */\n      0x70a08231\n      swap1\n        /* \"#utility.yul\":9108:9126   */\n      0x24\n      add\n        /* \"DecentralizedMarketplace.sol\":7610:7640  ercToken.balanceOf(msg.sender) */\n      0x20\n      mload(0x40)\n      dup1\n      dup4\n      sub\n      dup2\n      dup7\n      gas\n      staticcall\n      iszero\n      dup1\n      iszero\n      tag_128\n      jumpi\n      returndatasize\n      0x00\n      dup1\n      returndatacopy\n      revert(0x00, returndatasize)\n    tag_128:\n      pop\n      pop\n      pop\n      pop\n      mload(0x40)\n      returndatasize\n      not(0x1f)\n      0x1f\n      dup3\n      add\n      and\n      dup3\n      add\n      dup1\n      0x40\n      mstore\n      pop\n      dup2\n      add\n      swap1\n      tag_129\n      swap2\n      swap1\n      tag_130\n      jump\t// in\n    tag_129:\n        /* \"DecentralizedMarketplace.sol\":7610:7672  ercToken.balanceOf(msg.sender) >= _amount*goods[_goodID].price */\n      lt\n      iszero\n        /* \"DecentralizedMarketplace.sol\":7602:7704  require(ercToken.balanceOf(msg.sender) >= _amount*goods[_goodID].price,\"balance not enough buy step\" ) */\n      tag_131\n      jumpi\n      mload(0x40)\n      shl(0xe5, 0x461bcd)\n      dup2\n      mstore\n        /* \"#utility.yul\":17132:17134   */\n      0x20\n        /* \"DecentralizedMarketplace.sol\":7602:7704  require(ercToken.balanceOf(msg.sender) >= _amount*goods[_goodID].price,\"balance not enough buy step\" ) */\n      0x04\n      dup3\n      add\n        /* \"#utility.yul\":17114:17135   */\n      mstore\n        /* \"#utility.yul\":17171:17173   */\n      0x1b\n        /* \"#utility.yul\":17151:17169   */\n      0x24\n      dup3\n      add\n        /* \"#utility.yul\":17144:17174   */\n      mstore\n        /* \"#utility.yul\":17210:17239   */\n      0x62616c616e6365206e6f7420656e6f7567682062757920737465700000000000\n        /* \"#utility.yul\":17190:17208   */\n      0x44\n      dup3\n      add\n        /* \"#utility.yul\":17183:17240   */\n      mstore\n        /* \"#utility.yul\":17257:17275   */\n      0x64\n      add\n        /* \"DecentralizedMarketplace.sol\":7602:7704  require(ercToken.balanceOf(msg.sender) >= _amount*goods[_goodID].price,\"balance not enough buy step\" ) */\n    tag_132:\n      mload(0x40)\n      dup1\n      swap2\n      sub\n      swap1\n      revert\n    tag_131:\n        /* \"DecentralizedMarketplace.sol\":7762:7767  goods */\n      0x02\n        /* \"DecentralizedMarketplace.sol\":7768:7775  _goodID */\n      dup3\n        /* \"DecentralizedMarketplace.sol\":7762:7776  goods[_goodID] */\n      dup2\n      sload\n      dup2\n      lt\n      tag_135\n      jumpi\n      tag_135\n      tag_94\n      jump\t// in\n    tag_135:\n      0x00\n      swap2\n      dup3\n      mstore\n      0x20\n      swap1\n      swap2\n      keccak256\n        /* \"DecentralizedMarketplace.sol\":7762:7787  goods[_goodID].sellStatus */\n      0x06\n        /* \"DecentralizedMarketplace.sol\":7762:7776  goods[_goodID] */\n      0x0a\n      swap1\n      swap3\n      mul\n      add\n        /* \"DecentralizedMarketplace.sol\":7762:7787  goods[_goodID].sellStatus */\n      add\n      sload\n      0xff\n      and\n        /* \"DecentralizedMarketplace.sol\":7762:7795  goods[_goodID].sellStatus == true */\n      iszero\n      iszero\n        /* \"DecentralizedMarketplace.sol\":7762:7787  goods[_goodID].sellStatus */\n      0x01\n        /* \"DecentralizedMarketplace.sol\":7762:7795  goods[_goodID].sellStatus == true */\n      eq\n        /* \"DecentralizedMarketplace.sol\":7754:7828  require(goods[_goodID].sellStatus == true, \"this good is unavaliable now\") */\n      tag_137\n      jumpi\n      mload(0x40)\n      shl(0xe5, 0x461bcd)\n      dup2\n      mstore\n        /* \"#utility.yul\":17488:17490   */\n      0x20\n        /* \"DecentralizedMarketplace.sol\":7754:7828  require(goods[_goodID].sellStatus == true, \"this good is unavaliable now\") */\n      0x04\n      dup3\n      add\n        /* \"#utility.yul\":17470:17491   */\n      mstore\n        /* \"#utility.yul\":17527:17529   */\n      0x1c\n        /* \"#utility.yul\":17507:17525   */\n      0x24\n      dup3\n      add\n        /* \"#utility.yul\":17500:17530   */\n      mstore\n        /* \"#utility.yul\":17566:17596   */\n      0x7468697320676f6f6420697320756e6176616c6961626c65206e6f7700000000\n        /* \"#utility.yul\":17546:17564   */\n      0x44\n      dup3\n      add\n        /* \"#utility.yul\":17539:17597   */\n      mstore\n        /* \"#utility.yul\":17614:17632   */\n      0x64\n      add\n        /* \"DecentralizedMarketplace.sol\":7754:7828  require(goods[_goodID].sellStatus == true, \"this good is unavaliable now\") */\n      tag_132\n        /* \"#utility.yul\":17286:17638   */\n      jump\n        /* \"DecentralizedMarketplace.sol\":7754:7828  require(goods[_goodID].sellStatus == true, \"this good is unavaliable now\") */\n    tag_137:\n        /* \"DecentralizedMarketplace.sol\":7883:7884  0 */\n      0x00\n        /* \"DecentralizedMarketplace.sol\":7872:7879  _amount */\n      dup2\n        /* \"DecentralizedMarketplace.sol\":7848:7853  goods */\n      0x02\n        /* \"DecentralizedMarketplace.sol\":7854:7861  _goodID */\n      dup5\n        /* \"DecentralizedMarketplace.sol\":7848:7862  goods[_goodID] */\n      dup2\n      sload\n      dup2\n      lt\n      tag_141\n      jumpi\n      tag_141\n      tag_94\n      jump\t// in\n    tag_141:\n      swap1\n      0x00\n      mstore\n      keccak256(0x00, 0x20)\n      swap1\n      0x0a\n      mul\n      add\n        /* \"DecentralizedMarketplace.sol\":7848:7869  goods[_goodID].amount */\n      0x04\n      add\n      sload\n        /* \"DecentralizedMarketplace.sol\":7848:7879  goods[_goodID].amount - _amount */\n      tag_143\n      swap2\n      swap1\n      tag_144\n      jump\t// in\n    tag_143:\n        /* \"DecentralizedMarketplace.sol\":7848:7884  goods[_goodID].amount - _amount >= 0 */\n      lt\n      iszero\n        /* \"DecentralizedMarketplace.sol\":7927:7932  goods */\n      0x02\n        /* \"DecentralizedMarketplace.sol\":7933:7940  _goodID */\n      dup4\n        /* \"DecentralizedMarketplace.sol\":7927:7941  goods[_goodID] */\n      dup2\n      sload\n      dup2\n      lt\n      tag_146\n      jumpi\n      tag_146\n      tag_94\n      jump\t// in\n    tag_146:\n      swap1\n      0x00\n      mstore\n      keccak256(0x00, 0x20)\n      swap1\n      0x0a\n      mul\n      add\n        /* \"DecentralizedMarketplace.sol\":7927:7948  goods[_goodID].amount */\n      0x04\n      add\n      sload\n        /* \"DecentralizedMarketplace.sol\":7893:7949  abi.encodePacked(\" Only remain \", goods[_goodID].amount) */\n      add(0x20, mload(0x40))\n      tag_148\n      swap2\n      swap1\n      shl(0x9d, 0x01027b7363c903932b6b0b4b71)\n        /* \"#utility.yul\":18006:18034   */\n      dup2\n      mstore\n        /* \"#utility.yul\":18059:18061   */\n      0x0d\n        /* \"#utility.yul\":18050:18062   */\n      dup2\n      add\n        /* \"#utility.yul\":18043:18071   */\n      swap2\n      swap1\n      swap2\n      mstore\n        /* \"#utility.yul\":18096:18098   */\n      0x2d\n        /* \"#utility.yul\":18087:18099   */\n      add\n      swap1\n        /* \"#utility.yul\":17776:18105   */\n      jump\n        /* \"DecentralizedMarketplace.sol\":7893:7949  abi.encodePacked(\" Only remain \", goods[_goodID].amount) */\n    tag_148:\n      mload(0x40)\n      0x20\n      dup2\n      dup4\n      sub\n      sub\n      dup2\n      mstore\n      swap1\n      0x40\n      mstore\n        /* \"DecentralizedMarketplace.sol\":7839:7951  require( goods[_goodID].amount - _amount >= 0, string(abi.encodePacked(\" Only remain \", goods[_goodID].amount))) */\n      swap1\n      tag_150\n      jumpi\n      mload(0x40)\n      shl(0xe5, 0x461bcd)\n      dup2\n      mstore\n      0x04\n      add\n      tag_132\n      swap2\n      swap1\n      tag_152\n      jump\t// in\n    tag_150:\n      pop\n        /* \"DecentralizedMarketplace.sol\":7998:8006  ercToken */\n      sload(0x00)\n        /* \"DecentralizedMarketplace.sol\":8032:8037  goods */\n      0x02\n        /* \"DecentralizedMarketplace.sol\":8032:8046  goods[_goodID] */\n      dup1\n      sload\n      sub(shl(0xa0, 0x01), 0x01)\n        /* \"DecentralizedMarketplace.sol\":7998:8006  ercToken */\n      swap1\n      swap3\n      and\n      swap2\n        /* \"DecentralizedMarketplace.sol\":7998:8019  ercToken.transferFrom */\n      0x23b872dd\n      swap2\n        /* \"DecentralizedMarketplace.sol\":8020:8030  msg.sender */\n      caller\n      swap2\n        /* \"DecentralizedMarketplace.sol\":8038:8045  _goodID */\n      dup7\n      swap1\n        /* \"DecentralizedMarketplace.sol\":8032:8046  goods[_goodID] */\n      dup2\n      lt\n      tag_154\n      jumpi\n      tag_154\n      tag_94\n      jump\t// in\n    tag_154:\n      swap1\n      0x00\n      mstore\n      keccak256(0x00, 0x20)\n      swap1\n      0x0a\n      mul\n      add\n        /* \"DecentralizedMarketplace.sol\":8032:8052  goods[_goodID].owner */\n      0x03\n      add\n      0x00\n      swap1\n      sload\n      swap1\n      0x0100\n      exp\n      swap1\n      div\n      sub(shl(0xa0, 0x01), 0x01)\n      and\n        /* \"DecentralizedMarketplace.sol\":8062:8067  goods */\n      0x02\n        /* \"DecentralizedMarketplace.sol\":8068:8075  _goodID */\n      dup7\n        /* \"DecentralizedMarketplace.sol\":8062:8076  goods[_goodID] */\n      dup2\n      sload\n      dup2\n      lt\n      tag_157\n      jumpi\n      tag_157\n      tag_94\n      jump\t// in\n    tag_157:\n      swap1\n      0x00\n      mstore\n      keccak256(0x00, 0x20)\n      swap1\n      0x0a\n      mul\n      add\n        /* \"DecentralizedMarketplace.sol\":8062:8082  goods[_goodID].price */\n      0x02\n      add\n      sload\n        /* \"DecentralizedMarketplace.sol\":8054:8061  _amount */\n      dup6\n        /* \"DecentralizedMarketplace.sol\":8054:8082  _amount*goods[_goodID].price */\n      tag_159\n      swap2\n      swap1\n      tag_124\n      jump\t// in\n    tag_159:\n        /* \"DecentralizedMarketplace.sol\":7998:8083  ercToken.transferFrom(msg.sender, goods[_goodID].owner, _amount*goods[_goodID].price) */\n      mload(0x40)\n      not(sub(shl(0xe0, 0x01), 0x01))\n      0xe0\n      dup7\n      swap1\n      shl\n      and\n      dup2\n      mstore\n      sub(shl(0xa0, 0x01), 0x01)\n        /* \"#utility.yul\":18593:18608   */\n      swap4\n      dup5\n      and\n        /* \"DecentralizedMarketplace.sol\":7998:8083  ercToken.transferFrom(msg.sender, goods[_goodID].owner, _amount*goods[_goodID].price) */\n      0x04\n      dup3\n      add\n        /* \"#utility.yul\":18575:18609   */\n      mstore\n        /* \"#utility.yul\":18645:18660   */\n      swap3\n      swap1\n      swap2\n      and\n        /* \"#utility.yul\":18625:18643   */\n      0x24\n      dup4\n      add\n        /* \"#utility.yul\":18618:18661   */\n      mstore\n        /* \"#utility.yul\":18677:18695   */\n      0x44\n      dup3\n      add\n        /* \"#utility.yul\":18670:18704   */\n      mstore\n        /* \"#utility.yul\":18510:18528   */\n      0x64\n      add\n        /* \"DecentralizedMarketplace.sol\":7998:8083  ercToken.transferFrom(msg.sender, goods[_goodID].owner, _amount*goods[_goodID].price) */\n      0x20\n      mload(0x40)\n      dup1\n      dup4\n      sub\n      dup2\n      0x00\n      dup8\n      gas\n      call\n      iszero\n      dup1\n      iszero\n      tag_163\n      jumpi\n      returndatasize\n      0x00\n      dup1\n      returndatacopy\n      revert(0x00, returndatasize)\n    tag_163:\n      pop\n      pop\n      pop\n      pop\n      mload(0x40)\n      returndatasize\n      not(0x1f)\n      0x1f\n      dup3\n      add\n      and\n      dup3\n      add\n      dup1\n      0x40\n      mstore\n      pop\n      dup2\n      add\n      swap1\n      tag_164\n      swap2\n      swap1\n      tag_165\n      jump\t// in\n    tag_164:\n      pop\n        /* \"DecentralizedMarketplace.sol\":8119:8126  _amount */\n      dup1\n        /* \"DecentralizedMarketplace.sol\":8094:8099  goods */\n      0x02\n        /* \"DecentralizedMarketplace.sol\":8100:8107  _goodID */\n      dup4\n        /* \"DecentralizedMarketplace.sol\":8094:8108  goods[_goodID] */\n      dup2\n      sload\n      dup2\n      lt\n      tag_167\n      jumpi\n      tag_167\n      tag_94\n      jump\t// in\n    tag_167:\n      swap1\n      0x00\n      mstore\n      keccak256(0x00, 0x20)\n      swap1\n      0x0a\n      mul\n      add\n        /* \"DecentralizedMarketplace.sol\":8094:8115  goods[_goodID].amount */\n      0x04\n      add\n      0x00\n        /* \"DecentralizedMarketplace.sol\":8094:8126  goods[_goodID].amount -= _amount */\n      dup3\n      dup3\n      sload\n      tag_169\n      swap2\n      swap1\n      tag_144\n      jump\t// in\n    tag_169:\n      swap1\n      swap2\n      sstore\n      pop\n      pop\n        /* \"DecentralizedMarketplace.sol\":8140:8145  goods */\n      0x02\n        /* \"DecentralizedMarketplace.sol\":8140:8154  goods[_goodID] */\n      dup1\n      sload\n        /* \"DecentralizedMarketplace.sol\":8146:8153  _goodID */\n      dup4\n      swap1\n        /* \"DecentralizedMarketplace.sol\":8140:8154  goods[_goodID] */\n      dup2\n      lt\n      tag_171\n      jumpi\n      tag_171\n      tag_94\n      jump\t// in\n    tag_171:\n      swap1\n      0x00\n      mstore\n      keccak256(0x00, 0x20)\n      swap1\n      0x0a\n      mul\n      add\n        /* \"DecentralizedMarketplace.sol\":8140:8161  goods[_goodID].amount */\n      0x04\n      add\n      sload\n        /* \"DecentralizedMarketplace.sol\":8165:8166  0 */\n      0x00\n        /* \"DecentralizedMarketplace.sol\":8140:8166  goods[_goodID].amount == 0 */\n      sub\n        /* \"DecentralizedMarketplace.sol\":8137:8227  if(goods[_goodID].amount == 0){... */\n      tag_173\n      jumpi\n        /* \"DecentralizedMarketplace.sol\":8210:8215  false */\n      0x00\n        /* \"DecentralizedMarketplace.sol\":8182:8187  goods */\n      0x02\n        /* \"DecentralizedMarketplace.sol\":8188:8195  _goodID */\n      dup4\n        /* \"DecentralizedMarketplace.sol\":8182:8196  goods[_goodID] */\n      dup2\n      sload\n      dup2\n      lt\n      tag_175\n      jumpi\n      tag_175\n      tag_94\n      jump\t// in\n    tag_175:\n      0x00\n      swap2\n      dup3\n      mstore\n      0x20\n      swap1\n      swap2\n      keccak256\n      0x0a\n      swap1\n      swap2\n      mul\n      add\n        /* \"DecentralizedMarketplace.sol\":8182:8207  goods[_goodID].sellStatus */\n      0x06\n      add\n        /* \"DecentralizedMarketplace.sol\":8182:8215  goods[_goodID].sellStatus = false */\n      dup1\n      sload\n      not(0xff)\n      and\n      swap2\n      iszero\n      iszero\n      swap2\n      swap1\n      swap2\n      or\n      swap1\n      sstore\n        /* \"DecentralizedMarketplace.sol\":8137:8227  if(goods[_goodID].amount == 0){... */\n    tag_173:\n        /* \"DecentralizedMarketplace.sol\":8237:8242  goods */\n      0x02\n        /* \"DecentralizedMarketplace.sol\":8243:8250  _goodID */\n      dup3\n        /* \"DecentralizedMarketplace.sol\":8237:8251  goods[_goodID] */\n      dup2\n      sload\n      dup2\n      lt\n      tag_178\n      jumpi\n      tag_178\n      tag_94\n      jump\t// in\n    tag_178:\n      0x00\n      swap2\n      dup3\n      mstore\n      0x20\n      dup1\n      dup4\n      keccak256\n        /* \"DecentralizedMarketplace.sol\":8237:8261  goods[_goodID].buyBefore */\n      0x08\n        /* \"DecentralizedMarketplace.sol\":8237:8251  goods[_goodID] */\n      0x0a\n      swap1\n      swap4\n      mul\n      add\n        /* \"DecentralizedMarketplace.sol\":8237:8261  goods[_goodID].buyBefore */\n      swap2\n      swap1\n      swap2\n      add\n        /* \"DecentralizedMarketplace.sol\":8237:8278  goods[_goodID].buyBefore.push(msg.sender) */\n      dup1\n      sload\n      0x01\n      dup2\n      add\n      dup3\n      sstore\n      swap1\n      dup4\n      mstore\n      swap2\n      keccak256\n      add\n      dup1\n      sload\n      not(sub(shl(0xa0, 0x01), 0x01))\n      and\n        /* \"DecentralizedMarketplace.sol\":8267:8277  msg.sender */\n      caller\n        /* \"DecentralizedMarketplace.sol\":8237:8278  goods[_goodID].buyBefore.push(msg.sender) */\n      or\n      swap1\n      sstore\n      pop\n      pop\n        /* \"DecentralizedMarketplace.sol\":7503:8296  function buyGood(uint256 _goodID, uint256 _amount) public  {... */\n      jump\t// out\n        /* \"DecentralizedMarketplace.sol\":4886:4989  function getCart() public view  returns (CartItem[] memory) {... */\n    tag_32:\n        /* \"DecentralizedMarketplace.sol\":4970:4980  msg.sender */\n      caller\n        /* \"DecentralizedMarketplace.sol\":4964:4981  carts[msg.sender] */\n      0x00\n      swap1\n      dup2\n      mstore\n        /* \"DecentralizedMarketplace.sol\":4964:4969  carts */\n      0x04\n        /* \"DecentralizedMarketplace.sol\":4964:4981  carts[msg.sender] */\n      0x20\n      swap1\n      dup2\n      mstore\n      0x40\n      dup1\n      dup4\n      keccak256\n        /* \"DecentralizedMarketplace.sol\":4957:4981  return carts[msg.sender] */\n      dup1\n      sload\n      dup3\n      mload\n      dup2\n      dup6\n      mul\n      dup2\n      add\n      dup6\n      add\n      swap1\n      swap4\n      mstore\n      dup1\n      dup4\n      mstore\n        /* \"DecentralizedMarketplace.sol\":4927:4944  CartItem[] memory */\n      0x60\n      swap5\n        /* \"DecentralizedMarketplace.sol\":4957:4981  return carts[msg.sender] */\n      swap3\n      swap4\n        /* \"DecentralizedMarketplace.sol\":4964:4981  carts[msg.sender] */\n      swap2\n      swap3\n        /* \"DecentralizedMarketplace.sol\":4957:4981  return carts[msg.sender] */\n      swap1\n      swap2\n      dup5\n      add\n    tag_182:\n      dup3\n      dup3\n      lt\n      iszero\n      tag_183\n      jumpi\n      dup4\n      dup3\n      swap1\n      0x00\n      mstore\n      keccak256(0x00, 0x20)\n      swap1\n      0x02\n      mul\n      add\n      mload(0x40)\n      dup1\n      0x40\n      add\n      0x40\n      mstore\n      swap1\n      dup2\n      0x00\n      dup3\n      add\n      sload\n      dup2\n      mstore\n      0x20\n      add\n      0x01\n      dup3\n      add\n      sload\n      dup2\n      mstore\n      pop\n      pop\n      dup2\n      mstore\n      0x20\n      add\n      swap1\n      0x01\n      add\n      swap1\n      jump(tag_182)\n    tag_183:\n      pop\n      pop\n      pop\n      pop\n      swap1\n      pop\n        /* \"DecentralizedMarketplace.sol\":4886:4989  function getCart() public view  returns (CartItem[] memory) {... */\n      swap1\n      jump\t// out\n        /* \"DecentralizedMarketplace.sol\":3818:3837  Good[] public goods */\n    tag_38:\n      0x02\n      dup2\n      dup2\n      sload\n      dup2\n      lt\n      tag_185\n      jumpi\n      0x00\n      dup1\n      revert\n    tag_185:\n      swap1\n      0x00\n      mstore\n      keccak256(0x00, 0x20)\n      swap1\n      0x0a\n      mul\n      add\n      0x00\n      swap2\n      pop\n      swap1\n      pop\n      dup1\n      0x00\n      add\n      dup1\n      sload\n      tag_187\n      swap1\n      tag_188\n      jump\t// in\n    tag_187:\n      dup1\n      0x1f\n      add\n      0x20\n      dup1\n      swap2\n      div\n      mul\n      0x20\n      add\n      mload(0x40)\n      swap1\n      dup2\n      add\n      0x40\n      mstore\n      dup1\n      swap3\n      swap2\n      swap1\n      dup2\n      dup2\n      mstore\n      0x20\n      add\n      dup3\n      dup1\n      sload\n      tag_189\n      swap1\n      tag_188\n      jump\t// in\n    tag_189:\n      dup1\n      iszero\n      tag_190\n      jumpi\n      dup1\n      0x1f\n      lt\n      tag_191\n      jumpi\n      0x0100\n      dup1\n      dup4\n      sload\n      div\n      mul\n      dup4\n      mstore\n      swap2\n      0x20\n      add\n      swap2\n      jump(tag_190)\n    tag_191:\n      dup3\n      add\n      swap2\n      swap1\n      0x00\n      mstore\n      keccak256(0x00, 0x20)\n      swap1\n    tag_192:\n      dup2\n      sload\n      dup2\n      mstore\n      swap1\n      0x01\n      add\n      swap1\n      0x20\n      add\n      dup1\n      dup4\n      gt\n      tag_192\n      jumpi\n      dup3\n      swap1\n      sub\n      0x1f\n      and\n      dup3\n      add\n      swap2\n    tag_190:\n      pop\n      pop\n      pop\n      pop\n      pop\n      swap1\n      dup1\n      0x01\n      add\n      dup1\n      sload\n      tag_193\n      swap1\n      tag_188\n      jump\t// in\n    tag_193:\n      dup1\n      0x1f\n      add\n      0x20\n      dup1\n      swap2\n      div\n      mul\n      0x20\n      add\n      mload(0x40)\n      swap1\n      dup2\n      add\n      0x40\n      mstore\n      dup1\n      swap3\n      swap2\n      swap1\n      dup2\n      dup2\n      mstore\n      0x20\n      add\n      dup3\n      dup1\n      sload\n      tag_194\n      swap1\n      tag_188\n      jump\t// in\n    tag_194:\n      dup1\n      iszero\n      tag_195\n      jumpi\n      dup1\n      0x1f\n      lt\n      tag_196\n      jumpi\n      0x0100\n      dup1\n      dup4\n      sload\n      div\n      mul\n      dup4\n      mstore\n      swap2\n      0x20\n      add\n      swap2\n      jump(tag_195)\n    tag_196:\n      dup3\n      add\n      swap2\n      swap1\n      0x00\n      mstore\n      keccak256(0x00, 0x20)\n      swap1\n    tag_197:\n      dup2\n      sload\n      dup2\n      mstore\n      swap1\n      0x01\n      add\n      swap1\n      0x20\n      add\n      dup1\n      dup4\n      gt\n      tag_197\n      jumpi\n      dup3\n      swap1\n      sub\n      0x1f\n      and\n      dup3\n      add\n      swap2\n    tag_195:\n      pop\n      pop\n      pop\n      0x02\n      dup5\n      add\n      sload\n      0x03\n      dup6\n      add\n      sload\n      0x04\n      dup7\n      add\n      sload\n      0x06\n      dup8\n      add\n      sload\n      0x07\n      dup9\n      add\n      dup1\n      sload\n      swap8\n      swap9\n      swap5\n      swap8\n      sub(shl(0xa0, 0x01), 0x01)\n      swap1\n      swap5\n      and\n      swap7\n      pop\n      swap2\n      swap5\n      pop\n      0xff\n      and\n      swap3\n      swap2\n      tag_198\n      swap1\n      tag_188\n      jump\t// in\n    tag_198:\n      dup1\n      0x1f\n      add\n      0x20\n      dup1\n      swap2\n      div\n      mul\n      0x20\n      add\n      mload(0x40)\n      swap1\n      dup2\n      add\n      0x40\n      mstore\n      dup1\n      swap3\n      swap2\n      swap1\n      dup2\n      dup2\n      mstore\n      0x20\n      add\n      dup3\n      dup1\n      sload\n      tag_199\n      swap1\n      tag_188\n      jump\t// in\n    tag_199:\n      dup1\n      iszero\n      tag_200\n      jumpi\n      dup1\n      0x1f\n      lt\n      tag_201\n      jumpi\n      0x0100\n      dup1\n      dup4\n      sload\n      div\n      mul\n      dup4\n      mstore\n      swap2\n      0x20\n      add\n      swap2\n      jump(tag_200)\n    tag_201:\n      dup3\n      add\n      swap2\n      swap1\n      0x00\n      mstore\n      keccak256(0x00, 0x20)\n      swap1\n    tag_202:\n      dup2\n      sload\n      dup2\n      mstore\n      swap1\n      0x01\n      add\n      swap1\n      0x20\n      add\n      dup1\n      dup4\n      gt\n      tag_202\n      jumpi\n      dup3\n      swap1\n      sub\n      0x1f\n      and\n      dup3\n      add\n      swap2\n    tag_200:\n      pop\n      pop\n      pop\n      pop\n      pop\n      swap1\n      dup1\n      0x09\n      add\n      dup1\n      sload\n      tag_203\n      swap1\n      tag_188\n      jump\t// in\n    tag_203:\n      dup1\n      0x1f\n      add\n      0x20\n      dup1\n      swap2\n      div\n      mul\n      0x20\n      add\n      mload(0x40)\n      swap1\n      dup2\n      add\n      0x40\n      mstore\n      dup1\n      swap3\n      swap2\n      swap1\n      dup2\n      dup2\n      mstore\n      0x20\n      add\n      dup3\n      dup1\n      sload\n      tag_204\n      swap1\n      tag_188\n      jump\t// in\n    tag_204:\n      dup1\n      iszero\n      tag_205\n      jumpi\n      dup1\n      0x1f\n      lt\n      tag_206\n      jumpi\n      0x0100\n      dup1\n      dup4\n      sload\n      div\n      mul\n      dup4\n      mstore\n      swap2\n      0x20\n      add\n      swap2\n      jump(tag_205)\n    tag_206:\n      dup3\n      add\n      swap2\n      swap1\n      0x00\n      mstore\n      keccak256(0x00, 0x20)\n      swap1\n    tag_207:\n      dup2\n      sload\n      dup2\n      mstore\n      swap1\n      0x01\n      add\n      swap1\n      0x20\n      add\n      dup1\n      dup4\n      gt\n      tag_207\n      jumpi\n      dup3\n      swap1\n      sub\n      0x1f\n      and\n      dup3\n      add\n      swap2\n    tag_205:\n      pop\n      pop\n      pop\n      pop\n      pop\n      swap1\n      pop\n      dup9\n      jump\t// out\n        /* \"DecentralizedMarketplace.sol\":5928:6623  function addGood(... */\n    tag_44:\n        /* \"DecentralizedMarketplace.sol\":6208:6213  goods */\n      0x02\n        /* \"DecentralizedMarketplace.sol\":6208:6220  goods.push() */\n      dup1\n      sload\n      0x01\n      dup2\n      add\n      dup3\n      sstore\n        /* \"DecentralizedMarketplace.sol\":6185:6205  Good storage newGood */\n      0x00\n        /* \"DecentralizedMarketplace.sol\":6208:6220  goods.push() */\n      swap2\n      swap1\n      swap2\n      mstore\n      0x0a\n      mul\n      0x405787fa12a823e0f2b7631cc41b3ba8828b3321ca811111fa75cd3aa3bb5ace\n      add\n      dup1\n        /* \"DecentralizedMarketplace.sol\":6233:6253  newGood.name = _name */\n      tag_210\n        /* \"DecentralizedMarketplace.sol\":6248:6253  _name */\n      dup9\n        /* \"DecentralizedMarketplace.sol\":6208:6220  goods.push() */\n      dup3\n        /* \"DecentralizedMarketplace.sol\":6233:6253  newGood.name = _name */\n      tag_97\n      jump\t// in\n    tag_210:\n      pop\n        /* \"DecentralizedMarketplace.sol\":6264:6283  newGood.description */\n      0x01\n      dup2\n      add\n        /* \"DecentralizedMarketplace.sol\":6264:6298  newGood.description = _description */\n      tag_211\n        /* \"DecentralizedMarketplace.sol\":6286:6298  _description */\n      dup8\n        /* \"DecentralizedMarketplace.sol\":6264:6283  newGood.description */\n      dup3\n        /* \"DecentralizedMarketplace.sol\":6264:6298  newGood.description = _description */\n      tag_97\n      jump\t// in\n    tag_211:\n      pop\n        /* \"DecentralizedMarketplace.sol\":6309:6322  newGood.price */\n      0x02\n      dup2\n      add\n        /* \"DecentralizedMarketplace.sol\":6309:6331  newGood.price = _price */\n      dup6\n      swap1\n      sstore\n        /* \"DecentralizedMarketplace.sol\":6342:6355  newGood.owner */\n      0x03\n      dup2\n      add\n        /* \"DecentralizedMarketplace.sol\":6342:6368  newGood.owner = msg.sender */\n      dup1\n      sload\n      not(sub(shl(0xa0, 0x01), 0x01))\n      and\n        /* \"DecentralizedMarketplace.sol\":6358:6368  msg.sender */\n      caller\n        /* \"DecentralizedMarketplace.sol\":6342:6368  newGood.owner = msg.sender */\n      or\n      swap1\n      sstore\n        /* \"DecentralizedMarketplace.sol\":6379:6397  newGood.sellStatus */\n      0x06\n      dup2\n      add\n        /* \"DecentralizedMarketplace.sol\":6379:6404  newGood.sellStatus = true */\n      dup1\n      sload\n      not(0xff)\n      and\n        /* \"DecentralizedMarketplace.sol\":6342:6368  newGood.owner = msg.sender */\n      0x01\n        /* \"DecentralizedMarketplace.sol\":6379:6404  newGood.sellStatus = true */\n      or\n      swap1\n      sstore\n        /* \"DecentralizedMarketplace.sol\":6415:6429  newGood.amount */\n      0x04\n      dup2\n      add\n        /* \"DecentralizedMarketplace.sol\":6415:6439  newGood.amount = _amount */\n      dup5\n      swap1\n      sstore\n        /* \"DecentralizedMarketplace.sol\":6450:6463  newGood.image */\n      0x07\n      dup2\n      add\n        /* \"DecentralizedMarketplace.sol\":6450:6472  newGood.image = _image */\n      tag_212\n        /* \"DecentralizedMarketplace.sol\":6466:6472  _image */\n      dup5\n        /* \"DecentralizedMarketplace.sol\":6450:6463  newGood.image */\n      dup3\n        /* \"DecentralizedMarketplace.sol\":6450:6472  newGood.image = _image */\n      tag_97\n      jump\t// in\n    tag_212:\n      pop\n        /* \"DecentralizedMarketplace.sol\":6483:6501  newGood.categories */\n      0x09\n      dup2\n      add\n        /* \"DecentralizedMarketplace.sol\":6483:6515  newGood.categories = _categories */\n      tag_213\n        /* \"DecentralizedMarketplace.sol\":6504:6515  _categories */\n      dup4\n        /* \"DecentralizedMarketplace.sol\":6483:6501  newGood.categories */\n      dup3\n        /* \"DecentralizedMarketplace.sol\":6483:6515  newGood.categories = _categories */\n      tag_97\n      jump\t// in\n    tag_213:\n      pop\n        /* \"DecentralizedMarketplace.sol\":6144:6623  {... */\n      pop\n        /* \"DecentralizedMarketplace.sol\":5928:6623  function addGood(... */\n      pop\n      pop\n      pop\n      pop\n      pop\n      pop\n      jump\t// out\n        /* \"DecentralizedMarketplace.sol\":6678:7495  function addToCart(uint256 goodId, uint256 amount) public {... */\n    tag_51:\n        /* \"DecentralizedMarketplace.sol\":6764:6769  goods */\n      0x02\n        /* \"DecentralizedMarketplace.sol\":6764:6776  goods.length */\n      sload\n        /* \"DecentralizedMarketplace.sol\":6755:6776  goodId < goods.length */\n      dup3\n      lt\n        /* \"DecentralizedMarketplace.sol\":6747:6800  require(goodId < goods.length, \"Good does not exist\") */\n      tag_216\n      jumpi\n      mload(0x40)\n      shl(0xe5, 0x461bcd)\n      dup2\n      mstore\n        /* \"#utility.yul\":19167:19169   */\n      0x20\n        /* \"DecentralizedMarketplace.sol\":6747:6800  require(goodId < goods.length, \"Good does not exist\") */\n      0x04\n      dup3\n      add\n        /* \"#utility.yul\":19149:19170   */\n      mstore\n        /* \"#utility.yul\":19206:19208   */\n      0x13\n        /* \"#utility.yul\":19186:19204   */\n      0x24\n      dup3\n      add\n        /* \"#utility.yul\":19179:19209   */\n      mstore\n      shl(0x6a, 0x11dbdbd908191bd95cc81b9bdd08195e1a5cdd)\n        /* \"#utility.yul\":19225:19243   */\n      0x44\n      dup3\n      add\n        /* \"#utility.yul\":19218:19267   */\n      mstore\n        /* \"#utility.yul\":19284:19302   */\n      0x64\n      add\n        /* \"DecentralizedMarketplace.sol\":6747:6800  require(goodId < goods.length, \"Good does not exist\") */\n      tag_132\n        /* \"#utility.yul\":18965:19308   */\n      jump\n        /* \"DecentralizedMarketplace.sol\":6747:6800  require(goodId < goods.length, \"Good does not exist\") */\n    tag_216:\n        /* \"DecentralizedMarketplace.sol\":6828:6829  0 */\n      0x00\n        /* \"DecentralizedMarketplace.sol\":6819:6825  amount */\n      dup2\n        /* \"DecentralizedMarketplace.sol\":6819:6829  amount > 0 */\n      gt\n        /* \"DecentralizedMarketplace.sol\":6811:6866  require(amount > 0, \"Amount must be greater than zero\") */\n      tag_219\n      jumpi\n      mload(0x40)\n      shl(0xe5, 0x461bcd)\n      dup2\n      mstore\n        /* \"#utility.yul\":19515:19517   */\n      0x20\n        /* \"DecentralizedMarketplace.sol\":6811:6866  require(amount > 0, \"Amount must be greater than zero\") */\n      0x04\n      dup3\n      add\n        /* \"#utility.yul\":19497:19518   */\n      dup2\n      swap1\n      mstore\n        /* \"#utility.yul\":19534:19552   */\n      0x24\n      dup3\n      add\n        /* \"#utility.yul\":19527:19557   */\n      mstore\n        /* \"#utility.yul\":19593:19627   */\n      0x416d6f756e74206d7573742062652067726561746572207468616e207a65726f\n        /* \"#utility.yul\":19573:19591   */\n      0x44\n      dup3\n      add\n        /* \"#utility.yul\":19566:19628   */\n      mstore\n        /* \"#utility.yul\":19645:19663   */\n      0x64\n      add\n        /* \"DecentralizedMarketplace.sol\":6811:6866  require(amount > 0, \"Amount must be greater than zero\") */\n      tag_132\n        /* \"#utility.yul\":19313:19669   */\n      jump\n        /* \"DecentralizedMarketplace.sol\":6811:6866  require(amount > 0, \"Amount must be greater than zero\") */\n    tag_219:\n        /* \"DecentralizedMarketplace.sol\":6939:6949  bool found */\n      0x00\n        /* \"DecentralizedMarketplace.sol\":6973:6982  uint256 i */\n      dup1\n        /* \"DecentralizedMarketplace.sol\":6968:7269  for (uint256 i = 0; i < carts[msg.sender].length; i++) {... */\n    tag_222:\n        /* \"DecentralizedMarketplace.sol\":6998:7008  msg.sender */\n      caller\n        /* \"DecentralizedMarketplace.sol\":6992:7009  carts[msg.sender] */\n      0x00\n      swap1\n      dup2\n      mstore\n        /* \"DecentralizedMarketplace.sol\":6992:6997  carts */\n      0x04\n        /* \"DecentralizedMarketplace.sol\":6992:7009  carts[msg.sender] */\n      0x20\n      mstore\n      0x40\n      swap1\n      keccak256\n        /* \"DecentralizedMarketplace.sol\":6992:7016  carts[msg.sender].length */\n      sload\n        /* \"DecentralizedMarketplace.sol\":6988:7016  i < carts[msg.sender].length */\n      dup2\n      lt\n        /* \"DecentralizedMarketplace.sol\":6968:7269  for (uint256 i = 0; i < carts[msg.sender].length; i++) {... */\n      iszero\n      tag_223\n      jumpi\n        /* \"DecentralizedMarketplace.sol\":7048:7058  msg.sender */\n      caller\n        /* \"DecentralizedMarketplace.sol\":7042:7059  carts[msg.sender] */\n      0x00\n      swap1\n      dup2\n      mstore\n        /* \"DecentralizedMarketplace.sol\":7042:7047  carts */\n      0x04\n        /* \"DecentralizedMarketplace.sol\":7042:7059  carts[msg.sender] */\n      0x20\n      mstore\n      0x40\n      swap1\n      keccak256\n        /* \"DecentralizedMarketplace.sol\":7042:7062  carts[msg.sender][i] */\n      dup1\n      sload\n        /* \"DecentralizedMarketplace.sol\":7073:7079  goodId */\n      dup6\n      swap2\n        /* \"DecentralizedMarketplace.sol\":7042:7059  carts[msg.sender] */\n      swap1\n        /* \"DecentralizedMarketplace.sol\":7060:7061  i */\n      dup4\n      swap1\n        /* \"DecentralizedMarketplace.sol\":7042:7062  carts[msg.sender][i] */\n      dup2\n      lt\n      tag_226\n      jumpi\n      tag_226\n      tag_94\n      jump\t// in\n    tag_226:\n      swap1\n      0x00\n      mstore\n      keccak256(0x00, 0x20)\n      swap1\n      0x02\n      mul\n      add\n        /* \"DecentralizedMarketplace.sol\":7042:7069  carts[msg.sender][i].goodId */\n      0x00\n      add\n      sload\n        /* \"DecentralizedMarketplace.sol\":7042:7079  carts[msg.sender][i].goodId == goodId */\n      sub\n        /* \"DecentralizedMarketplace.sol\":7038:7258  if (carts[msg.sender][i].goodId == goodId) {... */\n      tag_228\n      jumpi\n        /* \"DecentralizedMarketplace.sol\":7156:7166  msg.sender */\n      caller\n        /* \"DecentralizedMarketplace.sol\":7150:7167  carts[msg.sender] */\n      0x00\n      swap1\n      dup2\n      mstore\n        /* \"DecentralizedMarketplace.sol\":7150:7155  carts */\n      0x04\n        /* \"DecentralizedMarketplace.sol\":7150:7167  carts[msg.sender] */\n      0x20\n      mstore\n      0x40\n      swap1\n      keccak256\n        /* \"DecentralizedMarketplace.sol\":7150:7170  carts[msg.sender][i] */\n      dup1\n      sload\n        /* \"DecentralizedMarketplace.sol\":7181:7187  amount */\n      dup5\n      swap2\n        /* \"DecentralizedMarketplace.sol\":7150:7167  carts[msg.sender] */\n      swap1\n        /* \"DecentralizedMarketplace.sol\":7168:7169  i */\n      dup4\n      swap1\n        /* \"DecentralizedMarketplace.sol\":7150:7170  carts[msg.sender][i] */\n      dup2\n      lt\n      tag_230\n      jumpi\n      tag_230\n      tag_94\n      jump\t// in\n    tag_230:\n      swap1\n      0x00\n      mstore\n      keccak256(0x00, 0x20)\n      swap1\n      0x02\n      mul\n      add\n        /* \"DecentralizedMarketplace.sol\":7150:7177  carts[msg.sender][i].amount */\n      0x01\n      add\n      0x00\n        /* \"DecentralizedMarketplace.sol\":7150:7187  carts[msg.sender][i].amount += amount */\n      dup3\n      dup3\n      sload\n      tag_232\n      swap2\n      swap1\n      tag_233\n      jump\t// in\n    tag_232:\n      swap1\n      swap2\n      sstore\n      pop\n        /* \"DecentralizedMarketplace.sol\":7214:7218  true */\n      0x01\n      swap3\n      pop\n        /* \"DecentralizedMarketplace.sol\":7237:7242  break */\n      tag_223\n      swap1\n      pop\n      jump\n        /* \"DecentralizedMarketplace.sol\":7038:7258  if (carts[msg.sender][i].goodId == goodId) {... */\n    tag_228:\n        /* \"DecentralizedMarketplace.sol\":7018:7021  i++ */\n      dup1\n      tag_234\n      dup2\n      tag_235\n      jump\t// in\n    tag_234:\n      swap2\n      pop\n      pop\n        /* \"DecentralizedMarketplace.sol\":6968:7269  for (uint256 i = 0; i < carts[msg.sender].length; i++) {... */\n      jump(tag_222)\n    tag_223:\n      pop\n        /* \"DecentralizedMarketplace.sol\":7339:7344  found */\n      dup1\n        /* \"DecentralizedMarketplace.sol\":7334:7488  if (!found) {... */\n      tag_236\n      jumpi\n        /* \"DecentralizedMarketplace.sol\":7367:7377  msg.sender */\n      caller\n        /* \"DecentralizedMarketplace.sol\":7361:7378  carts[msg.sender] */\n      0x00\n      swap1\n      dup2\n      mstore\n        /* \"DecentralizedMarketplace.sol\":7361:7366  carts */\n      0x04\n        /* \"DecentralizedMarketplace.sol\":7361:7378  carts[msg.sender] */\n      0x20\n      swap1\n      dup2\n      mstore\n      0x40\n      dup1\n      dup4\n      keccak256\n        /* \"DecentralizedMarketplace.sol\":7384:7475  CartItem({... */\n      dup2\n      mload\n      dup1\n      dup4\n      add\n      swap1\n      swap3\n      mstore\n      dup7\n      dup3\n      mstore\n      dup2\n      dup4\n      add\n      dup7\n      dup2\n      mstore\n        /* \"DecentralizedMarketplace.sol\":7361:7476  carts[msg.sender].push(CartItem({... */\n      dup2\n      sload\n      0x01\n      dup2\n      dup2\n      add\n      dup5\n      sstore\n      swap3\n      dup7\n      mstore\n      swap4\n      swap1\n      swap5\n      keccak256\n      swap2\n      mload\n      0x02\n      swap1\n      swap4\n      mul\n      swap1\n      swap2\n      add\n      swap2\n      dup3\n      sstore\n      swap2\n      mload\n      swap2\n      add\n      sstore\n        /* \"DecentralizedMarketplace.sol\":7334:7488  if (!found) {... */\n    tag_236:\n        /* \"DecentralizedMarketplace.sol\":6736:7495  {... */\n      pop\n        /* \"DecentralizedMarketplace.sol\":6678:7495  function addToCart(uint256 goodId, uint256 amount) public {... */\n      pop\n      pop\n      jump\t// out\n        /* \"DecentralizedMarketplace.sol\":4427:4546  function getGoodComment(uint256 id) public view  returns (Comment[] memory) {... */\n    tag_54:\n        /* \"DecentralizedMarketplace.sol\":4485:4501  Comment[] memory */\n      0x60\n        /* \"DecentralizedMarketplace.sol\":4521:4526  goods */\n      0x02\n        /* \"DecentralizedMarketplace.sol\":4527:4529  id */\n      dup3\n        /* \"DecentralizedMarketplace.sol\":4521:4530  goods[id] */\n      dup2\n      sload\n      dup2\n      lt\n      tag_240\n      jumpi\n      tag_240\n      tag_94\n      jump\t// in\n    tag_240:\n      swap1\n      0x00\n      mstore\n      keccak256(0x00, 0x20)\n      swap1\n      0x0a\n      mul\n      add\n        /* \"DecentralizedMarketplace.sol\":4521:4538  goods[id].comment */\n      0x05\n      add\n        /* \"DecentralizedMarketplace.sol\":4514:4538  return goods[id].comment */\n      dup1\n      sload\n      dup1\n      0x20\n      mul\n      0x20\n      add\n      mload(0x40)\n      swap1\n      dup2\n      add\n      0x40\n      mstore\n      dup1\n      swap3\n      swap2\n      swap1\n      dup2\n      dup2\n      mstore\n      0x20\n      add\n      0x00\n      swap1\n    tag_242:\n      dup3\n      dup3\n      lt\n      iszero\n      tag_243\n      jumpi\n      dup4\n      dup3\n      swap1\n      0x00\n      mstore\n      keccak256(0x00, 0x20)\n      swap1\n      0x03\n      mul\n      add\n      mload(0x40)\n      dup1\n      0x60\n      add\n      0x40\n      mstore\n      swap1\n      dup2\n      0x00\n      dup3\n      add\n      dup1\n      sload\n      tag_245\n      swap1\n      tag_188\n      jump\t// in\n    tag_245:\n      dup1\n      0x1f\n      add\n      0x20\n      dup1\n      swap2\n      div\n      mul\n      0x20\n      add\n      mload(0x40)\n      swap1\n      dup2\n      add\n      0x40\n      mstore\n      dup1\n      swap3\n      swap2\n      swap1\n      dup2\n      dup2\n      mstore\n      0x20\n      add\n      dup3\n      dup1\n      sload\n      tag_246\n      swap1\n      tag_188\n      jump\t// in\n    tag_246:\n      dup1\n      iszero\n      tag_247\n      jumpi\n      dup1\n      0x1f\n      lt\n      tag_248\n      jumpi\n      0x0100\n      dup1\n      dup4\n      sload\n      div\n      mul\n      dup4\n      mstore\n      swap2\n      0x20\n      add\n      swap2\n      jump(tag_247)\n    tag_248:\n      dup3\n      add\n      swap2\n      swap1\n      0x00\n      mstore\n      keccak256(0x00, 0x20)\n      swap1\n    tag_249:\n      dup2\n      sload\n      dup2\n      mstore\n      swap1\n      0x01\n      add\n      swap1\n      0x20\n      add\n      dup1\n      dup4\n      gt\n      tag_249\n      jumpi\n      dup3\n      swap1\n      sub\n      0x1f\n      and\n      dup3\n      add\n      swap2\n    tag_247:\n      pop\n      pop\n      pop\n      pop\n      pop\n      dup2\n      mstore\n      0x20\n      add\n      0x01\n      dup3\n      add\n      dup1\n      sload\n      tag_250\n      swap1\n      tag_188\n      jump\t// in\n    tag_250:\n      dup1\n      0x1f\n      add\n      0x20\n      dup1\n      swap2\n      div\n      mul\n      0x20\n      add\n      mload(0x40)\n      swap1\n      dup2\n      add\n      0x40\n      mstore\n      dup1\n      swap3\n      swap2\n      swap1\n      dup2\n      dup2\n      mstore\n      0x20\n      add\n      dup3\n      dup1\n      sload\n      tag_251\n      swap1\n      tag_188\n      jump\t// in\n    tag_251:\n      dup1\n      iszero\n      tag_252\n      jumpi\n      dup1\n      0x1f\n      lt\n      tag_253\n      jumpi\n      0x0100\n      dup1\n      dup4\n      sload\n      div\n      mul\n      dup4\n      mstore\n      swap2\n      0x20\n      add\n      swap2\n      jump(tag_252)\n    tag_253:\n      dup3\n      add\n      swap2\n      swap1\n      0x00\n      mstore\n      keccak256(0x00, 0x20)\n      swap1\n    tag_254:\n      dup2\n      sload\n      dup2\n      mstore\n      swap1\n      0x01\n      add\n      swap1\n      0x20\n      add\n      dup1\n      dup4\n      gt\n      tag_254\n      jumpi\n      dup3\n      swap1\n      sub\n      0x1f\n      and\n      dup3\n      add\n      swap2\n    tag_252:\n      pop\n      pop\n      pop\n      swap2\n      dup4\n      mstore\n      pop\n      pop\n      0x02\n      swap2\n      swap1\n      swap2\n      add\n      sload\n      0xff\n      and\n      0x20\n      swap2\n      dup3\n      add\n      mstore\n      swap1\n      dup3\n      mstore\n      0x01\n      swap3\n      swap1\n      swap3\n      add\n      swap2\n      add\n      jump(tag_242)\n    tag_243:\n      pop\n      pop\n      pop\n      pop\n      swap1\n      pop\n        /* \"DecentralizedMarketplace.sol\":4427:4546  function getGoodComment(uint256 id) public view  returns (Comment[] memory) {... */\n      swap2\n      swap1\n      pop\n      jump\t// out\n        /* \"DecentralizedMarketplace.sol\":9520:11114  function cartCheckOut(uint256[] memory items) public {... */\n    tag_60:\n        /* \"DecentralizedMarketplace.sol\":9651:9670  uint256 totalAmount */\n      0x00\n      dup1\n        /* \"DecentralizedMarketplace.sol\":9696:10048  for (uint j = 0; j < items.length; j++) ... */\n    tag_256:\n        /* \"DecentralizedMarketplace.sol\":9717:9722  items */\n      dup3\n        /* \"DecentralizedMarketplace.sol\":9717:9729  items.length */\n      mload\n        /* \"DecentralizedMarketplace.sol\":9713:9714  j */\n      dup2\n        /* \"DecentralizedMarketplace.sol\":9713:9729  j < items.length */\n      lt\n        /* \"DecentralizedMarketplace.sol\":9696:10048  for (uint j = 0; j < items.length; j++) ... */\n      iszero\n      tag_257\n      jumpi\n        /* \"DecentralizedMarketplace.sol\":9774:9780  uint i */\n      0x00\n        /* \"DecentralizedMarketplace.sol\":9768:10037  for ( uint i=0 ; i < carts[msg.sender].length; i++) ... */\n    tag_259:\n        /* \"DecentralizedMarketplace.sol\":9795:9805  msg.sender */\n      caller\n        /* \"DecentralizedMarketplace.sol\":9789:9806  carts[msg.sender] */\n      0x00\n      swap1\n      dup2\n      mstore\n        /* \"DecentralizedMarketplace.sol\":9789:9794  carts */\n      0x04\n        /* \"DecentralizedMarketplace.sol\":9789:9806  carts[msg.sender] */\n      0x20\n      mstore\n      0x40\n      swap1\n      keccak256\n        /* \"DecentralizedMarketplace.sol\":9789:9813  carts[msg.sender].length */\n      sload\n        /* \"DecentralizedMarketplace.sol\":9785:9813  i < carts[msg.sender].length */\n      dup2\n      lt\n        /* \"DecentralizedMarketplace.sol\":9768:10037  for ( uint i=0 ; i < carts[msg.sender].length; i++) ... */\n      iszero\n      tag_260\n      jumpi\n        /* \"DecentralizedMarketplace.sol\":9887:9892  items */\n      dup4\n        /* \"DecentralizedMarketplace.sol\":9893:9894  j */\n      dup3\n        /* \"DecentralizedMarketplace.sol\":9887:9895  items[j] */\n      dup2\n      mload\n      dup2\n      lt\n      tag_263\n      jumpi\n      tag_263\n      tag_94\n      jump\t// in\n    tag_263:\n      0x20\n      mul\n      0x20\n      add\n      add\n      mload\n        /* \"DecentralizedMarketplace.sol\":9856:9861  carts */\n      0x04\n        /* \"DecentralizedMarketplace.sol\":9856:9873  carts[msg.sender] */\n      0x00\n        /* \"DecentralizedMarketplace.sol\":9862:9872  msg.sender */\n      caller\n      sub(shl(0xa0, 0x01), 0x01)\n        /* \"DecentralizedMarketplace.sol\":9856:9873  carts[msg.sender] */\n      and\n      sub(shl(0xa0, 0x01), 0x01)\n      and\n      dup2\n      mstore\n      0x20\n      add\n      swap1\n      dup2\n      mstore\n      0x20\n      add\n      0x00\n      keccak256\n        /* \"DecentralizedMarketplace.sol\":9874:9875  i */\n      dup3\n        /* \"DecentralizedMarketplace.sol\":9856:9876  carts[msg.sender][i] */\n      dup2\n      sload\n      dup2\n      lt\n      tag_265\n      jumpi\n      tag_265\n      tag_94\n      jump\t// in\n    tag_265:\n      swap1\n      0x00\n      mstore\n      keccak256(0x00, 0x20)\n      swap1\n      0x02\n      mul\n      add\n        /* \"DecentralizedMarketplace.sol\":9856:9883  carts[msg.sender][i].goodId */\n      0x00\n      add\n      sload\n        /* \"DecentralizedMarketplace.sol\":9856:9895  carts[msg.sender][i].goodId == items[j] */\n      sub\n        /* \"DecentralizedMarketplace.sol\":9853:10022  if(carts[msg.sender][i].goodId == items[j]){... */\n      tag_267\n      jumpi\n        /* \"DecentralizedMarketplace.sol\":9974:9984  msg.sender */\n      caller\n        /* \"DecentralizedMarketplace.sol\":9968:9985  carts[msg.sender] */\n      0x00\n      swap1\n      dup2\n      mstore\n        /* \"DecentralizedMarketplace.sol\":9968:9973  carts */\n      0x04\n        /* \"DecentralizedMarketplace.sol\":9968:9985  carts[msg.sender] */\n      0x20\n      mstore\n      0x40\n      swap1\n      keccak256\n        /* \"DecentralizedMarketplace.sol\":9968:9988  carts[msg.sender][i] */\n      dup1\n      sload\n        /* \"DecentralizedMarketplace.sol\":9962:9967  goods */\n      0x02\n      swap2\n        /* \"DecentralizedMarketplace.sol\":9968:9985  carts[msg.sender] */\n      swap1\n        /* \"DecentralizedMarketplace.sol\":9986:9987  i */\n      dup4\n      swap1\n        /* \"DecentralizedMarketplace.sol\":9968:9988  carts[msg.sender][i] */\n      dup2\n      lt\n      tag_269\n      jumpi\n      tag_269\n      tag_94\n      jump\t// in\n    tag_269:\n      swap1\n      0x00\n      mstore\n      keccak256(0x00, 0x20)\n      swap1\n      0x02\n      mul\n      add\n        /* \"DecentralizedMarketplace.sol\":9968:9995  carts[msg.sender][i].goodId */\n      0x00\n      add\n      sload\n        /* \"DecentralizedMarketplace.sol\":9962:9996  goods[carts[msg.sender][i].goodId] */\n      dup2\n      sload\n      dup2\n      lt\n      tag_272\n      jumpi\n      tag_272\n      tag_94\n      jump\t// in\n    tag_272:\n      swap1\n      0x00\n      mstore\n      keccak256(0x00, 0x20)\n      swap1\n      0x0a\n      mul\n      add\n        /* \"DecentralizedMarketplace.sol\":9962:10002  goods[carts[msg.sender][i].goodId].price */\n      0x02\n      add\n      sload\n        /* \"DecentralizedMarketplace.sol\":9934:9939  carts */\n      0x04\n        /* \"DecentralizedMarketplace.sol\":9934:9951  carts[msg.sender] */\n      0x00\n        /* \"DecentralizedMarketplace.sol\":9940:9950  msg.sender */\n      caller\n      sub(shl(0xa0, 0x01), 0x01)\n        /* \"DecentralizedMarketplace.sol\":9934:9951  carts[msg.sender] */\n      and\n      sub(shl(0xa0, 0x01), 0x01)\n      and\n      dup2\n      mstore\n      0x20\n      add\n      swap1\n      dup2\n      mstore\n      0x20\n      add\n      0x00\n      keccak256\n        /* \"DecentralizedMarketplace.sol\":9952:9953  i */\n      dup3\n        /* \"DecentralizedMarketplace.sol\":9934:9954  carts[msg.sender][i] */\n      dup2\n      sload\n      dup2\n      lt\n      tag_275\n      jumpi\n      tag_275\n      tag_94\n      jump\t// in\n    tag_275:\n      swap1\n      0x00\n      mstore\n      keccak256(0x00, 0x20)\n      swap1\n      0x02\n      mul\n      add\n        /* \"DecentralizedMarketplace.sol\":9934:9961  carts[msg.sender][i].amount */\n      0x01\n      add\n      sload\n        /* \"DecentralizedMarketplace.sol\":9934:10002  carts[msg.sender][i].amount*goods[carts[msg.sender][i].goodId].price */\n      tag_277\n      swap2\n      swap1\n      tag_124\n      jump\t// in\n    tag_277:\n        /* \"DecentralizedMarketplace.sol\":9919:10002  totalAmount += carts[msg.sender][i].amount*goods[carts[msg.sender][i].goodId].price */\n      tag_278\n      swap1\n      dup5\n      tag_233\n      jump\t// in\n    tag_278:\n      swap3\n      pop\n        /* \"DecentralizedMarketplace.sol\":9853:10022  if(carts[msg.sender][i].goodId == items[j]){... */\n    tag_267:\n        /* \"DecentralizedMarketplace.sol\":9815:9818  i++ */\n      dup1\n      tag_279\n      dup2\n      tag_235\n      jump\t// in\n    tag_279:\n      swap2\n      pop\n      pop\n        /* \"DecentralizedMarketplace.sol\":9768:10037  for ( uint i=0 ; i < carts[msg.sender].length; i++) ... */\n      jump(tag_259)\n    tag_260:\n      pop\n        /* \"DecentralizedMarketplace.sol\":9731:9734  j++ */\n      dup1\n      tag_280\n      dup2\n      tag_235\n      jump\t// in\n    tag_280:\n      swap2\n      pop\n      pop\n        /* \"DecentralizedMarketplace.sol\":9696:10048  for (uint j = 0; j < items.length; j++) ... */\n      jump(tag_256)\n    tag_257:\n      pop\n        /* \"DecentralizedMarketplace.sol\":10066:10074  ercToken */\n      sload(0x00)\n        /* \"DecentralizedMarketplace.sol\":10066:10096  ercToken.balanceOf(msg.sender) */\n      mload(0x40)\n      shl(0xe0, 0x70a08231)\n      dup2\n      mstore\n        /* \"DecentralizedMarketplace.sol\":10085:10095  msg.sender */\n      caller\n        /* \"DecentralizedMarketplace.sol\":10066:10096  ercToken.balanceOf(msg.sender) */\n      0x04\n      dup3\n      add\n        /* \"#utility.yul\":9135:9186   */\n      mstore\n        /* \"DecentralizedMarketplace.sol\":10100:10111  totalAmount */\n      dup3\n      swap2\n      sub(shl(0xa0, 0x01), 0x01)\n        /* \"DecentralizedMarketplace.sol\":10066:10074  ercToken */\n      and\n      swap1\n        /* \"DecentralizedMarketplace.sol\":10066:10084  ercToken.balanceOf */\n      0x70a08231\n      swap1\n        /* \"#utility.yul\":9108:9126   */\n      0x24\n      add\n        /* \"DecentralizedMarketplace.sol\":10066:10096  ercToken.balanceOf(msg.sender) */\n      0x20\n      mload(0x40)\n      dup1\n      dup4\n      sub\n      dup2\n      dup7\n      gas\n      staticcall\n      iszero\n      dup1\n      iszero\n      tag_283\n      jumpi\n      returndatasize\n      0x00\n      dup1\n      returndatacopy\n      revert(0x00, returndatasize)\n    tag_283:\n      pop\n      pop\n      pop\n      pop\n      mload(0x40)\n      returndatasize\n      not(0x1f)\n      0x1f\n      dup3\n      add\n      and\n      dup3\n      add\n      dup1\n      0x40\n      mstore\n      pop\n      dup2\n      add\n      swap1\n      tag_284\n      swap2\n      swap1\n      tag_130\n      jump\t// in\n    tag_284:\n        /* \"DecentralizedMarketplace.sol\":10066:10111  ercToken.balanceOf(msg.sender) >= totalAmount */\n      lt\n      iszero\n        /* \"DecentralizedMarketplace.sol\":10058:10147  require(ercToken.balanceOf(msg.sender) >= totalAmount,\"balance not enough cartcheckout\" ) */\n      tag_285\n      jumpi\n      mload(0x40)\n      shl(0xe5, 0x461bcd)\n      dup2\n      mstore\n        /* \"#utility.yul\":20146:20148   */\n      0x20\n        /* \"DecentralizedMarketplace.sol\":10058:10147  require(ercToken.balanceOf(msg.sender) >= totalAmount,\"balance not enough cartcheckout\" ) */\n      0x04\n      dup3\n      add\n        /* \"#utility.yul\":20128:20149   */\n      mstore\n        /* \"#utility.yul\":20185:20187   */\n      0x1f\n        /* \"#utility.yul\":20165:20183   */\n      0x24\n      dup3\n      add\n        /* \"#utility.yul\":20158:20188   */\n      mstore\n        /* \"#utility.yul\":20224:20257   */\n      0x62616c616e6365206e6f7420656e6f7567682063617274636865636b6f757400\n        /* \"#utility.yul\":20204:20222   */\n      0x44\n      dup3\n      add\n        /* \"#utility.yul\":20197:20258   */\n      mstore\n        /* \"#utility.yul\":20275:20293   */\n      0x64\n      add\n        /* \"DecentralizedMarketplace.sol\":10058:10147  require(ercToken.balanceOf(msg.sender) >= totalAmount,\"balance not enough cartcheckout\" ) */\n      tag_132\n        /* \"#utility.yul\":19944:20299   */\n      jump\n        /* \"DecentralizedMarketplace.sol\":10058:10147  require(ercToken.balanceOf(msg.sender) >= totalAmount,\"balance not enough cartcheckout\" ) */\n    tag_285:\n        /* \"DecentralizedMarketplace.sol\":10163:10191  showTotalAmount(totalAmount) */\n      mload(0x40)\n        /* \"#utility.yul\":6600:6625   */\n      dup2\n      dup2\n      mstore\n        /* \"DecentralizedMarketplace.sol\":10163:10191  showTotalAmount(totalAmount) */\n      0xfa75af676d20ccb8290f2a472d97213572dd2cdceb56a1b5e2a09c097e2d9b9c\n      swap1\n        /* \"#utility.yul\":6588:6590   */\n      0x20\n        /* \"#utility.yul\":6573:6591   */\n      add\n        /* \"DecentralizedMarketplace.sol\":10163:10191  showTotalAmount(totalAmount) */\n      mload(0x40)\n      dup1\n      swap2\n      sub\n      swap1\n      log1\n        /* \"DecentralizedMarketplace.sol\":10670:10676  uint j */\n      0x00\n        /* \"DecentralizedMarketplace.sol\":10665:11064  for (uint j = 0; j < items.length; j++) ... */\n    tag_289:\n        /* \"DecentralizedMarketplace.sol\":10686:10691  items */\n      dup3\n        /* \"DecentralizedMarketplace.sol\":10686:10698  items.length */\n      mload\n        /* \"DecentralizedMarketplace.sol\":10682:10683  j */\n      dup2\n        /* \"DecentralizedMarketplace.sol\":10682:10698  j < items.length */\n      lt\n        /* \"DecentralizedMarketplace.sol\":10665:11064  for (uint j = 0; j < items.length; j++) ... */\n      iszero\n      tag_236\n      jumpi\n        /* \"DecentralizedMarketplace.sol\":10739:10745  uint i */\n      0x00\n        /* \"DecentralizedMarketplace.sol\":10733:11053  for ( uint i=0 ; i < carts[msg.sender].length; i++) ... */\n    tag_292:\n        /* \"DecentralizedMarketplace.sol\":10760:10770  msg.sender */\n      caller\n        /* \"DecentralizedMarketplace.sol\":10754:10771  carts[msg.sender] */\n      0x00\n      swap1\n      dup2\n      mstore\n        /* \"DecentralizedMarketplace.sol\":10754:10759  carts */\n      0x04\n        /* \"DecentralizedMarketplace.sol\":10754:10771  carts[msg.sender] */\n      0x20\n      mstore\n      0x40\n      swap1\n      keccak256\n        /* \"DecentralizedMarketplace.sol\":10754:10778  carts[msg.sender].length */\n      sload\n        /* \"DecentralizedMarketplace.sol\":10750:10778  i < carts[msg.sender].length */\n      dup2\n      lt\n        /* \"DecentralizedMarketplace.sol\":10733:11053  for ( uint i=0 ; i < carts[msg.sender].length; i++) ... */\n      iszero\n      tag_293\n      jumpi\n        /* \"DecentralizedMarketplace.sol\":10852:10857  items */\n      dup4\n        /* \"DecentralizedMarketplace.sol\":10858:10859  j */\n      dup3\n        /* \"DecentralizedMarketplace.sol\":10852:10860  items[j] */\n      dup2\n      mload\n      dup2\n      lt\n      tag_296\n      jumpi\n      tag_296\n      tag_94\n      jump\t// in\n    tag_296:\n      0x20\n      mul\n      0x20\n      add\n      add\n      mload\n        /* \"DecentralizedMarketplace.sol\":10821:10826  carts */\n      0x04\n        /* \"DecentralizedMarketplace.sol\":10821:10838  carts[msg.sender] */\n      0x00\n        /* \"DecentralizedMarketplace.sol\":10827:10837  msg.sender */\n      caller\n      sub(shl(0xa0, 0x01), 0x01)\n        /* \"DecentralizedMarketplace.sol\":10821:10838  carts[msg.sender] */\n      and\n      sub(shl(0xa0, 0x01), 0x01)\n      and\n      dup2\n      mstore\n      0x20\n      add\n      swap1\n      dup2\n      mstore\n      0x20\n      add\n      0x00\n      keccak256\n        /* \"DecentralizedMarketplace.sol\":10839:10840  i */\n      dup3\n        /* \"DecentralizedMarketplace.sol\":10821:10841  carts[msg.sender][i] */\n      dup2\n      sload\n      dup2\n      lt\n      tag_298\n      jumpi\n      tag_298\n      tag_94\n      jump\t// in\n    tag_298:\n      swap1\n      0x00\n      mstore\n      keccak256(0x00, 0x20)\n      swap1\n      0x02\n      mul\n      add\n        /* \"DecentralizedMarketplace.sol\":10821:10848  carts[msg.sender][i].goodId */\n      0x00\n      add\n      sload\n        /* \"DecentralizedMarketplace.sol\":10821:10860  carts[msg.sender][i].goodId == items[j] */\n      sub\n        /* \"DecentralizedMarketplace.sol\":10818:11038  if(carts[msg.sender][i].goodId == items[j]){... */\n      tag_308\n      jumpi\n        /* \"DecentralizedMarketplace.sol\":10898:10908  msg.sender */\n      caller\n        /* \"DecentralizedMarketplace.sol\":10892:10909  carts[msg.sender] */\n      0x00\n      swap1\n      dup2\n      mstore\n        /* \"DecentralizedMarketplace.sol\":10892:10897  carts */\n      0x04\n        /* \"DecentralizedMarketplace.sol\":10892:10909  carts[msg.sender] */\n      0x20\n      mstore\n      0x40\n      swap1\n      keccak256\n        /* \"DecentralizedMarketplace.sol\":10892:10912  carts[msg.sender][i] */\n      dup1\n      sload\n        /* \"DecentralizedMarketplace.sol\":10884:10949  buyGood(carts[msg.sender][i].goodId, carts[msg.sender][i].amount) */\n      tag_301\n      swap2\n        /* \"DecentralizedMarketplace.sol\":10892:10909  carts[msg.sender] */\n      swap1\n        /* \"DecentralizedMarketplace.sol\":10910:10911  i */\n      dup4\n      swap1\n        /* \"DecentralizedMarketplace.sol\":10892:10912  carts[msg.sender][i] */\n      dup2\n      lt\n      tag_303\n      jumpi\n      tag_303\n      tag_94\n      jump\t// in\n    tag_303:\n      0x00\n      swap2\n      dup3\n      mstore\n      0x20\n      dup1\n      dup4\n      keccak256\n      0x02\n      swap1\n      swap3\n      mul\n      swap1\n      swap2\n      add\n        /* \"DecentralizedMarketplace.sol\":10892:10919  carts[msg.sender][i].goodId */\n      sload\n        /* \"DecentralizedMarketplace.sol\":10927:10937  msg.sender */\n      caller\n        /* \"DecentralizedMarketplace.sol\":10921:10938  carts[msg.sender] */\n      dup4\n      mstore\n        /* \"DecentralizedMarketplace.sol\":10921:10926  carts */\n      0x04\n        /* \"DecentralizedMarketplace.sol\":10921:10938  carts[msg.sender] */\n      swap1\n      swap2\n      mstore\n      0x40\n      swap1\n      swap2\n      keccak256\n        /* \"DecentralizedMarketplace.sol\":10921:10941  carts[msg.sender][i] */\n      dup1\n      sload\n        /* \"DecentralizedMarketplace.sol\":10939:10940  i */\n      dup5\n      swap1\n        /* \"DecentralizedMarketplace.sol\":10921:10941  carts[msg.sender][i] */\n      dup2\n      lt\n      tag_306\n      jumpi\n      tag_306\n      tag_94\n      jump\t// in\n    tag_306:\n      swap1\n      0x00\n      mstore\n      keccak256(0x00, 0x20)\n      swap1\n      0x02\n      mul\n      add\n        /* \"DecentralizedMarketplace.sol\":10921:10948  carts[msg.sender][i].amount */\n      0x01\n      add\n      sload\n        /* \"DecentralizedMarketplace.sol\":10884:10891  buyGood */\n      tag_30\n        /* \"DecentralizedMarketplace.sol\":10884:10949  buyGood(carts[msg.sender][i].goodId, carts[msg.sender][i].amount) */\n      jump\t// in\n    tag_301:\n        /* \"DecentralizedMarketplace.sol\":10996:11006  msg.sender */\n      caller\n        /* \"DecentralizedMarketplace.sol\":10990:11007  carts[msg.sender] */\n      0x00\n      swap1\n      dup2\n      mstore\n        /* \"DecentralizedMarketplace.sol\":10990:10995  carts */\n      0x04\n        /* \"DecentralizedMarketplace.sol\":10990:11007  carts[msg.sender] */\n      0x20\n      mstore\n      0x40\n      swap1\n      keccak256\n        /* \"DecentralizedMarketplace.sol\":10990:11010  carts[msg.sender][i] */\n      dup1\n      sload\n        /* \"DecentralizedMarketplace.sol\":10975:11018  removeFromCart(carts[msg.sender][i].goodId) */\n      tag_308\n      swap2\n        /* \"DecentralizedMarketplace.sol\":10990:11007  carts[msg.sender] */\n      swap1\n        /* \"DecentralizedMarketplace.sol\":11008:11009  i */\n      dup4\n      swap1\n        /* \"DecentralizedMarketplace.sol\":10990:11010  carts[msg.sender][i] */\n      dup2\n      lt\n      tag_310\n      jumpi\n      tag_310\n      tag_94\n      jump\t// in\n    tag_310:\n      swap1\n      0x00\n      mstore\n      keccak256(0x00, 0x20)\n      swap1\n      0x02\n      mul\n      add\n        /* \"DecentralizedMarketplace.sol\":10990:11017  carts[msg.sender][i].goodId */\n      0x00\n      add\n      sload\n        /* \"DecentralizedMarketplace.sol\":10975:10989  removeFromCart */\n      tag_86\n        /* \"DecentralizedMarketplace.sol\":10975:11018  removeFromCart(carts[msg.sender][i].goodId) */\n      jump\t// in\n    tag_308:\n        /* \"DecentralizedMarketplace.sol\":10780:10783  i++ */\n      dup1\n      tag_312\n      dup2\n      tag_235\n      jump\t// in\n    tag_312:\n      swap2\n      pop\n      pop\n        /* \"DecentralizedMarketplace.sol\":10733:11053  for ( uint i=0 ; i < carts[msg.sender].length; i++) ... */\n      jump(tag_292)\n    tag_293:\n      pop\n        /* \"DecentralizedMarketplace.sol\":10700:10703  j++ */\n      dup1\n      tag_313\n      dup2\n      tag_235\n      jump\t// in\n    tag_313:\n      swap2\n      pop\n      pop\n        /* \"DecentralizedMarketplace.sol\":10665:11064  for (uint j = 0; j < items.length; j++) ... */\n      jump(tag_289)\n        /* \"DecentralizedMarketplace.sol\":3961:4004  mapping(address => CartItem[]) public carts */\n    tag_68:\n      mstore(0x20, 0x04)\n      dup2\n      0x00\n      mstore\n      keccak256(0x00, 0x40)\n      dup2\n      dup2\n      sload\n      dup2\n      lt\n      tag_314\n      jumpi\n      0x00\n      dup1\n      revert\n    tag_314:\n      0x00\n      swap2\n      dup3\n      mstore\n      0x20\n      swap1\n      swap2\n      keccak256\n      0x02\n      swap1\n      swap2\n      mul\n      add\n      dup1\n      sload\n      0x01\n      swap1\n      swap2\n      add\n      sload\n      swap1\n      swap3\n      pop\n      swap1\n      pop\n      dup3\n      jump\t// out\n        /* \"DecentralizedMarketplace.sol\":8950:9459  function getBuyTotalPrice(uint256[] memory items) public view returns (uint256){... */\n    tag_73:\n        /* \"DecentralizedMarketplace.sol\":9021:9028  uint256 */\n      0x00\n        /* \"DecentralizedMarketplace.sol\":9040:9059  uint256 totalAmount */\n      dup1\n        /* \"DecentralizedMarketplace.sol\":9077:9083  uint i */\n      0x00\n        /* \"DecentralizedMarketplace.sol\":9071:9423  for ( uint i=0 ; i < carts[msg.sender].length; i++) ... */\n    tag_317:\n        /* \"DecentralizedMarketplace.sol\":9098:9108  msg.sender */\n      caller\n        /* \"DecentralizedMarketplace.sol\":9092:9109  carts[msg.sender] */\n      0x00\n      swap1\n      dup2\n      mstore\n        /* \"DecentralizedMarketplace.sol\":9092:9097  carts */\n      0x04\n        /* \"DecentralizedMarketplace.sol\":9092:9109  carts[msg.sender] */\n      0x20\n      mstore\n      0x40\n      swap1\n      keccak256\n        /* \"DecentralizedMarketplace.sol\":9092:9116  carts[msg.sender].length */\n      sload\n        /* \"DecentralizedMarketplace.sol\":9088:9116  i < carts[msg.sender].length */\n      dup2\n      lt\n        /* \"DecentralizedMarketplace.sol\":9071:9423  for ( uint i=0 ; i < carts[msg.sender].length; i++) ... */\n      iszero\n      tag_318\n      jumpi\n        /* \"DecentralizedMarketplace.sol\":9153:9159  uint j */\n      0x00\n        /* \"DecentralizedMarketplace.sol\":9148:9412  for (uint j = 0; j < items.length; j++) ... */\n    tag_320:\n        /* \"DecentralizedMarketplace.sol\":9169:9174  items */\n      dup5\n        /* \"DecentralizedMarketplace.sol\":9169:9181  items.length */\n      mload\n        /* \"DecentralizedMarketplace.sol\":9165:9166  j */\n      dup2\n        /* \"DecentralizedMarketplace.sol\":9165:9181  j < items.length */\n      lt\n        /* \"DecentralizedMarketplace.sol\":9148:9412  for (uint j = 0; j < items.length; j++) ... */\n      iszero\n      tag_321\n      jumpi\n        /* \"DecentralizedMarketplace.sol\":9262:9267  items */\n      dup5\n        /* \"DecentralizedMarketplace.sol\":9268:9269  j */\n      dup2\n        /* \"DecentralizedMarketplace.sol\":9262:9270  items[j] */\n      dup2\n      mload\n      dup2\n      lt\n      tag_324\n      jumpi\n      tag_324\n      tag_94\n      jump\t// in\n    tag_324:\n      0x20\n      mul\n      0x20\n      add\n      add\n      mload\n        /* \"DecentralizedMarketplace.sol\":9231:9236  carts */\n      0x04\n        /* \"DecentralizedMarketplace.sol\":9231:9248  carts[msg.sender] */\n      0x00\n        /* \"DecentralizedMarketplace.sol\":9237:9247  msg.sender */\n      caller\n      sub(shl(0xa0, 0x01), 0x01)\n        /* \"DecentralizedMarketplace.sol\":9231:9248  carts[msg.sender] */\n      and\n      sub(shl(0xa0, 0x01), 0x01)\n      and\n      dup2\n      mstore\n      0x20\n      add\n      swap1\n      dup2\n      mstore\n      0x20\n      add\n      0x00\n      keccak256\n        /* \"DecentralizedMarketplace.sol\":9249:9250  i */\n      dup4\n        /* \"DecentralizedMarketplace.sol\":9231:9251  carts[msg.sender][i] */\n      dup2\n      sload\n      dup2\n      lt\n      tag_326\n      jumpi\n      tag_326\n      tag_94\n      jump\t// in\n    tag_326:\n      swap1\n      0x00\n      mstore\n      keccak256(0x00, 0x20)\n      swap1\n      0x02\n      mul\n      add\n        /* \"DecentralizedMarketplace.sol\":9231:9258  carts[msg.sender][i].goodId */\n      0x00\n      add\n      sload\n        /* \"DecentralizedMarketplace.sol\":9231:9270  carts[msg.sender][i].goodId == items[j] */\n      sub\n        /* \"DecentralizedMarketplace.sol\":9228:9397  if(carts[msg.sender][i].goodId == items[j]){... */\n      tag_328\n      jumpi\n        /* \"DecentralizedMarketplace.sol\":9349:9359  msg.sender */\n      caller\n        /* \"DecentralizedMarketplace.sol\":9343:9360  carts[msg.sender] */\n      0x00\n      swap1\n      dup2\n      mstore\n        /* \"DecentralizedMarketplace.sol\":9343:9348  carts */\n      0x04\n        /* \"DecentralizedMarketplace.sol\":9343:9360  carts[msg.sender] */\n      0x20\n      mstore\n      0x40\n      swap1\n      keccak256\n        /* \"DecentralizedMarketplace.sol\":9343:9363  carts[msg.sender][i] */\n      dup1\n      sload\n        /* \"DecentralizedMarketplace.sol\":9337:9342  goods */\n      0x02\n      swap2\n        /* \"DecentralizedMarketplace.sol\":9343:9360  carts[msg.sender] */\n      swap1\n        /* \"DecentralizedMarketplace.sol\":9361:9362  i */\n      dup5\n      swap1\n        /* \"DecentralizedMarketplace.sol\":9343:9363  carts[msg.sender][i] */\n      dup2\n      lt\n      tag_330\n      jumpi\n      tag_330\n      tag_94\n      jump\t// in\n    tag_330:\n      swap1\n      0x00\n      mstore\n      keccak256(0x00, 0x20)\n      swap1\n      0x02\n      mul\n      add\n        /* \"DecentralizedMarketplace.sol\":9343:9370  carts[msg.sender][i].goodId */\n      0x00\n      add\n      sload\n        /* \"DecentralizedMarketplace.sol\":9337:9371  goods[carts[msg.sender][i].goodId] */\n      dup2\n      sload\n      dup2\n      lt\n      tag_333\n      jumpi\n      tag_333\n      tag_94\n      jump\t// in\n    tag_333:\n      swap1\n      0x00\n      mstore\n      keccak256(0x00, 0x20)\n      swap1\n      0x0a\n      mul\n      add\n        /* \"DecentralizedMarketplace.sol\":9337:9377  goods[carts[msg.sender][i].goodId].price */\n      0x02\n      add\n      sload\n        /* \"DecentralizedMarketplace.sol\":9309:9314  carts */\n      0x04\n        /* \"DecentralizedMarketplace.sol\":9309:9326  carts[msg.sender] */\n      0x00\n        /* \"DecentralizedMarketplace.sol\":9315:9325  msg.sender */\n      caller\n      sub(shl(0xa0, 0x01), 0x01)\n        /* \"DecentralizedMarketplace.sol\":9309:9326  carts[msg.sender] */\n      and\n      sub(shl(0xa0, 0x01), 0x01)\n      and\n      dup2\n      mstore\n      0x20\n      add\n      swap1\n      dup2\n      mstore\n      0x20\n      add\n      0x00\n      keccak256\n        /* \"DecentralizedMarketplace.sol\":9327:9328  i */\n      dup4\n        /* \"DecentralizedMarketplace.sol\":9309:9329  carts[msg.sender][i] */\n      dup2\n      sload\n      dup2\n      lt\n      tag_336\n      jumpi\n      tag_336\n      tag_94\n      jump\t// in\n    tag_336:\n      swap1\n      0x00\n      mstore\n      keccak256(0x00, 0x20)\n      swap1\n      0x02\n      mul\n      add\n        /* \"DecentralizedMarketplace.sol\":9309:9336  carts[msg.sender][i].amount */\n      0x01\n      add\n      sload\n        /* \"DecentralizedMarketplace.sol\":9309:9377  carts[msg.sender][i].amount*goods[carts[msg.sender][i].goodId].price */\n      tag_338\n      swap2\n      swap1\n      tag_124\n      jump\t// in\n    tag_338:\n        /* \"DecentralizedMarketplace.sol\":9294:9377  totalAmount += carts[msg.sender][i].amount*goods[carts[msg.sender][i].goodId].price */\n      tag_339\n      swap1\n      dup5\n      tag_233\n      jump\t// in\n    tag_339:\n      swap3\n      pop\n        /* \"DecentralizedMarketplace.sol\":9228:9397  if(carts[msg.sender][i].goodId == items[j]){... */\n    tag_328:\n        /* \"DecentralizedMarketplace.sol\":9183:9186  j++ */\n      dup1\n      tag_340\n      dup2\n      tag_235\n      jump\t// in\n    tag_340:\n      swap2\n      pop\n      pop\n        /* \"DecentralizedMarketplace.sol\":9148:9412  for (uint j = 0; j < items.length; j++) ... */\n      jump(tag_320)\n    tag_321:\n      pop\n        /* \"DecentralizedMarketplace.sol\":9118:9121  i++ */\n      dup1\n      tag_341\n      dup2\n      tag_235\n      jump\t// in\n    tag_341:\n      swap2\n      pop\n      pop\n        /* \"DecentralizedMarketplace.sol\":9071:9423  for ( uint i=0 ; i < carts[msg.sender].length; i++) ... */\n      jump(tag_317)\n    tag_318:\n      pop\n        /* \"DecentralizedMarketplace.sol\":9440:9451  totalAmount */\n      swap3\n        /* \"DecentralizedMarketplace.sol\":8950:9459  function getBuyTotalPrice(uint256[] memory items) public view returns (uint256){... */\n      swap2\n      pop\n      pop\n      jump\t// out\n        /* \"DecentralizedMarketplace.sol\":4576:4664  function getGoods() public view  returns (Good[] memory) {... */\n    tag_79:\n        /* \"DecentralizedMarketplace.sol\":4618:4631  Good[] memory */\n      0x60\n        /* \"DecentralizedMarketplace.sol\":4651:4656  goods */\n      0x02\n        /* \"DecentralizedMarketplace.sol\":4644:4656  return goods */\n      dup1\n      sload\n      dup1\n      0x20\n      mul\n      0x20\n      add\n      mload(0x40)\n      swap1\n      dup2\n      add\n      0x40\n      mstore\n      dup1\n      swap3\n      swap2\n      swap1\n      dup2\n      dup2\n      mstore\n      0x20\n      add\n      0x00\n      swap1\n    tag_344:\n      dup3\n      dup3\n      lt\n      iszero\n      tag_183\n      jumpi\n      dup4\n      dup3\n      swap1\n      0x00\n      mstore\n      keccak256(0x00, 0x20)\n      swap1\n      0x0a\n      mul\n      add\n      mload(0x40)\n      dup1\n      0x0140\n      add\n      0x40\n      mstore\n      swap1\n      dup2\n      0x00\n      dup3\n      add\n      dup1\n      sload\n      tag_347\n      swap1\n      tag_188\n      jump\t// in\n    tag_347:\n      dup1\n      0x1f\n      add\n      0x20\n      dup1\n      swap2\n      div\n      mul\n      0x20\n      add\n      mload(0x40)\n      swap1\n      dup2\n      add\n      0x40\n      mstore\n      dup1\n      swap3\n      swap2\n      swap1\n      dup2\n      dup2\n      mstore\n      0x20\n      add\n      dup3\n      dup1\n      sload\n      tag_348\n      swap1\n      tag_188\n      jump\t// in\n    tag_348:\n      dup1\n      iszero\n      tag_349\n      jumpi\n      dup1\n      0x1f\n      lt\n      tag_350\n      jumpi\n      0x0100\n      dup1\n      dup4\n      sload\n      div\n      mul\n      dup4\n      mstore\n      swap2\n      0x20\n      add\n      swap2\n      jump(tag_349)\n    tag_350:\n      dup3\n      add\n      swap2\n      swap1\n      0x00\n      mstore\n      keccak256(0x00, 0x20)\n      swap1\n    tag_351:\n      dup2\n      sload\n      dup2\n      mstore\n      swap1\n      0x01\n      add\n      swap1\n      0x20\n      add\n      dup1\n      dup4\n      gt\n      tag_351\n      jumpi\n      dup3\n      swap1\n      sub\n      0x1f\n      and\n      dup3\n      add\n      swap2\n    tag_349:\n      pop\n      pop\n      pop\n      pop\n      pop\n      dup2\n      mstore\n      0x20\n      add\n      0x01\n      dup3\n      add\n      dup1\n      sload\n      tag_352\n      swap1\n      tag_188\n      jump\t// in\n    tag_352:\n      dup1\n      0x1f\n      add\n      0x20\n      dup1\n      swap2\n      div\n      mul\n      0x20\n      add\n      mload(0x40)\n      swap1\n      dup2\n      add\n      0x40\n      mstore\n      dup1\n      swap3\n      swap2\n      swap1\n      dup2\n      dup2\n      mstore\n      0x20\n      add\n      dup3\n      dup1\n      sload\n      tag_353\n      swap1\n      tag_188\n      jump\t// in\n    tag_353:\n      dup1\n      iszero\n      tag_354\n      jumpi\n      dup1\n      0x1f\n      lt\n      tag_355\n      jumpi\n      0x0100\n      dup1\n      dup4\n      sload\n      div\n      mul\n      dup4\n      mstore\n      swap2\n      0x20\n      add\n      swap2\n      jump(tag_354)\n    tag_355:\n      dup3\n      add\n      swap2\n      swap1\n      0x00\n      mstore\n      keccak256(0x00, 0x20)\n      swap1\n    tag_356:\n      dup2\n      sload\n      dup2\n      mstore\n      swap1\n      0x01\n      add\n      swap1\n      0x20\n      add\n      dup1\n      dup4\n      gt\n      tag_356\n      jumpi\n      dup3\n      swap1\n      sub\n      0x1f\n      and\n      dup3\n      add\n      swap2\n    tag_354:\n      pop\n      pop\n      pop\n      pop\n      pop\n      dup2\n      mstore\n      0x20\n      add\n      0x02\n      dup3\n      add\n      sload\n      dup2\n      mstore\n      0x20\n      add\n      0x03\n      dup3\n      add\n      0x00\n      swap1\n      sload\n      swap1\n      0x0100\n      exp\n      swap1\n      div\n      sub(shl(0xa0, 0x01), 0x01)\n      and\n      sub(shl(0xa0, 0x01), 0x01)\n      and\n      sub(shl(0xa0, 0x01), 0x01)\n      and\n      dup2\n      mstore\n      0x20\n      add\n      0x04\n      dup3\n      add\n      sload\n      dup2\n      mstore\n      0x20\n      add\n      0x05\n      dup3\n      add\n      dup1\n      sload\n      dup1\n      0x20\n      mul\n      0x20\n      add\n      mload(0x40)\n      swap1\n      dup2\n      add\n      0x40\n      mstore\n      dup1\n      swap3\n      swap2\n      swap1\n      dup2\n      dup2\n      mstore\n      0x20\n      add\n      0x00\n      swap1\n    tag_357:\n      dup3\n      dup3\n      lt\n      iszero\n      tag_358\n      jumpi\n      dup4\n      dup3\n      swap1\n      0x00\n      mstore\n      keccak256(0x00, 0x20)\n      swap1\n      0x03\n      mul\n      add\n      mload(0x40)\n      dup1\n      0x60\n      add\n      0x40\n      mstore\n      swap1\n      dup2\n      0x00\n      dup3\n      add\n      dup1\n      sload\n      tag_360\n      swap1\n      tag_188\n      jump\t// in\n    tag_360:\n      dup1\n      0x1f\n      add\n      0x20\n      dup1\n      swap2\n      div\n      mul\n      0x20\n      add\n      mload(0x40)\n      swap1\n      dup2\n      add\n      0x40\n      mstore\n      dup1\n      swap3\n      swap2\n      swap1\n      dup2\n      dup2\n      mstore\n      0x20\n      add\n      dup3\n      dup1\n      sload\n      tag_361\n      swap1\n      tag_188\n      jump\t// in\n    tag_361:\n      dup1\n      iszero\n      tag_362\n      jumpi\n      dup1\n      0x1f\n      lt\n      tag_363\n      jumpi\n      0x0100\n      dup1\n      dup4\n      sload\n      div\n      mul\n      dup4\n      mstore\n      swap2\n      0x20\n      add\n      swap2\n      jump(tag_362)\n    tag_363:\n      dup3\n      add\n      swap2\n      swap1\n      0x00\n      mstore\n      keccak256(0x00, 0x20)\n      swap1\n    tag_364:\n      dup2\n      sload\n      dup2\n      mstore\n      swap1\n      0x01\n      add\n      swap1\n      0x20\n      add\n      dup1\n      dup4\n      gt\n      tag_364\n      jumpi\n      dup3\n      swap1\n      sub\n      0x1f\n      and\n      dup3\n      add\n      swap2\n    tag_362:\n      pop\n      pop\n      pop\n      pop\n      pop\n      dup2\n      mstore\n      0x20\n      add\n      0x01\n      dup3\n      add\n      dup1\n      sload\n      tag_365\n      swap1\n      tag_188\n      jump\t// in\n    tag_365:\n      dup1\n      0x1f\n      add\n      0x20\n      dup1\n      swap2\n      div\n      mul\n      0x20\n      add\n      mload(0x40)\n      swap1\n      dup2\n      add\n      0x40\n      mstore\n      dup1\n      swap3\n      swap2\n      swap1\n      dup2\n      dup2\n      mstore\n      0x20\n      add\n      dup3\n      dup1\n      sload\n      tag_366\n      swap1\n      tag_188\n      jump\t// in\n    tag_366:\n      dup1\n      iszero\n      tag_367\n      jumpi\n      dup1\n      0x1f\n      lt\n      tag_368\n      jumpi\n      0x0100\n      dup1\n      dup4\n      sload\n      div\n      mul\n      dup4\n      mstore\n      swap2\n      0x20\n      add\n      swap2\n      jump(tag_367)\n    tag_368:\n      dup3\n      add\n      swap2\n      swap1\n      0x00\n      mstore\n      keccak256(0x00, 0x20)\n      swap1\n    tag_369:\n      dup2\n      sload\n      dup2\n      mstore\n      swap1\n      0x01\n      add\n      swap1\n      0x20\n      add\n      dup1\n      dup4\n      gt\n      tag_369\n      jumpi\n      dup3\n      swap1\n      sub\n      0x1f\n      and\n      dup3\n      add\n      swap2\n    tag_367:\n      pop\n      pop\n      pop\n      swap2\n      dup4\n      mstore\n      pop\n      pop\n      0x02\n      swap2\n      swap1\n      swap2\n      add\n      sload\n      0xff\n      and\n      0x20\n      swap2\n      dup3\n      add\n      mstore\n      swap1\n      dup3\n      mstore\n      0x01\n      swap3\n      swap1\n      swap3\n      add\n      swap2\n      add\n      jump(tag_357)\n    tag_358:\n      pop\n      pop\n      pop\n      swap1\n      dup3\n      mstore\n      pop\n      0x06\n      dup3\n      add\n      sload\n      0xff\n      and\n      iszero\n      iszero\n      0x20\n      dup3\n      add\n      mstore\n      0x07\n      dup3\n      add\n      dup1\n      sload\n      0x40\n      swap1\n      swap3\n      add\n      swap2\n      tag_370\n      swap1\n      tag_188\n      jump\t// in\n    tag_370:\n      dup1\n      0x1f\n      add\n      0x20\n      dup1\n      swap2\n      div\n      mul\n      0x20\n      add\n      mload(0x40)\n      swap1\n      dup2\n      add\n      0x40\n      mstore\n      dup1\n      swap3\n      swap2\n      swap1\n      dup2\n      dup2\n      mstore\n      0x20\n      add\n      dup3\n      dup1\n      sload\n      tag_371\n      swap1\n      tag_188\n      jump\t// in\n    tag_371:\n      dup1\n      iszero\n      tag_372\n      jumpi\n      dup1\n      0x1f\n      lt\n      tag_373\n      jumpi\n      0x0100\n      dup1\n      dup4\n      sload\n      div\n      mul\n      dup4\n      mstore\n      swap2\n      0x20\n      add\n      swap2\n      jump(tag_372)\n    tag_373:\n      dup3\n      add\n      swap2\n      swap1\n      0x00\n      mstore\n      keccak256(0x00, 0x20)\n      swap1\n    tag_374:\n      dup2\n      sload\n      dup2\n      mstore\n      swap1\n      0x01\n      add\n      swap1\n      0x20\n      add\n      dup1\n      dup4\n      gt\n      tag_374\n      jumpi\n      dup3\n      swap1\n      sub\n      0x1f\n      and\n      dup3\n      add\n      swap2\n    tag_372:\n      pop\n      pop\n      pop\n      pop\n      pop\n      dup2\n      mstore\n      0x20\n      add\n      0x08\n      dup3\n      add\n      dup1\n      sload\n      dup1\n      0x20\n      mul\n      0x20\n      add\n      mload(0x40)\n      swap1\n      dup2\n      add\n      0x40\n      mstore\n      dup1\n      swap3\n      swap2\n      swap1\n      dup2\n      dup2\n      mstore\n      0x20\n      add\n      dup3\n      dup1\n      sload\n      dup1\n      iszero\n      tag_375\n      jumpi\n      0x20\n      mul\n      dup3\n      add\n      swap2\n      swap1\n      0x00\n      mstore\n      keccak256(0x00, 0x20)\n      swap1\n    tag_376:\n      dup2\n      sload\n      sub(shl(0xa0, 0x01), 0x01)\n      and\n      dup2\n      mstore\n      0x01\n      swap1\n      swap2\n      add\n      swap1\n      0x20\n      add\n      dup1\n      dup4\n      gt\n      tag_376\n      jumpi\n    tag_375:\n      pop\n      pop\n      pop\n      pop\n      pop\n      dup2\n      mstore\n      0x20\n      add\n      0x09\n      dup3\n      add\n      dup1\n      sload\n      tag_377\n      swap1\n      tag_188\n      jump\t// in\n    tag_377:\n      dup1\n      0x1f\n      add\n      0x20\n      dup1\n      swap2\n      div\n      mul\n      0x20\n      add\n      mload(0x40)\n      swap1\n      dup2\n      add\n      0x40\n      mstore\n      dup1\n      swap3\n      swap2\n      swap1\n      dup2\n      dup2\n      mstore\n      0x20\n      add\n      dup3\n      dup1\n      sload\n      tag_378\n      swap1\n      tag_188\n      jump\t// in\n    tag_378:\n      dup1\n      iszero\n      tag_379\n      jumpi\n      dup1\n      0x1f\n      lt\n      tag_380\n      jumpi\n      0x0100\n      dup1\n      dup4\n      sload\n      div\n      mul\n      dup4\n      mstore\n      swap2\n      0x20\n      add\n      swap2\n      jump(tag_379)\n    tag_380:\n      dup3\n      add\n      swap2\n      swap1\n      0x00\n      mstore\n      keccak256(0x00, 0x20)\n      swap1\n    tag_381:\n      dup2\n      sload\n      dup2\n      mstore\n      swap1\n      0x01\n      add\n      swap1\n      0x20\n      add\n      dup1\n      dup4\n      gt\n      tag_381\n      jumpi\n      dup3\n      swap1\n      sub\n      0x1f\n      and\n      dup3\n      add\n      swap2\n    tag_379:\n      pop\n      pop\n      pop\n      pop\n      pop\n      dup2\n      mstore\n      pop\n      pop\n      dup2\n      mstore\n      0x20\n      add\n      swap1\n      0x01\n      add\n      swap1\n      jump(tag_344)\n        /* \"DecentralizedMarketplace.sol\":11796:12760  function setTestData() public {... */\n    tag_83:\n        /* \"DecentralizedMarketplace.sol\":11860:11865  owner */\n      and(sub(shl(0xa0, 0x01), 0x01), sload(0x03))\n        /* \"DecentralizedMarketplace.sol\":11846:11856  msg.sender */\n      caller\n        /* \"DecentralizedMarketplace.sol\":11846:11865  msg.sender == owner */\n      eq\n        /* \"DecentralizedMarketplace.sol\":11837:11891  require( msg.sender == owner, \"you are not the owner\") */\n      tag_383\n      jumpi\n      mload(0x40)\n      shl(0xe5, 0x461bcd)\n      dup2\n      mstore\n        /* \"#utility.yul\":20506:20508   */\n      0x20\n        /* \"DecentralizedMarketplace.sol\":11837:11891  require( msg.sender == owner, \"you are not the owner\") */\n      0x04\n      dup3\n      add\n        /* \"#utility.yul\":20488:20509   */\n      mstore\n        /* \"#utility.yul\":20545:20547   */\n      0x15\n        /* \"#utility.yul\":20525:20543   */\n      0x24\n      dup3\n      add\n        /* \"#utility.yul\":20518:20548   */\n      mstore\n      shl(0x59, 0x3cb7ba9030b932903737ba103a34329037bbb732b9)\n        /* \"#utility.yul\":20564:20582   */\n      0x44\n      dup3\n      add\n        /* \"#utility.yul\":20557:20608   */\n      mstore\n        /* \"#utility.yul\":20625:20643   */\n      0x64\n      add\n        /* \"DecentralizedMarketplace.sol\":11837:11891  require( msg.sender == owner, \"you are not the owner\") */\n      tag_132\n        /* \"#utility.yul\":20304:20649   */\n      jump\n        /* \"DecentralizedMarketplace.sol\":11837:11891  require( msg.sender == owner, \"you are not the owner\") */\n    tag_383:\n        /* \"DecentralizedMarketplace.sol\":11902:12027  addGood(\"apple\", \"this is a apple\", 1 ether, 10, \"https://www.collinsdictionary.com/images/full/apple_158989157.jpg\", \"Food\") */\n      tag_386\n      mload(0x40)\n      dup1\n      0x40\n      add\n      0x40\n      mstore\n      dup1\n      0x05\n      dup2\n      mstore\n      0x20\n      add\n      shl(0xd8, 0x6170706c65)\n      dup2\n      mstore\n      pop\n      mload(0x40)\n      dup1\n      0x40\n      add\n      0x40\n      mstore\n      dup1\n      0x0f\n      dup2\n      mstore\n      0x20\n      add\n      shl(0x88, 0x746869732069732061206170706c65)\n      dup2\n      mstore\n      pop\n        /* \"DecentralizedMarketplace.sol\":11938:11945  1 ether */\n      0x0de0b6b3a7640000\n        /* \"DecentralizedMarketplace.sol\":11947:11949  10 */\n      0x0a\n        /* \"DecentralizedMarketplace.sol\":11902:12027  addGood(\"apple\", \"this is a apple\", 1 ether, 10, \"https://www.collinsdictionary.com/images/full/apple_158989157.jpg\", \"Food\") */\n      mload(0x40)\n      dup1\n      0x80\n      add\n      0x40\n      mstore\n      dup1\n      0x41\n      dup2\n      mstore\n      0x20\n      add\n      data_29c1fcc64eee609a1c2cde83f189b1e0015e5756b5fd30d340172b1a67d05a5a\n      0x41\n      swap2\n      codecopy\n      mload(0x40)\n      dup1\n      0x40\n      add\n      0x40\n      mstore\n      dup1\n      0x04\n      dup2\n      mstore\n      0x20\n      add\n      shl(0xe2, 0x119bdbd9)\n      dup2\n      mstore\n      pop\n        /* \"DecentralizedMarketplace.sol\":11902:11909  addGood */\n      tag_44\n        /* \"DecentralizedMarketplace.sol\":11902:12027  addGood(\"apple\", \"this is a apple\", 1 ether, 10, \"https://www.collinsdictionary.com/images/full/apple_158989157.jpg\", \"Food\") */\n      jump\t// in\n    tag_386:\n        /* \"DecentralizedMarketplace.sol\":12038:12245  addGood(\"iphone\", \"this is iphone 15\", 2 ether, 10, \"https://shop.switch.com.my/cdn/shop/files/iPhone_15_Pink_PDP_Image_Position-1__GBEN_7cf60425-0d5a-4bc9-bfd9-645b9c86e68e.jpg?v=1717694179\", \"Electronics\") */\n      tag_387\n      mload(0x40)\n      dup1\n      0x40\n      add\n      0x40\n      mstore\n      dup1\n      0x06\n      dup2\n      mstore\n      0x20\n      add\n      shl(0xd0, 0x6970686f6e65)\n      dup2\n      mstore\n      pop\n      mload(0x40)\n      dup1\n      0x40\n      add\n      0x40\n      mstore\n      dup1\n      0x11\n      dup2\n      mstore\n      0x20\n      add\n      shl(0x78, 0x74686973206973206970686f6e65203135)\n      dup2\n      mstore\n      pop\n        /* \"DecentralizedMarketplace.sol\":12077:12084  2 ether */\n      0x1bc16d674ec80000\n        /* \"DecentralizedMarketplace.sol\":12086:12088  10 */\n      0x0a\n        /* \"DecentralizedMarketplace.sol\":12038:12245  addGood(\"iphone\", \"this is iphone 15\", 2 ether, 10, \"https://shop.switch.com.my/cdn/shop/files/iPhone_15_Pink_PDP_Image_Position-1__GBEN_7cf60425-0d5a-4bc9-bfd9-645b9c86e68e.jpg?v=1717694179\", \"Electronics\") */\n      mload(0x40)\n      dup1\n      0xc0\n      add\n      0x40\n      mstore\n      dup1\n      0x89\n      dup2\n      mstore\n      0x20\n      add\n      data_5cb3968da822e5910b26d80b07572577230bbd6821273113a3e5e176406553b4\n      0x89\n      swap2\n      codecopy\n      mload(0x40)\n      dup1\n      0x40\n      add\n      0x40\n      mstore\n      dup1\n      0x0b\n      dup2\n      mstore\n      0x20\n      add\n      shl(0xa8, 0x456c656374726f6e696373)\n      dup2\n      mstore\n      pop\n        /* \"DecentralizedMarketplace.sol\":12038:12045  addGood */\n      tag_44\n        /* \"DecentralizedMarketplace.sol\":12038:12245  addGood(\"iphone\", \"this is iphone 15\", 2 ether, 10, \"https://shop.switch.com.my/cdn/shop/files/iPhone_15_Pink_PDP_Image_Position-1__GBEN_7cf60425-0d5a-4bc9-bfd9-645b9c86e68e.jpg?v=1717694179\", \"Electronics\") */\n      jump\t// in\n    tag_387:\n        /* \"DecentralizedMarketplace.sol\":12256:12478  addGood(\"bed\", \"this is a bed\", 3 ether, 10, \"https://www.fortytwo.my/media/catalog/product/cache/1/image/3000x/9df78eab33525d08d6e5fb8d27136e95/s/a/santiago_upholstered_queen_bed_grey___mg_5495__cropped.jpg\", \"Furniture\") */\n      tag_388\n      mload(0x40)\n      dup1\n      0x40\n      add\n      0x40\n      mstore\n      dup1\n      0x03\n      dup2\n      mstore\n      0x20\n      add\n      shl(0xea, 0x189959)\n      dup2\n      mstore\n      pop\n      mload(0x40)\n      dup1\n      0x40\n      add\n      0x40\n      mstore\n      dup1\n      0x0d\n      dup2\n      mstore\n      0x20\n      add\n      shl(0x9a, 0x1d1a1a5cc81a5cc81848189959)\n      dup2\n      mstore\n      pop\n        /* \"DecentralizedMarketplace.sol\":12288:12295  3 ether */\n      0x29a2241af62c0000\n        /* \"DecentralizedMarketplace.sol\":12297:12299  10 */\n      0x0a\n        /* \"DecentralizedMarketplace.sol\":12256:12478  addGood(\"bed\", \"this is a bed\", 3 ether, 10, \"https://www.fortytwo.my/media/catalog/product/cache/1/image/3000x/9df78eab33525d08d6e5fb8d27136e95/s/a/santiago_upholstered_queen_bed_grey___mg_5495__cropped.jpg\", \"Furniture\") */\n      mload(0x40)\n      dup1\n      0xe0\n      add\n      0x40\n      mstore\n      dup1\n      0xa1\n      dup2\n      mstore\n      0x20\n      add\n      data_1c16900e2a5a8cac2e958d7c34a772ec0296616e7d588c11b7ce7006a6166283\n      0xa1\n      swap2\n      codecopy\n      mload(0x40)\n      dup1\n      0x40\n      add\n      0x40\n      mstore\n      dup1\n      0x09\n      dup2\n      mstore\n      0x20\n      add\n      shl(0xb8, 0x4675726e6974757265)\n      dup2\n      mstore\n      pop\n        /* \"DecentralizedMarketplace.sol\":12256:12263  addGood */\n      tag_44\n        /* \"DecentralizedMarketplace.sol\":12256:12478  addGood(\"bed\", \"this is a bed\", 3 ether, 10, \"https://www.fortytwo.my/media/catalog/product/cache/1/image/3000x/9df78eab33525d08d6e5fb8d27136e95/s/a/santiago_upholstered_queen_bed_grey___mg_5495__cropped.jpg\", \"Furniture\") */\n      jump\t// in\n    tag_388:\n        /* \"DecentralizedMarketplace.sol\":12489:12504  addToCart(0, 1) */\n      tag_389\n        /* \"DecentralizedMarketplace.sol\":12499:12500  0 */\n      0x00\n        /* \"DecentralizedMarketplace.sol\":12502:12503  1 */\n      0x01\n        /* \"DecentralizedMarketplace.sol\":12489:12498  addToCart */\n      tag_51\n        /* \"DecentralizedMarketplace.sol\":12489:12504  addToCart(0, 1) */\n      jump\t// in\n    tag_389:\n        /* \"DecentralizedMarketplace.sol\":12515:12530  addToCart(1, 2) */\n      tag_390\n        /* \"DecentralizedMarketplace.sol\":12525:12526  1 */\n      0x01\n        /* \"DecentralizedMarketplace.sol\":12528:12529  2 */\n      0x02\n        /* \"DecentralizedMarketplace.sol\":12515:12524  addToCart */\n      tag_51\n        /* \"DecentralizedMarketplace.sol\":12515:12530  addToCart(1, 2) */\n      jump\t// in\n    tag_390:\n        /* \"DecentralizedMarketplace.sol\":12541:12556  addToCart(2, 3) */\n      tag_391\n        /* \"DecentralizedMarketplace.sol\":12551:12552  2 */\n      0x02\n        /* \"DecentralizedMarketplace.sol\":12554:12555  3 */\n      0x03\n        /* \"DecentralizedMarketplace.sol\":12541:12550  addToCart */\n      tag_51\n        /* \"DecentralizedMarketplace.sol\":12541:12556  addToCart(2, 3) */\n      jump\t// in\n    tag_391:\n        /* \"DecentralizedMarketplace.sol\":12567:12605  addComment(\"jason1\", \"comment1\", 5, 0) */\n      tag_392\n      mload(0x40)\n      dup1\n      0x40\n      add\n      0x40\n      mstore\n      dup1\n      0x06\n      dup2\n      mstore\n      0x20\n      add\n      shl(0xd0, 0x6a61736f6e31)\n      dup2\n      mstore\n      pop\n      mload(0x40)\n      dup1\n      0x40\n      add\n      0x40\n      mstore\n      dup1\n      0x08\n      dup2\n      mstore\n      0x20\n      add\n      shl(0xc0, 0x636f6d6d656e7431)\n      dup2\n      mstore\n      pop\n        /* \"DecentralizedMarketplace.sol\":12600:12601  5 */\n      0x05\n        /* \"DecentralizedMarketplace.sol\":12603:12604  0 */\n      0x00\n        /* \"DecentralizedMarketplace.sol\":12567:12577  addComment */\n      tag_90\n        /* \"DecentralizedMarketplace.sol\":12567:12605  addComment(\"jason1\", \"comment1\", 5, 0) */\n      jump\t// in\n    tag_392:\n        /* \"DecentralizedMarketplace.sol\":12616:12654  addComment(\"jason2\", \"comment2\", 3, 0) */\n      tag_393\n      mload(0x40)\n      dup1\n      0x40\n      add\n      0x40\n      mstore\n      dup1\n      0x06\n      dup2\n      mstore\n      0x20\n      add\n      shl(0xd1, 0x3530b9b7b719)\n      dup2\n      mstore\n      pop\n      mload(0x40)\n      dup1\n      0x40\n      add\n      0x40\n      mstore\n      dup1\n      0x08\n      dup2\n      mstore\n      0x20\n      add\n      shl(0xc1, 0x31b7b6b6b2b73a19)\n      dup2\n      mstore\n      pop\n        /* \"DecentralizedMarketplace.sol\":12649:12650  3 */\n      0x03\n        /* \"DecentralizedMarketplace.sol\":12652:12653  0 */\n      0x00\n        /* \"DecentralizedMarketplace.sol\":12616:12626  addComment */\n      tag_90\n        /* \"DecentralizedMarketplace.sol\":12616:12654  addComment(\"jason2\", \"comment2\", 3, 0) */\n      jump\t// in\n    tag_393:\n        /* \"DecentralizedMarketplace.sol\":12665:12703  addComment(\"jason3\", \"comment3\", 4, 0) */\n      tag_394\n      mload(0x40)\n      dup1\n      0x40\n      add\n      0x40\n      mstore\n      dup1\n      0x06\n      dup2\n      mstore\n      0x20\n      add\n      shl(0xd0, 0x6a61736f6e33)\n      dup2\n      mstore\n      pop\n      mload(0x40)\n      dup1\n      0x40\n      add\n      0x40\n      mstore\n      dup1\n      0x08\n      dup2\n      mstore\n      0x20\n      add\n      shl(0xc0, 0x636f6d6d656e7433)\n      dup2\n      mstore\n      pop\n        /* \"DecentralizedMarketplace.sol\":12698:12699  4 */\n      0x04\n        /* \"DecentralizedMarketplace.sol\":12701:12702  0 */\n      0x00\n        /* \"DecentralizedMarketplace.sol\":12665:12675  addComment */\n      tag_90\n        /* \"DecentralizedMarketplace.sol\":12665:12703  addComment(\"jason3\", \"comment3\", 4, 0) */\n      jump\t// in\n    tag_394:\n        /* \"DecentralizedMarketplace.sol\":12714:12752  addComment(\"jason1\", \"comment4\", 1, 1) */\n      tag_395\n      mload(0x40)\n      dup1\n      0x40\n      add\n      0x40\n      mstore\n      dup1\n      0x06\n      dup2\n      mstore\n      0x20\n      add\n      shl(0xd0, 0x6a61736f6e31)\n      dup2\n      mstore\n      pop\n      mload(0x40)\n      dup1\n      0x40\n      add\n      0x40\n      mstore\n      dup1\n      0x08\n      dup2\n      mstore\n      0x20\n      add\n      shl(0xc2, 0x18dbdb5b595b9d0d)\n      dup2\n      mstore\n      pop\n        /* \"DecentralizedMarketplace.sol\":12747:12748  1 */\n      0x01\n        /* \"DecentralizedMarketplace.sol\":12750:12751  1 */\n      dup1\n        /* \"DecentralizedMarketplace.sol\":12714:12724  addComment */\n      tag_90\n        /* \"DecentralizedMarketplace.sol\":12714:12752  addComment(\"jason1\", \"comment4\", 1, 1) */\n      jump\t// in\n    tag_395:\n        /* \"DecentralizedMarketplace.sol\":11796:12760  function setTestData() public {... */\n      jump\t// out\n        /* \"DecentralizedMarketplace.sol\":8353:8942  function removeFromCart(uint256 goodId) public {... */\n    tag_86:\n        /* \"DecentralizedMarketplace.sol\":8434:8444  msg.sender */\n      caller\n        /* \"DecentralizedMarketplace.sol\":8411:8425  uint256 length */\n      0x00\n        /* \"DecentralizedMarketplace.sol\":8428:8445  carts[msg.sender] */\n      swap1\n      dup2\n      mstore\n        /* \"DecentralizedMarketplace.sol\":8428:8433  carts */\n      0x04\n        /* \"DecentralizedMarketplace.sol\":8428:8445  carts[msg.sender] */\n      0x20\n      mstore\n      0x40\n      dup2\n      keccak256\n        /* \"DecentralizedMarketplace.sol\":8428:8452  carts[msg.sender].length */\n      sload\n      swap1\n        /* \"DecentralizedMarketplace.sol\":8463:8892  for (uint256 i = 0; i < length; i++) {... */\n    tag_397:\n        /* \"DecentralizedMarketplace.sol\":8487:8493  length */\n      dup2\n        /* \"DecentralizedMarketplace.sol\":8483:8484  i */\n      dup2\n        /* \"DecentralizedMarketplace.sol\":8483:8493  i < length */\n      lt\n        /* \"DecentralizedMarketplace.sol\":8463:8892  for (uint256 i = 0; i < length; i++) {... */\n      iszero\n      tag_398\n      jumpi\n        /* \"DecentralizedMarketplace.sol\":8525:8535  msg.sender */\n      caller\n        /* \"DecentralizedMarketplace.sol\":8519:8536  carts[msg.sender] */\n      0x00\n      swap1\n      dup2\n      mstore\n        /* \"DecentralizedMarketplace.sol\":8519:8524  carts */\n      0x04\n        /* \"DecentralizedMarketplace.sol\":8519:8536  carts[msg.sender] */\n      0x20\n      mstore\n      0x40\n      swap1\n      keccak256\n        /* \"DecentralizedMarketplace.sol\":8519:8539  carts[msg.sender][i] */\n      dup1\n      sload\n        /* \"DecentralizedMarketplace.sol\":8550:8556  goodId */\n      dup5\n      swap2\n        /* \"DecentralizedMarketplace.sol\":8519:8536  carts[msg.sender] */\n      swap1\n        /* \"DecentralizedMarketplace.sol\":8537:8538  i */\n      dup4\n      swap1\n        /* \"DecentralizedMarketplace.sol\":8519:8539  carts[msg.sender][i] */\n      dup2\n      lt\n      tag_401\n      jumpi\n      tag_401\n      tag_94\n      jump\t// in\n    tag_401:\n      swap1\n      0x00\n      mstore\n      keccak256(0x00, 0x20)\n      swap1\n      0x02\n      mul\n      add\n        /* \"DecentralizedMarketplace.sol\":8519:8546  carts[msg.sender][i].goodId */\n      0x00\n      add\n      sload\n        /* \"DecentralizedMarketplace.sol\":8519:8556  carts[msg.sender][i].goodId == goodId */\n      sub\n        /* \"DecentralizedMarketplace.sol\":8515:8881  if (carts[msg.sender][i].goodId == goodId) {... */\n      tag_403\n      jumpi\n        /* \"DecentralizedMarketplace.sol\":8641:8642  i */\n      dup1\n        /* \"DecentralizedMarketplace.sol\":8624:8755  for (uint256 j = i; j < length - 1; j++) {... */\n    tag_404:\n        /* \"DecentralizedMarketplace.sol\":8648:8658  length - 1 */\n      tag_407\n        /* \"DecentralizedMarketplace.sol\":8657:8658  1 */\n      0x01\n        /* \"DecentralizedMarketplace.sol\":8648:8654  length */\n      dup5\n        /* \"DecentralizedMarketplace.sol\":8648:8658  length - 1 */\n      tag_144\n      jump\t// in\n    tag_407:\n        /* \"DecentralizedMarketplace.sol\":8644:8645  j */\n      dup2\n        /* \"DecentralizedMarketplace.sol\":8644:8658  j < length - 1 */\n      lt\n        /* \"DecentralizedMarketplace.sol\":8624:8755  for (uint256 j = i; j < length - 1; j++) {... */\n      iszero\n      tag_405\n      jumpi\n        /* \"DecentralizedMarketplace.sol\":8717:8727  msg.sender */\n      caller\n        /* \"DecentralizedMarketplace.sol\":8711:8728  carts[msg.sender] */\n      0x00\n      swap1\n      dup2\n      mstore\n        /* \"DecentralizedMarketplace.sol\":8711:8716  carts */\n      0x04\n        /* \"DecentralizedMarketplace.sol\":8711:8728  carts[msg.sender] */\n      0x20\n      mstore\n      0x40\n      swap1\n      keccak256\n        /* \"DecentralizedMarketplace.sol\":8729:8734  j + 1 */\n      tag_408\n        /* \"DecentralizedMarketplace.sol\":8729:8730  j */\n      dup3\n        /* \"DecentralizedMarketplace.sol\":8733:8734  1 */\n      0x01\n        /* \"DecentralizedMarketplace.sol\":8729:8734  j + 1 */\n      tag_233\n      jump\t// in\n    tag_408:\n        /* \"DecentralizedMarketplace.sol\":8711:8735  carts[msg.sender][j + 1] */\n      dup2\n      sload\n      dup2\n      lt\n      tag_410\n      jumpi\n      tag_410\n      tag_94\n      jump\t// in\n    tag_410:\n      swap1\n      0x00\n      mstore\n      keccak256(0x00, 0x20)\n      swap1\n      0x02\n      mul\n      add\n        /* \"DecentralizedMarketplace.sol\":8688:8693  carts */\n      0x04\n        /* \"DecentralizedMarketplace.sol\":8688:8705  carts[msg.sender] */\n      0x00\n        /* \"DecentralizedMarketplace.sol\":8694:8704  msg.sender */\n      caller\n      sub(shl(0xa0, 0x01), 0x01)\n        /* \"DecentralizedMarketplace.sol\":8688:8705  carts[msg.sender] */\n      and\n      sub(shl(0xa0, 0x01), 0x01)\n      and\n      dup2\n      mstore\n      0x20\n      add\n      swap1\n      dup2\n      mstore\n      0x20\n      add\n      0x00\n      keccak256\n        /* \"DecentralizedMarketplace.sol\":8706:8707  j */\n      dup3\n        /* \"DecentralizedMarketplace.sol\":8688:8708  carts[msg.sender][j] */\n      dup2\n      sload\n      dup2\n      lt\n      tag_413\n      jumpi\n      tag_413\n      tag_94\n      jump\t// in\n    tag_413:\n      0x00\n      swap2\n      dup3\n      mstore\n      0x20\n      swap1\n      swap2\n      keccak256\n        /* \"DecentralizedMarketplace.sol\":8688:8735  carts[msg.sender][j] = carts[msg.sender][j + 1] */\n      dup3\n      sload\n        /* \"DecentralizedMarketplace.sol\":8688:8708  carts[msg.sender][j] */\n      0x02\n      swap1\n      swap3\n      mul\n      add\n        /* \"DecentralizedMarketplace.sol\":8688:8735  carts[msg.sender][j] = carts[msg.sender][j + 1] */\n      swap1\n      dup2\n      sstore\n      0x01\n      swap2\n      dup3\n      add\n      sload\n      swap2\n      add\n      sstore\n        /* \"DecentralizedMarketplace.sol\":8660:8663  j++ */\n      dup1\n      tag_415\n      dup2\n      tag_235\n      jump\t// in\n    tag_415:\n      swap2\n      pop\n      pop\n        /* \"DecentralizedMarketplace.sol\":8624:8755  for (uint256 j = i; j < length - 1; j++) {... */\n      jump(tag_404)\n    tag_405:\n      pop\n        /* \"DecentralizedMarketplace.sol\":8823:8833  msg.sender */\n      caller\n        /* \"DecentralizedMarketplace.sol\":8817:8834  carts[msg.sender] */\n      0x00\n      swap1\n      dup2\n      mstore\n        /* \"DecentralizedMarketplace.sol\":8817:8822  carts */\n      0x04\n        /* \"DecentralizedMarketplace.sol\":8817:8834  carts[msg.sender] */\n      0x20\n      mstore\n      0x40\n      swap1\n      keccak256\n        /* \"DecentralizedMarketplace.sol\":8817:8840  carts[msg.sender].pop() */\n      dup1\n      sload\n      dup1\n      tag_417\n      jumpi\n      tag_417\n      tag_418\n      jump\t// in\n    tag_417:\n      0x00\n      dup3\n      dup2\n      mstore\n      0x20\n      dup2\n      keccak256\n      0x02\n      not(0x00)\n      swap1\n      swap4\n      add\n      swap3\n      dup4\n      mul\n      add\n      dup2\n      dup2\n      sstore\n      0x01\n      add\n      sstore\n      swap1\n      sstore\n      pop\n      pop\n      pop\n        /* \"DecentralizedMarketplace.sol\":8353:8942  function removeFromCart(uint256 goodId) public {... */\n      jump\t// out\n        /* \"DecentralizedMarketplace.sol\":8515:8881  if (carts[msg.sender][i].goodId == goodId) {... */\n    tag_403:\n        /* \"DecentralizedMarketplace.sol\":8495:8498  i++ */\n      dup1\n      tag_420\n      dup2\n      tag_235\n      jump\t// in\n    tag_420:\n      swap2\n      pop\n      pop\n        /* \"DecentralizedMarketplace.sol\":8463:8892  for (uint256 i = 0; i < length; i++) {... */\n      jump(tag_397)\n    tag_398:\n      pop\n        /* \"DecentralizedMarketplace.sol\":8902:8934  revert(\"Item not found in cart\") */\n      mload(0x40)\n      shl(0xe5, 0x461bcd)\n      dup2\n      mstore\n        /* \"#utility.yul\":20988:20990   */\n      0x20\n        /* \"DecentralizedMarketplace.sol\":8902:8934  revert(\"Item not found in cart\") */\n      0x04\n      dup3\n      add\n        /* \"#utility.yul\":20970:20991   */\n      mstore\n        /* \"#utility.yul\":21027:21029   */\n      0x16\n        /* \"#utility.yul\":21007:21025   */\n      0x24\n      dup3\n      add\n        /* \"#utility.yul\":21000:21030   */\n      mstore\n      shl(0x52, 0x125d195b481b9bdd08199bdd5b99081a5b8818d85c9d)\n        /* \"#utility.yul\":21046:21064   */\n      0x44\n      dup3\n      add\n        /* \"#utility.yul\":21039:21091   */\n      mstore\n        /* \"#utility.yul\":21108:21126   */\n      0x64\n      add\n        /* \"DecentralizedMarketplace.sol\":8902:8934  revert(\"Item not found in cart\") */\n      tag_132\n        /* \"#utility.yul\":20786:21132   */\n      jump\n        /* \"DecentralizedMarketplace.sol\":5039:5881  function addComment(string memory _name, string memory _comment, uint8 _star, uint256 goodID) public {... */\n    tag_90:\n        /* \"DecentralizedMarketplace.sol\":5151:5165  bool buyBefore */\n      0x00\n        /* \"DecentralizedMarketplace.sol\":5193:5194  5 */\n      0x05\n        /* \"DecentralizedMarketplace.sol\":5184:5189  _star */\n      dup4\n        /* \"DecentralizedMarketplace.sol\":5184:5194  _star <= 5 */\n      0xff\n      and\n      gt\n      iszero\n        /* \"DecentralizedMarketplace.sol\":5176:5234  require(_star <= 5, \"Star rating must be between 0 and 5\") */\n      tag_424\n      jumpi\n      mload(0x40)\n      shl(0xe5, 0x461bcd)\n      dup2\n      mstore\n        /* \"#utility.yul\":21339:21341   */\n      0x20\n        /* \"DecentralizedMarketplace.sol\":5176:5234  require(_star <= 5, \"Star rating must be between 0 and 5\") */\n      0x04\n      dup3\n      add\n        /* \"#utility.yul\":21321:21342   */\n      mstore\n        /* \"#utility.yul\":21378:21380   */\n      0x23\n        /* \"#utility.yul\":21358:21376   */\n      0x24\n      dup3\n      add\n        /* \"#utility.yul\":21351:21381   */\n      mstore\n        /* \"#utility.yul\":21417:21451   */\n      0x5374617220726174696e67206d757374206265206265747765656e203020616e\n        /* \"#utility.yul\":21397:21415   */\n      0x44\n      dup3\n      add\n        /* \"#utility.yul\":21390:21452   */\n      mstore\n      shl(0xe8, 0x642035)\n        /* \"#utility.yul\":21468:21486   */\n      0x64\n      dup3\n      add\n        /* \"#utility.yul\":21461:21494   */\n      mstore\n        /* \"#utility.yul\":21511:21530   */\n      0x84\n      add\n        /* \"DecentralizedMarketplace.sol\":5176:5234  require(_star <= 5, \"Star rating must be between 0 and 5\") */\n      tag_132\n        /* \"#utility.yul\":21137:21536   */\n      jump\n        /* \"DecentralizedMarketplace.sol\":5176:5234  require(_star <= 5, \"Star rating must be between 0 and 5\") */\n    tag_424:\n        /* \"DecentralizedMarketplace.sol\":5250:5256  uint i */\n      0x00\n        /* \"DecentralizedMarketplace.sol\":5245:5434  for (uint i = 0; i < goods[goodID].buyBefore.length; i++) ... */\n    tag_427:\n        /* \"DecentralizedMarketplace.sol\":5266:5271  goods */\n      0x02\n        /* \"DecentralizedMarketplace.sol\":5272:5278  goodID */\n      dup4\n        /* \"DecentralizedMarketplace.sol\":5266:5279  goods[goodID] */\n      dup2\n      sload\n      dup2\n      lt\n      tag_431\n      jumpi\n      tag_431\n      tag_94\n      jump\t// in\n    tag_431:\n      swap1\n      0x00\n      mstore\n      keccak256(0x00, 0x20)\n      swap1\n      0x0a\n      mul\n      add\n        /* \"DecentralizedMarketplace.sol\":5266:5289  goods[goodID].buyBefore */\n      0x08\n      add\n        /* \"DecentralizedMarketplace.sol\":5266:5296  goods[goodID].buyBefore.length */\n      dup1\n      sload\n      swap1\n      pop\n        /* \"DecentralizedMarketplace.sol\":5262:5263  i */\n      dup2\n        /* \"DecentralizedMarketplace.sol\":5262:5296  i < goods[goodID].buyBefore.length */\n      lt\n        /* \"DecentralizedMarketplace.sol\":5245:5434  for (uint i = 0; i < goods[goodID].buyBefore.length; i++) ... */\n      iszero\n      tag_428\n      jumpi\n        /* \"DecentralizedMarketplace.sol\":5361:5371  msg.sender */\n      caller\n      sub(shl(0xa0, 0x01), 0x01)\n        /* \"DecentralizedMarketplace.sol\":5331:5371  goods[goodID].buyBefore[i] == msg.sender */\n      and\n        /* \"DecentralizedMarketplace.sol\":5331:5336  goods */\n      0x02\n        /* \"DecentralizedMarketplace.sol\":5337:5343  goodID */\n      dup5\n        /* \"DecentralizedMarketplace.sol\":5331:5344  goods[goodID] */\n      dup2\n      sload\n      dup2\n      lt\n      tag_434\n      jumpi\n      tag_434\n      tag_94\n      jump\t// in\n    tag_434:\n      swap1\n      0x00\n      mstore\n      keccak256(0x00, 0x20)\n      swap1\n      0x0a\n      mul\n      add\n        /* \"DecentralizedMarketplace.sol\":5331:5354  goods[goodID].buyBefore */\n      0x08\n      add\n        /* \"DecentralizedMarketplace.sol\":5355:5356  i */\n      dup3\n        /* \"DecentralizedMarketplace.sol\":5331:5357  goods[goodID].buyBefore[i] */\n      dup2\n      sload\n      dup2\n      lt\n      tag_437\n      jumpi\n      tag_437\n      tag_94\n      jump\t// in\n    tag_437:\n      0x00\n      swap2\n      dup3\n      mstore\n      0x20\n      swap1\n      swap2\n      keccak256\n      add\n      sload\n      sub(shl(0xa0, 0x01), 0x01)\n      and\n        /* \"DecentralizedMarketplace.sol\":5331:5371  goods[goodID].buyBefore[i] == msg.sender */\n      sub\n        /* \"DecentralizedMarketplace.sol\":5328:5423  if(goods[goodID].buyBefore[i] == msg.sender){... */\n      tag_439\n      jumpi\n        /* \"DecentralizedMarketplace.sol\":5403:5407  true */\n      0x01\n        /* \"DecentralizedMarketplace.sol\":5391:5407  buyBefore = true */\n      swap2\n      pop\n        /* \"DecentralizedMarketplace.sol\":5328:5423  if(goods[goodID].buyBefore[i] == msg.sender){... */\n    tag_439:\n        /* \"DecentralizedMarketplace.sol\":5298:5301  i++ */\n      dup1\n      tag_440\n      dup2\n      tag_235\n      jump\t// in\n    tag_440:\n      swap2\n      pop\n      pop\n        /* \"DecentralizedMarketplace.sol\":5245:5434  for (uint i = 0; i < goods[goodID].buyBefore.length; i++) ... */\n      jump(tag_427)\n    tag_428:\n      pop\n        /* \"DecentralizedMarketplace.sol\":5452:5461  buyBefore */\n      dup1\n        /* \"DecentralizedMarketplace.sol\":5452:5486  buyBefore || (msg.sender == owner) */\n      dup1\n      tag_441\n      jumpi\n      pop\n        /* \"DecentralizedMarketplace.sol\":5480:5485  owner */\n      and(sub(shl(0xa0, 0x01), 0x01), sload(0x03))\n        /* \"DecentralizedMarketplace.sol\":5466:5476  msg.sender */\n      caller\n        /* \"DecentralizedMarketplace.sol\":5466:5485  msg.sender == owner */\n      eq\n        /* \"DecentralizedMarketplace.sol\":5452:5486  buyBefore || (msg.sender == owner) */\n    tag_441:\n        /* \"DecentralizedMarketplace.sol\":5444:5521  require(buyBefore || (msg.sender == owner), \"you need to buy the good first\") */\n      tag_442\n      jumpi\n      mload(0x40)\n      shl(0xe5, 0x461bcd)\n      dup2\n      mstore\n        /* \"#utility.yul\":21743:21745   */\n      0x20\n        /* \"DecentralizedMarketplace.sol\":5444:5521  require(buyBefore || (msg.sender == owner), \"you need to buy the good first\") */\n      0x04\n      dup3\n      add\n        /* \"#utility.yul\":21725:21746   */\n      mstore\n        /* \"#utility.yul\":21782:21784   */\n      0x1e\n        /* \"#utility.yul\":21762:21780   */\n      0x24\n      dup3\n      add\n        /* \"#utility.yul\":21755:21785   */\n      mstore\n        /* \"#utility.yul\":21821:21853   */\n      0x796f75206e65656420746f206275792074686520676f6f642066697273740000\n        /* \"#utility.yul\":21801:21819   */\n      0x44\n      dup3\n      add\n        /* \"#utility.yul\":21794:21854   */\n      mstore\n        /* \"#utility.yul\":21871:21889   */\n      0x64\n      add\n        /* \"DecentralizedMarketplace.sol\":5444:5521  require(buyBefore || (msg.sender == owner), \"you need to buy the good first\") */\n      tag_132\n        /* \"#utility.yul\":21541:21895   */\n      jump\n        /* \"DecentralizedMarketplace.sol\":5444:5521  require(buyBefore || (msg.sender == owner), \"you need to buy the good first\") */\n    tag_442:\n        /* \"DecentralizedMarketplace.sol\":5567:5592  Comment memory newComment */\n      0x00\n        /* \"DecentralizedMarketplace.sol\":5595:5699  Comment({... */\n      mload(0x40)\n      dup1\n      0x60\n      add\n      0x40\n      mstore\n      dup1\n        /* \"DecentralizedMarketplace.sol\":5624:5629  _name */\n      dup8\n        /* \"DecentralizedMarketplace.sol\":5595:5699  Comment({... */\n      dup2\n      mstore\n      0x20\n      add\n        /* \"DecentralizedMarketplace.sol\":5653:5661  _comment */\n      dup7\n        /* \"DecentralizedMarketplace.sol\":5595:5699  Comment({... */\n      dup2\n      mstore\n      0x20\n      add\n        /* \"DecentralizedMarketplace.sol\":5682:5687  _star */\n      dup6\n        /* \"DecentralizedMarketplace.sol\":5595:5699  Comment({... */\n      0xff\n      and\n      dup2\n      mstore\n      pop\n        /* \"DecentralizedMarketplace.sol\":5567:5699  Comment memory newComment = Comment({... */\n      swap1\n      pop\n        /* \"DecentralizedMarketplace.sol\":5753:5758  goods */\n      0x02\n        /* \"DecentralizedMarketplace.sol\":5759:5765  goodID */\n      dup4\n        /* \"DecentralizedMarketplace.sol\":5753:5766  goods[goodID] */\n      dup2\n      sload\n      dup2\n      lt\n      tag_446\n      jumpi\n      tag_446\n      tag_94\n      jump\t// in\n    tag_446:\n      0x00\n      swap2\n      dup3\n      mstore\n      0x20\n      dup1\n      dup4\n      keccak256\n        /* \"DecentralizedMarketplace.sol\":5753:5774  goods[goodID].comment */\n      0x05\n        /* \"DecentralizedMarketplace.sol\":5753:5766  goods[goodID] */\n      0x0a\n      swap1\n      swap4\n      mul\n      add\n        /* \"DecentralizedMarketplace.sol\":5753:5774  goods[goodID].comment */\n      swap2\n      swap1\n      swap2\n      add\n        /* \"DecentralizedMarketplace.sol\":5753:5791  goods[goodID].comment.push(newComment) */\n      dup1\n      sload\n      0x01\n      dup2\n      add\n      dup3\n      sstore\n      swap1\n      dup4\n      mstore\n      swap2\n      keccak256\n      dup3\n      mload\n        /* \"DecentralizedMarketplace.sol\":5780:5790  newComment */\n      dup4\n      swap3\n        /* \"DecentralizedMarketplace.sol\":5753:5791  goods[goodID].comment.push(newComment) */\n      0x03\n      mul\n      swap1\n      swap2\n      add\n      swap1\n      dup2\n      swap1\n      tag_449\n      swap1\n      dup3\n      tag_97\n      jump\t// in\n    tag_449:\n      pop\n      0x20\n      dup3\n      add\n      mload\n      0x01\n      dup3\n      add\n      swap1\n      tag_450\n      swap1\n      dup3\n      tag_97\n      jump\t// in\n    tag_450:\n      pop\n      0x40\n      swap2\n      swap1\n      swap2\n      add\n      mload\n      0x02\n      swap1\n      swap2\n      add\n      dup1\n      sload\n      not(0xff)\n      and\n      0xff\n      swap1\n      swap3\n      and\n      swap2\n      swap1\n      swap2\n      or\n      swap1\n      sstore\n      pop\n      pop\n      pop\n      pop\n      pop\n      pop\n        /* \"DecentralizedMarketplace.sol\":5039:5881  function addComment(string memory _name, string memory _comment, uint8 _star, uint256 goodID) public {... */\n      jump\t// out\n        /* \"#utility.yul\":14:141   */\n    tag_451:\n        /* \"#utility.yul\":75:85   */\n      0x4e487b71\n        /* \"#utility.yul\":70:73   */\n      0xe0\n        /* \"#utility.yul\":66:86   */\n      shl\n        /* \"#utility.yul\":63:64   */\n      0x00\n        /* \"#utility.yul\":56:87   */\n      mstore\n        /* \"#utility.yul\":106:110   */\n      0x41\n        /* \"#utility.yul\":103:104   */\n      0x04\n        /* \"#utility.yul\":96:111   */\n      mstore\n        /* \"#utility.yul\":130:134   */\n      0x24\n        /* \"#utility.yul\":127:128   */\n      0x00\n        /* \"#utility.yul\":120:135   */\n      revert\n        /* \"#utility.yul\":146:421   */\n    tag_452:\n        /* \"#utility.yul\":217:219   */\n      0x40\n        /* \"#utility.yul\":211:220   */\n      mload\n        /* \"#utility.yul\":282:284   */\n      0x1f\n        /* \"#utility.yul\":263:276   */\n      dup3\n      add\n      not(0x1f)\n        /* \"#utility.yul\":259:286   */\n      and\n        /* \"#utility.yul\":247:287   */\n      dup2\n      add\n        /* \"#utility.yul\":317:335   */\n      0xffffffffffffffff\n        /* \"#utility.yul\":302:336   */\n      dup2\n      gt\n        /* \"#utility.yul\":338:360   */\n      dup3\n      dup3\n      lt\n        /* \"#utility.yul\":299:361   */\n      or\n        /* \"#utility.yul\":296:384   */\n      iszero\n      tag_469\n      jumpi\n        /* \"#utility.yul\":364:382   */\n      tag_469\n      tag_451\n      jump\t// in\n    tag_469:\n        /* \"#utility.yul\":400:402   */\n      0x40\n        /* \"#utility.yul\":393:415   */\n      mstore\n        /* \"#utility.yul\":146:421   */\n      swap2\n      swap1\n      pop\n      jump\t// out\n        /* \"#utility.yul\":426:957   */\n    tag_453:\n        /* \"#utility.yul\":469:474   */\n      0x00\n        /* \"#utility.yul\":522:525   */\n      dup3\n        /* \"#utility.yul\":515:519   */\n      0x1f\n        /* \"#utility.yul\":507:513   */\n      dup4\n        /* \"#utility.yul\":503:520   */\n      add\n        /* \"#utility.yul\":499:526   */\n      slt\n        /* \"#utility.yul\":489:544   */\n      tag_471\n      jumpi\n        /* \"#utility.yul\":540:541   */\n      0x00\n        /* \"#utility.yul\":537:538   */\n      dup1\n        /* \"#utility.yul\":530:542   */\n      revert\n        /* \"#utility.yul\":489:544   */\n    tag_471:\n        /* \"#utility.yul\":576:582   */\n      dup2\n        /* \"#utility.yul\":563:583   */\n      calldataload\n        /* \"#utility.yul\":602:620   */\n      0xffffffffffffffff\n        /* \"#utility.yul\":598:600   */\n      dup2\n        /* \"#utility.yul\":595:621   */\n      gt\n        /* \"#utility.yul\":592:644   */\n      iszero\n      tag_473\n      jumpi\n        /* \"#utility.yul\":624:642   */\n      tag_473\n      tag_451\n      jump\t// in\n    tag_473:\n        /* \"#utility.yul\":668:723   */\n      tag_474\n        /* \"#utility.yul\":711:713   */\n      0x1f\n        /* \"#utility.yul\":692:705   */\n      dup3\n      add\n      not(0x1f)\n        /* \"#utility.yul\":688:715   */\n      and\n        /* \"#utility.yul\":717:721   */\n      0x20\n        /* \"#utility.yul\":684:722   */\n      add\n        /* \"#utility.yul\":668:723   */\n      tag_452\n      jump\t// in\n    tag_474:\n        /* \"#utility.yul\":748:750   */\n      dup2\n        /* \"#utility.yul\":739:746   */\n      dup2\n        /* \"#utility.yul\":732:751   */\n      mstore\n        /* \"#utility.yul\":794:797   */\n      dup5\n        /* \"#utility.yul\":787:791   */\n      0x20\n        /* \"#utility.yul\":782:784   */\n      dup4\n        /* \"#utility.yul\":774:780   */\n      dup7\n        /* \"#utility.yul\":770:785   */\n      add\n        /* \"#utility.yul\":766:792   */\n      add\n        /* \"#utility.yul\":763:798   */\n      gt\n        /* \"#utility.yul\":760:815   */\n      iszero\n      tag_475\n      jumpi\n        /* \"#utility.yul\":811:812   */\n      0x00\n        /* \"#utility.yul\":808:809   */\n      dup1\n        /* \"#utility.yul\":801:813   */\n      revert\n        /* \"#utility.yul\":760:815   */\n    tag_475:\n        /* \"#utility.yul\":876:878   */\n      dup2\n        /* \"#utility.yul\":869:873   */\n      0x20\n        /* \"#utility.yul\":861:867   */\n      dup6\n        /* \"#utility.yul\":857:874   */\n      add\n        /* \"#utility.yul\":850:854   */\n      0x20\n        /* \"#utility.yul\":841:848   */\n      dup4\n        /* \"#utility.yul\":837:855   */\n      add\n        /* \"#utility.yul\":824:879   */\n      calldatacopy\n        /* \"#utility.yul\":924:925   */\n      0x00\n        /* \"#utility.yul\":899:915   */\n      swap2\n      dup2\n      add\n        /* \"#utility.yul\":917:921   */\n      0x20\n        /* \"#utility.yul\":895:922   */\n      add\n        /* \"#utility.yul\":888:926   */\n      swap2\n      swap1\n      swap2\n      mstore\n        /* \"#utility.yul\":903:910   */\n      swap4\n        /* \"#utility.yul\":426:957   */\n      swap3\n      pop\n      pop\n      pop\n      jump\t// out\n        /* \"#utility.yul\":962:1080   */\n    tag_454:\n        /* \"#utility.yul\":1048:1053   */\n      dup1\n        /* \"#utility.yul\":1041:1054   */\n      iszero\n        /* \"#utility.yul\":1034:1055   */\n      iszero\n        /* \"#utility.yul\":1027:1032   */\n      dup2\n        /* \"#utility.yul\":1024:1056   */\n      eq\n        /* \"#utility.yul\":1014:1074   */\n      tag_477\n      jumpi\n        /* \"#utility.yul\":1070:1071   */\n      0x00\n        /* \"#utility.yul\":1067:1068   */\n      dup1\n        /* \"#utility.yul\":1060:1072   */\n      revert\n        /* \"#utility.yul\":1014:1074   */\n    tag_477:\n        /* \"#utility.yul\":962:1080   */\n      pop\n      jump\t// out\n        /* \"#utility.yul\":1085:1213   */\n    tag_455:\n        /* \"#utility.yul\":1150:1170   */\n      dup1\n      calldataload\n        /* \"#utility.yul\":1179:1207   */\n      tag_479\n        /* \"#utility.yul\":1150:1170   */\n      dup2\n        /* \"#utility.yul\":1179:1207   */\n      tag_454\n      jump\t// in\n    tag_479:\n        /* \"#utility.yul\":1085:1213   */\n      swap2\n      swap1\n      pop\n      jump\t// out\n        /* \"#utility.yul\":1218:2438   */\n    tag_25:\n        /* \"#utility.yul\":1377:1383   */\n      0x00\n        /* \"#utility.yul\":1385:1391   */\n      dup1\n        /* \"#utility.yul\":1393:1399   */\n      0x00\n        /* \"#utility.yul\":1401:1407   */\n      dup1\n        /* \"#utility.yul\":1409:1415   */\n      0x00\n        /* \"#utility.yul\":1417:1423   */\n      dup1\n        /* \"#utility.yul\":1425:1431   */\n      0x00\n        /* \"#utility.yul\":1433:1439   */\n      dup1\n        /* \"#utility.yul\":1486:1489   */\n      0x0100\n        /* \"#utility.yul\":1474:1483   */\n      dup10\n        /* \"#utility.yul\":1465:1472   */\n      dup12\n        /* \"#utility.yul\":1461:1484   */\n      sub\n        /* \"#utility.yul\":1457:1490   */\n      slt\n        /* \"#utility.yul\":1454:1507   */\n      iszero\n      tag_481\n      jumpi\n        /* \"#utility.yul\":1503:1504   */\n      0x00\n        /* \"#utility.yul\":1500:1501   */\n      dup1\n        /* \"#utility.yul\":1493:1505   */\n      revert\n        /* \"#utility.yul\":1454:1507   */\n    tag_481:\n        /* \"#utility.yul\":1539:1548   */\n      dup9\n        /* \"#utility.yul\":1526:1549   */\n      calldataload\n        /* \"#utility.yul\":1516:1549   */\n      swap8\n      pop\n        /* \"#utility.yul\":1600:1602   */\n      0x20\n        /* \"#utility.yul\":1589:1598   */\n      dup10\n        /* \"#utility.yul\":1585:1603   */\n      add\n        /* \"#utility.yul\":1572:1604   */\n      calldataload\n        /* \"#utility.yul\":1623:1641   */\n      0xffffffffffffffff\n        /* \"#utility.yul\":1664:1666   */\n      dup1\n        /* \"#utility.yul\":1656:1662   */\n      dup3\n        /* \"#utility.yul\":1653:1667   */\n      gt\n        /* \"#utility.yul\":1650:1684   */\n      iszero\n      tag_482\n      jumpi\n        /* \"#utility.yul\":1680:1681   */\n      0x00\n        /* \"#utility.yul\":1677:1678   */\n      dup1\n        /* \"#utility.yul\":1670:1682   */\n      revert\n        /* \"#utility.yul\":1650:1684   */\n    tag_482:\n        /* \"#utility.yul\":1703:1753   */\n      tag_483\n        /* \"#utility.yul\":1745:1752   */\n      dup13\n        /* \"#utility.yul\":1736:1742   */\n      dup4\n        /* \"#utility.yul\":1725:1734   */\n      dup14\n        /* \"#utility.yul\":1721:1743   */\n      add\n        /* \"#utility.yul\":1703:1753   */\n      tag_453\n      jump\t// in\n    tag_483:\n        /* \"#utility.yul\":1693:1753   */\n      swap9\n      pop\n        /* \"#utility.yul\":1806:1808   */\n      0x40\n        /* \"#utility.yul\":1795:1804   */\n      dup12\n        /* \"#utility.yul\":1791:1809   */\n      add\n        /* \"#utility.yul\":1778:1810   */\n      calldataload\n        /* \"#utility.yul\":1762:1810   */\n      swap2\n      pop\n        /* \"#utility.yul\":1835:1837   */\n      dup1\n        /* \"#utility.yul\":1825:1833   */\n      dup3\n        /* \"#utility.yul\":1822:1838   */\n      gt\n        /* \"#utility.yul\":1819:1855   */\n      iszero\n      tag_484\n      jumpi\n        /* \"#utility.yul\":1851:1852   */\n      0x00\n        /* \"#utility.yul\":1848:1849   */\n      dup1\n        /* \"#utility.yul\":1841:1853   */\n      revert\n        /* \"#utility.yul\":1819:1855   */\n    tag_484:\n        /* \"#utility.yul\":1874:1926   */\n      tag_485\n        /* \"#utility.yul\":1918:1925   */\n      dup13\n        /* \"#utility.yul\":1907:1915   */\n      dup4\n        /* \"#utility.yul\":1896:1905   */\n      dup14\n        /* \"#utility.yul\":1892:1916   */\n      add\n        /* \"#utility.yul\":1874:1926   */\n      tag_453\n      jump\t// in\n    tag_485:\n        /* \"#utility.yul\":1864:1926   */\n      swap8\n      pop\n        /* \"#utility.yul\":1973:1975   */\n      0x60\n        /* \"#utility.yul\":1962:1971   */\n      dup12\n        /* \"#utility.yul\":1958:1976   */\n      add\n        /* \"#utility.yul\":1945:1977   */\n      calldataload\n        /* \"#utility.yul\":1935:1977   */\n      swap7\n      pop\n        /* \"#utility.yul\":2024:2027   */\n      0x80\n        /* \"#utility.yul\":2013:2022   */\n      dup12\n        /* \"#utility.yul\":2009:2028   */\n      add\n        /* \"#utility.yul\":1996:2029   */\n      calldataload\n        /* \"#utility.yul\":1986:2029   */\n      swap6\n      pop\n        /* \"#utility.yul\":2048:2084   */\n      tag_486\n        /* \"#utility.yul\":2079:2082   */\n      0xa0\n        /* \"#utility.yul\":2068:2077   */\n      dup13\n        /* \"#utility.yul\":2064:2083   */\n      add\n        /* \"#utility.yul\":2048:2084   */\n      tag_455\n      jump\t// in\n    tag_486:\n        /* \"#utility.yul\":2038:2084   */\n      swap5\n      pop\n        /* \"#utility.yul\":2137:2140   */\n      0xc0\n        /* \"#utility.yul\":2126:2135   */\n      dup12\n        /* \"#utility.yul\":2122:2141   */\n      add\n        /* \"#utility.yul\":2109:2142   */\n      calldataload\n        /* \"#utility.yul\":2093:2142   */\n      swap2\n      pop\n        /* \"#utility.yul\":2167:2169   */\n      dup1\n        /* \"#utility.yul\":2157:2165   */\n      dup3\n        /* \"#utility.yul\":2154:2170   */\n      gt\n        /* \"#utility.yul\":2151:2187   */\n      iszero\n      tag_487\n      jumpi\n        /* \"#utility.yul\":2183:2184   */\n      0x00\n        /* \"#utility.yul\":2180:2181   */\n      dup1\n        /* \"#utility.yul\":2173:2185   */\n      revert\n        /* \"#utility.yul\":2151:2187   */\n    tag_487:\n        /* \"#utility.yul\":2206:2258   */\n      tag_488\n        /* \"#utility.yul\":2250:2257   */\n      dup13\n        /* \"#utility.yul\":2239:2247   */\n      dup4\n        /* \"#utility.yul\":2228:2237   */\n      dup14\n        /* \"#utility.yul\":2224:2248   */\n      add\n        /* \"#utility.yul\":2206:2258   */\n      tag_453\n      jump\t// in\n    tag_488:\n        /* \"#utility.yul\":2196:2258   */\n      swap4\n      pop\n        /* \"#utility.yul\":2311:2314   */\n      0xe0\n        /* \"#utility.yul\":2300:2309   */\n      dup12\n        /* \"#utility.yul\":2296:2315   */\n      add\n        /* \"#utility.yul\":2283:2316   */\n      calldataload\n        /* \"#utility.yul\":2267:2316   */\n      swap2\n      pop\n        /* \"#utility.yul\":2341:2343   */\n      dup1\n        /* \"#utility.yul\":2331:2339   */\n      dup3\n        /* \"#utility.yul\":2328:2344   */\n      gt\n        /* \"#utility.yul\":2325:2361   */\n      iszero\n      tag_489\n      jumpi\n        /* \"#utility.yul\":2357:2358   */\n      0x00\n        /* \"#utility.yul\":2354:2355   */\n      dup1\n        /* \"#utility.yul\":2347:2359   */\n      revert\n        /* \"#utility.yul\":2325:2361   */\n    tag_489:\n      pop\n        /* \"#utility.yul\":2380:2432   */\n      tag_490\n        /* \"#utility.yul\":2424:2431   */\n      dup12\n        /* \"#utility.yul\":2413:2421   */\n      dup3\n        /* \"#utility.yul\":2402:2411   */\n      dup13\n        /* \"#utility.yul\":2398:2422   */\n      add\n        /* \"#utility.yul\":2380:2432   */\n      tag_453\n      jump\t// in\n    tag_490:\n        /* \"#utility.yul\":2370:2432   */\n      swap2\n      pop\n      pop\n        /* \"#utility.yul\":1218:2438   */\n      swap3\n      swap6\n      swap9\n      pop\n      swap3\n      swap6\n      swap9\n      swap1\n      swap4\n      swap7\n      pop\n      jump\t// out\n        /* \"#utility.yul\":2443:2691   */\n    tag_29:\n        /* \"#utility.yul\":2511:2517   */\n      0x00\n        /* \"#utility.yul\":2519:2525   */\n      dup1\n        /* \"#utility.yul\":2572:2574   */\n      0x40\n        /* \"#utility.yul\":2560:2569   */\n      dup4\n        /* \"#utility.yul\":2551:2558   */\n      dup6\n        /* \"#utility.yul\":2547:2570   */\n      sub\n        /* \"#utility.yul\":2543:2575   */\n      slt\n        /* \"#utility.yul\":2540:2592   */\n      iszero\n      tag_492\n      jumpi\n        /* \"#utility.yul\":2588:2589   */\n      0x00\n        /* \"#utility.yul\":2585:2586   */\n      dup1\n        /* \"#utility.yul\":2578:2590   */\n      revert\n        /* \"#utility.yul\":2540:2592   */\n    tag_492:\n      pop\n      pop\n        /* \"#utility.yul\":2611:2634   */\n      dup1\n      calldataload\n      swap3\n        /* \"#utility.yul\":2681:2683   */\n      0x20\n        /* \"#utility.yul\":2666:2684   */\n      swap1\n      swap2\n      add\n        /* \"#utility.yul\":2653:2685   */\n      calldataload\n      swap2\n      pop\n        /* \"#utility.yul\":2443:2691   */\n      jump\t// out\n        /* \"#utility.yul\":2696:3484   */\n    tag_34:\n        /* \"#utility.yul\":2917:2919   */\n      0x20\n        /* \"#utility.yul\":2969:2990   */\n      dup1\n      dup3\n      mstore\n        /* \"#utility.yul\":3039:3052   */\n      dup3\n      mload\n        /* \"#utility.yul\":2942:2960   */\n      dup3\n      dup3\n      add\n        /* \"#utility.yul\":3061:3083   */\n      dup2\n      swap1\n      mstore\n        /* \"#utility.yul\":2888:2892   */\n      0x00\n      swap2\n        /* \"#utility.yul\":2917:2919   */\n      swap1\n        /* \"#utility.yul\":3102:3104   */\n      0x40\n      swap1\n        /* \"#utility.yul\":3120:3138   */\n      dup2\n      dup6\n      add\n      swap1\n        /* \"#utility.yul\":3161:3176   */\n      dup7\n      dup5\n      add\n        /* \"#utility.yul\":2888:2892   */\n      dup6\n        /* \"#utility.yul\":3204:3458   */\n    tag_494:\n        /* \"#utility.yul\":3218:3224   */\n      dup3\n        /* \"#utility.yul\":3215:3216   */\n      dup2\n        /* \"#utility.yul\":3212:3225   */\n      lt\n        /* \"#utility.yul\":3204:3458   */\n      iszero\n      tag_496\n      jumpi\n        /* \"#utility.yul\":3277:3290   */\n      dup2\n      mload\n        /* \"#utility.yul\":3315:3324   */\n      dup1\n      mload\n        /* \"#utility.yul\":3303:3325   */\n      dup6\n      mstore\n        /* \"#utility.yul\":3365:3376   */\n      dup7\n      add\n        /* \"#utility.yul\":3359:3377   */\n      mload\n        /* \"#utility.yul\":3345:3357   */\n      dup7\n      dup6\n      add\n        /* \"#utility.yul\":3338:3378   */\n      mstore\n        /* \"#utility.yul\":3398:3410   */\n      swap3\n      dup5\n      add\n      swap3\n        /* \"#utility.yul\":3433:3448   */\n      swap1\n      dup6\n      add\n      swap1\n        /* \"#utility.yul\":3240:3241   */\n      0x01\n        /* \"#utility.yul\":3233:3242   */\n      add\n        /* \"#utility.yul\":3204:3458   */\n      jump(tag_494)\n    tag_496:\n      pop\n        /* \"#utility.yul\":3475:3478   */\n      swap2\n      swap8\n        /* \"#utility.yul\":2696:3484   */\n      swap7\n      pop\n      pop\n      pop\n      pop\n      pop\n      pop\n      pop\n      jump\t// out\n        /* \"#utility.yul\":3489:3669   */\n    tag_37:\n        /* \"#utility.yul\":3548:3554   */\n      0x00\n        /* \"#utility.yul\":3601:3603   */\n      0x20\n        /* \"#utility.yul\":3589:3598   */\n      dup3\n        /* \"#utility.yul\":3580:3587   */\n      dup5\n        /* \"#utility.yul\":3576:3599   */\n      sub\n        /* \"#utility.yul\":3572:3604   */\n      slt\n        /* \"#utility.yul\":3569:3621   */\n      iszero\n      tag_498\n      jumpi\n        /* \"#utility.yul\":3617:3618   */\n      0x00\n        /* \"#utility.yul\":3614:3615   */\n      dup1\n        /* \"#utility.yul\":3607:3619   */\n      revert\n        /* \"#utility.yul\":3569:3621   */\n    tag_498:\n      pop\n        /* \"#utility.yul\":3640:3663   */\n      calldataload\n      swap2\n        /* \"#utility.yul\":3489:3669   */\n      swap1\n      pop\n      jump\t// out\n        /* \"#utility.yul\":3674:4097   */\n    tag_456:\n        /* \"#utility.yul\":3716:3719   */\n      0x00\n        /* \"#utility.yul\":3754:3759   */\n      dup2\n        /* \"#utility.yul\":3748:3760   */\n      mload\n        /* \"#utility.yul\":3781:3787   */\n      dup1\n        /* \"#utility.yul\":3776:3779   */\n      dup5\n        /* \"#utility.yul\":3769:3788   */\n      mstore\n        /* \"#utility.yul\":3806:3807   */\n      0x00\n        /* \"#utility.yul\":3816:3978   */\n    tag_500:\n        /* \"#utility.yul\":3830:3836   */\n      dup2\n        /* \"#utility.yul\":3827:3828   */\n      dup2\n        /* \"#utility.yul\":3824:3837   */\n      lt\n        /* \"#utility.yul\":3816:3978   */\n      iszero\n      tag_502\n      jumpi\n        /* \"#utility.yul\":3892:3896   */\n      0x20\n        /* \"#utility.yul\":3948:3961   */\n      dup2\n      dup6\n      add\n        /* \"#utility.yul\":3944:3966   */\n      dup2\n      add\n        /* \"#utility.yul\":3938:3967   */\n      mload\n        /* \"#utility.yul\":3920:3931   */\n      dup7\n      dup4\n      add\n        /* \"#utility.yul\":3916:3936   */\n      dup3\n      add\n        /* \"#utility.yul\":3909:3968   */\n      mstore\n        /* \"#utility.yul\":3845:3857   */\n      add\n        /* \"#utility.yul\":3816:3978   */\n      jump(tag_500)\n    tag_502:\n        /* \"#utility.yul\":3820:3823   */\n      pop\n        /* \"#utility.yul\":4023:4024   */\n      0x00\n        /* \"#utility.yul\":4016:4020   */\n      0x20\n        /* \"#utility.yul\":4007:4013   */\n      dup3\n        /* \"#utility.yul\":4002:4005   */\n      dup7\n        /* \"#utility.yul\":3998:4014   */\n      add\n        /* \"#utility.yul\":3994:4021   */\n      add\n        /* \"#utility.yul\":3987:4025   */\n      mstore\n        /* \"#utility.yul\":4086:4090   */\n      0x20\n        /* \"#utility.yul\":4079:4081   */\n      0x1f\n        /* \"#utility.yul\":4075:4082   */\n      not\n        /* \"#utility.yul\":4070:4072   */\n      0x1f\n        /* \"#utility.yul\":4062:4068   */\n      dup4\n        /* \"#utility.yul\":4058:4073   */\n      add\n        /* \"#utility.yul\":4054:4083   */\n      and\n        /* \"#utility.yul\":4049:4052   */\n      dup6\n        /* \"#utility.yul\":4045:4084   */\n      add\n        /* \"#utility.yul\":4041:4091   */\n      add\n        /* \"#utility.yul\":4034:4091   */\n      swap2\n      pop\n      pop\n        /* \"#utility.yul\":3674:4097   */\n      swap3\n      swap2\n      pop\n      pop\n      jump\t// out\n        /* \"#utility.yul\":4307:5362   */\n    tag_40:\n        /* \"#utility.yul\":4669:4673   */\n      0x00\n        /* \"#utility.yul\":4698:4701   */\n      0x0100\n        /* \"#utility.yul\":4728:4730   */\n      dup1\n        /* \"#utility.yul\":4717:4726   */\n      dup4\n        /* \"#utility.yul\":4710:4731   */\n      mstore\n        /* \"#utility.yul\":4754:4799   */\n      tag_506\n        /* \"#utility.yul\":4795:4797   */\n      dup2\n        /* \"#utility.yul\":4784:4793   */\n      dup5\n        /* \"#utility.yul\":4780:4798   */\n      add\n        /* \"#utility.yul\":4772:4778   */\n      dup13\n        /* \"#utility.yul\":4754:4799   */\n      tag_456\n      jump\t// in\n    tag_506:\n        /* \"#utility.yul\":4740:4799   */\n      swap1\n      pop\n        /* \"#utility.yul\":4847:4856   */\n      dup3\n        /* \"#utility.yul\":4839:4845   */\n      dup2\n        /* \"#utility.yul\":4835:4857   */\n      sub\n        /* \"#utility.yul\":4830:4832   */\n      0x20\n        /* \"#utility.yul\":4819:4828   */\n      dup5\n        /* \"#utility.yul\":4815:4833   */\n      add\n        /* \"#utility.yul\":4808:4858   */\n      mstore\n        /* \"#utility.yul\":4881:4914   */\n      tag_507\n        /* \"#utility.yul\":4907:4913   */\n      dup2\n        /* \"#utility.yul\":4899:4905   */\n      dup12\n        /* \"#utility.yul\":4881:4914   */\n      tag_456\n      jump\t// in\n    tag_507:\n        /* \"#utility.yul\":4945:4947   */\n      0x40\n        /* \"#utility.yul\":4930:4948   */\n      dup5\n      add\n        /* \"#utility.yul\":4923:4957   */\n      dup11\n      swap1\n      mstore\n      sub(shl(0xa0, 0x01), 0x01)\n        /* \"#utility.yul\":4993:5025   */\n      dup10\n      and\n        /* \"#utility.yul\":4988:4990   */\n      0x60\n        /* \"#utility.yul\":4973:4991   */\n      dup6\n      add\n        /* \"#utility.yul\":4966:5026   */\n      mstore\n        /* \"#utility.yul\":5057:5060   */\n      0x80\n        /* \"#utility.yul\":5042:5061   */\n      dup5\n      add\n        /* \"#utility.yul\":5035:5070   */\n      dup9\n      swap1\n      mstore\n        /* \"#utility.yul\":5114:5128   */\n      dup7\n      iszero\n        /* \"#utility.yul\":5107:5129   */\n      iszero\n        /* \"#utility.yul\":5013:5016   */\n      0xa0\n        /* \"#utility.yul\":5086:5105   */\n      dup6\n      add\n        /* \"#utility.yul\":5079:5130   */\n      mstore\n        /* \"#utility.yul\":5167:5189   */\n      dup4\n      dup2\n      sub\n        /* \"#utility.yul\":5161:5164   */\n      0xc0\n        /* \"#utility.yul\":5146:5165   */\n      dup6\n      add\n        /* \"#utility.yul\":5139:5190   */\n      mstore\n        /* \"#utility.yul\":4867:4914   */\n      swap1\n      pop\n        /* \"#utility.yul\":5213:5246   */\n      tag_508\n        /* \"#utility.yul\":4867:4914   */\n      dup2\n        /* \"#utility.yul\":5231:5237   */\n      dup7\n        /* \"#utility.yul\":5213:5246   */\n      tag_456\n      jump\t// in\n    tag_508:\n        /* \"#utility.yul\":5199:5246   */\n      swap1\n      pop\n        /* \"#utility.yul\":5295:5304   */\n      dup3\n        /* \"#utility.yul\":5287:5293   */\n      dup2\n        /* \"#utility.yul\":5283:5305   */\n      sub\n        /* \"#utility.yul\":5277:5280   */\n      0xe0\n        /* \"#utility.yul\":5266:5275   */\n      dup5\n        /* \"#utility.yul\":5262:5281   */\n      add\n        /* \"#utility.yul\":5255:5306   */\n      mstore\n        /* \"#utility.yul\":5323:5356   */\n      tag_509\n        /* \"#utility.yul\":5349:5355   */\n      dup2\n        /* \"#utility.yul\":5341:5347   */\n      dup6\n        /* \"#utility.yul\":5323:5356   */\n      tag_456\n      jump\t// in\n    tag_509:\n        /* \"#utility.yul\":5315:5356   */\n      swap12\n        /* \"#utility.yul\":4307:5362   */\n      swap11\n      pop\n      pop\n      pop\n      pop\n      pop\n      pop\n      pop\n      pop\n      pop\n      pop\n      pop\n      jump\t// out\n        /* \"#utility.yul\":5367:6449   */\n    tag_43:\n        /* \"#utility.yul\":5511:5517   */\n      0x00\n        /* \"#utility.yul\":5519:5525   */\n      dup1\n        /* \"#utility.yul\":5527:5533   */\n      0x00\n        /* \"#utility.yul\":5535:5541   */\n      dup1\n        /* \"#utility.yul\":5543:5549   */\n      0x00\n        /* \"#utility.yul\":5551:5557   */\n      dup1\n        /* \"#utility.yul\":5604:5607   */\n      0xc0\n        /* \"#utility.yul\":5592:5601   */\n      dup8\n        /* \"#utility.yul\":5583:5590   */\n      dup10\n        /* \"#utility.yul\":5579:5602   */\n      sub\n        /* \"#utility.yul\":5575:5608   */\n      slt\n        /* \"#utility.yul\":5572:5625   */\n      iszero\n      tag_511\n      jumpi\n        /* \"#utility.yul\":5621:5622   */\n      0x00\n        /* \"#utility.yul\":5618:5619   */\n      dup1\n        /* \"#utility.yul\":5611:5623   */\n      revert\n        /* \"#utility.yul\":5572:5625   */\n    tag_511:\n        /* \"#utility.yul\":5661:5670   */\n      dup7\n        /* \"#utility.yul\":5648:5671   */\n      calldataload\n        /* \"#utility.yul\":5690:5708   */\n      0xffffffffffffffff\n        /* \"#utility.yul\":5731:5733   */\n      dup1\n        /* \"#utility.yul\":5723:5729   */\n      dup3\n        /* \"#utility.yul\":5720:5734   */\n      gt\n        /* \"#utility.yul\":5717:5751   */\n      iszero\n      tag_512\n      jumpi\n        /* \"#utility.yul\":5747:5748   */\n      0x00\n        /* \"#utility.yul\":5744:5745   */\n      dup1\n        /* \"#utility.yul\":5737:5749   */\n      revert\n        /* \"#utility.yul\":5717:5751   */\n    tag_512:\n        /* \"#utility.yul\":5770:5820   */\n      tag_513\n        /* \"#utility.yul\":5812:5819   */\n      dup11\n        /* \"#utility.yul\":5803:5809   */\n      dup4\n        /* \"#utility.yul\":5792:5801   */\n      dup12\n        /* \"#utility.yul\":5788:5810   */\n      add\n        /* \"#utility.yul\":5770:5820   */\n      tag_453\n      jump\t// in\n    tag_513:\n        /* \"#utility.yul\":5760:5820   */\n      swap8\n      pop\n        /* \"#utility.yul\":5873:5875   */\n      0x20\n        /* \"#utility.yul\":5862:5871   */\n      dup10\n        /* \"#utility.yul\":5858:5876   */\n      add\n        /* \"#utility.yul\":5845:5877   */\n      calldataload\n        /* \"#utility.yul\":5829:5877   */\n      swap2\n      pop\n        /* \"#utility.yul\":5902:5904   */\n      dup1\n        /* \"#utility.yul\":5892:5900   */\n      dup3\n        /* \"#utility.yul\":5889:5905   */\n      gt\n        /* \"#utility.yul\":5886:5922   */\n      iszero\n      tag_514\n      jumpi\n        /* \"#utility.yul\":5918:5919   */\n      0x00\n        /* \"#utility.yul\":5915:5916   */\n      dup1\n        /* \"#utility.yul\":5908:5920   */\n      revert\n        /* \"#utility.yul\":5886:5922   */\n    tag_514:\n        /* \"#utility.yul\":5941:5993   */\n      tag_515\n        /* \"#utility.yul\":5985:5992   */\n      dup11\n        /* \"#utility.yul\":5974:5982   */\n      dup4\n        /* \"#utility.yul\":5963:5972   */\n      dup12\n        /* \"#utility.yul\":5959:5983   */\n      add\n        /* \"#utility.yul\":5941:5993   */\n      tag_453\n      jump\t// in\n    tag_515:\n        /* \"#utility.yul\":5931:5993   */\n      swap7\n      pop\n        /* \"#utility.yul\":6040:6042   */\n      0x40\n        /* \"#utility.yul\":6029:6038   */\n      dup10\n        /* \"#utility.yul\":6025:6043   */\n      add\n        /* \"#utility.yul\":6012:6044   */\n      calldataload\n        /* \"#utility.yul\":6002:6044   */\n      swap6\n      pop\n        /* \"#utility.yul\":6091:6093   */\n      0x60\n        /* \"#utility.yul\":6080:6089   */\n      dup10\n        /* \"#utility.yul\":6076:6094   */\n      add\n        /* \"#utility.yul\":6063:6095   */\n      calldataload\n        /* \"#utility.yul\":6053:6095   */\n      swap5\n      pop\n        /* \"#utility.yul\":6148:6151   */\n      0x80\n        /* \"#utility.yul\":6137:6146   */\n      dup10\n        /* \"#utility.yul\":6133:6152   */\n      add\n        /* \"#utility.yul\":6120:6153   */\n      calldataload\n        /* \"#utility.yul\":6104:6153   */\n      swap2\n      pop\n        /* \"#utility.yul\":6178:6180   */\n      dup1\n        /* \"#utility.yul\":6168:6176   */\n      dup3\n        /* \"#utility.yul\":6165:6181   */\n      gt\n        /* \"#utility.yul\":6162:6198   */\n      iszero\n      tag_516\n      jumpi\n        /* \"#utility.yul\":6194:6195   */\n      0x00\n        /* \"#utility.yul\":6191:6192   */\n      dup1\n        /* \"#utility.yul\":6184:6196   */\n      revert\n        /* \"#utility.yul\":6162:6198   */\n    tag_516:\n        /* \"#utility.yul\":6217:6269   */\n      tag_517\n        /* \"#utility.yul\":6261:6268   */\n      dup11\n        /* \"#utility.yul\":6250:6258   */\n      dup4\n        /* \"#utility.yul\":6239:6248   */\n      dup12\n        /* \"#utility.yul\":6235:6259   */\n      add\n        /* \"#utility.yul\":6217:6269   */\n      tag_453\n      jump\t// in\n    tag_517:\n        /* \"#utility.yul\":6207:6269   */\n      swap4\n      pop\n        /* \"#utility.yul\":6322:6325   */\n      0xa0\n        /* \"#utility.yul\":6311:6320   */\n      dup10\n        /* \"#utility.yul\":6307:6326   */\n      add\n        /* \"#utility.yul\":6294:6327   */\n      calldataload\n        /* \"#utility.yul\":6278:6327   */\n      swap2\n      pop\n        /* \"#utility.yul\":6352:6354   */\n      dup1\n        /* \"#utility.yul\":6342:6350   */\n      dup3\n        /* \"#utility.yul\":6339:6355   */\n      gt\n        /* \"#utility.yul\":6336:6372   */\n      iszero\n      tag_518\n      jumpi\n        /* \"#utility.yul\":6368:6369   */\n      0x00\n        /* \"#utility.yul\":6365:6366   */\n      dup1\n        /* \"#utility.yul\":6358:6370   */\n      revert\n        /* \"#utility.yul\":6336:6372   */\n    tag_518:\n      pop\n        /* \"#utility.yul\":6391:6443   */\n      tag_519\n        /* \"#utility.yul\":6435:6442   */\n      dup10\n        /* \"#utility.yul\":6424:6432   */\n      dup3\n        /* \"#utility.yul\":6413:6422   */\n      dup11\n        /* \"#utility.yul\":6409:6433   */\n      add\n        /* \"#utility.yul\":6391:6443   */\n      tag_453\n      jump\t// in\n    tag_519:\n        /* \"#utility.yul\":6381:6443   */\n      swap2\n      pop\n      pop\n        /* \"#utility.yul\":5367:6449   */\n      swap3\n      swap6\n      pop\n      swap3\n      swap6\n      pop\n      swap3\n      swap6\n      jump\t// out\n        /* \"#utility.yul\":6636:7701   */\n    tag_459:\n        /* \"#utility.yul\":6696:6699   */\n      0x00\n        /* \"#utility.yul\":6734:6739   */\n      dup2\n        /* \"#utility.yul\":6728:6740   */\n      mload\n        /* \"#utility.yul\":6761:6767   */\n      dup1\n        /* \"#utility.yul\":6756:6759   */\n      dup5\n        /* \"#utility.yul\":6749:6768   */\n      mstore\n        /* \"#utility.yul\":6787:6791   */\n      0x20\n        /* \"#utility.yul\":6828:6830   */\n      dup1\n        /* \"#utility.yul\":6823:6826   */\n      dup6\n        /* \"#utility.yul\":6819:6831   */\n      add\n        /* \"#utility.yul\":6853:6864   */\n      dup1\n        /* \"#utility.yul\":6880:6891   */\n      dup2\n        /* \"#utility.yul\":6873:6891   */\n      swap7\n      pop\n        /* \"#utility.yul\":6930:6936   */\n      dup4\n        /* \"#utility.yul\":6927:6928   */\n      0x05\n        /* \"#utility.yul\":6923:6937   */\n      shl\n        /* \"#utility.yul\":6916:6921   */\n      dup2\n        /* \"#utility.yul\":6912:6938   */\n      add\n        /* \"#utility.yul\":6900:6938   */\n      swap2\n      pop\n        /* \"#utility.yul\":6972:6974   */\n      dup3\n        /* \"#utility.yul\":6965:6970   */\n      dup7\n        /* \"#utility.yul\":6961:6975   */\n      add\n        /* \"#utility.yul\":6993:6994   */\n      0x00\n        /* \"#utility.yul\":7003:7675   */\n    tag_522:\n        /* \"#utility.yul\":7017:7023   */\n      dup6\n        /* \"#utility.yul\":7014:7015   */\n      dup2\n        /* \"#utility.yul\":7011:7024   */\n      lt\n        /* \"#utility.yul\":7003:7675   */\n      iszero\n      tag_496\n      jumpi\n        /* \"#utility.yul\":7088:7093   */\n      dup3\n        /* \"#utility.yul\":7082:7086   */\n      dup5\n        /* \"#utility.yul\":7078:7094   */\n      sub\n        /* \"#utility.yul\":7073:7076   */\n      dup10\n        /* \"#utility.yul\":7066:7095   */\n      mstore\n        /* \"#utility.yul\":7124:7130   */\n      dup2\n        /* \"#utility.yul\":7118:7131   */\n      mload\n        /* \"#utility.yul\":7154:7158   */\n      0x60\n        /* \"#utility.yul\":7197:7199   */\n      dup2\n        /* \"#utility.yul\":7191:7200   */\n      mload\n        /* \"#utility.yul\":7226:7228   */\n      dup2\n        /* \"#utility.yul\":7220:7224   */\n      dup8\n        /* \"#utility.yul\":7213:7229   */\n      mstore\n        /* \"#utility.yul\":7256:7302   */\n      tag_525\n        /* \"#utility.yul\":7298:7300   */\n      dup3\n        /* \"#utility.yul\":7292:7296   */\n      dup9\n        /* \"#utility.yul\":7288:7301   */\n      add\n        /* \"#utility.yul\":7274:7286   */\n      dup3\n        /* \"#utility.yul\":7256:7302   */\n      tag_456\n      jump\t// in\n    tag_525:\n        /* \"#utility.yul\":7242:7302   */\n      swap2\n      pop\n      pop\n        /* \"#utility.yul\":7351:7353   */\n      dup7\n        /* \"#utility.yul\":7347:7349   */\n      dup3\n        /* \"#utility.yul\":7343:7354   */\n      add\n        /* \"#utility.yul\":7337:7355   */\n      mload\n        /* \"#utility.yul\":7402:7406   */\n      dup7\n        /* \"#utility.yul\":7394:7400   */\n      dup3\n        /* \"#utility.yul\":7390:7407   */\n      sub\n        /* \"#utility.yul\":7385:7387   */\n      dup9\n        /* \"#utility.yul\":7379:7383   */\n      dup9\n        /* \"#utility.yul\":7375:7388   */\n      add\n        /* \"#utility.yul\":7368:7408   */\n      mstore\n        /* \"#utility.yul\":7435:7476   */\n      tag_526\n        /* \"#utility.yul\":7469:7475   */\n      dup3\n        /* \"#utility.yul\":7453:7467   */\n      dup3\n        /* \"#utility.yul\":7435:7476   */\n      tag_456\n      jump\t// in\n    tag_526:\n        /* \"#utility.yul\":7499:7503   */\n      0x40\n        /* \"#utility.yul\":7548:7559   */\n      swap4\n      dup5\n      add\n        /* \"#utility.yul\":7542:7560   */\n      mload\n        /* \"#utility.yul\":7562:7566   */\n      0xff\n        /* \"#utility.yul\":7538:7567   */\n      and\n        /* \"#utility.yul\":7523:7536   */\n      swap8\n      swap1\n      swap4\n      add\n        /* \"#utility.yul\":7516:7568   */\n      swap7\n      swap1\n      swap7\n      mstore\n      pop\n        /* \"#utility.yul\":7653:7665   */\n      swap9\n      dup6\n      add\n      swap9\n        /* \"#utility.yul\":7421:7476   */\n      swap4\n      pop\n        /* \"#utility.yul\":7618:7633   */\n      swap1\n      dup5\n      add\n      swap1\n        /* \"#utility.yul\":7039:7040   */\n      0x01\n        /* \"#utility.yul\":7032:7041   */\n      add\n        /* \"#utility.yul\":7003:7675   */\n      jump(tag_522)\n        /* \"#utility.yul\":7706:8020   */\n    tag_56:\n        /* \"#utility.yul\":7931:7933   */\n      0x20\n        /* \"#utility.yul\":7920:7929   */\n      dup2\n        /* \"#utility.yul\":7913:7934   */\n      mstore\n        /* \"#utility.yul\":7894:7898   */\n      0x00\n        /* \"#utility.yul\":7951:8014   */\n      tag_528\n        /* \"#utility.yul\":8010:8012   */\n      0x20\n        /* \"#utility.yul\":7999:8008   */\n      dup4\n        /* \"#utility.yul\":7995:8013   */\n      add\n        /* \"#utility.yul\":7987:7993   */\n      dup5\n        /* \"#utility.yul\":7951:8014   */\n      tag_459\n      jump\t// in\n    tag_528:\n        /* \"#utility.yul\":7943:8014   */\n      swap4\n        /* \"#utility.yul\":7706:8020   */\n      swap3\n      pop\n      pop\n      pop\n      jump\t// out\n        /* \"#utility.yul\":8025:8971   */\n    tag_59:\n        /* \"#utility.yul\":8109:8115   */\n      0x00\n        /* \"#utility.yul\":8140:8142   */\n      0x20\n        /* \"#utility.yul\":8183:8185   */\n      dup1\n        /* \"#utility.yul\":8171:8180   */\n      dup4\n        /* \"#utility.yul\":8162:8169   */\n      dup6\n        /* \"#utility.yul\":8158:8181   */\n      sub\n        /* \"#utility.yul\":8154:8186   */\n      slt\n        /* \"#utility.yul\":8151:8203   */\n      iszero\n      tag_530\n      jumpi\n        /* \"#utility.yul\":8199:8200   */\n      0x00\n        /* \"#utility.yul\":8196:8197   */\n      dup1\n        /* \"#utility.yul\":8189:8201   */\n      revert\n        /* \"#utility.yul\":8151:8203   */\n    tag_530:\n        /* \"#utility.yul\":8239:8248   */\n      dup3\n        /* \"#utility.yul\":8226:8249   */\n      calldataload\n        /* \"#utility.yul\":8268:8286   */\n      0xffffffffffffffff\n        /* \"#utility.yul\":8309:8311   */\n      dup1\n        /* \"#utility.yul\":8301:8307   */\n      dup3\n        /* \"#utility.yul\":8298:8312   */\n      gt\n        /* \"#utility.yul\":8295:8329   */\n      iszero\n      tag_531\n      jumpi\n        /* \"#utility.yul\":8325:8326   */\n      0x00\n        /* \"#utility.yul\":8322:8323   */\n      dup1\n        /* \"#utility.yul\":8315:8327   */\n      revert\n        /* \"#utility.yul\":8295:8329   */\n    tag_531:\n        /* \"#utility.yul\":8363:8369   */\n      dup2\n        /* \"#utility.yul\":8352:8361   */\n      dup6\n        /* \"#utility.yul\":8348:8370   */\n      add\n        /* \"#utility.yul\":8338:8370   */\n      swap2\n      pop\n        /* \"#utility.yul\":8408:8415   */\n      dup6\n        /* \"#utility.yul\":8401:8405   */\n      0x1f\n        /* \"#utility.yul\":8397:8399   */\n      dup4\n        /* \"#utility.yul\":8393:8406   */\n      add\n        /* \"#utility.yul\":8389:8416   */\n      slt\n        /* \"#utility.yul\":8379:8434   */\n      tag_532\n      jumpi\n        /* \"#utility.yul\":8430:8431   */\n      0x00\n        /* \"#utility.yul\":8427:8428   */\n      dup1\n        /* \"#utility.yul\":8420:8432   */\n      revert\n        /* \"#utility.yul\":8379:8434   */\n    tag_532:\n        /* \"#utility.yul\":8466:8468   */\n      dup2\n        /* \"#utility.yul\":8453:8469   */\n      calldataload\n        /* \"#utility.yul\":8488:8490   */\n      dup2\n        /* \"#utility.yul\":8484:8486   */\n      dup2\n        /* \"#utility.yul\":8481:8491   */\n      gt\n        /* \"#utility.yul\":8478:8514   */\n      iszero\n      tag_534\n      jumpi\n        /* \"#utility.yul\":8494:8512   */\n      tag_534\n      tag_451\n      jump\t// in\n    tag_534:\n        /* \"#utility.yul\":8540:8542   */\n      dup1\n        /* \"#utility.yul\":8537:8538   */\n      0x05\n        /* \"#utility.yul\":8533:8543   */\n      shl\n        /* \"#utility.yul\":8523:8543   */\n      swap2\n      pop\n        /* \"#utility.yul\":8563:8591   */\n      tag_535\n        /* \"#utility.yul\":8587:8589   */\n      dup5\n        /* \"#utility.yul\":8583:8585   */\n      dup4\n        /* \"#utility.yul\":8579:8590   */\n      add\n        /* \"#utility.yul\":8563:8591   */\n      tag_452\n      jump\t// in\n    tag_535:\n        /* \"#utility.yul\":8625:8640   */\n      dup2\n      dup2\n      mstore\n        /* \"#utility.yul\":8695:8706   */\n      swap2\n      dup4\n      add\n        /* \"#utility.yul\":8691:8711   */\n      dup5\n      add\n      swap2\n        /* \"#utility.yul\":8656:8668   */\n      dup5\n      dup2\n      add\n      swap1\n        /* \"#utility.yul\":8723:8742   */\n      dup9\n      dup5\n      gt\n        /* \"#utility.yul\":8720:8759   */\n      iszero\n      tag_536\n      jumpi\n        /* \"#utility.yul\":8755:8756   */\n      0x00\n        /* \"#utility.yul\":8752:8753   */\n      dup1\n        /* \"#utility.yul\":8745:8757   */\n      revert\n        /* \"#utility.yul\":8720:8759   */\n    tag_536:\n        /* \"#utility.yul\":8779:8790   */\n      swap4\n      dup6\n      add\n      swap4\n        /* \"#utility.yul\":8799:8941   */\n    tag_537:\n        /* \"#utility.yul\":8815:8821   */\n      dup4\n        /* \"#utility.yul\":8810:8813   */\n      dup6\n        /* \"#utility.yul\":8807:8822   */\n      lt\n        /* \"#utility.yul\":8799:8941   */\n      iszero\n      tag_539\n      jumpi\n        /* \"#utility.yul\":8881:8898   */\n      dup5\n      calldataload\n        /* \"#utility.yul\":8869:8899   */\n      dup3\n      mstore\n        /* \"#utility.yul\":8832:8844   */\n      swap4\n      dup6\n      add\n      swap4\n        /* \"#utility.yul\":8919:8931   */\n      swap1\n      dup6\n      add\n      swap1\n        /* \"#utility.yul\":8799:8941   */\n      jump(tag_537)\n    tag_539:\n        /* \"#utility.yul\":8960:8965   */\n      swap9\n        /* \"#utility.yul\":8025:8971   */\n      swap8\n      pop\n      pop\n      pop\n      pop\n      pop\n      pop\n      pop\n      pop\n      jump\t// out\n        /* \"#utility.yul\":9197:9551   */\n    tag_67:\n        /* \"#utility.yul\":9265:9271   */\n      0x00\n        /* \"#utility.yul\":9273:9279   */\n      dup1\n        /* \"#utility.yul\":9326:9328   */\n      0x40\n        /* \"#utility.yul\":9314:9323   */\n      dup4\n        /* \"#utility.yul\":9305:9312   */\n      dup6\n        /* \"#utility.yul\":9301:9324   */\n      sub\n        /* \"#utility.yul\":9297:9329   */\n      slt\n        /* \"#utility.yul\":9294:9346   */\n      iszero\n      tag_542\n      jumpi\n        /* \"#utility.yul\":9342:9343   */\n      0x00\n        /* \"#utility.yul\":9339:9340   */\n      dup1\n        /* \"#utility.yul\":9332:9344   */\n      revert\n        /* \"#utility.yul\":9294:9346   */\n    tag_542:\n        /* \"#utility.yul\":9368:9391   */\n      dup3\n      calldataload\n      sub(shl(0xa0, 0x01), 0x01)\n        /* \"#utility.yul\":9420:9451   */\n      dup2\n      and\n        /* \"#utility.yul\":9410:9452   */\n      dup2\n      eq\n        /* \"#utility.yul\":9400:9470   */\n      tag_543\n      jumpi\n        /* \"#utility.yul\":9466:9467   */\n      0x00\n        /* \"#utility.yul\":9463:9464   */\n      dup1\n        /* \"#utility.yul\":9456:9468   */\n      revert\n        /* \"#utility.yul\":9400:9470   */\n    tag_543:\n        /* \"#utility.yul\":9489:9494   */\n      swap5\n        /* \"#utility.yul\":9541:9543   */\n      0x20\n        /* \"#utility.yul\":9526:9544   */\n      swap4\n      swap1\n      swap4\n      add\n        /* \"#utility.yul\":9513:9545   */\n      calldataload\n      swap4\n      pop\n      pop\n      pop\n        /* \"#utility.yul\":9197:9551   */\n      jump\t// out\n        /* \"#utility.yul\":9809:10270   */\n    tag_460:\n        /* \"#utility.yul\":9862:9865   */\n      0x00\n        /* \"#utility.yul\":9900:9905   */\n      dup2\n        /* \"#utility.yul\":9894:9906   */\n      mload\n        /* \"#utility.yul\":9927:9933   */\n      dup1\n        /* \"#utility.yul\":9922:9925   */\n      dup5\n        /* \"#utility.yul\":9915:9934   */\n      mstore\n        /* \"#utility.yul\":9953:9957   */\n      0x20\n        /* \"#utility.yul\":9982:9984   */\n      dup1\n        /* \"#utility.yul\":9977:9980   */\n      dup6\n        /* \"#utility.yul\":9973:9985   */\n      add\n        /* \"#utility.yul\":9966:9985   */\n      swap5\n      pop\n        /* \"#utility.yul\":10019:10021   */\n      dup1\n        /* \"#utility.yul\":10012:10017   */\n      dup5\n        /* \"#utility.yul\":10008:10022   */\n      add\n        /* \"#utility.yul\":10040:10041   */\n      0x00\n        /* \"#utility.yul\":10050:10245   */\n    tag_546:\n        /* \"#utility.yul\":10064:10070   */\n      dup4\n        /* \"#utility.yul\":10061:10062   */\n      dup2\n        /* \"#utility.yul\":10058:10071   */\n      lt\n        /* \"#utility.yul\":10050:10245   */\n      iszero\n      tag_548\n      jumpi\n        /* \"#utility.yul\":10129:10142   */\n      dup2\n      mload\n      sub(shl(0xa0, 0x01), 0x01)\n        /* \"#utility.yul\":10125:10164   */\n      and\n        /* \"#utility.yul\":10113:10165   */\n      dup8\n      mstore\n        /* \"#utility.yul\":10185:10197   */\n      swap6\n      dup3\n      add\n      swap6\n        /* \"#utility.yul\":10220:10235   */\n      swap1\n      dup3\n      add\n      swap1\n        /* \"#utility.yul\":10161:10162   */\n      0x01\n        /* \"#utility.yul\":10079:10088   */\n      add\n        /* \"#utility.yul\":10050:10245   */\n      jump(tag_546)\n    tag_548:\n      pop\n        /* \"#utility.yul\":10261:10264   */\n      swap5\n      swap6\n        /* \"#utility.yul\":9809:10270   */\n      swap5\n      pop\n      pop\n      pop\n      pop\n      pop\n      jump\t// out\n        /* \"#utility.yul\":10275:12728   */\n    tag_81:\n        /* \"#utility.yul\":10459:10463   */\n      0x00\n        /* \"#utility.yul\":10488:10490   */\n      0x20\n        /* \"#utility.yul\":10528:10530   */\n      dup1\n        /* \"#utility.yul\":10517:10526   */\n      dup4\n        /* \"#utility.yul\":10513:10531   */\n      add\n        /* \"#utility.yul\":10558:10560   */\n      dup2\n        /* \"#utility.yul\":10547:10556   */\n      dup5\n        /* \"#utility.yul\":10540:10561   */\n      mstore\n        /* \"#utility.yul\":10581:10587   */\n      dup1\n        /* \"#utility.yul\":10616:10622   */\n      dup6\n        /* \"#utility.yul\":10610:10623   */\n      mload\n        /* \"#utility.yul\":10647:10653   */\n      dup1\n        /* \"#utility.yul\":10639:10645   */\n      dup4\n        /* \"#utility.yul\":10632:10654   */\n      mstore\n        /* \"#utility.yul\":10673:10675   */\n      0x40\n        /* \"#utility.yul\":10663:10675   */\n      swap3\n      pop\n        /* \"#utility.yul\":10706:10708   */\n      dup3\n        /* \"#utility.yul\":10695:10704   */\n      dup7\n        /* \"#utility.yul\":10691:10709   */\n      add\n        /* \"#utility.yul\":10684:10709   */\n      swap2\n      pop\n        /* \"#utility.yul\":10768:10770   */\n      dup3\n        /* \"#utility.yul\":10758:10764   */\n      dup2\n        /* \"#utility.yul\":10755:10756   */\n      0x05\n        /* \"#utility.yul\":10751:10765   */\n      shl\n        /* \"#utility.yul\":10740:10749   */\n      dup8\n        /* \"#utility.yul\":10736:10766   */\n      add\n        /* \"#utility.yul\":10732:10771   */\n      add\n        /* \"#utility.yul\":10806:10808   */\n      dup5\n        /* \"#utility.yul\":10798:10804   */\n      dup9\n        /* \"#utility.yul\":10794:10809   */\n      add\n        /* \"#utility.yul\":10827:10828   */\n      0x00\n        /* \"#utility.yul\":10837:12699   */\n    tag_550:\n        /* \"#utility.yul\":10851:10857   */\n      dup4\n        /* \"#utility.yul\":10848:10849   */\n      dup2\n        /* \"#utility.yul\":10845:10858   */\n      lt\n        /* \"#utility.yul\":10837:12699   */\n      iszero\n      tag_552\n      jumpi\n        /* \"#utility.yul\":10944:10946   */\n      0x3f\n        /* \"#utility.yul\":10940:10947   */\n      not\n        /* \"#utility.yul\":10928:10937   */\n      dup10\n        /* \"#utility.yul\":10920:10926   */\n      dup5\n        /* \"#utility.yul\":10916:10938   */\n      sub\n        /* \"#utility.yul\":10912:10948   */\n      add\n        /* \"#utility.yul\":10907:10910   */\n      dup6\n        /* \"#utility.yul\":10900:10949   */\n      mstore\n        /* \"#utility.yul\":10978:10984   */\n      dup2\n        /* \"#utility.yul\":10972:10985   */\n      mload\n        /* \"#utility.yul\":11008:11014   */\n      0x0140\n        /* \"#utility.yul\":11053:11055   */\n      dup2\n        /* \"#utility.yul\":11047:11056   */\n      mload\n        /* \"#utility.yul\":11084:11086   */\n      dup2\n        /* \"#utility.yul\":11076:11082   */\n      dup7\n        /* \"#utility.yul\":11069:11087   */\n      mstore\n        /* \"#utility.yul\":11114:11162   */\n      tag_553\n        /* \"#utility.yul\":11158:11160   */\n      dup3\n        /* \"#utility.yul\":11150:11156   */\n      dup8\n        /* \"#utility.yul\":11146:11161   */\n      add\n        /* \"#utility.yul\":11132:11144   */\n      dup3\n        /* \"#utility.yul\":11114:11162   */\n      tag_456\n      jump\t// in\n    tag_553:\n        /* \"#utility.yul\":11100:11162   */\n      swap2\n      pop\n      pop\n        /* \"#utility.yul\":11211:11213   */\n      dup9\n        /* \"#utility.yul\":11207:11209   */\n      dup3\n        /* \"#utility.yul\":11203:11214   */\n      add\n        /* \"#utility.yul\":11197:11215   */\n      mload\n        /* \"#utility.yul\":11264:11270   */\n      dup6\n        /* \"#utility.yul\":11256:11262   */\n      dup3\n        /* \"#utility.yul\":11252:11271   */\n      sub\n        /* \"#utility.yul\":11247:11249   */\n      dup11\n        /* \"#utility.yul\":11239:11245   */\n      dup8\n        /* \"#utility.yul\":11235:11250   */\n      add\n        /* \"#utility.yul\":11228:11272   */\n      mstore\n        /* \"#utility.yul\":11299:11340   */\n      tag_554\n        /* \"#utility.yul\":11333:11339   */\n      dup3\n        /* \"#utility.yul\":11317:11331   */\n      dup3\n        /* \"#utility.yul\":11299:11340   */\n      tag_456\n      jump\t// in\n    tag_554:\n        /* \"#utility.yul\":11285:11340   */\n      swap2\n      pop\n      pop\n        /* \"#utility.yul\":11391:11393   */\n      dup8\n        /* \"#utility.yul\":11387:11389   */\n      dup3\n        /* \"#utility.yul\":11383:11394   */\n      add\n        /* \"#utility.yul\":11377:11395   */\n      mload\n        /* \"#utility.yul\":11372:11374   */\n      dup9\n        /* \"#utility.yul\":11364:11370   */\n      dup7\n        /* \"#utility.yul\":11360:11375   */\n      add\n        /* \"#utility.yul\":11353:11396   */\n      mstore\n        /* \"#utility.yul\":11419:11423   */\n      0x60\n        /* \"#utility.yul\":11472:11474   */\n      dup1\n        /* \"#utility.yul\":11468:11470   */\n      dup4\n        /* \"#utility.yul\":11464:11475   */\n      add\n        /* \"#utility.yul\":11458:11476   */\n      mload\n        /* \"#utility.yul\":11489:11540   */\n      tag_555\n        /* \"#utility.yul\":11536:11538   */\n      dup3\n        /* \"#utility.yul\":11528:11534   */\n      dup9\n        /* \"#utility.yul\":11524:11539   */\n      add\n        /* \"#utility.yul\":11508:11522   */\n      dup3\n      sub(shl(0xa0, 0x01), 0x01)\n        /* \"#utility.yul\":4168:4199   */\n      and\n        /* \"#utility.yul\":4156:4200   */\n      swap1\n      mstore\n        /* \"#utility.yul\":4102:4206   */\n      jump\n        /* \"#utility.yul\":11489:11540   */\n    tag_555:\n      pop\n      pop\n        /* \"#utility.yul\":11563:11567   */\n      0x80\n        /* \"#utility.yul\":11610:11621   */\n      dup3\n      dup2\n      add\n        /* \"#utility.yul\":11604:11622   */\n      mload\n        /* \"#utility.yul\":11587:11602   */\n      swap1\n      dup7\n      add\n        /* \"#utility.yul\":11580:11623   */\n      mstore\n        /* \"#utility.yul\":11646:11650   */\n      0xa0\n        /* \"#utility.yul\":11691:11702   */\n      dup1\n      dup4\n      add\n        /* \"#utility.yul\":11685:11703   */\n      mload\n        /* \"#utility.yul\":11740:11759   */\n      dup7\n      dup4\n      sub\n        /* \"#utility.yul\":11723:11738   */\n      dup3\n      dup9\n      add\n        /* \"#utility.yul\":11716:11760   */\n      mstore\n        /* \"#utility.yul\":11787:11846   */\n      tag_556\n        /* \"#utility.yul\":11744:11750   */\n      dup4\n        /* \"#utility.yul\":11685:11703   */\n      dup3\n        /* \"#utility.yul\":11787:11846   */\n      tag_459\n      jump\t// in\n    tag_556:\n        /* \"#utility.yul\":11773:11846   */\n      swap3\n      pop\n      pop\n      pop\n        /* \"#utility.yul\":11869:11873   */\n      0xc0\n        /* \"#utility.yul\":11922:11924   */\n      dup1\n        /* \"#utility.yul\":11918:11920   */\n      dup4\n        /* \"#utility.yul\":11914:11925   */\n      add\n        /* \"#utility.yul\":11908:11926   */\n      mload\n        /* \"#utility.yul\":11939:11987   */\n      tag_557\n        /* \"#utility.yul\":11983:11985   */\n      dup3\n        /* \"#utility.yul\":11975:11981   */\n      dup9\n        /* \"#utility.yul\":11971:11986   */\n      add\n        /* \"#utility.yul\":11955:11969   */\n      dup3\n        /* \"#utility.yul\":4281:4294   */\n      iszero\n        /* \"#utility.yul\":4274:4295   */\n      iszero\n        /* \"#utility.yul\":4262:4296   */\n      swap1\n      mstore\n        /* \"#utility.yul\":4211:4302   */\n      jump\n        /* \"#utility.yul\":11939:11987   */\n    tag_557:\n      pop\n      pop\n        /* \"#utility.yul\":12010:12014   */\n      0xe0\n        /* \"#utility.yul\":12063:12065   */\n      dup1\n        /* \"#utility.yul\":12059:12061   */\n      dup4\n        /* \"#utility.yul\":12055:12066   */\n      add\n        /* \"#utility.yul\":12049:12067   */\n      mload\n        /* \"#utility.yul\":12116:12122   */\n      dup7\n        /* \"#utility.yul\":12108:12114   */\n      dup4\n        /* \"#utility.yul\":12104:12123   */\n      sub\n        /* \"#utility.yul\":12099:12101   */\n      dup3\n        /* \"#utility.yul\":12091:12097   */\n      dup9\n        /* \"#utility.yul\":12087:12102   */\n      add\n        /* \"#utility.yul\":12080:12124   */\n      mstore\n        /* \"#utility.yul\":12151:12192   */\n      tag_558\n        /* \"#utility.yul\":12185:12191   */\n      dup4\n        /* \"#utility.yul\":12169:12183   */\n      dup3\n        /* \"#utility.yul\":12151:12192   */\n      tag_456\n      jump\t// in\n    tag_558:\n        /* \"#utility.yul\":12137:12192   */\n      swap3\n      pop\n      pop\n      pop\n        /* \"#utility.yul\":12216:12222   */\n      0x0100\n        /* \"#utility.yul\":12271:12274   */\n      dup1\n        /* \"#utility.yul\":12267:12269   */\n      dup4\n        /* \"#utility.yul\":12263:12275   */\n      add\n        /* \"#utility.yul\":12257:12276   */\n      mload\n        /* \"#utility.yul\":12326:12332   */\n      dup7\n        /* \"#utility.yul\":12318:12324   */\n      dup4\n        /* \"#utility.yul\":12314:12333   */\n      sub\n        /* \"#utility.yul\":12308:12311   */\n      dup3\n        /* \"#utility.yul\":12300:12306   */\n      dup9\n        /* \"#utility.yul\":12296:12312   */\n      add\n        /* \"#utility.yul\":12289:12334   */\n      mstore\n        /* \"#utility.yul\":12361:12413   */\n      tag_559\n        /* \"#utility.yul\":12406:12412   */\n      dup4\n        /* \"#utility.yul\":12390:12404   */\n      dup3\n        /* \"#utility.yul\":12361:12413   */\n      tag_460\n      jump\t// in\n    tag_559:\n        /* \"#utility.yul\":12347:12413   */\n      swap3\n      pop\n      pop\n      pop\n        /* \"#utility.yul\":12437:12443   */\n      0x0120\n        /* \"#utility.yul\":12492:12495   */\n      dup1\n        /* \"#utility.yul\":12488:12490   */\n      dup4\n        /* \"#utility.yul\":12484:12496   */\n      add\n        /* \"#utility.yul\":12478:12497   */\n      mload\n        /* \"#utility.yul\":12456:12497   */\n      swap3\n      pop\n        /* \"#utility.yul\":12547:12553   */\n      dup6\n        /* \"#utility.yul\":12539:12545   */\n      dup3\n        /* \"#utility.yul\":12535:12554   */\n      sub\n        /* \"#utility.yul\":12529:12532   */\n      dup2\n        /* \"#utility.yul\":12521:12527   */\n      dup8\n        /* \"#utility.yul\":12517:12533   */\n      add\n        /* \"#utility.yul\":12510:12555   */\n      mstore\n      pop\n        /* \"#utility.yul\":12578:12619   */\n      tag_560\n        /* \"#utility.yul\":12612:12618   */\n      dup2\n        /* \"#utility.yul\":12596:12610   */\n      dup4\n        /* \"#utility.yul\":12578:12619   */\n      tag_456\n      jump\t// in\n    tag_560:\n        /* \"#utility.yul\":12677:12689   */\n      swap7\n      dup10\n      add\n      swap7\n        /* \"#utility.yul\":12568:12619   */\n      swap5\n      pop\n      pop\n      pop\n        /* \"#utility.yul\":12642:12657   */\n      swap1\n      dup7\n      add\n      swap1\n        /* \"#utility.yul\":10873:10874   */\n      0x01\n        /* \"#utility.yul\":10866:10875   */\n      add\n        /* \"#utility.yul\":10837:12699   */\n      jump(tag_550)\n    tag_552:\n      pop\n        /* \"#utility.yul\":12716:12722   */\n      swap1\n      swap9\n        /* \"#utility.yul\":10275:12728   */\n      swap8\n      pop\n      pop\n      pop\n      pop\n      pop\n      pop\n      pop\n      pop\n      jump\t// out\n        /* \"#utility.yul\":12733:13502   */\n    tag_89:\n        /* \"#utility.yul\":12837:12843   */\n      0x00\n        /* \"#utility.yul\":12845:12851   */\n      dup1\n        /* \"#utility.yul\":12853:12859   */\n      0x00\n        /* \"#utility.yul\":12861:12867   */\n      dup1\n        /* \"#utility.yul\":12914:12917   */\n      0x80\n        /* \"#utility.yul\":12902:12911   */\n      dup6\n        /* \"#utility.yul\":12893:12900   */\n      dup8\n        /* \"#utility.yul\":12889:12912   */\n      sub\n        /* \"#utility.yul\":12885:12918   */\n      slt\n        /* \"#utility.yul\":12882:12935   */\n      iszero\n      tag_562\n      jumpi\n        /* \"#utility.yul\":12931:12932   */\n      0x00\n        /* \"#utility.yul\":12928:12929   */\n      dup1\n        /* \"#utility.yul\":12921:12933   */\n      revert\n        /* \"#utility.yul\":12882:12935   */\n    tag_562:\n        /* \"#utility.yul\":12971:12980   */\n      dup5\n        /* \"#utility.yul\":12958:12981   */\n      calldataload\n        /* \"#utility.yul\":13000:13018   */\n      0xffffffffffffffff\n        /* \"#utility.yul\":13041:13043   */\n      dup1\n        /* \"#utility.yul\":13033:13039   */\n      dup3\n        /* \"#utility.yul\":13030:13044   */\n      gt\n        /* \"#utility.yul\":13027:13061   */\n      iszero\n      tag_563\n      jumpi\n        /* \"#utility.yul\":13057:13058   */\n      0x00\n        /* \"#utility.yul\":13054:13055   */\n      dup1\n        /* \"#utility.yul\":13047:13059   */\n      revert\n        /* \"#utility.yul\":13027:13061   */\n    tag_563:\n        /* \"#utility.yul\":13080:13130   */\n      tag_564\n        /* \"#utility.yul\":13122:13129   */\n      dup9\n        /* \"#utility.yul\":13113:13119   */\n      dup4\n        /* \"#utility.yul\":13102:13111   */\n      dup10\n        /* \"#utility.yul\":13098:13120   */\n      add\n        /* \"#utility.yul\":13080:13130   */\n      tag_453\n      jump\t// in\n    tag_564:\n        /* \"#utility.yul\":13070:13130   */\n      swap6\n      pop\n        /* \"#utility.yul\":13183:13185   */\n      0x20\n        /* \"#utility.yul\":13172:13181   */\n      dup8\n        /* \"#utility.yul\":13168:13186   */\n      add\n        /* \"#utility.yul\":13155:13187   */\n      calldataload\n        /* \"#utility.yul\":13139:13187   */\n      swap2\n      pop\n        /* \"#utility.yul\":13212:13214   */\n      dup1\n        /* \"#utility.yul\":13202:13210   */\n      dup3\n        /* \"#utility.yul\":13199:13215   */\n      gt\n        /* \"#utility.yul\":13196:13232   */\n      iszero\n      tag_565\n      jumpi\n        /* \"#utility.yul\":13228:13229   */\n      0x00\n        /* \"#utility.yul\":13225:13226   */\n      dup1\n        /* \"#utility.yul\":13218:13230   */\n      revert\n        /* \"#utility.yul\":13196:13232   */\n    tag_565:\n      pop\n        /* \"#utility.yul\":13251:13303   */\n      tag_566\n        /* \"#utility.yul\":13295:13302   */\n      dup8\n        /* \"#utility.yul\":13284:13292   */\n      dup3\n        /* \"#utility.yul\":13273:13282   */\n      dup9\n        /* \"#utility.yul\":13269:13293   */\n      add\n        /* \"#utility.yul\":13251:13303   */\n      tag_453\n      jump\t// in\n    tag_566:\n        /* \"#utility.yul\":13241:13303   */\n      swap4\n      pop\n      pop\n        /* \"#utility.yul\":13353:13355   */\n      0x40\n        /* \"#utility.yul\":13342:13351   */\n      dup6\n        /* \"#utility.yul\":13338:13356   */\n      add\n        /* \"#utility.yul\":13325:13357   */\n      calldataload\n        /* \"#utility.yul\":13397:13401   */\n      0xff\n        /* \"#utility.yul\":13390:13395   */\n      dup2\n        /* \"#utility.yul\":13386:13402   */\n      and\n        /* \"#utility.yul\":13379:13384   */\n      dup2\n        /* \"#utility.yul\":13376:13403   */\n      eq\n        /* \"#utility.yul\":13366:13421   */\n      tag_567\n      jumpi\n        /* \"#utility.yul\":13417:13418   */\n      0x00\n        /* \"#utility.yul\":13414:13415   */\n      dup1\n        /* \"#utility.yul\":13407:13419   */\n      revert\n        /* \"#utility.yul\":13366:13421   */\n    tag_567:\n        /* \"#utility.yul\":12733:13502   */\n      swap4\n      swap7\n      swap3\n      swap6\n      pop\n        /* \"#utility.yul\":13440:13445   */\n      swap3\n      swap4\n        /* \"#utility.yul\":13492:13494   */\n      0x60\n        /* \"#utility.yul\":13477:13495   */\n      add\n        /* \"#utility.yul\":13464:13496   */\n      calldataload\n      swap3\n      pop\n      pop\n        /* \"#utility.yul\":12733:13502   */\n      jump\t// out\n        /* \"#utility.yul\":13507:13634   */\n    tag_94:\n        /* \"#utility.yul\":13568:13578   */\n      0x4e487b71\n        /* \"#utility.yul\":13563:13566   */\n      0xe0\n        /* \"#utility.yul\":13559:13579   */\n      shl\n        /* \"#utility.yul\":13556:13557   */\n      0x00\n        /* \"#utility.yul\":13549:13580   */\n      mstore\n        /* \"#utility.yul\":13599:13603   */\n      0x32\n        /* \"#utility.yul\":13596:13597   */\n      0x04\n        /* \"#utility.yul\":13589:13604   */\n      mstore\n        /* \"#utility.yul\":13623:13627   */\n      0x24\n        /* \"#utility.yul\":13620:13621   */\n      0x00\n        /* \"#utility.yul\":13613:13628   */\n      revert\n        /* \"#utility.yul\":13639:14019   */\n    tag_188:\n        /* \"#utility.yul\":13718:13719   */\n      0x01\n        /* \"#utility.yul\":13714:13726   */\n      dup2\n      dup2\n      shr\n      swap1\n        /* \"#utility.yul\":13761:13773   */\n      dup3\n      and\n      dup1\n        /* \"#utility.yul\":13782:13843   */\n      tag_570\n      jumpi\n        /* \"#utility.yul\":13836:13840   */\n      0x7f\n        /* \"#utility.yul\":13828:13834   */\n      dup3\n        /* \"#utility.yul\":13824:13841   */\n      and\n        /* \"#utility.yul\":13814:13841   */\n      swap2\n      pop\n        /* \"#utility.yul\":13782:13843   */\n    tag_570:\n        /* \"#utility.yul\":13889:13891   */\n      0x20\n        /* \"#utility.yul\":13881:13887   */\n      dup3\n        /* \"#utility.yul\":13878:13892   */\n      lt\n        /* \"#utility.yul\":13858:13876   */\n      dup2\n        /* \"#utility.yul\":13855:13893   */\n      sub\n        /* \"#utility.yul\":13852:14013   */\n      tag_571\n      jumpi\n        /* \"#utility.yul\":13935:13945   */\n      0x4e487b71\n        /* \"#utility.yul\":13930:13933   */\n      0xe0\n        /* \"#utility.yul\":13926:13946   */\n      shl\n        /* \"#utility.yul\":13923:13924   */\n      0x00\n        /* \"#utility.yul\":13916:13947   */\n      mstore\n        /* \"#utility.yul\":13970:13974   */\n      0x22\n        /* \"#utility.yul\":13967:13968   */\n      0x04\n        /* \"#utility.yul\":13960:13975   */\n      mstore\n        /* \"#utility.yul\":13998:14002   */\n      0x24\n        /* \"#utility.yul\":13995:13996   */\n      0x00\n        /* \"#utility.yul\":13988:14003   */\n      revert\n        /* \"#utility.yul\":13852:14013   */\n    tag_571:\n      pop\n        /* \"#utility.yul\":13639:14019   */\n      swap2\n      swap1\n      pop\n      jump\t// out\n        /* \"#utility.yul\":14150:14695   */\n    tag_462:\n        /* \"#utility.yul\":14252:14254   */\n      0x1f\n        /* \"#utility.yul\":14247:14250   */\n      dup3\n        /* \"#utility.yul\":14244:14255   */\n      gt\n        /* \"#utility.yul\":14241:14689   */\n      iszero\n      tag_236\n      jumpi\n        /* \"#utility.yul\":14288:14289   */\n      0x00\n        /* \"#utility.yul\":14313:14318   */\n      dup2\n        /* \"#utility.yul\":14309:14311   */\n      dup2\n        /* \"#utility.yul\":14302:14319   */\n      mstore\n        /* \"#utility.yul\":14358:14362   */\n      0x20\n        /* \"#utility.yul\":14354:14356   */\n      dup2\n        /* \"#utility.yul\":14344:14363   */\n      keccak256\n        /* \"#utility.yul\":14428:14430   */\n      0x1f\n        /* \"#utility.yul\":14416:14426   */\n      dup6\n        /* \"#utility.yul\":14412:14431   */\n      add\n        /* \"#utility.yul\":14409:14410   */\n      0x05\n        /* \"#utility.yul\":14405:14432   */\n      shr\n        /* \"#utility.yul\":14399:14403   */\n      dup2\n        /* \"#utility.yul\":14395:14433   */\n      add\n        /* \"#utility.yul\":14464:14468   */\n      0x20\n        /* \"#utility.yul\":14452:14462   */\n      dup7\n        /* \"#utility.yul\":14449:14469   */\n      lt\n        /* \"#utility.yul\":14446:14493   */\n      iszero\n      tag_575\n      jumpi\n      pop\n        /* \"#utility.yul\":14487:14491   */\n      dup1\n        /* \"#utility.yul\":14446:14493   */\n    tag_575:\n        /* \"#utility.yul\":14542:14544   */\n      0x1f\n        /* \"#utility.yul\":14537:14540   */\n      dup6\n        /* \"#utility.yul\":14533:14545   */\n      add\n        /* \"#utility.yul\":14530:14531   */\n      0x05\n        /* \"#utility.yul\":14526:14546   */\n      shr\n        /* \"#utility.yul\":14520:14524   */\n      dup3\n        /* \"#utility.yul\":14516:14547   */\n      add\n        /* \"#utility.yul\":14506:14547   */\n      swap2\n      pop\n        /* \"#utility.yul\":14597:14679   */\n    tag_576:\n        /* \"#utility.yul\":14615:14617   */\n      dup2\n        /* \"#utility.yul\":14608:14613   */\n      dup2\n        /* \"#utility.yul\":14605:14618   */\n      lt\n        /* \"#utility.yul\":14597:14679   */\n      iszero\n      tag_578\n      jumpi\n        /* \"#utility.yul\":14660:14677   */\n      dup3\n      dup2\n      sstore\n        /* \"#utility.yul\":14641:14642   */\n      0x01\n        /* \"#utility.yul\":14630:14643   */\n      add\n        /* \"#utility.yul\":14597:14679   */\n      jump(tag_576)\n    tag_578:\n        /* \"#utility.yul\":14601:14604   */\n      pop\n      pop\n      pop\n        /* \"#utility.yul\":14150:14695   */\n      pop\n      pop\n      pop\n      jump\t// out\n        /* \"#utility.yul\":14871:16223   */\n    tag_97:\n        /* \"#utility.yul\":14997:15000   */\n      dup2\n        /* \"#utility.yul\":14991:15001   */\n      mload\n        /* \"#utility.yul\":15024:15042   */\n      0xffffffffffffffff\n        /* \"#utility.yul\":15016:15022   */\n      dup2\n        /* \"#utility.yul\":15013:15043   */\n      gt\n        /* \"#utility.yul\":15010:15066   */\n      iszero\n      tag_582\n      jumpi\n        /* \"#utility.yul\":15046:15064   */\n      tag_582\n      tag_451\n      jump\t// in\n    tag_582:\n        /* \"#utility.yul\":15075:15172   */\n      tag_583\n        /* \"#utility.yul\":15165:15171   */\n      dup2\n        /* \"#utility.yul\":15125:15163   */\n      tag_584\n        /* \"#utility.yul\":15157:15161   */\n      dup5\n        /* \"#utility.yul\":15151:15162   */\n      sload\n        /* \"#utility.yul\":15125:15163   */\n      tag_188\n      jump\t// in\n    tag_584:\n        /* \"#utility.yul\":15119:15123   */\n      dup5\n        /* \"#utility.yul\":15075:15172   */\n      tag_462\n      jump\t// in\n    tag_583:\n        /* \"#utility.yul\":15227:15231   */\n      0x20\n      dup1\n        /* \"#utility.yul\":15291:15293   */\n      0x1f\n        /* \"#utility.yul\":15280:15294   */\n      dup4\n      gt\n        /* \"#utility.yul\":15308:15309   */\n      0x01\n        /* \"#utility.yul\":15303:15966   */\n      dup2\n      eq\n      tag_586\n      jumpi\n        /* \"#utility.yul\":16010:16011   */\n      0x00\n        /* \"#utility.yul\":16027:16033   */\n      dup5\n        /* \"#utility.yul\":16024:16113   */\n      iszero\n      tag_587\n      jumpi\n      pop\n        /* \"#utility.yul\":16079:16098   */\n      dup6\n      dup4\n      add\n        /* \"#utility.yul\":16073:16099   */\n      mload\n        /* \"#utility.yul\":16024:16113   */\n    tag_587:\n      not(0x00)\n        /* \"#utility.yul\":14828:14829   */\n      0x03\n        /* \"#utility.yul\":14824:14835   */\n      dup7\n      swap1\n      shl\n        /* \"#utility.yul\":14820:14844   */\n      shr\n        /* \"#utility.yul\":14816:14845   */\n      not\n        /* \"#utility.yul\":14806:14846   */\n      and\n        /* \"#utility.yul\":14852:14853   */\n      0x01\n        /* \"#utility.yul\":14848:14859   */\n      dup6\n      swap1\n      shl\n        /* \"#utility.yul\":14803:14860   */\n      or\n        /* \"#utility.yul\":16126:16207   */\n      dup6\n      sstore\n        /* \"#utility.yul\":15273:16217   */\n      jump(tag_578)\n        /* \"#utility.yul\":15303:15966   */\n    tag_586:\n        /* \"#utility.yul\":14097:14098   */\n      0x00\n        /* \"#utility.yul\":14090:14104   */\n      dup6\n      dup2\n      mstore\n        /* \"#utility.yul\":14134:14138   */\n      0x20\n        /* \"#utility.yul\":14121:14139   */\n      dup2\n      keccak256\n      not(0x1f)\n        /* \"#utility.yul\":15339:15359   */\n      dup7\n      and\n      swap2\n        /* \"#utility.yul\":15457:15693   */\n    tag_590:\n        /* \"#utility.yul\":15471:15478   */\n      dup3\n        /* \"#utility.yul\":15468:15469   */\n      dup2\n        /* \"#utility.yul\":15465:15479   */\n      lt\n        /* \"#utility.yul\":15457:15693   */\n      iszero\n      tag_592\n      jumpi\n        /* \"#utility.yul\":15560:15579   */\n      dup9\n      dup7\n      add\n        /* \"#utility.yul\":15554:15580   */\n      mload\n        /* \"#utility.yul\":15539:15581   */\n      dup3\n      sstore\n        /* \"#utility.yul\":15652:15679   */\n      swap5\n      dup5\n      add\n      swap5\n        /* \"#utility.yul\":15620:15621   */\n      0x01\n        /* \"#utility.yul\":15608:15622   */\n      swap1\n      swap2\n      add\n      swap1\n        /* \"#utility.yul\":15487:15506   */\n      dup5\n      add\n        /* \"#utility.yul\":15457:15693   */\n      jump(tag_590)\n    tag_592:\n        /* \"#utility.yul\":15461:15464   */\n      pop\n        /* \"#utility.yul\":15721:15727   */\n      dup6\n        /* \"#utility.yul\":15712:15719   */\n      dup3\n        /* \"#utility.yul\":15709:15728   */\n      lt\n        /* \"#utility.yul\":15706:15907   */\n      iszero\n      tag_593\n      jumpi\n        /* \"#utility.yul\":15782:15801   */\n      dup8\n      dup6\n      add\n        /* \"#utility.yul\":15776:15802   */\n      mload\n      not(0x00)\n        /* \"#utility.yul\":15865:15866   */\n      0x03\n        /* \"#utility.yul\":15861:15875   */\n      dup9\n      swap1\n      shl\n        /* \"#utility.yul\":15877:15880   */\n      0xf8\n        /* \"#utility.yul\":15857:15881   */\n      and\n        /* \"#utility.yul\":15853:15890   */\n      shr\n        /* \"#utility.yul\":15849:15891   */\n      not\n        /* \"#utility.yul\":15834:15892   */\n      and\n        /* \"#utility.yul\":15819:15893   */\n      dup2\n      sstore\n        /* \"#utility.yul\":15706:15907   */\n    tag_593:\n      pop\n      pop\n      pop\n      pop\n      pop\n        /* \"#utility.yul\":15953:15954   */\n      0x01\n        /* \"#utility.yul\":15937:15951   */\n      swap1\n      dup2\n      shl\n        /* \"#utility.yul\":15933:15955   */\n      add\n        /* \"#utility.yul\":15920:15956   */\n      swap1\n      sstore\n      pop\n        /* \"#utility.yul\":14871:16223   */\n      jump\t// out\n        /* \"#utility.yul\":16228:16355   */\n    tag_464:\n        /* \"#utility.yul\":16289:16299   */\n      0x4e487b71\n        /* \"#utility.yul\":16284:16287   */\n      0xe0\n        /* \"#utility.yul\":16280:16300   */\n      shl\n        /* \"#utility.yul\":16277:16278   */\n      0x00\n        /* \"#utility.yul\":16270:16301   */\n      mstore\n        /* \"#utility.yul\":16320:16324   */\n      0x11\n        /* \"#utility.yul\":16317:16318   */\n      0x04\n        /* \"#utility.yul\":16310:16325   */\n      mstore\n        /* \"#utility.yul\":16344:16348   */\n      0x24\n        /* \"#utility.yul\":16341:16342   */\n      0x00\n        /* \"#utility.yul\":16334:16349   */\n      revert\n        /* \"#utility.yul\":16360:16528   */\n    tag_124:\n        /* \"#utility.yul\":16433:16442   */\n      dup1\n      dup3\n      mul\n        /* \"#utility.yul\":16464:16473   */\n      dup2\n      iszero\n        /* \"#utility.yul\":16481:16496   */\n      dup3\n      dup3\n      div\n        /* \"#utility.yul\":16475:16497   */\n      dup5\n      eq\n        /* \"#utility.yul\":16461:16498   */\n      or\n        /* \"#utility.yul\":16451:16522   */\n      tag_597\n      jumpi\n        /* \"#utility.yul\":16502:16520   */\n      tag_597\n      tag_464\n      jump\t// in\n    tag_597:\n        /* \"#utility.yul\":16360:16528   */\n      swap3\n      swap2\n      pop\n      pop\n      jump\t// out\n        /* \"#utility.yul\":16741:16925   */\n    tag_130:\n        /* \"#utility.yul\":16811:16817   */\n      0x00\n        /* \"#utility.yul\":16864:16866   */\n      0x20\n        /* \"#utility.yul\":16852:16861   */\n      dup3\n        /* \"#utility.yul\":16843:16850   */\n      dup5\n        /* \"#utility.yul\":16839:16862   */\n      sub\n        /* \"#utility.yul\":16835:16867   */\n      slt\n        /* \"#utility.yul\":16832:16884   */\n      iszero\n      tag_600\n      jumpi\n        /* \"#utility.yul\":16880:16881   */\n      0x00\n        /* \"#utility.yul\":16877:16878   */\n      dup1\n        /* \"#utility.yul\":16870:16882   */\n      revert\n        /* \"#utility.yul\":16832:16884   */\n    tag_600:\n      pop\n        /* \"#utility.yul\":16903:16919   */\n      mload\n      swap2\n        /* \"#utility.yul\":16741:16925   */\n      swap1\n      pop\n      jump\t// out\n        /* \"#utility.yul\":17643:17771   */\n    tag_144:\n        /* \"#utility.yul\":17710:17719   */\n      dup2\n      dup2\n      sub\n        /* \"#utility.yul\":17731:17742   */\n      dup2\n      dup2\n      gt\n        /* \"#utility.yul\":17728:17765   */\n      iszero\n      tag_597\n      jumpi\n        /* \"#utility.yul\":17745:17763   */\n      tag_597\n      tag_464\n      jump\t// in\n        /* \"#utility.yul\":18110:18330   */\n    tag_152:\n        /* \"#utility.yul\":18259:18261   */\n      0x20\n        /* \"#utility.yul\":18248:18257   */\n      dup2\n        /* \"#utility.yul\":18241:18262   */\n      mstore\n        /* \"#utility.yul\":18222:18226   */\n      0x00\n        /* \"#utility.yul\":18279:18324   */\n      tag_528\n        /* \"#utility.yul\":18320:18322   */\n      0x20\n        /* \"#utility.yul\":18309:18318   */\n      dup4\n        /* \"#utility.yul\":18305:18323   */\n      add\n        /* \"#utility.yul\":18297:18303   */\n      dup5\n        /* \"#utility.yul\":18279:18324   */\n      tag_456\n      jump\t// in\n        /* \"#utility.yul\":18715:18960   */\n    tag_165:\n        /* \"#utility.yul\":18782:18788   */\n      0x00\n        /* \"#utility.yul\":18835:18837   */\n      0x20\n        /* \"#utility.yul\":18823:18832   */\n      dup3\n        /* \"#utility.yul\":18814:18821   */\n      dup5\n        /* \"#utility.yul\":18810:18833   */\n      sub\n        /* \"#utility.yul\":18806:18838   */\n      slt\n        /* \"#utility.yul\":18803:18855   */\n      iszero\n      tag_611\n      jumpi\n        /* \"#utility.yul\":18851:18852   */\n      0x00\n        /* \"#utility.yul\":18848:18849   */\n      dup1\n        /* \"#utility.yul\":18841:18853   */\n      revert\n        /* \"#utility.yul\":18803:18855   */\n    tag_611:\n        /* \"#utility.yul\":18883:18892   */\n      dup2\n        /* \"#utility.yul\":18877:18893   */\n      mload\n        /* \"#utility.yul\":18902:18930   */\n      tag_528\n        /* \"#utility.yul\":18924:18929   */\n      dup2\n        /* \"#utility.yul\":18902:18930   */\n      tag_454\n      jump\t// in\n        /* \"#utility.yul\":19674:19799   */\n    tag_233:\n        /* \"#utility.yul\":19739:19748   */\n      dup1\n      dup3\n      add\n        /* \"#utility.yul\":19760:19770   */\n      dup1\n      dup3\n      gt\n        /* \"#utility.yul\":19757:19793   */\n      iszero\n      tag_597\n      jumpi\n        /* \"#utility.yul\":19773:19791   */\n      tag_597\n      tag_464\n      jump\t// in\n        /* \"#utility.yul\":19804:19939   */\n    tag_235:\n        /* \"#utility.yul\":19843:19846   */\n      0x00\n        /* \"#utility.yul\":19864:19881   */\n      0x01\n      dup3\n      add\n        /* \"#utility.yul\":19861:19904   */\n      tag_620\n      jumpi\n        /* \"#utility.yul\":19884:19902   */\n      tag_620\n      tag_464\n      jump\t// in\n    tag_620:\n      pop\n        /* \"#utility.yul\":19931:19932   */\n      0x01\n        /* \"#utility.yul\":19920:19933   */\n      add\n      swap1\n        /* \"#utility.yul\":19804:19939   */\n      jump\t// out\n        /* \"#utility.yul\":20654:20781   */\n    tag_418:\n        /* \"#utility.yul\":20715:20725   */\n      0x4e487b71\n        /* \"#utility.yul\":20710:20713   */\n      0xe0\n        /* \"#utility.yul\":20706:20726   */\n      shl\n        /* \"#utility.yul\":20703:20704   */\n      0x00\n        /* \"#utility.yul\":20696:20727   */\n      mstore\n        /* \"#utility.yul\":20746:20750   */\n      0x31\n        /* \"#utility.yul\":20743:20744   */\n      0x04\n        /* \"#utility.yul\":20736:20751   */\n      mstore\n        /* \"#utility.yul\":20770:20774   */\n      0x24\n        /* \"#utility.yul\":20767:20768   */\n      0x00\n        /* \"#utility.yul\":20760:20775   */\n      revert\n    stop\n    data_1c16900e2a5a8cac2e958d7c34a772ec0296616e7d588c11b7ce7006a6166283 68747470733a2f2f7777772e666f72747974776f2e6d792f6d656469612f636174616c6f672f70726f647563742f63616368652f312f696d6167652f33303030782f39646637386561623333353235643038643665356662386432373133366539352f732f612f73616e746961676f5f7570686f6c7374657265645f717565656e5f6265645f677265795f5f5f6d675f353439355f5f63726f707065642e6a7067\n    data_29c1fcc64eee609a1c2cde83f189b1e0015e5756b5fd30d340172b1a67d05a5a 68747470733a2f2f7777772e636f6c6c696e7364696374696f6e6172792e636f6d2f696d616765732f66756c6c2f6170706c655f3135383938393135372e6a7067\n    data_5cb3968da822e5910b26d80b07572577230bbd6821273113a3e5e176406553b4 68747470733a2f2f73686f702e7377697463682e636f6d2e6d792f63646e2f73686f702f66696c65732f6950686f6e655f31355f50696e6b5f5044505f496d6167655f506f736974696f6e2d315f5f4742454e5f37636636303432352d306435612d346263392d626664392d3634356239633836653638652e6a70673f763d31373137363934313739\n\n    auxdata: 0xa26469706673582212204bf7b1ca29ab8ac79700d6c61d7c29d26a98e1b7f19895af7ee1df39df6d023764736f6c63430008130033\n}\n",
				"bytecode": {
					"linkReferences": {},
					"object": "6080604052600080546001600160a01b0319908116733cc603c0e3c897597ef4efbf53b8fdd0ea900917179091556001805560038054909116739163f6f9a843827ab2fc1b0fbd95b7ef7776312917905534801561005c57600080fd5b50612b7a8061006c6000396000f3fe608060405234801561001057600080fd5b506004361061010b5760003560e01c80636c4bb39f116100a257806392045cae1161007157806392045cae1461024e5780639b44f94014610263578063b6b9e3ee14610278578063ca29610e14610280578063de43b5951461029357600080fd5b80636c4bb39f146101d55780637f2f767e146101e85780638b1a2d52146102135780638c0572041461023b57600080fd5b806336777a4a116100de57806336777a4a1461017d57806338687bfd146101905780633ab9bbb6146101a2578063565f717d146101b557600080fd5b806301d1d3da1461011057806317e31e281461012557806321627dad146101385780632f72439414610156575b600080fd5b61012361011e366004612145565b6102a6565b005b610123610133366004612220565b610406565b610140610805565b60405161014d9190612242565b60405180910390f35b610169610164366004612291565b610883565b60405161014d9897969594939291906122f0565b61012361018b366004612374565b610b0d565b6002545b60405190815260200161014d565b6101236101b0366004612220565b610bb5565b6101c86101c3366004612291565b610d58565b60405161014d91906124af565b6101236101e33660046124c9565b610f0f565b6000546101fb906001600160a01b031681565b6040516001600160a01b03909116815260200161014d565b61022661022136600461256f565b6112c6565b6040805192835260208301919091520161014d565b6101946102493660046124c9565b611302565b33600090815260046020526040902054610194565b61026b611476565b60405161014d91906125eb565b610123611960565b61012361028e366004612291565b611cbf565b6101236102a1366004612726565b611e5c565b86600289815481106102ba576102ba6127aa565b90600052602060002090600a020160000190816102d79190612848565b5085600289815481106102ec576102ec6127aa565b90600052602060002090600a020160010190816103099190612848565b50846002898154811061031e5761031e6127aa565b90600052602060002090600a0201600201819055508360028981548110610347576103476127aa565b90600052602060002090600a0201600401819055508260028981548110610370576103706127aa565b90600052602060002090600a020160060160006101000a81548160ff02191690831515021790555081600289815481106103ac576103ac6127aa565b90600052602060002090600a020160090190816103c99190612848565b5080600289815481106103de576103de6127aa565b90600052602060002090600a020160070190816103fb9190612848565b505050505050505050565b60028281548110610419576104196127aa565b90600052602060002090600a02016002015481610436919061291e565b6000546040516370a0823160e01b81523360048201526001600160a01b03909116906370a0823190602401602060405180830381865afa15801561047e573d6000803e3d6000fd5b505050506040513d601f19601f820116820180604052508101906104a2919061293b565b10156104f55760405162461bcd60e51b815260206004820152601b60248201527f62616c616e6365206e6f7420656e6f756768206275792073746570000000000060448201526064015b60405180910390fd5b60028281548110610508576105086127aa565b600091825260209091206006600a90920201015460ff1615156001146105705760405162461bcd60e51b815260206004820152601c60248201527f7468697320676f6f6420697320756e6176616c6961626c65206e6f770000000060448201526064016104ec565b60008160028481548110610586576105866127aa565b90600052602060002090600a0201600401546105a29190612954565b1015600283815481106105b7576105b76127aa565b90600052602060002090600a0201600401546040516020016105f591906c01027b7363c903932b6b0b4b71609d1b8152600d810191909152602d0190565b604051602081830303815290604052906106225760405162461bcd60e51b81526004016104ec9190612967565b50600054600280546001600160a01b03909216916323b872dd9133918690811061064e5761064e6127aa565b90600052602060002090600a020160030160009054906101000a90046001600160a01b031660028681548110610686576106866127aa565b90600052602060002090600a020160020154856106a3919061291e565b6040516001600160e01b031960e086901b1681526001600160a01b03938416600482015292909116602483015260448201526064016020604051808303816000875af11580156106f7573d6000803e3d6000fd5b505050506040513d601f19601f8201168201806040525081019061071b919061297a565b508060028381548110610730576107306127aa565b90600052602060002090600a020160040160008282546107509190612954565b90915550506002805483908110610769576107696127aa565b90600052602060002090600a0201600401546000036107ba57600060028381548110610797576107976127aa565b60009182526020909120600a90910201600601805460ff19169115159190911790555b600282815481106107cd576107cd6127aa565b600091825260208083206008600a9093020191909101805460018101825590835291200180546001600160a01b031916331790555050565b336000908152600460209081526040808320805482518185028101850190935280835260609492939192909184015b8282101561087a57838290600052602060002090600202016040518060400160405290816000820154815260200160018201548152505081526020019060010190610834565b50505050905090565b6002818154811061089357600080fd5b90600052602060002090600a02016000915090508060000180546108b6906127c0565b80601f01602080910402602001604051908101604052809291908181526020018280546108e2906127c0565b801561092f5780601f106109045761010080835404028352916020019161092f565b820191906000526020600020905b81548152906001019060200180831161091257829003601f168201915b505050505090806001018054610944906127c0565b80601f0160208091040260200160405190810160405280929190818152602001828054610970906127c0565b80156109bd5780601f10610992576101008083540402835291602001916109bd565b820191906000526020600020905b8154815290600101906020018083116109a057829003601f168201915b5050506002840154600385015460048601546006870154600788018054979894976001600160a01b03909416965091945060ff1692916109fc906127c0565b80601f0160208091040260200160405190810160405280929190818152602001828054610a28906127c0565b8015610a755780601f10610a4a57610100808354040283529160200191610a75565b820191906000526020600020905b815481529060010190602001808311610a5857829003601f168201915b505050505090806009018054610a8a906127c0565b80601f0160208091040260200160405190810160405280929190818152602001828054610ab6906127c0565b8015610b035780601f10610ad857610100808354040283529160200191610b03565b820191906000526020600020905b815481529060010190602001808311610ae657829003601f168201915b5050505050905088565b60028054600181018255600091909152600a027f405787fa12a823e0f2b7631cc41b3ba8828b3321ca811111fa75cd3aa3bb5ace0180610b4d8882612848565b5060018101610b5c8782612848565b50600281018590556003810180546001600160a01b0319163317905560068101805460ff191660011790556004810184905560078101610b9c8482612848565b5060098101610bab8382612848565b5050505050505050565b6002548210610bfc5760405162461bcd60e51b815260206004820152601360248201527211dbdbd908191bd95cc81b9bdd08195e1a5cdd606a1b60448201526064016104ec565b60008111610c4c5760405162461bcd60e51b815260206004820181905260248201527f416d6f756e74206d7573742062652067726561746572207468616e207a65726f60448201526064016104ec565b6000805b33600090815260046020526040902054811015610d0757336000908152600460205260409020805485919083908110610c8b57610c8b6127aa565b90600052602060002090600202016000015403610cf557336000908152600460205260409020805484919083908110610cc657610cc66127aa565b90600052602060002090600202016001016000828254610ce69190612997565b9091555060019250610d079050565b80610cff816129aa565b915050610c50565b5080610d53573360009081526004602090815260408083208151808301909252868252818301868152815460018181018455928652939094209151600290930290910191825591519101555b505050565b606060028281548110610d6d57610d6d6127aa565b90600052602060002090600a0201600501805480602002602001604051908101604052809291908181526020016000905b82821015610f045783829060005260206000209060030201604051806060016040529081600082018054610dd1906127c0565b80601f0160208091040260200160405190810160405280929190818152602001828054610dfd906127c0565b8015610e4a5780601f10610e1f57610100808354040283529160200191610e4a565b820191906000526020600020905b815481529060010190602001808311610e2d57829003601f168201915b50505050508152602001600182018054610e63906127c0565b80601f0160208091040260200160405190810160405280929190818152602001828054610e8f906127c0565b8015610edc5780601f10610eb157610100808354040283529160200191610edc565b820191906000526020600020905b815481529060010190602001808311610ebf57829003601f168201915b50505091835250506002919091015460ff166020918201529082526001929092019101610d9e565b505050509050919050565b6000805b825181101561107a5760005b3360009081526004602052604090205481101561106757838281518110610f4857610f486127aa565b602002602001015160046000336001600160a01b03166001600160a01b031681526020019081526020016000208281548110610f8657610f866127aa565b906000526020600020906002020160000154036110555733600090815260046020526040902080546002919083908110610fc257610fc26127aa565b90600052602060002090600202016000015481548110610fe457610fe46127aa565b90600052602060002090600a02016002015460046000336001600160a01b03166001600160a01b03168152602001908152602001600020828154811061102c5761102c6127aa565b906000526020600020906002020160010154611048919061291e565b6110529084612997565b92505b8061105f816129aa565b915050610f1f565b5080611072816129aa565b915050610f13565b506000546040516370a0823160e01b815233600482015282916001600160a01b0316906370a0823190602401602060405180830381865afa1580156110c3573d6000803e3d6000fd5b505050506040513d601f19601f820116820180604052508101906110e7919061293b565b10156111355760405162461bcd60e51b815260206004820152601f60248201527f62616c616e6365206e6f7420656e6f7567682063617274636865636b6f75740060448201526064016104ec565b6040518181527ffa75af676d20ccb8290f2a472d97213572dd2cdceb56a1b5e2a09c097e2d9b9c9060200160405180910390a160005b8251811015610d535760005b336000908152600460205260409020548110156112b3578382815181106111a0576111a06127aa565b602002602001015160046000336001600160a01b03166001600160a01b0316815260200190815260200160002082815481106111de576111de6127aa565b906000526020600020906002020160000154036112a157336000908152600460205260409020805461126491908390811061121b5761121b6127aa565b600091825260208083206002909202909101543383526004909152604090912080548490811061124d5761124d6127aa565b906000526020600020906002020160010154610406565b33600090815260046020526040902080546112a191908390811061128a5761128a6127aa565b906000526020600020906002020160000154611cbf565b806112ab816129aa565b915050611177565b50806112be816129aa565b91505061116b565b600460205281600052604060002081815481106112e257600080fd5b600091825260209091206002909102018054600190910154909250905082565b60008060005b3360009081526004602052604090205481101561146f5760005b845181101561145c5784818151811061133d5761133d6127aa565b602002602001015160046000336001600160a01b03166001600160a01b03168152602001908152602001600020838154811061137b5761137b6127aa565b9060005260206000209060020201600001540361144a57336000908152600460205260409020805460029190849081106113b7576113b76127aa565b906000526020600020906002020160000154815481106113d9576113d96127aa565b90600052602060002090600a02016002015460046000336001600160a01b03166001600160a01b031681526020019081526020016000208381548110611421576114216127aa565b90600052602060002090600202016001015461143d919061291e565b6114479084612997565b92505b80611454816129aa565b915050611322565b5080611467816129aa565b915050611308565b5092915050565b60606002805480602002602001604051908101604052809291908181526020016000905b8282101561087a57838290600052602060002090600a0201604051806101400160405290816000820180546114ce906127c0565b80601f01602080910402602001604051908101604052809291908181526020018280546114fa906127c0565b80156115475780601f1061151c57610100808354040283529160200191611547565b820191906000526020600020905b81548152906001019060200180831161152a57829003601f168201915b50505050508152602001600182018054611560906127c0565b80601f016020809104026020016040519081016040528092919081815260200182805461158c906127c0565b80156115d95780601f106115ae576101008083540402835291602001916115d9565b820191906000526020600020905b8154815290600101906020018083116115bc57829003601f168201915b50505050508152602001600282015481526020016003820160009054906101000a90046001600160a01b03166001600160a01b03166001600160a01b031681526020016004820154815260200160058201805480602002602001604051908101604052809291908181526020016000905b828210156117b0578382906000526020600020906003020160405180606001604052908160008201805461167d906127c0565b80601f01602080910402602001604051908101604052809291908181526020018280546116a9906127c0565b80156116f65780601f106116cb576101008083540402835291602001916116f6565b820191906000526020600020905b8154815290600101906020018083116116d957829003601f168201915b5050505050815260200160018201805461170f906127c0565b80601f016020809104026020016040519081016040528092919081815260200182805461173b906127c0565b80156117885780601f1061175d57610100808354040283529160200191611788565b820191906000526020600020905b81548152906001019060200180831161176b57829003601f168201915b50505091835250506002919091015460ff16602091820152908252600192909201910161164a565b50505090825250600682015460ff16151560208201526007820180546040909201916117db906127c0565b80601f0160208091040260200160405190810160405280929190818152602001828054611807906127c0565b80156118545780601f1061182957610100808354040283529160200191611854565b820191906000526020600020905b81548152906001019060200180831161183757829003601f168201915b50505050508152602001600882018054806020026020016040519081016040528092919081815260200182805480156118b657602002820191906000526020600020905b81546001600160a01b03168152600190910190602001808311611898575b505050505081526020016009820180546118cf906127c0565b80601f01602080910402602001604051908101604052809291908181526020018280546118fb906127c0565b80156119485780601f1061191d57610100808354040283529160200191611948565b820191906000526020600020905b81548152906001019060200180831161192b57829003601f168201915b5050505050815250508152602001906001019061149a565b6003546001600160a01b031633146119b25760405162461bcd60e51b81526020600482015260156024820152743cb7ba9030b932903737ba103a34329037bbb732b960591b60448201526064016104ec565b611a41604051806040016040528060058152602001646170706c6560d81b8152506040518060400160405280600f81526020016e746869732069732061206170706c6560881b815250670de0b6b3a7640000600a604051806080016040528060418152602001612a7b6041913960405180604001604052806004815260200163119bdbd960e21b815250610b0d565b611ada604051806040016040528060068152602001656970686f6e6560d01b8152506040518060400160405280601181526020017074686973206973206970686f6e6520313560781b815250671bc16d674ec80000600a6040518060c0016040528060898152602001612abc608991396040518060400160405280600b81526020016a456c656374726f6e69637360a81b815250610b0d565b611b6a6040518060400160405280600381526020016218995960ea1b8152506040518060400160405280600d81526020016c1d1a1a5cc81a5cc81848189959609a1b8152506729a2241af62c0000600a6040518060e0016040528060a181526020016129da60a19139604051806040016040528060098152602001684675726e697475726560b81b815250610b0d565b611b7660006001610bb5565b611b8260016002610bb5565b611b8e60026003610bb5565b611bda604051806040016040528060068152602001656a61736f6e3160d01b81525060405180604001604052806008815260200167636f6d6d656e743160c01b81525060056000611e5c565b611c26604051806040016040528060068152602001653530b9b7b71960d11b8152506040518060400160405280600881526020016731b7b6b6b2b73a1960c11b81525060036000611e5c565b611c72604051806040016040528060068152602001656a61736f6e3360d01b81525060405180604001604052806008815260200167636f6d6d656e743360c01b81525060046000611e5c565b611cbd604051806040016040528060068152602001656a61736f6e3160d01b8152506040518060400160405280600881526020016718dbdb5b595b9d0d60c21b815250600180611e5c565b565b33600090815260046020526040812054905b81811015611e1a57336000908152600460205260409020805484919083908110611cfd57611cfd6127aa565b90600052602060002090600202016000015403611e0857805b611d21600184612954565b811015611dc657336000908152600460205260409020611d42826001612997565b81548110611d5257611d526127aa565b906000526020600020906002020160046000336001600160a01b03166001600160a01b031681526020019081526020016000208281548110611d9657611d966127aa565b60009182526020909120825460029092020190815560019182015491015580611dbe816129aa565b915050611d16565b50336000908152600460205260409020805480611de557611de56129c3565b600082815260208120600260001990930192830201818155600101559055505050565b80611e12816129aa565b915050611cd1565b5060405162461bcd60e51b8152602060048201526016602482015275125d195b481b9bdd08199bdd5b99081a5b8818d85c9d60521b60448201526064016104ec565b600060058360ff161115611ebe5760405162461bcd60e51b815260206004820152602360248201527f5374617220726174696e67206d757374206265206265747765656e203020616e60448201526264203560e81b60648201526084016104ec565b60005b60028381548110611ed457611ed46127aa565b90600052602060002090600a020160080180549050811015611f6057336001600160a01b031660028481548110611f0d57611f0d6127aa565b90600052602060002090600a02016008018281548110611f2f57611f2f6127aa565b6000918252602090912001546001600160a01b031603611f4e57600191505b80611f58816129aa565b915050611ec1565b508080611f7757506003546001600160a01b031633145b611fc35760405162461bcd60e51b815260206004820152601e60248201527f796f75206e65656420746f206275792074686520676f6f64206669727374000060448201526064016104ec565b600060405180606001604052808781526020018681526020018560ff16815250905060028381548110611ff857611ff86127aa565b600091825260208083206005600a909302019190910180546001810182559083529120825183926003029091019081906120329082612848565b50602082015160018201906120479082612848565b50604091909101516002909101805460ff191660ff909216919091179055505050505050565b634e487b7160e01b600052604160045260246000fd5b604051601f8201601f1916810167ffffffffffffffff811182821017156120ac576120ac61206d565b604052919050565b600082601f8301126120c557600080fd5b813567ffffffffffffffff8111156120df576120df61206d565b6120f2601f8201601f1916602001612083565b81815284602083860101111561210757600080fd5b816020850160208301376000918101602001919091529392505050565b801515811461213257600080fd5b50565b803561214081612124565b919050565b600080600080600080600080610100898b03121561216257600080fd5b88359750602089013567ffffffffffffffff8082111561218157600080fd5b61218d8c838d016120b4565b985060408b01359150808211156121a357600080fd5b6121af8c838d016120b4565b975060608b0135965060808b013595506121cb60a08c01612135565b945060c08b01359150808211156121e157600080fd5b6121ed8c838d016120b4565b935060e08b013591508082111561220357600080fd5b506122108b828c016120b4565b9150509295985092959890939650565b6000806040838503121561223357600080fd5b50508035926020909101359150565b602080825282518282018190526000919060409081850190868401855b828110156122845781518051855286015186850152928401929085019060010161225f565b5091979650505050505050565b6000602082840312156122a357600080fd5b5035919050565b6000815180845260005b818110156122d0576020818501810151868301820152016122b4565b506000602082860101526020601f19601f83011685010191505092915050565b60006101008083526123048184018c6122aa565b90508281036020840152612318818b6122aa565b604084018a90526001600160a01b03891660608501526080840188905286151560a085015283810360c0850152905061235181866122aa565b905082810360e084015261236581856122aa565b9b9a5050505050505050505050565b60008060008060008060c0878903121561238d57600080fd5b863567ffffffffffffffff808211156123a557600080fd5b6123b18a838b016120b4565b975060208901359150808211156123c757600080fd5b6123d38a838b016120b4565b9650604089013595506060890135945060808901359150808211156123f757600080fd5b6124038a838b016120b4565b935060a089013591508082111561241957600080fd5b5061242689828a016120b4565b9150509295509295509295565b600081518084526020808501808196508360051b8101915082860160005b85811015612284578284038952815160608151818752612473828801826122aa565b915050868201518682038888015261248b82826122aa565b60409384015160ff1697909301969096525098850198935090840190600101612451565b6020815260006124c26020830184612433565b9392505050565b600060208083850312156124dc57600080fd5b823567ffffffffffffffff808211156124f457600080fd5b818501915085601f83011261250857600080fd5b81358181111561251a5761251a61206d565b8060051b915061252b848301612083565b818152918301840191848101908884111561254557600080fd5b938501935b838510156125635784358252938501939085019061254a565b98975050505050505050565b6000806040838503121561258257600080fd5b82356001600160a01b038116811461259957600080fd5b946020939093013593505050565b600081518084526020808501945080840160005b838110156125e05781516001600160a01b0316875295820195908201906001016125bb565b509495945050505050565b60006020808301818452808551808352604092508286019150828160051b87010184880160005b8381101561271857603f1989840301855281516101408151818652612639828701826122aa565b915050888201518582038a87015261265182826122aa565b9150508782015188860152606080830151612676828801826001600160a01b03169052565b50506080828101519086015260a080830151868303828801526126998382612433565b9250505060c0808301516126b08288018215159052565b505060e080830151868303828801526126c983826122aa565b9250505061010080830151868303828801526126e583826125a7565b92505050610120808301519250858203818701525061270481836122aa565b968901969450505090860190600101612612565b509098975050505050505050565b6000806000806080858703121561273c57600080fd5b843567ffffffffffffffff8082111561275457600080fd5b612760888389016120b4565b9550602087013591508082111561277657600080fd5b50612783878288016120b4565b935050604085013560ff8116811461279a57600080fd5b9396929550929360600135925050565b634e487b7160e01b600052603260045260246000fd5b600181811c908216806127d457607f821691505b6020821081036127f457634e487b7160e01b600052602260045260246000fd5b50919050565b601f821115610d5357600081815260208120601f850160051c810160208610156128215750805b601f850160051c820191505b818110156128405782815560010161282d565b505050505050565b815167ffffffffffffffff8111156128625761286261206d565b6128768161287084546127c0565b846127fa565b602080601f8311600181146128ab57600084156128935750858301515b600019600386901b1c1916600185901b178555612840565b600085815260208120601f198616915b828110156128da578886015182559484019460019091019084016128bb565b50858210156128f85787850151600019600388901b60f8161c191681555b5050505050600190811b01905550565b634e487b7160e01b600052601160045260246000fd5b808202811582820484141761293557612935612908565b92915050565b60006020828403121561294d57600080fd5b5051919050565b8181038181111561293557612935612908565b6020815260006124c260208301846122aa565b60006020828403121561298c57600080fd5b81516124c281612124565b8082018082111561293557612935612908565b6000600182016129bc576129bc612908565b5060010190565b634e487b7160e01b600052603160045260246000fdfe68747470733a2f2f7777772e666f72747974776f2e6d792f6d656469612f636174616c6f672f70726f647563742f63616368652f312f696d6167652f33303030782f39646637386561623333353235643038643665356662386432373133366539352f732f612f73616e746961676f5f7570686f6c7374657265645f717565656e5f6265645f677265795f5f5f6d675f353439355f5f63726f707065642e6a706768747470733a2f2f7777772e636f6c6c696e7364696374696f6e6172792e636f6d2f696d616765732f66756c6c2f6170706c655f3135383938393135372e6a706768747470733a2f2f73686f702e7377697463682e636f6d2e6d792f63646e2f73686f702f66696c65732f6950686f6e655f31355f50696e6b5f5044505f496d6167655f506f736974696f6e2d315f5f4742454e5f37636636303432352d306435612d346263392d626664392d3634356239633836653638652e6a70673f763d31373137363934313739a26469706673582212204bf7b1ca29ab8ac79700d6c61d7c29d26a98e1b7f19895af7ee1df39df6d023764736f6c63430008130033",
					"opcodes": "PUSH1 0x80 PUSH1 0x40 MSTORE PUSH1 0x0 DUP1 SLOAD PUSH1 0x1 PUSH1 0x1 PUSH1 0xA0 SHL SUB NOT SWAP1 DUP2 AND PUSH20 0x3CC603C0E3C897597EF4EFBF53B8FDD0EA900917 OR SWAP1 SWAP2 SSTORE PUSH1 0x1 DUP1 SSTORE PUSH1 0x3 DUP1 SLOAD SWAP1 SWAP2 AND PUSH20 0x9163F6F9A843827AB2FC1B0FBD95B7EF77763129 OR SWAP1 SSTORE CALLVALUE DUP1 ISZERO PUSH2 0x5C JUMPI PUSH1 0x0 DUP1 REVERT JUMPDEST POP PUSH2 0x2B7A DUP1 PUSH2 0x6C PUSH1 0x0 CODECOPY PUSH1 0x0 RETURN INVALID PUSH1 0x80 PUSH1 0x40 MSTORE CALLVALUE DUP1 ISZERO PUSH2 0x10 JUMPI PUSH1 0x0 DUP1 REVERT JUMPDEST POP PUSH1 0x4 CALLDATASIZE LT PUSH2 0x10B JUMPI PUSH1 0x0 CALLDATALOAD PUSH1 0xE0 SHR DUP1 PUSH4 0x6C4BB39F GT PUSH2 0xA2 JUMPI DUP1 PUSH4 0x92045CAE GT PUSH2 0x71 JUMPI DUP1 PUSH4 0x92045CAE EQ PUSH2 0x24E JUMPI DUP1 PUSH4 0x9B44F940 EQ PUSH2 0x263 JUMPI DUP1 PUSH4 0xB6B9E3EE EQ PUSH2 0x278 JUMPI DUP1 PUSH4 0xCA29610E EQ PUSH2 0x280 JUMPI DUP1 PUSH4 0xDE43B595 EQ PUSH2 0x293 JUMPI PUSH1 0x0 DUP1 REVERT JUMPDEST DUP1 PUSH4 0x6C4BB39F EQ PUSH2 0x1D5 JUMPI DUP1 PUSH4 0x7F2F767E EQ PUSH2 0x1E8 JUMPI DUP1 PUSH4 0x8B1A2D52 EQ PUSH2 0x213 JUMPI DUP1 PUSH4 0x8C057204 EQ PUSH2 0x23B JUMPI PUSH1 0x0 DUP1 REVERT JUMPDEST DUP1 PUSH4 0x36777A4A GT PUSH2 0xDE JUMPI DUP1 PUSH4 0x36777A4A EQ PUSH2 0x17D JUMPI DUP1 PUSH4 0x38687BFD EQ PUSH2 0x190 JUMPI DUP1 PUSH4 0x3AB9BBB6 EQ PUSH2 0x1A2 JUMPI DUP1 PUSH4 0x565F717D EQ PUSH2 0x1B5 JUMPI PUSH1 0x0 DUP1 REVERT JUMPDEST DUP1 PUSH4 0x1D1D3DA EQ PUSH2 0x110 JUMPI DUP1 PUSH4 0x17E31E28 EQ PUSH2 0x125 JUMPI DUP1 PUSH4 0x21627DAD EQ PUSH2 0x138 JUMPI DUP1 PUSH4 0x2F724394 EQ PUSH2 0x156 JUMPI JUMPDEST PUSH1 0x0 DUP1 REVERT JUMPDEST PUSH2 0x123 PUSH2 0x11E CALLDATASIZE PUSH1 0x4 PUSH2 0x2145 JUMP JUMPDEST PUSH2 0x2A6 JUMP JUMPDEST STOP JUMPDEST PUSH2 0x123 PUSH2 0x133 CALLDATASIZE PUSH1 0x4 PUSH2 0x2220 JUMP JUMPDEST PUSH2 0x406 JUMP JUMPDEST PUSH2 0x140 PUSH2 0x805 JUMP JUMPDEST PUSH1 0x40 MLOAD PUSH2 0x14D SWAP2 SWAP1 PUSH2 0x2242 JUMP JUMPDEST PUSH1 0x40 MLOAD DUP1 SWAP2 SUB SWAP1 RETURN JUMPDEST PUSH2 0x169 PUSH2 0x164 CALLDATASIZE PUSH1 0x4 PUSH2 0x2291 JUMP JUMPDEST PUSH2 0x883 JUMP JUMPDEST PUSH1 0x40 MLOAD PUSH2 0x14D SWAP9 SWAP8 SWAP7 SWAP6 SWAP5 SWAP4 SWAP3 SWAP2 SWAP1 PUSH2 0x22F0 JUMP JUMPDEST PUSH2 0x123 PUSH2 0x18B CALLDATASIZE PUSH1 0x4 PUSH2 0x2374 JUMP JUMPDEST PUSH2 0xB0D JUMP JUMPDEST PUSH1 0x2 SLOAD JUMPDEST PUSH1 0x40 MLOAD SWAP1 DUP2 MSTORE PUSH1 0x20 ADD PUSH2 0x14D JUMP JUMPDEST PUSH2 0x123 PUSH2 0x1B0 CALLDATASIZE PUSH1 0x4 PUSH2 0x2220 JUMP JUMPDEST PUSH2 0xBB5 JUMP JUMPDEST PUSH2 0x1C8 PUSH2 0x1C3 CALLDATASIZE PUSH1 0x4 PUSH2 0x2291 JUMP JUMPDEST PUSH2 0xD58 JUMP JUMPDEST PUSH1 0x40 MLOAD PUSH2 0x14D SWAP2 SWAP1 PUSH2 0x24AF JUMP JUMPDEST PUSH2 0x123 PUSH2 0x1E3 CALLDATASIZE PUSH1 0x4 PUSH2 0x24C9 JUMP JUMPDEST PUSH2 0xF0F JUMP JUMPDEST PUSH1 0x0 SLOAD PUSH2 0x1FB SWAP1 PUSH1 0x1 PUSH1 0x1 PUSH1 0xA0 SHL SUB AND DUP2 JUMP JUMPDEST PUSH1 0x40 MLOAD PUSH1 0x1 PUSH1 0x1 PUSH1 0xA0 SHL SUB SWAP1 SWAP2 AND DUP2 MSTORE PUSH1 0x20 ADD PUSH2 0x14D JUMP JUMPDEST PUSH2 0x226 PUSH2 0x221 CALLDATASIZE PUSH1 0x4 PUSH2 0x256F JUMP JUMPDEST PUSH2 0x12C6 JUMP JUMPDEST PUSH1 0x40 DUP1 MLOAD SWAP3 DUP4 MSTORE PUSH1 0x20 DUP4 ADD SWAP2 SWAP1 SWAP2 MSTORE ADD PUSH2 0x14D JUMP JUMPDEST PUSH2 0x194 PUSH2 0x249 CALLDATASIZE PUSH1 0x4 PUSH2 0x24C9 JUMP JUMPDEST PUSH2 0x1302 JUMP JUMPDEST CALLER PUSH1 0x0 SWAP1 DUP2 MSTORE PUSH1 0x4 PUSH1 0x20 MSTORE PUSH1 0x40 SWAP1 KECCAK256 SLOAD PUSH2 0x194 JUMP JUMPDEST PUSH2 0x26B PUSH2 0x1476 JUMP JUMPDEST PUSH1 0x40 MLOAD PUSH2 0x14D SWAP2 SWAP1 PUSH2 0x25EB JUMP JUMPDEST PUSH2 0x123 PUSH2 0x1960 JUMP JUMPDEST PUSH2 0x123 PUSH2 0x28E CALLDATASIZE PUSH1 0x4 PUSH2 0x2291 JUMP JUMPDEST PUSH2 0x1CBF JUMP JUMPDEST PUSH2 0x123 PUSH2 0x2A1 CALLDATASIZE PUSH1 0x4 PUSH2 0x2726 JUMP JUMPDEST PUSH2 0x1E5C JUMP JUMPDEST DUP7 PUSH1 0x2 DUP10 DUP2 SLOAD DUP2 LT PUSH2 0x2BA JUMPI PUSH2 0x2BA PUSH2 0x27AA JUMP JUMPDEST SWAP1 PUSH1 0x0 MSTORE PUSH1 0x20 PUSH1 0x0 KECCAK256 SWAP1 PUSH1 0xA MUL ADD PUSH1 0x0 ADD SWAP1 DUP2 PUSH2 0x2D7 SWAP2 SWAP1 PUSH2 0x2848 JUMP JUMPDEST POP DUP6 PUSH1 0x2 DUP10 DUP2 SLOAD DUP2 LT PUSH2 0x2EC JUMPI PUSH2 0x2EC PUSH2 0x27AA JUMP JUMPDEST SWAP1 PUSH1 0x0 MSTORE PUSH1 0x20 PUSH1 0x0 KECCAK256 SWAP1 PUSH1 0xA MUL ADD PUSH1 0x1 ADD SWAP1 DUP2 PUSH2 0x309 SWAP2 SWAP1 PUSH2 0x2848 JUMP JUMPDEST POP DUP5 PUSH1 0x2 DUP10 DUP2 SLOAD DUP2 LT PUSH2 0x31E JUMPI PUSH2 0x31E PUSH2 0x27AA JUMP JUMPDEST SWAP1 PUSH1 0x0 MSTORE PUSH1 0x20 PUSH1 0x0 KECCAK256 SWAP1 PUSH1 0xA MUL ADD PUSH1 0x2 ADD DUP2 SWAP1 SSTORE POP DUP4 PUSH1 0x2 DUP10 DUP2 SLOAD DUP2 LT PUSH2 0x347 JUMPI PUSH2 0x347 PUSH2 0x27AA JUMP JUMPDEST SWAP1 PUSH1 0x0 MSTORE PUSH1 0x20 PUSH1 0x0 KECCAK256 SWAP1 PUSH1 0xA MUL ADD PUSH1 0x4 ADD DUP2 SWAP1 SSTORE POP DUP3 PUSH1 0x2 DUP10 DUP2 SLOAD DUP2 LT PUSH2 0x370 JUMPI PUSH2 0x370 PUSH2 0x27AA JUMP JUMPDEST SWAP1 PUSH1 0x0 MSTORE PUSH1 0x20 PUSH1 0x0 KECCAK256 SWAP1 PUSH1 0xA MUL ADD PUSH1 0x6 ADD PUSH1 0x0 PUSH2 0x100 EXP DUP2 SLOAD DUP2 PUSH1 0xFF MUL NOT AND SWAP1 DUP4 ISZERO ISZERO MUL OR SWAP1 SSTORE POP DUP2 PUSH1 0x2 DUP10 DUP2 SLOAD DUP2 LT PUSH2 0x3AC JUMPI PUSH2 0x3AC PUSH2 0x27AA JUMP JUMPDEST SWAP1 PUSH1 0x0 MSTORE PUSH1 0x20 PUSH1 0x0 KECCAK256 SWAP1 PUSH1 0xA MUL ADD PUSH1 0x9 ADD SWAP1 DUP2 PUSH2 0x3C9 SWAP2 SWAP1 PUSH2 0x2848 JUMP JUMPDEST POP DUP1 PUSH1 0x2 DUP10 DUP2 SLOAD DUP2 LT PUSH2 0x3DE JUMPI PUSH2 0x3DE PUSH2 0x27AA JUMP JUMPDEST SWAP1 PUSH1 0x0 MSTORE PUSH1 0x20 PUSH1 0x0 KECCAK256 SWAP1 PUSH1 0xA MUL ADD PUSH1 0x7 ADD SWAP1 DUP2 PUSH2 0x3FB SWAP2 SWAP1 PUSH2 0x2848 JUMP JUMPDEST POP POP POP POP POP POP POP POP POP JUMP JUMPDEST PUSH1 0x2 DUP3 DUP2 SLOAD DUP2 LT PUSH2 0x419 JUMPI PUSH2 0x419 PUSH2 0x27AA JUMP JUMPDEST SWAP1 PUSH1 0x0 MSTORE PUSH1 0x20 PUSH1 0x0 KECCAK256 SWAP1 PUSH1 0xA MUL ADD PUSH1 0x2 ADD SLOAD DUP2 PUSH2 0x436 SWAP2 SWAP1 PUSH2 0x291E JUMP JUMPDEST PUSH1 0x0 SLOAD PUSH1 0x40 MLOAD PUSH4 0x70A08231 PUSH1 0xE0 SHL DUP2 MSTORE CALLER PUSH1 0x4 DUP3 ADD MSTORE PUSH1 0x1 PUSH1 0x1 PUSH1 0xA0 SHL SUB SWAP1 SWAP2 AND SWAP1 PUSH4 0x70A08231 SWAP1 PUSH1 0x24 ADD PUSH1 0x20 PUSH1 0x40 MLOAD DUP1 DUP4 SUB DUP2 DUP7 GAS STATICCALL ISZERO DUP1 ISZERO PUSH2 0x47E JUMPI RETURNDATASIZE PUSH1 0x0 DUP1 RETURNDATACOPY RETURNDATASIZE PUSH1 0x0 REVERT JUMPDEST POP POP POP POP PUSH1 0x40 MLOAD RETURNDATASIZE PUSH1 0x1F NOT PUSH1 0x1F DUP3 ADD AND DUP3 ADD DUP1 PUSH1 0x40 MSTORE POP DUP2 ADD SWAP1 PUSH2 0x4A2 SWAP2 SWAP1 PUSH2 0x293B JUMP JUMPDEST LT ISZERO PUSH2 0x4F5 JUMPI PUSH1 0x40 MLOAD PUSH3 0x461BCD PUSH1 0xE5 SHL DUP2 MSTORE PUSH1 0x20 PUSH1 0x4 DUP3 ADD MSTORE PUSH1 0x1B PUSH1 0x24 DUP3 ADD MSTORE PUSH32 0x62616C616E6365206E6F7420656E6F7567682062757920737465700000000000 PUSH1 0x44 DUP3 ADD MSTORE PUSH1 0x64 ADD JUMPDEST PUSH1 0x40 MLOAD DUP1 SWAP2 SUB SWAP1 REVERT JUMPDEST PUSH1 0x2 DUP3 DUP2 SLOAD DUP2 LT PUSH2 0x508 JUMPI PUSH2 0x508 PUSH2 0x27AA JUMP JUMPDEST PUSH1 0x0 SWAP2 DUP3 MSTORE PUSH1 0x20 SWAP1 SWAP2 KECCAK256 PUSH1 0x6 PUSH1 0xA SWAP1 SWAP3 MUL ADD ADD SLOAD PUSH1 0xFF AND ISZERO ISZERO PUSH1 0x1 EQ PUSH2 0x570 JUMPI PUSH1 0x40 MLOAD PUSH3 0x461BCD PUSH1 0xE5 SHL DUP2 MSTORE PUSH1 0x20 PUSH1 0x4 DUP3 ADD MSTORE PUSH1 0x1C PUSH1 0x24 DUP3 ADD MSTORE PUSH32 0x7468697320676F6F6420697320756E6176616C6961626C65206E6F7700000000 PUSH1 0x44 DUP3 ADD MSTORE PUSH1 0x64 ADD PUSH2 0x4EC JUMP JUMPDEST PUSH1 0x0 DUP2 PUSH1 0x2 DUP5 DUP2 SLOAD DUP2 LT PUSH2 0x586 JUMPI PUSH2 0x586 PUSH2 0x27AA JUMP JUMPDEST SWAP1 PUSH1 0x0 MSTORE PUSH1 0x20 PUSH1 0x0 KECCAK256 SWAP1 PUSH1 0xA MUL ADD PUSH1 0x4 ADD SLOAD PUSH2 0x5A2 SWAP2 SWAP1 PUSH2 0x2954 JUMP JUMPDEST LT ISZERO PUSH1 0x2 DUP4 DUP2 SLOAD DUP2 LT PUSH2 0x5B7 JUMPI PUSH2 0x5B7 PUSH2 0x27AA JUMP JUMPDEST SWAP1 PUSH1 0x0 MSTORE PUSH1 0x20 PUSH1 0x0 KECCAK256 SWAP1 PUSH1 0xA MUL ADD PUSH1 0x4 ADD SLOAD PUSH1 0x40 MLOAD PUSH1 0x20 ADD PUSH2 0x5F5 SWAP2 SWAP1 PUSH13 0x1027B7363C903932B6B0B4B71 PUSH1 0x9D SHL DUP2 MSTORE PUSH1 0xD DUP2 ADD SWAP2 SWAP1 SWAP2 MSTORE PUSH1 0x2D ADD SWAP1 JUMP JUMPDEST PUSH1 0x40 MLOAD PUSH1 0x20 DUP2 DUP4 SUB SUB DUP2 MSTORE SWAP1 PUSH1 0x40 MSTORE SWAP1 PUSH2 0x622 JUMPI PUSH1 0x40 MLOAD PUSH3 0x461BCD PUSH1 0xE5 SHL DUP2 MSTORE PUSH1 0x4 ADD PUSH2 0x4EC SWAP2 SWAP1 PUSH2 0x2967 JUMP JUMPDEST POP PUSH1 0x0 SLOAD PUSH1 0x2 DUP1 SLOAD PUSH1 0x1 PUSH1 0x1 PUSH1 0xA0 SHL SUB SWAP1 SWAP3 AND SWAP2 PUSH4 0x23B872DD SWAP2 CALLER SWAP2 DUP7 SWAP1 DUP2 LT PUSH2 0x64E JUMPI PUSH2 0x64E PUSH2 0x27AA JUMP JUMPDEST SWAP1 PUSH1 0x0 MSTORE PUSH1 0x20 PUSH1 0x0 KECCAK256 SWAP1 PUSH1 0xA MUL ADD PUSH1 0x3 ADD PUSH1 0x0 SWAP1 SLOAD SWAP1 PUSH2 0x100 EXP SWAP1 DIV PUSH1 0x1 PUSH1 0x1 PUSH1 0xA0 SHL SUB AND PUSH1 0x2 DUP7 DUP2 SLOAD DUP2 LT PUSH2 0x686 JUMPI PUSH2 0x686 PUSH2 0x27AA JUMP JUMPDEST SWAP1 PUSH1 0x0 MSTORE PUSH1 0x20 PUSH1 0x0 KECCAK256 SWAP1 PUSH1 0xA MUL ADD PUSH1 0x2 ADD SLOAD DUP6 PUSH2 0x6A3 SWAP2 SWAP1 PUSH2 0x291E JUMP JUMPDEST PUSH1 0x40 MLOAD PUSH1 0x1 PUSH1 0x1 PUSH1 0xE0 SHL SUB NOT PUSH1 0xE0 DUP7 SWAP1 SHL AND DUP2 MSTORE PUSH1 0x1 PUSH1 0x1 PUSH1 0xA0 SHL SUB SWAP4 DUP5 AND PUSH1 0x4 DUP3 ADD MSTORE SWAP3 SWAP1 SWAP2 AND PUSH1 0x24 DUP4 ADD MSTORE PUSH1 0x44 DUP3 ADD MSTORE PUSH1 0x64 ADD PUSH1 0x20 PUSH1 0x40 MLOAD DUP1 DUP4 SUB DUP2 PUSH1 0x0 DUP8 GAS CALL ISZERO DUP1 ISZERO PUSH2 0x6F7 JUMPI RETURNDATASIZE PUSH1 0x0 DUP1 RETURNDATACOPY RETURNDATASIZE PUSH1 0x0 REVERT JUMPDEST POP POP POP POP PUSH1 0x40 MLOAD RETURNDATASIZE PUSH1 0x1F NOT PUSH1 0x1F DUP3 ADD AND DUP3 ADD DUP1 PUSH1 0x40 MSTORE POP DUP2 ADD SWAP1 PUSH2 0x71B SWAP2 SWAP1 PUSH2 0x297A JUMP JUMPDEST POP DUP1 PUSH1 0x2 DUP4 DUP2 SLOAD DUP2 LT PUSH2 0x730 JUMPI PUSH2 0x730 PUSH2 0x27AA JUMP JUMPDEST SWAP1 PUSH1 0x0 MSTORE PUSH1 0x20 PUSH1 0x0 KECCAK256 SWAP1 PUSH1 0xA MUL ADD PUSH1 0x4 ADD PUSH1 0x0 DUP3 DUP3 SLOAD PUSH2 0x750 SWAP2 SWAP1 PUSH2 0x2954 JUMP JUMPDEST SWAP1 SWAP2 SSTORE POP POP PUSH1 0x2 DUP1 SLOAD DUP4 SWAP1 DUP2 LT PUSH2 0x769 JUMPI PUSH2 0x769 PUSH2 0x27AA JUMP JUMPDEST SWAP1 PUSH1 0x0 MSTORE PUSH1 0x20 PUSH1 0x0 KECCAK256 SWAP1 PUSH1 0xA MUL ADD PUSH1 0x4 ADD SLOAD PUSH1 0x0 SUB PUSH2 0x7BA JUMPI PUSH1 0x0 PUSH1 0x2 DUP4 DUP2 SLOAD DUP2 LT PUSH2 0x797 JUMPI PUSH2 0x797 PUSH2 0x27AA JUMP JUMPDEST PUSH1 0x0 SWAP2 DUP3 MSTORE PUSH1 0x20 SWAP1 SWAP2 KECCAK256 PUSH1 0xA SWAP1 SWAP2 MUL ADD PUSH1 0x6 ADD DUP1 SLOAD PUSH1 0xFF NOT AND SWAP2 ISZERO ISZERO SWAP2 SWAP1 SWAP2 OR SWAP1 SSTORE JUMPDEST PUSH1 0x2 DUP3 DUP2 SLOAD DUP2 LT PUSH2 0x7CD JUMPI PUSH2 0x7CD PUSH2 0x27AA JUMP JUMPDEST PUSH1 0x0 SWAP2 DUP3 MSTORE PUSH1 0x20 DUP1 DUP4 KECCAK256 PUSH1 0x8 PUSH1 0xA SWAP1 SWAP4 MUL ADD SWAP2 SWAP1 SWAP2 ADD DUP1 SLOAD PUSH1 0x1 DUP2 ADD DUP3 SSTORE SWAP1 DUP4 MSTORE SWAP2 KECCAK256 ADD DUP1 SLOAD PUSH1 0x1 PUSH1 0x1 PUSH1 0xA0 SHL SUB NOT AND CALLER OR SWAP1 SSTORE POP POP JUMP JUMPDEST CALLER PUSH1 0x0 SWAP1 DUP2 MSTORE PUSH1 0x4 PUSH1 0x20 SWAP1 DUP2 MSTORE PUSH1 0x40 DUP1 DUP4 KECCAK256 DUP1 SLOAD DUP3 MLOAD DUP2 DUP6 MUL DUP2 ADD DUP6 ADD SWAP1 SWAP4 MSTORE DUP1 DUP4 MSTORE PUSH1 0x60 SWAP5 SWAP3 SWAP4 SWAP2 SWAP3 SWAP1 SWAP2 DUP5 ADD JUMPDEST DUP3 DUP3 LT ISZERO PUSH2 0x87A JUMPI DUP4 DUP3 SWAP1 PUSH1 0x0 MSTORE PUSH1 0x20 PUSH1 0x0 KECCAK256 SWAP1 PUSH1 0x2 MUL ADD PUSH1 0x40 MLOAD DUP1 PUSH1 0x40 ADD PUSH1 0x40 MSTORE SWAP1 DUP2 PUSH1 0x0 DUP3 ADD SLOAD DUP2 MSTORE PUSH1 0x20 ADD PUSH1 0x1 DUP3 ADD SLOAD DUP2 MSTORE POP POP DUP2 MSTORE PUSH1 0x20 ADD SWAP1 PUSH1 0x1 ADD SWAP1 PUSH2 0x834 JUMP JUMPDEST POP POP POP POP SWAP1 POP SWAP1 JUMP JUMPDEST PUSH1 0x2 DUP2 DUP2 SLOAD DUP2 LT PUSH2 0x893 JUMPI PUSH1 0x0 DUP1 REVERT JUMPDEST SWAP1 PUSH1 0x0 MSTORE PUSH1 0x20 PUSH1 0x0 KECCAK256 SWAP1 PUSH1 0xA MUL ADD PUSH1 0x0 SWAP2 POP SWAP1 POP DUP1 PUSH1 0x0 ADD DUP1 SLOAD PUSH2 0x8B6 SWAP1 PUSH2 0x27C0 JUMP JUMPDEST DUP1 PUSH1 0x1F ADD PUSH1 0x20 DUP1 SWAP2 DIV MUL PUSH1 0x20 ADD PUSH1 0x40 MLOAD SWAP1 DUP2 ADD PUSH1 0x40 MSTORE DUP1 SWAP3 SWAP2 SWAP1 DUP2 DUP2 MSTORE PUSH1 0x20 ADD DUP3 DUP1 SLOAD PUSH2 0x8E2 SWAP1 PUSH2 0x27C0 JUMP JUMPDEST DUP1 ISZERO PUSH2 0x92F JUMPI DUP1 PUSH1 0x1F LT PUSH2 0x904 JUMPI PUSH2 0x100 DUP1 DUP4 SLOAD DIV MUL DUP4 MSTORE SWAP2 PUSH1 0x20 ADD SWAP2 PUSH2 0x92F JUMP JUMPDEST DUP3 ADD SWAP2 SWAP1 PUSH1 0x0 MSTORE PUSH1 0x20 PUSH1 0x0 KECCAK256 SWAP1 JUMPDEST DUP2 SLOAD DUP2 MSTORE SWAP1 PUSH1 0x1 ADD SWAP1 PUSH1 0x20 ADD DUP1 DUP4 GT PUSH2 0x912 JUMPI DUP3 SWAP1 SUB PUSH1 0x1F AND DUP3 ADD SWAP2 JUMPDEST POP POP POP POP POP SWAP1 DUP1 PUSH1 0x1 ADD DUP1 SLOAD PUSH2 0x944 SWAP1 PUSH2 0x27C0 JUMP JUMPDEST DUP1 PUSH1 0x1F ADD PUSH1 0x20 DUP1 SWAP2 DIV MUL PUSH1 0x20 ADD PUSH1 0x40 MLOAD SWAP1 DUP2 ADD PUSH1 0x40 MSTORE DUP1 SWAP3 SWAP2 SWAP1 DUP2 DUP2 MSTORE PUSH1 0x20 ADD DUP3 DUP1 SLOAD PUSH2 0x970 SWAP1 PUSH2 0x27C0 JUMP JUMPDEST DUP1 ISZERO PUSH2 0x9BD JUMPI DUP1 PUSH1 0x1F LT PUSH2 0x992 JUMPI PUSH2 0x100 DUP1 DUP4 SLOAD DIV MUL DUP4 MSTORE SWAP2 PUSH1 0x20 ADD SWAP2 PUSH2 0x9BD JUMP JUMPDEST DUP3 ADD SWAP2 SWAP1 PUSH1 0x0 MSTORE PUSH1 0x20 PUSH1 0x0 KECCAK256 SWAP1 JUMPDEST DUP2 SLOAD DUP2 MSTORE SWAP1 PUSH1 0x1 ADD SWAP1 PUSH1 0x20 ADD DUP1 DUP4 GT PUSH2 0x9A0 JUMPI DUP3 SWAP1 SUB PUSH1 0x1F AND DUP3 ADD SWAP2 JUMPDEST POP POP POP PUSH1 0x2 DUP5 ADD SLOAD PUSH1 0x3 DUP6 ADD SLOAD PUSH1 0x4 DUP7 ADD SLOAD PUSH1 0x6 DUP8 ADD SLOAD PUSH1 0x7 DUP9 ADD DUP1 SLOAD SWAP8 SWAP9 SWAP5 SWAP8 PUSH1 0x1 PUSH1 0x1 PUSH1 0xA0 SHL SUB SWAP1 SWAP5 AND SWAP7 POP SWAP2 SWAP5 POP PUSH1 0xFF AND SWAP3 SWAP2 PUSH2 0x9FC SWAP1 PUSH2 0x27C0 JUMP JUMPDEST DUP1 PUSH1 0x1F ADD PUSH1 0x20 DUP1 SWAP2 DIV MUL PUSH1 0x20 ADD PUSH1 0x40 MLOAD SWAP1 DUP2 ADD PUSH1 0x40 MSTORE DUP1 SWAP3 SWAP2 SWAP1 DUP2 DUP2 MSTORE PUSH1 0x20 ADD DUP3 DUP1 SLOAD PUSH2 0xA28 SWAP1 PUSH2 0x27C0 JUMP JUMPDEST DUP1 ISZERO PUSH2 0xA75 JUMPI DUP1 PUSH1 0x1F LT PUSH2 0xA4A JUMPI PUSH2 0x100 DUP1 DUP4 SLOAD DIV MUL DUP4 MSTORE SWAP2 PUSH1 0x20 ADD SWAP2 PUSH2 0xA75 JUMP JUMPDEST DUP3 ADD SWAP2 SWAP1 PUSH1 0x0 MSTORE PUSH1 0x20 PUSH1 0x0 KECCAK256 SWAP1 JUMPDEST DUP2 SLOAD DUP2 MSTORE SWAP1 PUSH1 0x1 ADD SWAP1 PUSH1 0x20 ADD DUP1 DUP4 GT PUSH2 0xA58 JUMPI DUP3 SWAP1 SUB PUSH1 0x1F AND DUP3 ADD SWAP2 JUMPDEST POP POP POP POP POP SWAP1 DUP1 PUSH1 0x9 ADD DUP1 SLOAD PUSH2 0xA8A SWAP1 PUSH2 0x27C0 JUMP JUMPDEST DUP1 PUSH1 0x1F ADD PUSH1 0x20 DUP1 SWAP2 DIV MUL PUSH1 0x20 ADD PUSH1 0x40 MLOAD SWAP1 DUP2 ADD PUSH1 0x40 MSTORE DUP1 SWAP3 SWAP2 SWAP1 DUP2 DUP2 MSTORE PUSH1 0x20 ADD DUP3 DUP1 SLOAD PUSH2 0xAB6 SWAP1 PUSH2 0x27C0 JUMP JUMPDEST DUP1 ISZERO PUSH2 0xB03 JUMPI DUP1 PUSH1 0x1F LT PUSH2 0xAD8 JUMPI PUSH2 0x100 DUP1 DUP4 SLOAD DIV MUL DUP4 MSTORE SWAP2 PUSH1 0x20 ADD SWAP2 PUSH2 0xB03 JUMP JUMPDEST DUP3 ADD SWAP2 SWAP1 PUSH1 0x0 MSTORE PUSH1 0x20 PUSH1 0x0 KECCAK256 SWAP1 JUMPDEST DUP2 SLOAD DUP2 MSTORE SWAP1 PUSH1 0x1 ADD SWAP1 PUSH1 0x20 ADD DUP1 DUP4 GT PUSH2 0xAE6 JUMPI DUP3 SWAP1 SUB PUSH1 0x1F AND DUP3 ADD SWAP2 JUMPDEST POP POP POP POP POP SWAP1 POP DUP9 JUMP JUMPDEST PUSH1 0x2 DUP1 SLOAD PUSH1 0x1 DUP2 ADD DUP3 SSTORE PUSH1 0x0 SWAP2 SWAP1 SWAP2 MSTORE PUSH1 0xA MUL PUSH32 0x405787FA12A823E0F2B7631CC41B3BA8828B3321CA811111FA75CD3AA3BB5ACE ADD DUP1 PUSH2 0xB4D DUP9 DUP3 PUSH2 0x2848 JUMP JUMPDEST POP PUSH1 0x1 DUP2 ADD PUSH2 0xB5C DUP8 DUP3 PUSH2 0x2848 JUMP JUMPDEST POP PUSH1 0x2 DUP2 ADD DUP6 SWAP1 SSTORE PUSH1 0x3 DUP2 ADD DUP1 SLOAD PUSH1 0x1 PUSH1 0x1 PUSH1 0xA0 SHL SUB NOT AND CALLER OR SWAP1 SSTORE PUSH1 0x6 DUP2 ADD DUP1 SLOAD PUSH1 0xFF NOT AND PUSH1 0x1 OR SWAP1 SSTORE PUSH1 0x4 DUP2 ADD DUP5 SWAP1 SSTORE PUSH1 0x7 DUP2 ADD PUSH2 0xB9C DUP5 DUP3 PUSH2 0x2848 JUMP JUMPDEST POP PUSH1 0x9 DUP2 ADD PUSH2 0xBAB DUP4 DUP3 PUSH2 0x2848 JUMP JUMPDEST POP POP POP POP POP POP POP POP JUMP JUMPDEST PUSH1 0x2 SLOAD DUP3 LT PUSH2 0xBFC JUMPI PUSH1 0x40 MLOAD PUSH3 0x461BCD PUSH1 0xE5 SHL DUP2 MSTORE PUSH1 0x20 PUSH1 0x4 DUP3 ADD MSTORE PUSH1 0x13 PUSH1 0x24 DUP3 ADD MSTORE PUSH19 0x11DBDBD908191BD95CC81B9BDD08195E1A5CDD PUSH1 0x6A SHL PUSH1 0x44 DUP3 ADD MSTORE PUSH1 0x64 ADD PUSH2 0x4EC JUMP JUMPDEST PUSH1 0x0 DUP2 GT PUSH2 0xC4C JUMPI PUSH1 0x40 MLOAD PUSH3 0x461BCD PUSH1 0xE5 SHL DUP2 MSTORE PUSH1 0x20 PUSH1 0x4 DUP3 ADD DUP2 SWAP1 MSTORE PUSH1 0x24 DUP3 ADD MSTORE PUSH32 0x416D6F756E74206D7573742062652067726561746572207468616E207A65726F PUSH1 0x44 DUP3 ADD MSTORE PUSH1 0x64 ADD PUSH2 0x4EC JUMP JUMPDEST PUSH1 0x0 DUP1 JUMPDEST CALLER PUSH1 0x0 SWAP1 DUP2 MSTORE PUSH1 0x4 PUSH1 0x20 MSTORE PUSH1 0x40 SWAP1 KECCAK256 SLOAD DUP2 LT ISZERO PUSH2 0xD07 JUMPI CALLER PUSH1 0x0 SWAP1 DUP2 MSTORE PUSH1 0x4 PUSH1 0x20 MSTORE PUSH1 0x40 SWAP1 KECCAK256 DUP1 SLOAD DUP6 SWAP2 SWAP1 DUP4 SWAP1 DUP2 LT PUSH2 0xC8B JUMPI PUSH2 0xC8B PUSH2 0x27AA JUMP JUMPDEST SWAP1 PUSH1 0x0 MSTORE PUSH1 0x20 PUSH1 0x0 KECCAK256 SWAP1 PUSH1 0x2 MUL ADD PUSH1 0x0 ADD SLOAD SUB PUSH2 0xCF5 JUMPI CALLER PUSH1 0x0 SWAP1 DUP2 MSTORE PUSH1 0x4 PUSH1 0x20 MSTORE PUSH1 0x40 SWAP1 KECCAK256 DUP1 SLOAD DUP5 SWAP2 SWAP1 DUP4 SWAP1 DUP2 LT PUSH2 0xCC6 JUMPI PUSH2 0xCC6 PUSH2 0x27AA JUMP JUMPDEST SWAP1 PUSH1 0x0 MSTORE PUSH1 0x20 PUSH1 0x0 KECCAK256 SWAP1 PUSH1 0x2 MUL ADD PUSH1 0x1 ADD PUSH1 0x0 DUP3 DUP3 SLOAD PUSH2 0xCE6 SWAP2 SWAP1 PUSH2 0x2997 JUMP JUMPDEST SWAP1 SWAP2 SSTORE POP PUSH1 0x1 SWAP3 POP PUSH2 0xD07 SWAP1 POP JUMP JUMPDEST DUP1 PUSH2 0xCFF DUP2 PUSH2 0x29AA JUMP JUMPDEST SWAP2 POP POP PUSH2 0xC50 JUMP JUMPDEST POP DUP1 PUSH2 0xD53 JUMPI CALLER PUSH1 0x0 SWAP1 DUP2 MSTORE PUSH1 0x4 PUSH1 0x20 SWAP1 DUP2 MSTORE PUSH1 0x40 DUP1 DUP4 KECCAK256 DUP2 MLOAD DUP1 DUP4 ADD SWAP1 SWAP3 MSTORE DUP7 DUP3 MSTORE DUP2 DUP4 ADD DUP7 DUP2 MSTORE DUP2 SLOAD PUSH1 0x1 DUP2 DUP2 ADD DUP5 SSTORE SWAP3 DUP7 MSTORE SWAP4 SWAP1 SWAP5 KECCAK256 SWAP2 MLOAD PUSH1 0x2 SWAP1 SWAP4 MUL SWAP1 SWAP2 ADD SWAP2 DUP3 SSTORE SWAP2 MLOAD SWAP2 ADD SSTORE JUMPDEST POP POP POP JUMP JUMPDEST PUSH1 0x60 PUSH1 0x2 DUP3 DUP2 SLOAD DUP2 LT PUSH2 0xD6D JUMPI PUSH2 0xD6D PUSH2 0x27AA JUMP JUMPDEST SWAP1 PUSH1 0x0 MSTORE PUSH1 0x20 PUSH1 0x0 KECCAK256 SWAP1 PUSH1 0xA MUL ADD PUSH1 0x5 ADD DUP1 SLOAD DUP1 PUSH1 0x20 MUL PUSH1 0x20 ADD PUSH1 0x40 MLOAD SWAP1 DUP2 ADD PUSH1 0x40 MSTORE DUP1 SWAP3 SWAP2 SWAP1 DUP2 DUP2 MSTORE PUSH1 0x20 ADD PUSH1 0x0 SWAP1 JUMPDEST DUP3 DUP3 LT ISZERO PUSH2 0xF04 JUMPI DUP4 DUP3 SWAP1 PUSH1 0x0 MSTORE PUSH1 0x20 PUSH1 0x0 KECCAK256 SWAP1 PUSH1 0x3 MUL ADD PUSH1 0x40 MLOAD DUP1 PUSH1 0x60 ADD PUSH1 0x40 MSTORE SWAP1 DUP2 PUSH1 0x0 DUP3 ADD DUP1 SLOAD PUSH2 0xDD1 SWAP1 PUSH2 0x27C0 JUMP JUMPDEST DUP1 PUSH1 0x1F ADD PUSH1 0x20 DUP1 SWAP2 DIV MUL PUSH1 0x20 ADD PUSH1 0x40 MLOAD SWAP1 DUP2 ADD PUSH1 0x40 MSTORE DUP1 SWAP3 SWAP2 SWAP1 DUP2 DUP2 MSTORE PUSH1 0x20 ADD DUP3 DUP1 SLOAD PUSH2 0xDFD SWAP1 PUSH2 0x27C0 JUMP JUMPDEST DUP1 ISZERO PUSH2 0xE4A JUMPI DUP1 PUSH1 0x1F LT PUSH2 0xE1F JUMPI PUSH2 0x100 DUP1 DUP4 SLOAD DIV MUL DUP4 MSTORE SWAP2 PUSH1 0x20 ADD SWAP2 PUSH2 0xE4A JUMP JUMPDEST DUP3 ADD SWAP2 SWAP1 PUSH1 0x0 MSTORE PUSH1 0x20 PUSH1 0x0 KECCAK256 SWAP1 JUMPDEST DUP2 SLOAD DUP2 MSTORE SWAP1 PUSH1 0x1 ADD SWAP1 PUSH1 0x20 ADD DUP1 DUP4 GT PUSH2 0xE2D JUMPI DUP3 SWAP1 SUB PUSH1 0x1F AND DUP3 ADD SWAP2 JUMPDEST POP POP POP POP POP DUP2 MSTORE PUSH1 0x20 ADD PUSH1 0x1 DUP3 ADD DUP1 SLOAD PUSH2 0xE63 SWAP1 PUSH2 0x27C0 JUMP JUMPDEST DUP1 PUSH1 0x1F ADD PUSH1 0x20 DUP1 SWAP2 DIV MUL PUSH1 0x20 ADD PUSH1 0x40 MLOAD SWAP1 DUP2 ADD PUSH1 0x40 MSTORE DUP1 SWAP3 SWAP2 SWAP1 DUP2 DUP2 MSTORE PUSH1 0x20 ADD DUP3 DUP1 SLOAD PUSH2 0xE8F SWAP1 PUSH2 0x27C0 JUMP JUMPDEST DUP1 ISZERO PUSH2 0xEDC JUMPI DUP1 PUSH1 0x1F LT PUSH2 0xEB1 JUMPI PUSH2 0x100 DUP1 DUP4 SLOAD DIV MUL DUP4 MSTORE SWAP2 PUSH1 0x20 ADD SWAP2 PUSH2 0xEDC JUMP JUMPDEST DUP3 ADD SWAP2 SWAP1 PUSH1 0x0 MSTORE PUSH1 0x20 PUSH1 0x0 KECCAK256 SWAP1 JUMPDEST DUP2 SLOAD DUP2 MSTORE SWAP1 PUSH1 0x1 ADD SWAP1 PUSH1 0x20 ADD DUP1 DUP4 GT PUSH2 0xEBF JUMPI DUP3 SWAP1 SUB PUSH1 0x1F AND DUP3 ADD SWAP2 JUMPDEST POP POP POP SWAP2 DUP4 MSTORE POP POP PUSH1 0x2 SWAP2 SWAP1 SWAP2 ADD SLOAD PUSH1 0xFF AND PUSH1 0x20 SWAP2 DUP3 ADD MSTORE SWAP1 DUP3 MSTORE PUSH1 0x1 SWAP3 SWAP1 SWAP3 ADD SWAP2 ADD PUSH2 0xD9E JUMP JUMPDEST POP POP POP POP SWAP1 POP SWAP2 SWAP1 POP JUMP JUMPDEST PUSH1 0x0 DUP1 JUMPDEST DUP3 MLOAD DUP2 LT ISZERO PUSH2 0x107A JUMPI PUSH1 0x0 JUMPDEST CALLER PUSH1 0x0 SWAP1 DUP2 MSTORE PUSH1 0x4 PUSH1 0x20 MSTORE PUSH1 0x40 SWAP1 KECCAK256 SLOAD DUP2 LT ISZERO PUSH2 0x1067 JUMPI DUP4 DUP3 DUP2 MLOAD DUP2 LT PUSH2 0xF48 JUMPI PUSH2 0xF48 PUSH2 0x27AA JUMP JUMPDEST PUSH1 0x20 MUL PUSH1 0x20 ADD ADD MLOAD PUSH1 0x4 PUSH1 0x0 CALLER PUSH1 0x1 PUSH1 0x1 PUSH1 0xA0 SHL SUB AND PUSH1 0x1 PUSH1 0x1 PUSH1 0xA0 SHL SUB AND DUP2 MSTORE PUSH1 0x20 ADD SWAP1 DUP2 MSTORE PUSH1 0x20 ADD PUSH1 0x0 KECCAK256 DUP3 DUP2 SLOAD DUP2 LT PUSH2 0xF86 JUMPI PUSH2 0xF86 PUSH2 0x27AA JUMP JUMPDEST SWAP1 PUSH1 0x0 MSTORE PUSH1 0x20 PUSH1 0x0 KECCAK256 SWAP1 PUSH1 0x2 MUL ADD PUSH1 0x0 ADD SLOAD SUB PUSH2 0x1055 JUMPI CALLER PUSH1 0x0 SWAP1 DUP2 MSTORE PUSH1 0x4 PUSH1 0x20 MSTORE PUSH1 0x40 SWAP1 KECCAK256 DUP1 SLOAD PUSH1 0x2 SWAP2 SWAP1 DUP4 SWAP1 DUP2 LT PUSH2 0xFC2 JUMPI PUSH2 0xFC2 PUSH2 0x27AA JUMP JUMPDEST SWAP1 PUSH1 0x0 MSTORE PUSH1 0x20 PUSH1 0x0 KECCAK256 SWAP1 PUSH1 0x2 MUL ADD PUSH1 0x0 ADD SLOAD DUP2 SLOAD DUP2 LT PUSH2 0xFE4 JUMPI PUSH2 0xFE4 PUSH2 0x27AA JUMP JUMPDEST SWAP1 PUSH1 0x0 MSTORE PUSH1 0x20 PUSH1 0x0 KECCAK256 SWAP1 PUSH1 0xA MUL ADD PUSH1 0x2 ADD SLOAD PUSH1 0x4 PUSH1 0x0 CALLER PUSH1 0x1 PUSH1 0x1 PUSH1 0xA0 SHL SUB AND PUSH1 0x1 PUSH1 0x1 PUSH1 0xA0 SHL SUB AND DUP2 MSTORE PUSH1 0x20 ADD SWAP1 DUP2 MSTORE PUSH1 0x20 ADD PUSH1 0x0 KECCAK256 DUP3 DUP2 SLOAD DUP2 LT PUSH2 0x102C JUMPI PUSH2 0x102C PUSH2 0x27AA JUMP JUMPDEST SWAP1 PUSH1 0x0 MSTORE PUSH1 0x20 PUSH1 0x0 KECCAK256 SWAP1 PUSH1 0x2 MUL ADD PUSH1 0x1 ADD SLOAD PUSH2 0x1048 SWAP2 SWAP1 PUSH2 0x291E JUMP JUMPDEST PUSH2 0x1052 SWAP1 DUP5 PUSH2 0x2997 JUMP JUMPDEST SWAP3 POP JUMPDEST DUP1 PUSH2 0x105F DUP2 PUSH2 0x29AA JUMP JUMPDEST SWAP2 POP POP PUSH2 0xF1F JUMP JUMPDEST POP DUP1 PUSH2 0x1072 DUP2 PUSH2 0x29AA JUMP JUMPDEST SWAP2 POP POP PUSH2 0xF13 JUMP JUMPDEST POP PUSH1 0x0 SLOAD PUSH1 0x40 MLOAD PUSH4 0x70A08231 PUSH1 0xE0 SHL DUP2 MSTORE CALLER PUSH1 0x4 DUP3 ADD MSTORE DUP3 SWAP2 PUSH1 0x1 PUSH1 0x1 PUSH1 0xA0 SHL SUB AND SWAP1 PUSH4 0x70A08231 SWAP1 PUSH1 0x24 ADD PUSH1 0x20 PUSH1 0x40 MLOAD DUP1 DUP4 SUB DUP2 DUP7 GAS STATICCALL ISZERO DUP1 ISZERO PUSH2 0x10C3 JUMPI RETURNDATASIZE PUSH1 0x0 DUP1 RETURNDATACOPY RETURNDATASIZE PUSH1 0x0 REVERT JUMPDEST POP POP POP POP PUSH1 0x40 MLOAD RETURNDATASIZE PUSH1 0x1F NOT PUSH1 0x1F DUP3 ADD AND DUP3 ADD DUP1 PUSH1 0x40 MSTORE POP DUP2 ADD SWAP1 PUSH2 0x10E7 SWAP2 SWAP1 PUSH2 0x293B JUMP JUMPDEST LT ISZERO PUSH2 0x1135 JUMPI PUSH1 0x40 MLOAD PUSH3 0x461BCD PUSH1 0xE5 SHL DUP2 MSTORE PUSH1 0x20 PUSH1 0x4 DUP3 ADD MSTORE PUSH1 0x1F PUSH1 0x24 DUP3 ADD MSTORE PUSH32 0x62616C616E6365206E6F7420656E6F7567682063617274636865636B6F757400 PUSH1 0x44 DUP3 ADD MSTORE PUSH1 0x64 ADD PUSH2 0x4EC JUMP JUMPDEST PUSH1 0x40 MLOAD DUP2 DUP2 MSTORE PUSH32 0xFA75AF676D20CCB8290F2A472D97213572DD2CDCEB56A1B5E2A09C097E2D9B9C SWAP1 PUSH1 0x20 ADD PUSH1 0x40 MLOAD DUP1 SWAP2 SUB SWAP1 LOG1 PUSH1 0x0 JUMPDEST DUP3 MLOAD DUP2 LT ISZERO PUSH2 0xD53 JUMPI PUSH1 0x0 JUMPDEST CALLER PUSH1 0x0 SWAP1 DUP2 MSTORE PUSH1 0x4 PUSH1 0x20 MSTORE PUSH1 0x40 SWAP1 KECCAK256 SLOAD DUP2 LT ISZERO PUSH2 0x12B3 JUMPI DUP4 DUP3 DUP2 MLOAD DUP2 LT PUSH2 0x11A0 JUMPI PUSH2 0x11A0 PUSH2 0x27AA JUMP JUMPDEST PUSH1 0x20 MUL PUSH1 0x20 ADD ADD MLOAD PUSH1 0x4 PUSH1 0x0 CALLER PUSH1 0x1 PUSH1 0x1 PUSH1 0xA0 SHL SUB AND PUSH1 0x1 PUSH1 0x1 PUSH1 0xA0 SHL SUB AND DUP2 MSTORE PUSH1 0x20 ADD SWAP1 DUP2 MSTORE PUSH1 0x20 ADD PUSH1 0x0 KECCAK256 DUP3 DUP2 SLOAD DUP2 LT PUSH2 0x11DE JUMPI PUSH2 0x11DE PUSH2 0x27AA JUMP JUMPDEST SWAP1 PUSH1 0x0 MSTORE PUSH1 0x20 PUSH1 0x0 KECCAK256 SWAP1 PUSH1 0x2 MUL ADD PUSH1 0x0 ADD SLOAD SUB PUSH2 0x12A1 JUMPI CALLER PUSH1 0x0 SWAP1 DUP2 MSTORE PUSH1 0x4 PUSH1 0x20 MSTORE PUSH1 0x40 SWAP1 KECCAK256 DUP1 SLOAD PUSH2 0x1264 SWAP2 SWAP1 DUP4 SWAP1 DUP2 LT PUSH2 0x121B JUMPI PUSH2 0x121B PUSH2 0x27AA JUMP JUMPDEST PUSH1 0x0 SWAP2 DUP3 MSTORE PUSH1 0x20 DUP1 DUP4 KECCAK256 PUSH1 0x2 SWAP1 SWAP3 MUL SWAP1 SWAP2 ADD SLOAD CALLER DUP4 MSTORE PUSH1 0x4 SWAP1 SWAP2 MSTORE PUSH1 0x40 SWAP1 SWAP2 KECCAK256 DUP1 SLOAD DUP5 SWAP1 DUP2 LT PUSH2 0x124D JUMPI PUSH2 0x124D PUSH2 0x27AA JUMP JUMPDEST SWAP1 PUSH1 0x0 MSTORE PUSH1 0x20 PUSH1 0x0 KECCAK256 SWAP1 PUSH1 0x2 MUL ADD PUSH1 0x1 ADD SLOAD PUSH2 0x406 JUMP JUMPDEST CALLER PUSH1 0x0 SWAP1 DUP2 MSTORE PUSH1 0x4 PUSH1 0x20 MSTORE PUSH1 0x40 SWAP1 KECCAK256 DUP1 SLOAD PUSH2 0x12A1 SWAP2 SWAP1 DUP4 SWAP1 DUP2 LT PUSH2 0x128A JUMPI PUSH2 0x128A PUSH2 0x27AA JUMP JUMPDEST SWAP1 PUSH1 0x0 MSTORE PUSH1 0x20 PUSH1 0x0 KECCAK256 SWAP1 PUSH1 0x2 MUL ADD PUSH1 0x0 ADD SLOAD PUSH2 0x1CBF JUMP JUMPDEST DUP1 PUSH2 0x12AB DUP2 PUSH2 0x29AA JUMP JUMPDEST SWAP2 POP POP PUSH2 0x1177 JUMP JUMPDEST POP DUP1 PUSH2 0x12BE DUP2 PUSH2 0x29AA JUMP JUMPDEST SWAP2 POP POP PUSH2 0x116B JUMP JUMPDEST PUSH1 0x4 PUSH1 0x20 MSTORE DUP2 PUSH1 0x0 MSTORE PUSH1 0x40 PUSH1 0x0 KECCAK256 DUP2 DUP2 SLOAD DUP2 LT PUSH2 0x12E2 JUMPI PUSH1 0x0 DUP1 REVERT JUMPDEST PUSH1 0x0 SWAP2 DUP3 MSTORE PUSH1 0x20 SWAP1 SWAP2 KECCAK256 PUSH1 0x2 SWAP1 SWAP2 MUL ADD DUP1 SLOAD PUSH1 0x1 SWAP1 SWAP2 ADD SLOAD SWAP1 SWAP3 POP SWAP1 POP DUP3 JUMP JUMPDEST PUSH1 0x0 DUP1 PUSH1 0x0 JUMPDEST CALLER PUSH1 0x0 SWAP1 DUP2 MSTORE PUSH1 0x4 PUSH1 0x20 MSTORE PUSH1 0x40 SWAP1 KECCAK256 SLOAD DUP2 LT ISZERO PUSH2 0x146F JUMPI PUSH1 0x0 JUMPDEST DUP5 MLOAD DUP2 LT ISZERO PUSH2 0x145C JUMPI DUP5 DUP2 DUP2 MLOAD DUP2 LT PUSH2 0x133D JUMPI PUSH2 0x133D PUSH2 0x27AA JUMP JUMPDEST PUSH1 0x20 MUL PUSH1 0x20 ADD ADD MLOAD PUSH1 0x4 PUSH1 0x0 CALLER PUSH1 0x1 PUSH1 0x1 PUSH1 0xA0 SHL SUB AND PUSH1 0x1 PUSH1 0x1 PUSH1 0xA0 SHL SUB AND DUP2 MSTORE PUSH1 0x20 ADD SWAP1 DUP2 MSTORE PUSH1 0x20 ADD PUSH1 0x0 KECCAK256 DUP4 DUP2 SLOAD DUP2 LT PUSH2 0x137B JUMPI PUSH2 0x137B PUSH2 0x27AA JUMP JUMPDEST SWAP1 PUSH1 0x0 MSTORE PUSH1 0x20 PUSH1 0x0 KECCAK256 SWAP1 PUSH1 0x2 MUL ADD PUSH1 0x0 ADD SLOAD SUB PUSH2 0x144A JUMPI CALLER PUSH1 0x0 SWAP1 DUP2 MSTORE PUSH1 0x4 PUSH1 0x20 MSTORE PUSH1 0x40 SWAP1 KECCAK256 DUP1 SLOAD PUSH1 0x2 SWAP2 SWAP1 DUP5 SWAP1 DUP2 LT PUSH2 0x13B7 JUMPI PUSH2 0x13B7 PUSH2 0x27AA JUMP JUMPDEST SWAP1 PUSH1 0x0 MSTORE PUSH1 0x20 PUSH1 0x0 KECCAK256 SWAP1 PUSH1 0x2 MUL ADD PUSH1 0x0 ADD SLOAD DUP2 SLOAD DUP2 LT PUSH2 0x13D9 JUMPI PUSH2 0x13D9 PUSH2 0x27AA JUMP JUMPDEST SWAP1 PUSH1 0x0 MSTORE PUSH1 0x20 PUSH1 0x0 KECCAK256 SWAP1 PUSH1 0xA MUL ADD PUSH1 0x2 ADD SLOAD PUSH1 0x4 PUSH1 0x0 CALLER PUSH1 0x1 PUSH1 0x1 PUSH1 0xA0 SHL SUB AND PUSH1 0x1 PUSH1 0x1 PUSH1 0xA0 SHL SUB AND DUP2 MSTORE PUSH1 0x20 ADD SWAP1 DUP2 MSTORE PUSH1 0x20 ADD PUSH1 0x0 KECCAK256 DUP4 DUP2 SLOAD DUP2 LT PUSH2 0x1421 JUMPI PUSH2 0x1421 PUSH2 0x27AA JUMP JUMPDEST SWAP1 PUSH1 0x0 MSTORE PUSH1 0x20 PUSH1 0x0 KECCAK256 SWAP1 PUSH1 0x2 MUL ADD PUSH1 0x1 ADD SLOAD PUSH2 0x143D SWAP2 SWAP1 PUSH2 0x291E JUMP JUMPDEST PUSH2 0x1447 SWAP1 DUP5 PUSH2 0x2997 JUMP JUMPDEST SWAP3 POP JUMPDEST DUP1 PUSH2 0x1454 DUP2 PUSH2 0x29AA JUMP JUMPDEST SWAP2 POP POP PUSH2 0x1322 JUMP JUMPDEST POP DUP1 PUSH2 0x1467 DUP2 PUSH2 0x29AA JUMP JUMPDEST SWAP2 POP POP PUSH2 0x1308 JUMP JUMPDEST POP SWAP3 SWAP2 POP POP JUMP JUMPDEST PUSH1 0x60 PUSH1 0x2 DUP1 SLOAD DUP1 PUSH1 0x20 MUL PUSH1 0x20 ADD PUSH1 0x40 MLOAD SWAP1 DUP2 ADD PUSH1 0x40 MSTORE DUP1 SWAP3 SWAP2 SWAP1 DUP2 DUP2 MSTORE PUSH1 0x20 ADD PUSH1 0x0 SWAP1 JUMPDEST DUP3 DUP3 LT ISZERO PUSH2 0x87A JUMPI DUP4 DUP3 SWAP1 PUSH1 0x0 MSTORE PUSH1 0x20 PUSH1 0x0 KECCAK256 SWAP1 PUSH1 0xA MUL ADD PUSH1 0x40 MLOAD DUP1 PUSH2 0x140 ADD PUSH1 0x40 MSTORE SWAP1 DUP2 PUSH1 0x0 DUP3 ADD DUP1 SLOAD PUSH2 0x14CE SWAP1 PUSH2 0x27C0 JUMP JUMPDEST DUP1 PUSH1 0x1F ADD PUSH1 0x20 DUP1 SWAP2 DIV MUL PUSH1 0x20 ADD PUSH1 0x40 MLOAD SWAP1 DUP2 ADD PUSH1 0x40 MSTORE DUP1 SWAP3 SWAP2 SWAP1 DUP2 DUP2 MSTORE PUSH1 0x20 ADD DUP3 DUP1 SLOAD PUSH2 0x14FA SWAP1 PUSH2 0x27C0 JUMP JUMPDEST DUP1 ISZERO PUSH2 0x1547 JUMPI DUP1 PUSH1 0x1F LT PUSH2 0x151C JUMPI PUSH2 0x100 DUP1 DUP4 SLOAD DIV MUL DUP4 MSTORE SWAP2 PUSH1 0x20 ADD SWAP2 PUSH2 0x1547 JUMP JUMPDEST DUP3 ADD SWAP2 SWAP1 PUSH1 0x0 MSTORE PUSH1 0x20 PUSH1 0x0 KECCAK256 SWAP1 JUMPDEST DUP2 SLOAD DUP2 MSTORE SWAP1 PUSH1 0x1 ADD SWAP1 PUSH1 0x20 ADD DUP1 DUP4 GT PUSH2 0x152A JUMPI DUP3 SWAP1 SUB PUSH1 0x1F AND DUP3 ADD SWAP2 JUMPDEST POP POP POP POP POP DUP2 MSTORE PUSH1 0x20 ADD PUSH1 0x1 DUP3 ADD DUP1 SLOAD PUSH2 0x1560 SWAP1 PUSH2 0x27C0 JUMP JUMPDEST DUP1 PUSH1 0x1F ADD PUSH1 0x20 DUP1 SWAP2 DIV MUL PUSH1 0x20 ADD PUSH1 0x40 MLOAD SWAP1 DUP2 ADD PUSH1 0x40 MSTORE DUP1 SWAP3 SWAP2 SWAP1 DUP2 DUP2 MSTORE PUSH1 0x20 ADD DUP3 DUP1 SLOAD PUSH2 0x158C SWAP1 PUSH2 0x27C0 JUMP JUMPDEST DUP1 ISZERO PUSH2 0x15D9 JUMPI DUP1 PUSH1 0x1F LT PUSH2 0x15AE JUMPI PUSH2 0x100 DUP1 DUP4 SLOAD DIV MUL DUP4 MSTORE SWAP2 PUSH1 0x20 ADD SWAP2 PUSH2 0x15D9 JUMP JUMPDEST DUP3 ADD SWAP2 SWAP1 PUSH1 0x0 MSTORE PUSH1 0x20 PUSH1 0x0 KECCAK256 SWAP1 JUMPDEST DUP2 SLOAD DUP2 MSTORE SWAP1 PUSH1 0x1 ADD SWAP1 PUSH1 0x20 ADD DUP1 DUP4 GT PUSH2 0x15BC JUMPI DUP3 SWAP1 SUB PUSH1 0x1F AND DUP3 ADD SWAP2 JUMPDEST POP POP POP POP POP DUP2 MSTORE PUSH1 0x20 ADD PUSH1 0x2 DUP3 ADD SLOAD DUP2 MSTORE PUSH1 0x20 ADD PUSH1 0x3 DUP3 ADD PUSH1 0x0 SWAP1 SLOAD SWAP1 PUSH2 0x100 EXP SWAP1 DIV PUSH1 0x1 PUSH1 0x1 PUSH1 0xA0 SHL SUB AND PUSH1 0x1 PUSH1 0x1 PUSH1 0xA0 SHL SUB AND PUSH1 0x1 PUSH1 0x1 PUSH1 0xA0 SHL SUB AND DUP2 MSTORE PUSH1 0x20 ADD PUSH1 0x4 DUP3 ADD SLOAD DUP2 MSTORE PUSH1 0x20 ADD PUSH1 0x5 DUP3 ADD DUP1 SLOAD DUP1 PUSH1 0x20 MUL PUSH1 0x20 ADD PUSH1 0x40 MLOAD SWAP1 DUP2 ADD PUSH1 0x40 MSTORE DUP1 SWAP3 SWAP2 SWAP1 DUP2 DUP2 MSTORE PUSH1 0x20 ADD PUSH1 0x0 SWAP1 JUMPDEST DUP3 DUP3 LT ISZERO PUSH2 0x17B0 JUMPI DUP4 DUP3 SWAP1 PUSH1 0x0 MSTORE PUSH1 0x20 PUSH1 0x0 KECCAK256 SWAP1 PUSH1 0x3 MUL ADD PUSH1 0x40 MLOAD DUP1 PUSH1 0x60 ADD PUSH1 0x40 MSTORE SWAP1 DUP2 PUSH1 0x0 DUP3 ADD DUP1 SLOAD PUSH2 0x167D SWAP1 PUSH2 0x27C0 JUMP JUMPDEST DUP1 PUSH1 0x1F ADD PUSH1 0x20 DUP1 SWAP2 DIV MUL PUSH1 0x20 ADD PUSH1 0x40 MLOAD SWAP1 DUP2 ADD PUSH1 0x40 MSTORE DUP1 SWAP3 SWAP2 SWAP1 DUP2 DUP2 MSTORE PUSH1 0x20 ADD DUP3 DUP1 SLOAD PUSH2 0x16A9 SWAP1 PUSH2 0x27C0 JUMP JUMPDEST DUP1 ISZERO PUSH2 0x16F6 JUMPI DUP1 PUSH1 0x1F LT PUSH2 0x16CB JUMPI PUSH2 0x100 DUP1 DUP4 SLOAD DIV MUL DUP4 MSTORE SWAP2 PUSH1 0x20 ADD SWAP2 PUSH2 0x16F6 JUMP JUMPDEST DUP3 ADD SWAP2 SWAP1 PUSH1 0x0 MSTORE PUSH1 0x20 PUSH1 0x0 KECCAK256 SWAP1 JUMPDEST DUP2 SLOAD DUP2 MSTORE SWAP1 PUSH1 0x1 ADD SWAP1 PUSH1 0x20 ADD DUP1 DUP4 GT PUSH2 0x16D9 JUMPI DUP3 SWAP1 SUB PUSH1 0x1F AND DUP3 ADD SWAP2 JUMPDEST POP POP POP POP POP DUP2 MSTORE PUSH1 0x20 ADD PUSH1 0x1 DUP3 ADD DUP1 SLOAD PUSH2 0x170F SWAP1 PUSH2 0x27C0 JUMP JUMPDEST DUP1 PUSH1 0x1F ADD PUSH1 0x20 DUP1 SWAP2 DIV MUL PUSH1 0x20 ADD PUSH1 0x40 MLOAD SWAP1 DUP2 ADD PUSH1 0x40 MSTORE DUP1 SWAP3 SWAP2 SWAP1 DUP2 DUP2 MSTORE PUSH1 0x20 ADD DUP3 DUP1 SLOAD PUSH2 0x173B SWAP1 PUSH2 0x27C0 JUMP JUMPDEST DUP1 ISZERO PUSH2 0x1788 JUMPI DUP1 PUSH1 0x1F LT PUSH2 0x175D JUMPI PUSH2 0x100 DUP1 DUP4 SLOAD DIV MUL DUP4 MSTORE SWAP2 PUSH1 0x20 ADD SWAP2 PUSH2 0x1788 JUMP JUMPDEST DUP3 ADD SWAP2 SWAP1 PUSH1 0x0 MSTORE PUSH1 0x20 PUSH1 0x0 KECCAK256 SWAP1 JUMPDEST DUP2 SLOAD DUP2 MSTORE SWAP1 PUSH1 0x1 ADD SWAP1 PUSH1 0x20 ADD DUP1 DUP4 GT PUSH2 0x176B JUMPI DUP3 SWAP1 SUB PUSH1 0x1F AND DUP3 ADD SWAP2 JUMPDEST POP POP POP SWAP2 DUP4 MSTORE POP POP PUSH1 0x2 SWAP2 SWAP1 SWAP2 ADD SLOAD PUSH1 0xFF AND PUSH1 0x20 SWAP2 DUP3 ADD MSTORE SWAP1 DUP3 MSTORE PUSH1 0x1 SWAP3 SWAP1 SWAP3 ADD SWAP2 ADD PUSH2 0x164A JUMP JUMPDEST POP POP POP SWAP1 DUP3 MSTORE POP PUSH1 0x6 DUP3 ADD SLOAD PUSH1 0xFF AND ISZERO ISZERO PUSH1 0x20 DUP3 ADD MSTORE PUSH1 0x7 DUP3 ADD DUP1 SLOAD PUSH1 0x40 SWAP1 SWAP3 ADD SWAP2 PUSH2 0x17DB SWAP1 PUSH2 0x27C0 JUMP JUMPDEST DUP1 PUSH1 0x1F ADD PUSH1 0x20 DUP1 SWAP2 DIV MUL PUSH1 0x20 ADD PUSH1 0x40 MLOAD SWAP1 DUP2 ADD PUSH1 0x40 MSTORE DUP1 SWAP3 SWAP2 SWAP1 DUP2 DUP2 MSTORE PUSH1 0x20 ADD DUP3 DUP1 SLOAD PUSH2 0x1807 SWAP1 PUSH2 0x27C0 JUMP JUMPDEST DUP1 ISZERO PUSH2 0x1854 JUMPI DUP1 PUSH1 0x1F LT PUSH2 0x1829 JUMPI PUSH2 0x100 DUP1 DUP4 SLOAD DIV MUL DUP4 MSTORE SWAP2 PUSH1 0x20 ADD SWAP2 PUSH2 0x1854 JUMP JUMPDEST DUP3 ADD SWAP2 SWAP1 PUSH1 0x0 MSTORE PUSH1 0x20 PUSH1 0x0 KECCAK256 SWAP1 JUMPDEST DUP2 SLOAD DUP2 MSTORE SWAP1 PUSH1 0x1 ADD SWAP1 PUSH1 0x20 ADD DUP1 DUP4 GT PUSH2 0x1837 JUMPI DUP3 SWAP1 SUB PUSH1 0x1F AND DUP3 ADD SWAP2 JUMPDEST POP POP POP POP POP DUP2 MSTORE PUSH1 0x20 ADD PUSH1 0x8 DUP3 ADD DUP1 SLOAD DUP1 PUSH1 0x20 MUL PUSH1 0x20 ADD PUSH1 0x40 MLOAD SWAP1 DUP2 ADD PUSH1 0x40 MSTORE DUP1 SWAP3 SWAP2 SWAP1 DUP2 DUP2 MSTORE PUSH1 0x20 ADD DUP3 DUP1 SLOAD DUP1 ISZERO PUSH2 0x18B6 JUMPI PUSH1 0x20 MUL DUP3 ADD SWAP2 SWAP1 PUSH1 0x0 MSTORE PUSH1 0x20 PUSH1 0x0 KECCAK256 SWAP1 JUMPDEST DUP2 SLOAD PUSH1 0x1 PUSH1 0x1 PUSH1 0xA0 SHL SUB AND DUP2 MSTORE PUSH1 0x1 SWAP1 SWAP2 ADD SWAP1 PUSH1 0x20 ADD DUP1 DUP4 GT PUSH2 0x1898 JUMPI JUMPDEST POP POP POP POP POP DUP2 MSTORE PUSH1 0x20 ADD PUSH1 0x9 DUP3 ADD DUP1 SLOAD PUSH2 0x18CF SWAP1 PUSH2 0x27C0 JUMP JUMPDEST DUP1 PUSH1 0x1F ADD PUSH1 0x20 DUP1 SWAP2 DIV MUL PUSH1 0x20 ADD PUSH1 0x40 MLOAD SWAP1 DUP2 ADD PUSH1 0x40 MSTORE DUP1 SWAP3 SWAP2 SWAP1 DUP2 DUP2 MSTORE PUSH1 0x20 ADD DUP3 DUP1 SLOAD PUSH2 0x18FB SWAP1 PUSH2 0x27C0 JUMP JUMPDEST DUP1 ISZERO PUSH2 0x1948 JUMPI DUP1 PUSH1 0x1F LT PUSH2 0x191D JUMPI PUSH2 0x100 DUP1 DUP4 SLOAD DIV MUL DUP4 MSTORE SWAP2 PUSH1 0x20 ADD SWAP2 PUSH2 0x1948 JUMP JUMPDEST DUP3 ADD SWAP2 SWAP1 PUSH1 0x0 MSTORE PUSH1 0x20 PUSH1 0x0 KECCAK256 SWAP1 JUMPDEST DUP2 SLOAD DUP2 MSTORE SWAP1 PUSH1 0x1 ADD SWAP1 PUSH1 0x20 ADD DUP1 DUP4 GT PUSH2 0x192B JUMPI DUP3 SWAP1 SUB PUSH1 0x1F AND DUP3 ADD SWAP2 JUMPDEST POP POP POP POP POP DUP2 MSTORE POP POP DUP2 MSTORE PUSH1 0x20 ADD SWAP1 PUSH1 0x1 ADD SWAP1 PUSH2 0x149A JUMP JUMPDEST PUSH1 0x3 SLOAD PUSH1 0x1 PUSH1 0x1 PUSH1 0xA0 SHL SUB AND CALLER EQ PUSH2 0x19B2 JUMPI PUSH1 0x40 MLOAD PUSH3 0x461BCD PUSH1 0xE5 SHL DUP2 MSTORE PUSH1 0x20 PUSH1 0x4 DUP3 ADD MSTORE PUSH1 0x15 PUSH1 0x24 DUP3 ADD MSTORE PUSH21 0x3CB7BA9030B932903737BA103A34329037BBB732B9 PUSH1 0x59 SHL PUSH1 0x44 DUP3 ADD MSTORE PUSH1 0x64 ADD PUSH2 0x4EC JUMP JUMPDEST PUSH2 0x1A41 PUSH1 0x40 MLOAD DUP1 PUSH1 0x40 ADD PUSH1 0x40 MSTORE DUP1 PUSH1 0x5 DUP2 MSTORE PUSH1 0x20 ADD PUSH5 0x6170706C65 PUSH1 0xD8 SHL DUP2 MSTORE POP PUSH1 0x40 MLOAD DUP1 PUSH1 0x40 ADD PUSH1 0x40 MSTORE DUP1 PUSH1 0xF DUP2 MSTORE PUSH1 0x20 ADD PUSH15 0x746869732069732061206170706C65 PUSH1 0x88 SHL DUP2 MSTORE POP PUSH8 0xDE0B6B3A7640000 PUSH1 0xA PUSH1 0x40 MLOAD DUP1 PUSH1 0x80 ADD PUSH1 0x40 MSTORE DUP1 PUSH1 0x41 DUP2 MSTORE PUSH1 0x20 ADD PUSH2 0x2A7B PUSH1 0x41 SWAP2 CODECOPY PUSH1 0x40 MLOAD DUP1 PUSH1 0x40 ADD PUSH1 0x40 MSTORE DUP1 PUSH1 0x4 DUP2 MSTORE PUSH1 0x20 ADD PUSH4 0x119BDBD9 PUSH1 0xE2 SHL DUP2 MSTORE POP PUSH2 0xB0D JUMP JUMPDEST PUSH2 0x1ADA PUSH1 0x40 MLOAD DUP1 PUSH1 0x40 ADD PUSH1 0x40 MSTORE DUP1 PUSH1 0x6 DUP2 MSTORE PUSH1 0x20 ADD PUSH6 0x6970686F6E65 PUSH1 0xD0 SHL DUP2 MSTORE POP PUSH1 0x40 MLOAD DUP1 PUSH1 0x40 ADD PUSH1 0x40 MSTORE DUP1 PUSH1 0x11 DUP2 MSTORE PUSH1 0x20 ADD PUSH17 0x74686973206973206970686F6E65203135 PUSH1 0x78 SHL DUP2 MSTORE POP PUSH8 0x1BC16D674EC80000 PUSH1 0xA PUSH1 0x40 MLOAD DUP1 PUSH1 0xC0 ADD PUSH1 0x40 MSTORE DUP1 PUSH1 0x89 DUP2 MSTORE PUSH1 0x20 ADD PUSH2 0x2ABC PUSH1 0x89 SWAP2 CODECOPY PUSH1 0x40 MLOAD DUP1 PUSH1 0x40 ADD PUSH1 0x40 MSTORE DUP1 PUSH1 0xB DUP2 MSTORE PUSH1 0x20 ADD PUSH11 0x456C656374726F6E696373 PUSH1 0xA8 SHL DUP2 MSTORE POP PUSH2 0xB0D JUMP JUMPDEST PUSH2 0x1B6A PUSH1 0x40 MLOAD DUP1 PUSH1 0x40 ADD PUSH1 0x40 MSTORE DUP1 PUSH1 0x3 DUP2 MSTORE PUSH1 0x20 ADD PUSH3 0x189959 PUSH1 0xEA SHL DUP2 MSTORE POP PUSH1 0x40 MLOAD DUP1 PUSH1 0x40 ADD PUSH1 0x40 MSTORE DUP1 PUSH1 0xD DUP2 MSTORE PUSH1 0x20 ADD PUSH13 0x1D1A1A5CC81A5CC81848189959 PUSH1 0x9A SHL DUP2 MSTORE POP PUSH8 0x29A2241AF62C0000 PUSH1 0xA PUSH1 0x40 MLOAD DUP1 PUSH1 0xE0 ADD PUSH1 0x40 MSTORE DUP1 PUSH1 0xA1 DUP2 MSTORE PUSH1 0x20 ADD PUSH2 0x29DA PUSH1 0xA1 SWAP2 CODECOPY PUSH1 0x40 MLOAD DUP1 PUSH1 0x40 ADD PUSH1 0x40 MSTORE DUP1 PUSH1 0x9 DUP2 MSTORE PUSH1 0x20 ADD PUSH9 0x4675726E6974757265 PUSH1 0xB8 SHL DUP2 MSTORE POP PUSH2 0xB0D JUMP JUMPDEST PUSH2 0x1B76 PUSH1 0x0 PUSH1 0x1 PUSH2 0xBB5 JUMP JUMPDEST PUSH2 0x1B82 PUSH1 0x1 PUSH1 0x2 PUSH2 0xBB5 JUMP JUMPDEST PUSH2 0x1B8E PUSH1 0x2 PUSH1 0x3 PUSH2 0xBB5 JUMP JUMPDEST PUSH2 0x1BDA PUSH1 0x40 MLOAD DUP1 PUSH1 0x40 ADD PUSH1 0x40 MSTORE DUP1 PUSH1 0x6 DUP2 MSTORE PUSH1 0x20 ADD PUSH6 0x6A61736F6E31 PUSH1 0xD0 SHL DUP2 MSTORE POP PUSH1 0x40 MLOAD DUP1 PUSH1 0x40 ADD PUSH1 0x40 MSTORE DUP1 PUSH1 0x8 DUP2 MSTORE PUSH1 0x20 ADD PUSH8 0x636F6D6D656E7431 PUSH1 0xC0 SHL DUP2 MSTORE POP PUSH1 0x5 PUSH1 0x0 PUSH2 0x1E5C JUMP JUMPDEST PUSH2 0x1C26 PUSH1 0x40 MLOAD DUP1 PUSH1 0x40 ADD PUSH1 0x40 MSTORE DUP1 PUSH1 0x6 DUP2 MSTORE PUSH1 0x20 ADD PUSH6 0x3530B9B7B719 PUSH1 0xD1 SHL DUP2 MSTORE POP PUSH1 0x40 MLOAD DUP1 PUSH1 0x40 ADD PUSH1 0x40 MSTORE DUP1 PUSH1 0x8 DUP2 MSTORE PUSH1 0x20 ADD PUSH8 0x31B7B6B6B2B73A19 PUSH1 0xC1 SHL DUP2 MSTORE POP PUSH1 0x3 PUSH1 0x0 PUSH2 0x1E5C JUMP JUMPDEST PUSH2 0x1C72 PUSH1 0x40 MLOAD DUP1 PUSH1 0x40 ADD PUSH1 0x40 MSTORE DUP1 PUSH1 0x6 DUP2 MSTORE PUSH1 0x20 ADD PUSH6 0x6A61736F6E33 PUSH1 0xD0 SHL DUP2 MSTORE POP PUSH1 0x40 MLOAD DUP1 PUSH1 0x40 ADD PUSH1 0x40 MSTORE DUP1 PUSH1 0x8 DUP2 MSTORE PUSH1 0x20 ADD PUSH8 0x636F6D6D656E7433 PUSH1 0xC0 SHL DUP2 MSTORE POP PUSH1 0x4 PUSH1 0x0 PUSH2 0x1E5C JUMP JUMPDEST PUSH2 0x1CBD PUSH1 0x40 MLOAD DUP1 PUSH1 0x40 ADD PUSH1 0x40 MSTORE DUP1 PUSH1 0x6 DUP2 MSTORE PUSH1 0x20 ADD PUSH6 0x6A61736F6E31 PUSH1 0xD0 SHL DUP2 MSTORE POP PUSH1 0x40 MLOAD DUP1 PUSH1 0x40 ADD PUSH1 0x40 MSTORE DUP1 PUSH1 0x8 DUP2 MSTORE PUSH1 0x20 ADD PUSH8 0x18DBDB5B595B9D0D PUSH1 0xC2 SHL DUP2 MSTORE POP PUSH1 0x1 DUP1 PUSH2 0x1E5C JUMP JUMPDEST JUMP JUMPDEST CALLER PUSH1 0x0 SWAP1 DUP2 MSTORE PUSH1 0x4 PUSH1 0x20 MSTORE PUSH1 0x40 DUP2 KECCAK256 SLOAD SWAP1 JUMPDEST DUP2 DUP2 LT ISZERO PUSH2 0x1E1A JUMPI CALLER PUSH1 0x0 SWAP1 DUP2 MSTORE PUSH1 0x4 PUSH1 0x20 MSTORE PUSH1 0x40 SWAP1 KECCAK256 DUP1 SLOAD DUP5 SWAP2 SWAP1 DUP4 SWAP1 DUP2 LT PUSH2 0x1CFD JUMPI PUSH2 0x1CFD PUSH2 0x27AA JUMP JUMPDEST SWAP1 PUSH1 0x0 MSTORE PUSH1 0x20 PUSH1 0x0 KECCAK256 SWAP1 PUSH1 0x2 MUL ADD PUSH1 0x0 ADD SLOAD SUB PUSH2 0x1E08 JUMPI DUP1 JUMPDEST PUSH2 0x1D21 PUSH1 0x1 DUP5 PUSH2 0x2954 JUMP JUMPDEST DUP2 LT ISZERO PUSH2 0x1DC6 JUMPI CALLER PUSH1 0x0 SWAP1 DUP2 MSTORE PUSH1 0x4 PUSH1 0x20 MSTORE PUSH1 0x40 SWAP1 KECCAK256 PUSH2 0x1D42 DUP3 PUSH1 0x1 PUSH2 0x2997 JUMP JUMPDEST DUP2 SLOAD DUP2 LT PUSH2 0x1D52 JUMPI PUSH2 0x1D52 PUSH2 0x27AA JUMP JUMPDEST SWAP1 PUSH1 0x0 MSTORE PUSH1 0x20 PUSH1 0x0 KECCAK256 SWAP1 PUSH1 0x2 MUL ADD PUSH1 0x4 PUSH1 0x0 CALLER PUSH1 0x1 PUSH1 0x1 PUSH1 0xA0 SHL SUB AND PUSH1 0x1 PUSH1 0x1 PUSH1 0xA0 SHL SUB AND DUP2 MSTORE PUSH1 0x20 ADD SWAP1 DUP2 MSTORE PUSH1 0x20 ADD PUSH1 0x0 KECCAK256 DUP3 DUP2 SLOAD DUP2 LT PUSH2 0x1D96 JUMPI PUSH2 0x1D96 PUSH2 0x27AA JUMP JUMPDEST PUSH1 0x0 SWAP2 DUP3 MSTORE PUSH1 0x20 SWAP1 SWAP2 KECCAK256 DUP3 SLOAD PUSH1 0x2 SWAP1 SWAP3 MUL ADD SWAP1 DUP2 SSTORE PUSH1 0x1 SWAP2 DUP3 ADD SLOAD SWAP2 ADD SSTORE DUP1 PUSH2 0x1DBE DUP2 PUSH2 0x29AA JUMP JUMPDEST SWAP2 POP POP PUSH2 0x1D16 JUMP JUMPDEST POP CALLER PUSH1 0x0 SWAP1 DUP2 MSTORE PUSH1 0x4 PUSH1 0x20 MSTORE PUSH1 0x40 SWAP1 KECCAK256 DUP1 SLOAD DUP1 PUSH2 0x1DE5 JUMPI PUSH2 0x1DE5 PUSH2 0x29C3 JUMP JUMPDEST PUSH1 0x0 DUP3 DUP2 MSTORE PUSH1 0x20 DUP2 KECCAK256 PUSH1 0x2 PUSH1 0x0 NOT SWAP1 SWAP4 ADD SWAP3 DUP4 MUL ADD DUP2 DUP2 SSTORE PUSH1 0x1 ADD SSTORE SWAP1 SSTORE POP POP POP JUMP JUMPDEST DUP1 PUSH2 0x1E12 DUP2 PUSH2 0x29AA JUMP JUMPDEST SWAP2 POP POP PUSH2 0x1CD1 JUMP JUMPDEST POP PUSH1 0x40 MLOAD PUSH3 0x461BCD PUSH1 0xE5 SHL DUP2 MSTORE PUSH1 0x20 PUSH1 0x4 DUP3 ADD MSTORE PUSH1 0x16 PUSH1 0x24 DUP3 ADD MSTORE PUSH22 0x125D195B481B9BDD08199BDD5B99081A5B8818D85C9D PUSH1 0x52 SHL PUSH1 0x44 DUP3 ADD MSTORE PUSH1 0x64 ADD PUSH2 0x4EC JUMP JUMPDEST PUSH1 0x0 PUSH1 0x5 DUP4 PUSH1 0xFF AND GT ISZERO PUSH2 0x1EBE JUMPI PUSH1 0x40 MLOAD PUSH3 0x461BCD PUSH1 0xE5 SHL DUP2 MSTORE PUSH1 0x20 PUSH1 0x4 DUP3 ADD MSTORE PUSH1 0x23 PUSH1 0x24 DUP3 ADD MSTORE PUSH32 0x5374617220726174696E67206D757374206265206265747765656E203020616E PUSH1 0x44 DUP3 ADD MSTORE PUSH3 0x642035 PUSH1 0xE8 SHL PUSH1 0x64 DUP3 ADD MSTORE PUSH1 0x84 ADD PUSH2 0x4EC JUMP JUMPDEST PUSH1 0x0 JUMPDEST PUSH1 0x2 DUP4 DUP2 SLOAD DUP2 LT PUSH2 0x1ED4 JUMPI PUSH2 0x1ED4 PUSH2 0x27AA JUMP JUMPDEST SWAP1 PUSH1 0x0 MSTORE PUSH1 0x20 PUSH1 0x0 KECCAK256 SWAP1 PUSH1 0xA MUL ADD PUSH1 0x8 ADD DUP1 SLOAD SWAP1 POP DUP2 LT ISZERO PUSH2 0x1F60 JUMPI CALLER PUSH1 0x1 PUSH1 0x1 PUSH1 0xA0 SHL SUB AND PUSH1 0x2 DUP5 DUP2 SLOAD DUP2 LT PUSH2 0x1F0D JUMPI PUSH2 0x1F0D PUSH2 0x27AA JUMP JUMPDEST SWAP1 PUSH1 0x0 MSTORE PUSH1 0x20 PUSH1 0x0 KECCAK256 SWAP1 PUSH1 0xA MUL ADD PUSH1 0x8 ADD DUP3 DUP2 SLOAD DUP2 LT PUSH2 0x1F2F JUMPI PUSH2 0x1F2F PUSH2 0x27AA JUMP JUMPDEST PUSH1 0x0 SWAP2 DUP3 MSTORE PUSH1 0x20 SWAP1 SWAP2 KECCAK256 ADD SLOAD PUSH1 0x1 PUSH1 0x1 PUSH1 0xA0 SHL SUB AND SUB PUSH2 0x1F4E JUMPI PUSH1 0x1 SWAP2 POP JUMPDEST DUP1 PUSH2 0x1F58 DUP2 PUSH2 0x29AA JUMP JUMPDEST SWAP2 POP POP PUSH2 0x1EC1 JUMP JUMPDEST POP DUP1 DUP1 PUSH2 0x1F77 JUMPI POP PUSH1 0x3 SLOAD PUSH1 0x1 PUSH1 0x1 PUSH1 0xA0 SHL SUB AND CALLER EQ JUMPDEST PUSH2 0x1FC3 JUMPI PUSH1 0x40 MLOAD PUSH3 0x461BCD PUSH1 0xE5 SHL DUP2 MSTORE PUSH1 0x20 PUSH1 0x4 DUP3 ADD MSTORE PUSH1 0x1E PUSH1 0x24 DUP3 ADD MSTORE PUSH32 0x796F75206E65656420746F206275792074686520676F6F642066697273740000 PUSH1 0x44 DUP3 ADD MSTORE PUSH1 0x64 ADD PUSH2 0x4EC JUMP JUMPDEST PUSH1 0x0 PUSH1 0x40 MLOAD DUP1 PUSH1 0x60 ADD PUSH1 0x40 MSTORE DUP1 DUP8 DUP2 MSTORE PUSH1 0x20 ADD DUP7 DUP2 MSTORE PUSH1 0x20 ADD DUP6 PUSH1 0xFF AND DUP2 MSTORE POP SWAP1 POP PUSH1 0x2 DUP4 DUP2 SLOAD DUP2 LT PUSH2 0x1FF8 JUMPI PUSH2 0x1FF8 PUSH2 0x27AA JUMP JUMPDEST PUSH1 0x0 SWAP2 DUP3 MSTORE PUSH1 0x20 DUP1 DUP4 KECCAK256 PUSH1 0x5 PUSH1 0xA SWAP1 SWAP4 MUL ADD SWAP2 SWAP1 SWAP2 ADD DUP1 SLOAD PUSH1 0x1 DUP2 ADD DUP3 SSTORE SWAP1 DUP4 MSTORE SWAP2 KECCAK256 DUP3 MLOAD DUP4 SWAP3 PUSH1 0x3 MUL SWAP1 SWAP2 ADD SWAP1 DUP2 SWAP1 PUSH2 0x2032 SWAP1 DUP3 PUSH2 0x2848 JUMP JUMPDEST POP PUSH1 0x20 DUP3 ADD MLOAD PUSH1 0x1 DUP3 ADD SWAP1 PUSH2 0x2047 SWAP1 DUP3 PUSH2 0x2848 JUMP JUMPDEST POP PUSH1 0x40 SWAP2 SWAP1 SWAP2 ADD MLOAD PUSH1 0x2 SWAP1 SWAP2 ADD DUP1 SLOAD PUSH1 0xFF NOT AND PUSH1 0xFF SWAP1 SWAP3 AND SWAP2 SWAP1 SWAP2 OR SWAP1 SSTORE POP POP POP POP POP POP JUMP JUMPDEST PUSH4 0x4E487B71 PUSH1 0xE0 SHL PUSH1 0x0 MSTORE PUSH1 0x41 PUSH1 0x4 MSTORE PUSH1 0x24 PUSH1 0x0 REVERT JUMPDEST PUSH1 0x40 MLOAD PUSH1 0x1F DUP3 ADD PUSH1 0x1F NOT AND DUP2 ADD PUSH8 0xFFFFFFFFFFFFFFFF DUP2 GT DUP3 DUP3 LT OR ISZERO PUSH2 0x20AC JUMPI PUSH2 0x20AC PUSH2 0x206D JUMP JUMPDEST PUSH1 0x40 MSTORE SWAP2 SWAP1 POP JUMP JUMPDEST PUSH1 0x0 DUP3 PUSH1 0x1F DUP4 ADD SLT PUSH2 0x20C5 JUMPI PUSH1 0x0 DUP1 REVERT JUMPDEST DUP2 CALLDATALOAD PUSH8 0xFFFFFFFFFFFFFFFF DUP2 GT ISZERO PUSH2 0x20DF JUMPI PUSH2 0x20DF PUSH2 0x206D JUMP JUMPDEST PUSH2 0x20F2 PUSH1 0x1F DUP3 ADD PUSH1 0x1F NOT AND PUSH1 0x20 ADD PUSH2 0x2083 JUMP JUMPDEST DUP2 DUP2 MSTORE DUP5 PUSH1 0x20 DUP4 DUP7 ADD ADD GT ISZERO PUSH2 0x2107 JUMPI PUSH1 0x0 DUP1 REVERT JUMPDEST DUP2 PUSH1 0x20 DUP6 ADD PUSH1 0x20 DUP4 ADD CALLDATACOPY PUSH1 0x0 SWAP2 DUP2 ADD PUSH1 0x20 ADD SWAP2 SWAP1 SWAP2 MSTORE SWAP4 SWAP3 POP POP POP JUMP JUMPDEST DUP1 ISZERO ISZERO DUP2 EQ PUSH2 0x2132 JUMPI PUSH1 0x0 DUP1 REVERT JUMPDEST POP JUMP JUMPDEST DUP1 CALLDATALOAD PUSH2 0x2140 DUP2 PUSH2 0x2124 JUMP JUMPDEST SWAP2 SWAP1 POP JUMP JUMPDEST PUSH1 0x0 DUP1 PUSH1 0x0 DUP1 PUSH1 0x0 DUP1 PUSH1 0x0 DUP1 PUSH2 0x100 DUP10 DUP12 SUB SLT ISZERO PUSH2 0x2162 JUMPI PUSH1 0x0 DUP1 REVERT JUMPDEST DUP9 CALLDATALOAD SWAP8 POP PUSH1 0x20 DUP10 ADD CALLDATALOAD PUSH8 0xFFFFFFFFFFFFFFFF DUP1 DUP3 GT ISZERO PUSH2 0x2181 JUMPI PUSH1 0x0 DUP1 REVERT JUMPDEST PUSH2 0x218D DUP13 DUP4 DUP14 ADD PUSH2 0x20B4 JUMP JUMPDEST SWAP9 POP PUSH1 0x40 DUP12 ADD CALLDATALOAD SWAP2 POP DUP1 DUP3 GT ISZERO PUSH2 0x21A3 JUMPI PUSH1 0x0 DUP1 REVERT JUMPDEST PUSH2 0x21AF DUP13 DUP4 DUP14 ADD PUSH2 0x20B4 JUMP JUMPDEST SWAP8 POP PUSH1 0x60 DUP12 ADD CALLDATALOAD SWAP7 POP PUSH1 0x80 DUP12 ADD CALLDATALOAD SWAP6 POP PUSH2 0x21CB PUSH1 0xA0 DUP13 ADD PUSH2 0x2135 JUMP JUMPDEST SWAP5 POP PUSH1 0xC0 DUP12 ADD CALLDATALOAD SWAP2 POP DUP1 DUP3 GT ISZERO PUSH2 0x21E1 JUMPI PUSH1 0x0 DUP1 REVERT JUMPDEST PUSH2 0x21ED DUP13 DUP4 DUP14 ADD PUSH2 0x20B4 JUMP JUMPDEST SWAP4 POP PUSH1 0xE0 DUP12 ADD CALLDATALOAD SWAP2 POP DUP1 DUP3 GT ISZERO PUSH2 0x2203 JUMPI PUSH1 0x0 DUP1 REVERT JUMPDEST POP PUSH2 0x2210 DUP12 DUP3 DUP13 ADD PUSH2 0x20B4 JUMP JUMPDEST SWAP2 POP POP SWAP3 SWAP6 SWAP9 POP SWAP3 SWAP6 SWAP9 SWAP1 SWAP4 SWAP7 POP JUMP JUMPDEST PUSH1 0x0 DUP1 PUSH1 0x40 DUP4 DUP6 SUB SLT ISZERO PUSH2 0x2233 JUMPI PUSH1 0x0 DUP1 REVERT JUMPDEST POP POP DUP1 CALLDATALOAD SWAP3 PUSH1 0x20 SWAP1 SWAP2 ADD CALLDATALOAD SWAP2 POP JUMP JUMPDEST PUSH1 0x20 DUP1 DUP3 MSTORE DUP3 MLOAD DUP3 DUP3 ADD DUP2 SWAP1 MSTORE PUSH1 0x0 SWAP2 SWAP1 PUSH1 0x40 SWAP1 DUP2 DUP6 ADD SWAP1 DUP7 DUP5 ADD DUP6 JUMPDEST DUP3 DUP2 LT ISZERO PUSH2 0x2284 JUMPI DUP2 MLOAD DUP1 MLOAD DUP6 MSTORE DUP7 ADD MLOAD DUP7 DUP6 ADD MSTORE SWAP3 DUP5 ADD SWAP3 SWAP1 DUP6 ADD SWAP1 PUSH1 0x1 ADD PUSH2 0x225F JUMP JUMPDEST POP SWAP2 SWAP8 SWAP7 POP POP POP POP POP POP POP JUMP JUMPDEST PUSH1 0x0 PUSH1 0x20 DUP3 DUP5 SUB SLT ISZERO PUSH2 0x22A3 JUMPI PUSH1 0x0 DUP1 REVERT JUMPDEST POP CALLDATALOAD SWAP2 SWAP1 POP JUMP JUMPDEST PUSH1 0x0 DUP2 MLOAD DUP1 DUP5 MSTORE PUSH1 0x0 JUMPDEST DUP2 DUP2 LT ISZERO PUSH2 0x22D0 JUMPI PUSH1 0x20 DUP2 DUP6 ADD DUP2 ADD MLOAD DUP7 DUP4 ADD DUP3 ADD MSTORE ADD PUSH2 0x22B4 JUMP JUMPDEST POP PUSH1 0x0 PUSH1 0x20 DUP3 DUP7 ADD ADD MSTORE PUSH1 0x20 PUSH1 0x1F NOT PUSH1 0x1F DUP4 ADD AND DUP6 ADD ADD SWAP2 POP POP SWAP3 SWAP2 POP POP JUMP JUMPDEST PUSH1 0x0 PUSH2 0x100 DUP1 DUP4 MSTORE PUSH2 0x2304 DUP2 DUP5 ADD DUP13 PUSH2 0x22AA JUMP JUMPDEST SWAP1 POP DUP3 DUP2 SUB PUSH1 0x20 DUP5 ADD MSTORE PUSH2 0x2318 DUP2 DUP12 PUSH2 0x22AA JUMP JUMPDEST PUSH1 0x40 DUP5 ADD DUP11 SWAP1 MSTORE PUSH1 0x1 PUSH1 0x1 PUSH1 0xA0 SHL SUB DUP10 AND PUSH1 0x60 DUP6 ADD MSTORE PUSH1 0x80 DUP5 ADD DUP9 SWAP1 MSTORE DUP7 ISZERO ISZERO PUSH1 0xA0 DUP6 ADD MSTORE DUP4 DUP2 SUB PUSH1 0xC0 DUP6 ADD MSTORE SWAP1 POP PUSH2 0x2351 DUP2 DUP7 PUSH2 0x22AA JUMP JUMPDEST SWAP1 POP DUP3 DUP2 SUB PUSH1 0xE0 DUP5 ADD MSTORE PUSH2 0x2365 DUP2 DUP6 PUSH2 0x22AA JUMP JUMPDEST SWAP12 SWAP11 POP POP POP POP POP POP POP POP POP POP POP JUMP JUMPDEST PUSH1 0x0 DUP1 PUSH1 0x0 DUP1 PUSH1 0x0 DUP1 PUSH1 0xC0 DUP8 DUP10 SUB SLT ISZERO PUSH2 0x238D JUMPI PUSH1 0x0 DUP1 REVERT JUMPDEST DUP7 CALLDATALOAD PUSH8 0xFFFFFFFFFFFFFFFF DUP1 DUP3 GT ISZERO PUSH2 0x23A5 JUMPI PUSH1 0x0 DUP1 REVERT JUMPDEST PUSH2 0x23B1 DUP11 DUP4 DUP12 ADD PUSH2 0x20B4 JUMP JUMPDEST SWAP8 POP PUSH1 0x20 DUP10 ADD CALLDATALOAD SWAP2 POP DUP1 DUP3 GT ISZERO PUSH2 0x23C7 JUMPI PUSH1 0x0 DUP1 REVERT JUMPDEST PUSH2 0x23D3 DUP11 DUP4 DUP12 ADD PUSH2 0x20B4 JUMP JUMPDEST SWAP7 POP PUSH1 0x40 DUP10 ADD CALLDATALOAD SWAP6 POP PUSH1 0x60 DUP10 ADD CALLDATALOAD SWAP5 POP PUSH1 0x80 DUP10 ADD CALLDATALOAD SWAP2 POP DUP1 DUP3 GT ISZERO PUSH2 0x23F7 JUMPI PUSH1 0x0 DUP1 REVERT JUMPDEST PUSH2 0x2403 DUP11 DUP4 DUP12 ADD PUSH2 0x20B4 JUMP JUMPDEST SWAP4 POP PUSH1 0xA0 DUP10 ADD CALLDATALOAD SWAP2 POP DUP1 DUP3 GT ISZERO PUSH2 0x2419 JUMPI PUSH1 0x0 DUP1 REVERT JUMPDEST POP PUSH2 0x2426 DUP10 DUP3 DUP11 ADD PUSH2 0x20B4 JUMP JUMPDEST SWAP2 POP POP SWAP3 SWAP6 POP SWAP3 SWAP6 POP SWAP3 SWAP6 JUMP JUMPDEST PUSH1 0x0 DUP2 MLOAD DUP1 DUP5 MSTORE PUSH1 0x20 DUP1 DUP6 ADD DUP1 DUP2 SWAP7 POP DUP4 PUSH1 0x5 SHL DUP2 ADD SWAP2 POP DUP3 DUP7 ADD PUSH1 0x0 JUMPDEST DUP6 DUP2 LT ISZERO PUSH2 0x2284 JUMPI DUP3 DUP5 SUB DUP10 MSTORE DUP2 MLOAD PUSH1 0x60 DUP2 MLOAD DUP2 DUP8 MSTORE PUSH2 0x2473 DUP3 DUP9 ADD DUP3 PUSH2 0x22AA JUMP JUMPDEST SWAP2 POP POP DUP7 DUP3 ADD MLOAD DUP7 DUP3 SUB DUP9 DUP9 ADD MSTORE PUSH2 0x248B DUP3 DUP3 PUSH2 0x22AA JUMP JUMPDEST PUSH1 0x40 SWAP4 DUP5 ADD MLOAD PUSH1 0xFF AND SWAP8 SWAP1 SWAP4 ADD SWAP7 SWAP1 SWAP7 MSTORE POP SWAP9 DUP6 ADD SWAP9 SWAP4 POP SWAP1 DUP5 ADD SWAP1 PUSH1 0x1 ADD PUSH2 0x2451 JUMP JUMPDEST PUSH1 0x20 DUP2 MSTORE PUSH1 0x0 PUSH2 0x24C2 PUSH1 0x20 DUP4 ADD DUP5 PUSH2 0x2433 JUMP JUMPDEST SWAP4 SWAP3 POP POP POP JUMP JUMPDEST PUSH1 0x0 PUSH1 0x20 DUP1 DUP4 DUP6 SUB SLT ISZERO PUSH2 0x24DC JUMPI PUSH1 0x0 DUP1 REVERT JUMPDEST DUP3 CALLDATALOAD PUSH8 0xFFFFFFFFFFFFFFFF DUP1 DUP3 GT ISZERO PUSH2 0x24F4 JUMPI PUSH1 0x0 DUP1 REVERT JUMPDEST DUP2 DUP6 ADD SWAP2 POP DUP6 PUSH1 0x1F DUP4 ADD SLT PUSH2 0x2508 JUMPI PUSH1 0x0 DUP1 REVERT JUMPDEST DUP2 CALLDATALOAD DUP2 DUP2 GT ISZERO PUSH2 0x251A JUMPI PUSH2 0x251A PUSH2 0x206D JUMP JUMPDEST DUP1 PUSH1 0x5 SHL SWAP2 POP PUSH2 0x252B DUP5 DUP4 ADD PUSH2 0x2083 JUMP JUMPDEST DUP2 DUP2 MSTORE SWAP2 DUP4 ADD DUP5 ADD SWAP2 DUP5 DUP2 ADD SWAP1 DUP9 DUP5 GT ISZERO PUSH2 0x2545 JUMPI PUSH1 0x0 DUP1 REVERT JUMPDEST SWAP4 DUP6 ADD SWAP4 JUMPDEST DUP4 DUP6 LT ISZERO PUSH2 0x2563 JUMPI DUP5 CALLDATALOAD DUP3 MSTORE SWAP4 DUP6 ADD SWAP4 SWAP1 DUP6 ADD SWAP1 PUSH2 0x254A JUMP JUMPDEST SWAP9 SWAP8 POP POP POP POP POP POP POP POP JUMP JUMPDEST PUSH1 0x0 DUP1 PUSH1 0x40 DUP4 DUP6 SUB SLT ISZERO PUSH2 0x2582 JUMPI PUSH1 0x0 DUP1 REVERT JUMPDEST DUP3 CALLDATALOAD PUSH1 0x1 PUSH1 0x1 PUSH1 0xA0 SHL SUB DUP2 AND DUP2 EQ PUSH2 0x2599 JUMPI PUSH1 0x0 DUP1 REVERT JUMPDEST SWAP5 PUSH1 0x20 SWAP4 SWAP1 SWAP4 ADD CALLDATALOAD SWAP4 POP POP POP JUMP JUMPDEST PUSH1 0x0 DUP2 MLOAD DUP1 DUP5 MSTORE PUSH1 0x20 DUP1 DUP6 ADD SWAP5 POP DUP1 DUP5 ADD PUSH1 0x0 JUMPDEST DUP4 DUP2 LT ISZERO PUSH2 0x25E0 JUMPI DUP2 MLOAD PUSH1 0x1 PUSH1 0x1 PUSH1 0xA0 SHL SUB AND DUP8 MSTORE SWAP6 DUP3 ADD SWAP6 SWAP1 DUP3 ADD SWAP1 PUSH1 0x1 ADD PUSH2 0x25BB JUMP JUMPDEST POP SWAP5 SWAP6 SWAP5 POP POP POP POP POP JUMP JUMPDEST PUSH1 0x0 PUSH1 0x20 DUP1 DUP4 ADD DUP2 DUP5 MSTORE DUP1 DUP6 MLOAD DUP1 DUP4 MSTORE PUSH1 0x40 SWAP3 POP DUP3 DUP7 ADD SWAP2 POP DUP3 DUP2 PUSH1 0x5 SHL DUP8 ADD ADD DUP5 DUP9 ADD PUSH1 0x0 JUMPDEST DUP4 DUP2 LT ISZERO PUSH2 0x2718 JUMPI PUSH1 0x3F NOT DUP10 DUP5 SUB ADD DUP6 MSTORE DUP2 MLOAD PUSH2 0x140 DUP2 MLOAD DUP2 DUP7 MSTORE PUSH2 0x2639 DUP3 DUP8 ADD DUP3 PUSH2 0x22AA JUMP JUMPDEST SWAP2 POP POP DUP9 DUP3 ADD MLOAD DUP6 DUP3 SUB DUP11 DUP8 ADD MSTORE PUSH2 0x2651 DUP3 DUP3 PUSH2 0x22AA JUMP JUMPDEST SWAP2 POP POP DUP8 DUP3 ADD MLOAD DUP9 DUP7 ADD MSTORE PUSH1 0x60 DUP1 DUP4 ADD MLOAD PUSH2 0x2676 DUP3 DUP9 ADD DUP3 PUSH1 0x1 PUSH1 0x1 PUSH1 0xA0 SHL SUB AND SWAP1 MSTORE JUMP JUMPDEST POP POP PUSH1 0x80 DUP3 DUP2 ADD MLOAD SWAP1 DUP7 ADD MSTORE PUSH1 0xA0 DUP1 DUP4 ADD MLOAD DUP7 DUP4 SUB DUP3 DUP9 ADD MSTORE PUSH2 0x2699 DUP4 DUP3 PUSH2 0x2433 JUMP JUMPDEST SWAP3 POP POP POP PUSH1 0xC0 DUP1 DUP4 ADD MLOAD PUSH2 0x26B0 DUP3 DUP9 ADD DUP3 ISZERO ISZERO SWAP1 MSTORE JUMP JUMPDEST POP POP PUSH1 0xE0 DUP1 DUP4 ADD MLOAD DUP7 DUP4 SUB DUP3 DUP9 ADD MSTORE PUSH2 0x26C9 DUP4 DUP3 PUSH2 0x22AA JUMP JUMPDEST SWAP3 POP POP POP PUSH2 0x100 DUP1 DUP4 ADD MLOAD DUP7 DUP4 SUB DUP3 DUP9 ADD MSTORE PUSH2 0x26E5 DUP4 DUP3 PUSH2 0x25A7 JUMP JUMPDEST SWAP3 POP POP POP PUSH2 0x120 DUP1 DUP4 ADD MLOAD SWAP3 POP DUP6 DUP3 SUB DUP2 DUP8 ADD MSTORE POP PUSH2 0x2704 DUP2 DUP4 PUSH2 0x22AA JUMP JUMPDEST SWAP7 DUP10 ADD SWAP7 SWAP5 POP POP POP SWAP1 DUP7 ADD SWAP1 PUSH1 0x1 ADD PUSH2 0x2612 JUMP JUMPDEST POP SWAP1 SWAP9 SWAP8 POP POP POP POP POP POP POP POP JUMP JUMPDEST PUSH1 0x0 DUP1 PUSH1 0x0 DUP1 PUSH1 0x80 DUP6 DUP8 SUB SLT ISZERO PUSH2 0x273C JUMPI PUSH1 0x0 DUP1 REVERT JUMPDEST DUP5 CALLDATALOAD PUSH8 0xFFFFFFFFFFFFFFFF DUP1 DUP3 GT ISZERO PUSH2 0x2754 JUMPI PUSH1 0x0 DUP1 REVERT JUMPDEST PUSH2 0x2760 DUP9 DUP4 DUP10 ADD PUSH2 0x20B4 JUMP JUMPDEST SWAP6 POP PUSH1 0x20 DUP8 ADD CALLDATALOAD SWAP2 POP DUP1 DUP3 GT ISZERO PUSH2 0x2776 JUMPI PUSH1 0x0 DUP1 REVERT JUMPDEST POP PUSH2 0x2783 DUP8 DUP3 DUP9 ADD PUSH2 0x20B4 JUMP JUMPDEST SWAP4 POP POP PUSH1 0x40 DUP6 ADD CALLDATALOAD PUSH1 0xFF DUP2 AND DUP2 EQ PUSH2 0x279A JUMPI PUSH1 0x0 DUP1 REVERT JUMPDEST SWAP4 SWAP7 SWAP3 SWAP6 POP SWAP3 SWAP4 PUSH1 0x60 ADD CALLDATALOAD SWAP3 POP POP JUMP JUMPDEST PUSH4 0x4E487B71 PUSH1 0xE0 SHL PUSH1 0x0 MSTORE PUSH1 0x32 PUSH1 0x4 MSTORE PUSH1 0x24 PUSH1 0x0 REVERT JUMPDEST PUSH1 0x1 DUP2 DUP2 SHR SWAP1 DUP3 AND DUP1 PUSH2 0x27D4 JUMPI PUSH1 0x7F DUP3 AND SWAP2 POP JUMPDEST PUSH1 0x20 DUP3 LT DUP2 SUB PUSH2 0x27F4 JUMPI PUSH4 0x4E487B71 PUSH1 0xE0 SHL PUSH1 0x0 MSTORE PUSH1 0x22 PUSH1 0x4 MSTORE PUSH1 0x24 PUSH1 0x0 REVERT JUMPDEST POP SWAP2 SWAP1 POP JUMP JUMPDEST PUSH1 0x1F DUP3 GT ISZERO PUSH2 0xD53 JUMPI PUSH1 0x0 DUP2 DUP2 MSTORE PUSH1 0x20 DUP2 KECCAK256 PUSH1 0x1F DUP6 ADD PUSH1 0x5 SHR DUP2 ADD PUSH1 0x20 DUP7 LT ISZERO PUSH2 0x2821 JUMPI POP DUP1 JUMPDEST PUSH1 0x1F DUP6 ADD PUSH1 0x5 SHR DUP3 ADD SWAP2 POP JUMPDEST DUP2 DUP2 LT ISZERO PUSH2 0x2840 JUMPI DUP3 DUP2 SSTORE PUSH1 0x1 ADD PUSH2 0x282D JUMP JUMPDEST POP POP POP POP POP POP JUMP JUMPDEST DUP2 MLOAD PUSH8 0xFFFFFFFFFFFFFFFF DUP2 GT ISZERO PUSH2 0x2862 JUMPI PUSH2 0x2862 PUSH2 0x206D JUMP JUMPDEST PUSH2 0x2876 DUP2 PUSH2 0x2870 DUP5 SLOAD PUSH2 0x27C0 JUMP JUMPDEST DUP5 PUSH2 0x27FA JUMP JUMPDEST PUSH1 0x20 DUP1 PUSH1 0x1F DUP4 GT PUSH1 0x1 DUP2 EQ PUSH2 0x28AB JUMPI PUSH1 0x0 DUP5 ISZERO PUSH2 0x2893 JUMPI POP DUP6 DUP4 ADD MLOAD JUMPDEST PUSH1 0x0 NOT PUSH1 0x3 DUP7 SWAP1 SHL SHR NOT AND PUSH1 0x1 DUP6 SWAP1 SHL OR DUP6 SSTORE PUSH2 0x2840 JUMP JUMPDEST PUSH1 0x0 DUP6 DUP2 MSTORE PUSH1 0x20 DUP2 KECCAK256 PUSH1 0x1F NOT DUP7 AND SWAP2 JUMPDEST DUP3 DUP2 LT ISZERO PUSH2 0x28DA JUMPI DUP9 DUP7 ADD MLOAD DUP3 SSTORE SWAP5 DUP5 ADD SWAP5 PUSH1 0x1 SWAP1 SWAP2 ADD SWAP1 DUP5 ADD PUSH2 0x28BB JUMP JUMPDEST POP DUP6 DUP3 LT ISZERO PUSH2 0x28F8 JUMPI DUP8 DUP6 ADD MLOAD PUSH1 0x0 NOT PUSH1 0x3 DUP9 SWAP1 SHL PUSH1 0xF8 AND SHR NOT AND DUP2 SSTORE JUMPDEST POP POP POP POP POP PUSH1 0x1 SWAP1 DUP2 SHL ADD SWAP1 SSTORE POP JUMP JUMPDEST PUSH4 0x4E487B71 PUSH1 0xE0 SHL PUSH1 0x0 MSTORE PUSH1 0x11 PUSH1 0x4 MSTORE PUSH1 0x24 PUSH1 0x0 REVERT JUMPDEST DUP1 DUP3 MUL DUP2 ISZERO DUP3 DUP3 DIV DUP5 EQ OR PUSH2 0x2935 JUMPI PUSH2 0x2935 PUSH2 0x2908 JUMP JUMPDEST SWAP3 SWAP2 POP POP JUMP JUMPDEST PUSH1 0x0 PUSH1 0x20 DUP3 DUP5 SUB SLT ISZERO PUSH2 0x294D JUMPI PUSH1 0x0 DUP1 REVERT JUMPDEST POP MLOAD SWAP2 SWAP1 POP JUMP JUMPDEST DUP2 DUP2 SUB DUP2 DUP2 GT ISZERO PUSH2 0x2935 JUMPI PUSH2 0x2935 PUSH2 0x2908 JUMP JUMPDEST PUSH1 0x20 DUP2 MSTORE PUSH1 0x0 PUSH2 0x24C2 PUSH1 0x20 DUP4 ADD DUP5 PUSH2 0x22AA JUMP JUMPDEST PUSH1 0x0 PUSH1 0x20 DUP3 DUP5 SUB SLT ISZERO PUSH2 0x298C JUMPI PUSH1 0x0 DUP1 REVERT JUMPDEST DUP2 MLOAD PUSH2 0x24C2 DUP2 PUSH2 0x2124 JUMP JUMPDEST DUP1 DUP3 ADD DUP1 DUP3 GT ISZERO PUSH2 0x2935 JUMPI PUSH2 0x2935 PUSH2 0x2908 JUMP JUMPDEST PUSH1 0x0 PUSH1 0x1 DUP3 ADD PUSH2 0x29BC JUMPI PUSH2 0x29BC PUSH2 0x2908 JUMP JUMPDEST POP PUSH1 0x1 ADD SWAP1 JUMP JUMPDEST PUSH4 0x4E487B71 PUSH1 0xE0 SHL PUSH1 0x0 MSTORE PUSH1 0x31 PUSH1 0x4 MSTORE PUSH1 0x24 PUSH1 0x0 REVERT INVALID PUSH9 0x747470733A2F2F7777 PUSH24 0x2E666F72747974776F2E6D792F6D656469612F636174616C PUSH16 0x672F70726F647563742F63616368652F BALANCE 0x2F PUSH10 0x6D6167652F3330303078 0x2F CODECOPY PUSH5 0x6637386561 PUSH3 0x333335 ORIGIN CALLDATALOAD PUSH5 0x3038643665 CALLDATALOAD PUSH7 0x62386432373133 CALLDATASIZE PUSH6 0x39352F732F61 0x2F PUSH20 0x616E746961676F5F7570686F6C7374657265645F PUSH18 0x7565656E5F6265645F677265795F5F5F6D67 0x5F CALLDATALOAD CALLVALUE CODECOPY CALLDATALOAD 0x5F 0x5F PUSH4 0x726F7070 PUSH6 0x642E6A706768 PUSH21 0x7470733A2F2F7777772E636F6C6C696E7364696374 PUSH10 0x6F6E6172792E636F6D2F PUSH10 0x6D616765732F66756C6C 0x2F PUSH2 0x7070 PUSH13 0x655F3135383938393135372E6A PUSH17 0x6768747470733A2F2F73686F702E737769 PUSH21 0x63682E636F6D2E6D792F63646E2F73686F702F6669 PUSH13 0x65732F6950686F6E655F31355F POP PUSH10 0x6E6B5F5044505F496D61 PUSH8 0x655F506F73697469 PUSH16 0x6E2D315F5F4742454E5F376366363034 ORIGIN CALLDATALOAD 0x2D ADDRESS PUSH5 0x35612D3462 PUSH4 0x392D6266 PUSH5 0x392D363435 PUSH3 0x396338 CALLDATASIZE PUSH6 0x3638652E6A70 PUSH8 0x3F763D3137313736 CODECOPY CALLVALUE BALANCE CALLDATACOPY CODECOPY LOG2 PUSH5 0x6970667358 0x22 SLT KECCAK256 0x4B 0xF7 0xB1 0xCA 0x29 0xAB DUP11 0xC7 SWAP8 STOP 0xD6 0xC6 SAR PUSH29 0x29D26A98E1B7F19895AF7EE1DF39DF6D023764736F6C63430008130033 "
				},
				"gasEstimates": {
					"creation": {
						"codeDepositCost": "2226000",
						"executionCost": "72950",
						"totalCost": "2298950"
					},
					"external": {
						"addComment(string,string,uint8,uint256)": "infinite",
						"addGood(string,string,uint256,uint256,string,string)": "infinite",
						"addToCart(uint256,uint256)": "infinite",
						"buyGood(uint256,uint256)": "infinite",
						"cartCheckOut(uint256[])": "infinite",
						"carts(address,uint256)": "6933",
						"ercToken()": "2382",
						"getBuyTotalPrice(uint256[])": "infinite",
						"getCart()": "infinite",
						"getCartLengh()": "2382",
						"getGoodComment(uint256)": "infinite",
						"getGoodLengh()": "2326",
						"getGoods()": "infinite",
						"goods(uint256)": "infinite",
						"removeFromCart(uint256)": "infinite",
						"setTestData()": "infinite",
						"updateGood(uint256,string,string,uint256,uint256,bool,string,string)": "infinite"
					}
				},
				"methodIdentifiers": {
					"addComment(string,string,uint8,uint256)": "de43b595",
					"addGood(string,string,uint256,uint256,string,string)": "36777a4a",
					"addToCart(uint256,uint256)": "3ab9bbb6",
					"buyGood(uint256,uint256)": "17e31e28",
					"cartCheckOut(uint256[])": "6c4bb39f",
					"carts(address,uint256)": "8b1a2d52",
					"ercToken()": "7f2f767e",
					"getBuyTotalPrice(uint256[])": "8c057204",
					"getCart()": "21627dad",
					"getCartLengh()": "92045cae",
					"getGoodComment(uint256)": "565f717d",
					"getGoodLengh()": "38687bfd",
					"getGoods()": "9b44f940",
					"goods(uint256)": "2f724394",
					"removeFromCart(uint256)": "ca29610e",
					"setTestData()": "b6b9e3ee",
					"updateGood(uint256,string,string,uint256,uint256,bool,string,string)": "01d1d3da"
				}
			},
			"storageLayout": {
				"storage": [
					{
						"astId": 83,
						"contract": "DecentralizedMarketplace.sol:DecentralizedMarketplace",
						"label": "ercToken",
						"offset": 0,
						"slot": "0",
						"type": "t_contract(IERC20)77"
					},
					{
						"astId": 86,
						"contract": "DecentralizedMarketplace.sol:DecentralizedMarketplace",
						"label": "a",
						"offset": 0,
						"slot": "1",
						"type": "t_uint256"
					},
					{
						"astId": 126,
						"contract": "DecentralizedMarketplace.sol:DecentralizedMarketplace",
						"label": "goods",
						"offset": 0,
						"slot": "2",
						"type": "t_array(t_struct(Good)117_storage)dyn_storage"
					},
					{
						"astId": 129,
						"contract": "DecentralizedMarketplace.sol:DecentralizedMarketplace",
						"label": "owner",
						"offset": 0,
						"slot": "3",
						"type": "t_address"
					},
					{
						"astId": 135,
						"contract": "DecentralizedMarketplace.sol:DecentralizedMarketplace",
						"label": "carts",
						"offset": 0,
						"slot": "4",
						"type": "t_mapping(t_address,t_array(t_struct(CartItem)122_storage)dyn_storage)"
					}
				],
				"types": {
					"t_address": {
						"encoding": "inplace",
						"label": "address",
						"numberOfBytes": "20"
					},
					"t_array(t_address)dyn_storage": {
						"base": "t_address",
						"encoding": "dynamic_array",
						"label": "address[]",
						"numberOfBytes": "32"
					},
					"t_array(t_struct(CartItem)122_storage)dyn_storage": {
						"base": "t_struct(CartItem)122_storage",
						"encoding": "dynamic_array",
						"label": "struct DecentralizedMarketplace.CartItem[]",
						"numberOfBytes": "32"
					},
					"t_array(t_struct(Comment)93_storage)dyn_storage": {
						"base": "t_struct(Comment)93_storage",
						"encoding": "dynamic_array",
						"label": "struct DecentralizedMarketplace.Comment[]",
						"numberOfBytes": "32"
					},
					"t_array(t_struct(Good)117_storage)dyn_storage": {
						"base": "t_struct(Good)117_storage",
						"encoding": "dynamic_array",
						"label": "struct DecentralizedMarketplace.Good[]",
						"numberOfBytes": "32"
					},
					"t_bool": {
						"encoding": "inplace",
						"label": "bool",
						"numberOfBytes": "1"
					},
					"t_contract(IERC20)77": {
						"encoding": "inplace",
						"label": "contract IERC20",
						"numberOfBytes": "20"
					},
					"t_mapping(t_address,t_array(t_struct(CartItem)122_storage)dyn_storage)": {
						"encoding": "mapping",
						"key": "t_address",
						"label": "mapping(address => struct DecentralizedMarketplace.CartItem[])",
						"numberOfBytes": "32",
						"value": "t_array(t_struct(CartItem)122_storage)dyn_storage"
					},
					"t_string_storage": {
						"encoding": "bytes",
						"label": "string",
						"numberOfBytes": "32"
					},
					"t_struct(CartItem)122_storage": {
						"encoding": "inplace",
						"label": "struct DecentralizedMarketplace.CartItem",
						"members": [
							{
								"astId": 119,
								"contract": "DecentralizedMarketplace.sol:DecentralizedMarketplace",
								"label": "goodId",
								"offset": 0,
								"slot": "0",
								"type": "t_uint256"
							},
							{
								"astId": 121,
								"contract": "DecentralizedMarketplace.sol:DecentralizedMarketplace",
								"label": "amount",
								"offset": 0,
								"slot": "1",
								"type": "t_uint256"
							}
						],
						"numberOfBytes": "64"
					},
					"t_struct(Comment)93_storage": {
						"encoding": "inplace",
						"label": "struct DecentralizedMarketplace.Comment",
						"members": [
							{
								"astId": 88,
								"contract": "DecentralizedMarketplace.sol:DecentralizedMarketplace",
								"label": "name",
								"offset": 0,
								"slot": "0",
								"type": "t_string_storage"
							},
							{
								"astId": 90,
								"contract": "DecentralizedMarketplace.sol:DecentralizedMarketplace",
								"label": "comment",
								"offset": 0,
								"slot": "1",
								"type": "t_string_storage"
							},
							{
								"astId": 92,
								"contract": "DecentralizedMarketplace.sol:DecentralizedMarketplace",
								"label": "star",
								"offset": 0,
								"slot": "2",
								"type": "t_uint8"
							}
						],
						"numberOfBytes": "96"
					},
					"t_struct(Good)117_storage": {
						"encoding": "inplace",
						"label": "struct DecentralizedMarketplace.Good",
						"members": [
							{
								"astId": 95,
								"contract": "DecentralizedMarketplace.sol:DecentralizedMarketplace",
								"label": "name",
								"offset": 0,
								"slot": "0",
								"type": "t_string_storage"
							},
							{
								"astId": 97,
								"contract": "DecentralizedMarketplace.sol:DecentralizedMarketplace",
								"label": "description",
								"offset": 0,
								"slot": "1",
								"type": "t_string_storage"
							},
							{
								"astId": 99,
								"contract": "DecentralizedMarketplace.sol:DecentralizedMarketplace",
								"label": "price",
								"offset": 0,
								"slot": "2",
								"type": "t_uint256"
							},
							{
								"astId": 101,
								"contract": "DecentralizedMarketplace.sol:DecentralizedMarketplace",
								"label": "owner",
								"offset": 0,
								"slot": "3",
								"type": "t_address"
							},
							{
								"astId": 103,
								"contract": "DecentralizedMarketplace.sol:DecentralizedMarketplace",
								"label": "amount",
								"offset": 0,
								"slot": "4",
								"type": "t_uint256"
							},
							{
								"astId": 107,
								"contract": "DecentralizedMarketplace.sol:DecentralizedMarketplace",
								"label": "comment",
								"offset": 0,
								"slot": "5",
								"type": "t_array(t_struct(Comment)93_storage)dyn_storage"
							},
							{
								"astId": 109,
								"contract": "DecentralizedMarketplace.sol:DecentralizedMarketplace",
								"label": "sellStatus",
								"offset": 0,
								"slot": "6",
								"type": "t_bool"
							},
							{
								"astId": 111,
								"contract": "DecentralizedMarketplace.sol:DecentralizedMarketplace",
								"label": "image",
								"offset": 0,
								"slot": "7",
								"type": "t_string_storage"
							},
							{
								"astId": 114,
								"contract": "DecentralizedMarketplace.sol:DecentralizedMarketplace",
								"label": "buyBefore",
								"offset": 0,
								"slot": "8",
								"type": "t_array(t_address)dyn_storage"
							},
							{
								"astId": 116,
								"contract": "DecentralizedMarketplace.sol:DecentralizedMarketplace",
								"label": "categories",
								"offset": 0,
								"slot": "9",
								"type": "t_string_storage"
							}
						],
						"numberOfBytes": "320"
					},
					"t_uint256": {
						"encoding": "inplace",
						"label": "uint256",
						"numberOfBytes": "32"
					},
					"t_uint8": {
						"encoding": "inplace",
						"label": "uint8",
						"numberOfBytes": "1"
					}
				}
			},
			"userdoc": {
				"kind": "user",
				"methods": {},
				"version": 1
			}
		}
	}
}