{
	"debug.sol": {
		"Lottery": {
			"abi": [
				{
					"inputs": [],
					"stateMutability": "payable",
					"type": "constructor"
				},
				{
					"anonymous": false,
					"inputs": [
						{
							"indexed": false,
							"internalType": "address",
							"name": "player",
							"type": "address"
						},
						{
							"indexed": false,
							"internalType": "uint256",
							"name": "playersNumber",
							"type": "uint256"
						}
					],
					"name": "AddPlayers",
					"type": "event"
				},
				{
					"anonymous": false,
					"inputs": [
						{
							"indexed": false,
							"internalType": "address",
							"name": "winner",
							"type": "address"
						},
						{
							"indexed": false,
							"internalType": "uint256",
							"name": "amountWon",
							"type": "uint256"
						}
					],
					"name": "Winner",
					"type": "event"
				},
				{
					"inputs": [
						{
							"internalType": "address payable",
							"name": "lotteryPlayer",
							"type": "address"
						}
					],
					"name": "addPlayers",
					"outputs": [
						{
							"internalType": "bool",
							"name": "",
							"type": "bool"
						}
					],
					"stateMutability": "payable",
					"type": "function"
				},
				{
					"inputs": [],
					"name": "lotteryPrice",
					"outputs": [
						{
							"internalType": "uint256",
							"name": "",
							"type": "uint256"
						}
					],
					"stateMutability": "view",
					"type": "function"
				},
				{
					"inputs": [],
					"name": "owner",
					"outputs": [
						{
							"internalType": "address payable",
							"name": "",
							"type": "address"
						}
					],
					"stateMutability": "view",
					"type": "function"
				},
				{
					"inputs": [],
					"name": "pickWiner",
					"outputs": [
						{
							"internalType": "address",
							"name": "",
							"type": "address"
						},
						{
							"internalType": "uint256",
							"name": "",
							"type": "uint256"
						}
					],
					"stateMutability": "payable",
					"type": "function"
				},
				{
					"inputs": [
						{
							"internalType": "uint256",
							"name": "",
							"type": "uint256"
						}
					],
					"name": "playersList",
					"outputs": [
						{
							"internalType": "address",
							"name": "",
							"type": "address"
						}
					],
					"stateMutability": "view",
					"type": "function"
				}
			],
			"devdoc": {
				"kind": "dev",
				"methods": {},
				"version": 1
			},
			"evm": {
				"assembly": "    /* \"debug.sol\":63:1950  contract Lottery {... */\n  mstore(0x40, 0x80)\n    /* \"debug.sol\":303:314  playersList */\n  0x00\n    /* \"debug.sol\":303:321  playersList.length */\n  sload\n    /* \"debug.sol\":303:333  playersList.length * 0.5 ether */\n  tag_1\n  swap1\n    /* \"debug.sol\":324:333  0.5 ether */\n  0x06f05b59d3b20000\n    /* \"debug.sol\":303:333  playersList.length * 0.5 ether */\n  tag_2\n  jump\t// in\ntag_1:\n    /* \"debug.sol\":273:333  uint256 public lotteryPrice = playersList.length * 0.5 ether */\n  0x02\n  sstore\n    /* \"debug.sol\":599:604  owner */\n  0x01\n    /* \"debug.sol\":599:626  owner = payable(msg.sender) */\n  dup1\n  sload\n  not(sub(shl(0xa0, 0x01), 0x01))\n  and\n    /* \"debug.sol\":615:625  msg.sender */\n  caller\n    /* \"debug.sol\":599:626  owner = payable(msg.sender) */\n  or\n  swap1\n  sstore\n    /* \"debug.sol\":63:1950  contract Lottery {... */\n  jump(tag_6)\n    /* \"#utility.yul\":14:279   */\ntag_2:\n    /* \"#utility.yul\":87:96   */\n  dup1\n  dup3\n  mul\n    /* \"#utility.yul\":118:127   */\n  dup2\n  iszero\n    /* \"#utility.yul\":135:150   */\n  dup3\n  dup3\n  div\n    /* \"#utility.yul\":129:151   */\n  dup5\n  eq\n    /* \"#utility.yul\":115:152   */\n  or\n    /* \"#utility.yul\":105:273   */\n  tag_8\n  jumpi\n    /* \"#utility.yul\":195:205   */\n  0x4e487b71\n    /* \"#utility.yul\":190:193   */\n  0xe0\n    /* \"#utility.yul\":186:206   */\n  shl\n    /* \"#utility.yul\":183:184   */\n  0x00\n    /* \"#utility.yul\":176:207   */\n  mstore\n    /* \"#utility.yul\":230:234   */\n  0x11\n    /* \"#utility.yul\":227:228   */\n  0x04\n    /* \"#utility.yul\":220:235   */\n  mstore\n    /* \"#utility.yul\":258:262   */\n  0x24\n    /* \"#utility.yul\":255:256   */\n  0x00\n    /* \"#utility.yul\":248:263   */\n  revert\n    /* \"#utility.yul\":105:273   */\ntag_8:\n    /* \"#utility.yul\":14:279   */\n  swap3\n  swap2\n  pop\n  pop\n  jump\t// out\ntag_6:\n    /* \"debug.sol\":63:1950  contract Lottery {... */\n  dataSize(sub_0)\n  dup1\n  dataOffset(sub_0)\n  0x00\n  codecopy\n  0x00\n  return\nstop\n\nsub_0: assembly {\n        /* \"debug.sol\":63:1950  contract Lottery {... */\n      mstore(0x40, 0x80)\n      jumpi(tag_1, lt(calldatasize, 0x04))\n      shr(0xe0, calldataload(0x00))\n      dup1\n      0x7319b43e\n      eq\n      tag_2\n      jumpi\n      dup1\n      0x8da5cb5b\n      eq\n      tag_3\n      jumpi\n      dup1\n      0xa0d249cc\n      eq\n      tag_4\n      jumpi\n      dup1\n      0xa97ed232\n      eq\n      tag_5\n      jumpi\n      dup1\n      0xdbea52d8\n      eq\n      tag_6\n      jumpi\n    tag_1:\n      revert(0x00, 0x00)\n        /* \"debug.sol\":205:233  address[] public playersList */\n    tag_2:\n      callvalue\n      dup1\n      iszero\n      tag_7\n      jumpi\n      revert(0x00, 0x00)\n    tag_7:\n      pop\n      tag_8\n      tag_9\n      calldatasize\n      0x04\n      tag_10\n      jump\t// in\n    tag_9:\n      tag_11\n      jump\t// in\n    tag_8:\n      mload(0x40)\n      sub(shl(0xa0, 0x01), 0x01)\n        /* \"#utility.yul\":363:395   */\n      swap1\n      swap2\n      and\n        /* \"#utility.yul\":345:396   */\n      dup2\n      mstore\n        /* \"#utility.yul\":333:335   */\n      0x20\n        /* \"#utility.yul\":318:336   */\n      add\n        /* \"debug.sol\":205:233  address[] public playersList */\n    tag_12:\n      mload(0x40)\n      dup1\n      swap2\n      sub\n      swap1\n      return\n        /* \"debug.sol\":239:267  address payable public owner */\n    tag_3:\n      callvalue\n      dup1\n      iszero\n      tag_14\n      jumpi\n      revert(0x00, 0x00)\n    tag_14:\n      pop\n      sload(0x01)\n      tag_8\n      swap1\n      sub(shl(0xa0, 0x01), 0x01)\n      and\n      dup2\n      jump\n        /* \"debug.sol\":813:1336  function addPlayers(address  payable  lotteryPlayer) public payable returns(bool) {... */\n    tag_4:\n      tag_19\n      tag_20\n      calldatasize\n      0x04\n      tag_21\n      jump\t// in\n    tag_20:\n      tag_22\n      jump\t// in\n    tag_19:\n      mload(0x40)\n        /* \"#utility.yul\":1095:1109   */\n      swap1\n      iszero\n        /* \"#utility.yul\":1088:1110   */\n      iszero\n        /* \"#utility.yul\":1070:1111   */\n      dup2\n      mstore\n        /* \"#utility.yul\":1058:1060   */\n      0x20\n        /* \"#utility.yul\":1043:1061   */\n      add\n        /* \"debug.sol\":813:1336  function addPlayers(address  payable  lotteryPlayer) public payable returns(bool) {... */\n      tag_12\n        /* \"#utility.yul\":930:1117   */\n      jump\n        /* \"debug.sol\":1389:1841  function pickWiner()  _owner() public payable returns(address, uint256) {... */\n    tag_5:\n      tag_25\n      tag_26\n      jump\t// in\n    tag_25:\n      0x40\n      dup1\n      mload\n      sub(shl(0xa0, 0x01), 0x01)\n        /* \"#utility.yul\":1314:1346   */\n      swap1\n      swap4\n      and\n        /* \"#utility.yul\":1296:1347   */\n      dup4\n      mstore\n        /* \"#utility.yul\":1378:1380   */\n      0x20\n        /* \"#utility.yul\":1363:1381   */\n      dup4\n      add\n        /* \"#utility.yul\":1356:1390   */\n      swap2\n      swap1\n      swap2\n      mstore\n        /* \"#utility.yul\":1269:1287   */\n      add\n        /* \"debug.sol\":1389:1841  function pickWiner()  _owner() public payable returns(address, uint256) {... */\n      tag_12\n        /* \"#utility.yul\":1122:1396   */\n      jump\n        /* \"debug.sol\":273:333  uint256 public lotteryPrice = playersList.length * 0.5 ether */\n    tag_6:\n      callvalue\n      dup1\n      iszero\n      tag_29\n      jumpi\n      revert(0x00, 0x00)\n    tag_29:\n      pop\n      tag_30\n      sload(0x02)\n      dup2\n      jump\n    tag_30:\n      mload(0x40)\n        /* \"#utility.yul\":1547:1572   */\n      swap1\n      dup2\n      mstore\n        /* \"#utility.yul\":1535:1537   */\n      0x20\n        /* \"#utility.yul\":1520:1538   */\n      add\n        /* \"debug.sol\":273:333  uint256 public lotteryPrice = playersList.length * 0.5 ether */\n      tag_12\n        /* \"#utility.yul\":1401:1578   */\n      jump\n        /* \"debug.sol\":205:233  address[] public playersList */\n    tag_11:\n      0x00\n      dup2\n      dup2\n      sload\n      dup2\n      lt\n      tag_34\n      jumpi\n      0x00\n      dup1\n      revert\n    tag_34:\n      0x00\n      swap2\n      dup3\n      mstore\n      0x20\n      swap1\n      swap2\n      keccak256\n      add\n      sload\n      sub(shl(0xa0, 0x01), 0x01)\n      and\n      swap1\n      pop\n      dup2\n      jump\t// out\n        /* \"debug.sol\":813:1336  function addPlayers(address  payable  lotteryPlayer) public payable returns(bool) {... */\n    tag_22:\n        /* \"debug.sol\":889:893  bool */\n      0x00\n        /* \"debug.sol\":927:936  0.5 ether */\n      0x06f05b59d3b20000\n        /* \"debug.sol\":914:923  msg.value */\n      callvalue\n        /* \"debug.sol\":914:936  msg.value >= 0.5 ether */\n      lt\n      iszero\n        /* \"debug.sol\":906:979  require(msg.value >= 0.5 ether, \"insufficient balance to enter the draw\") */\n      tag_37\n      jumpi\n      mload(0x40)\n      shl(0xe5, 0x461bcd)\n      dup2\n      mstore\n        /* \"#utility.yul\":1785:1787   */\n      0x20\n        /* \"debug.sol\":906:979  require(msg.value >= 0.5 ether, \"insufficient balance to enter the draw\") */\n      0x04\n      dup3\n      add\n        /* \"#utility.yul\":1767:1788   */\n      mstore\n        /* \"#utility.yul\":1824:1826   */\n      0x26\n        /* \"#utility.yul\":1804:1822   */\n      0x24\n      dup3\n      add\n        /* \"#utility.yul\":1797:1827   */\n      mstore\n        /* \"#utility.yul\":1863:1897   */\n      0x696e73756666696369656e742062616c616e636520746f20656e746572207468\n        /* \"#utility.yul\":1843:1861   */\n      0x44\n      dup3\n      add\n        /* \"#utility.yul\":1836:1898   */\n      mstore\n      shl(0xd0, 0x652064726177)\n        /* \"#utility.yul\":1914:1932   */\n      0x64\n      dup3\n      add\n        /* \"#utility.yul\":1907:1943   */\n      mstore\n        /* \"#utility.yul\":1960:1979   */\n      0x84\n      add\n        /* \"debug.sol\":906:979  require(msg.value >= 0.5 ether, \"insufficient balance to enter the draw\") */\n    tag_38:\n      mload(0x40)\n      dup1\n      swap2\n      sub\n      swap1\n      revert\n    tag_37:\n        /* \"debug.sol\":990:995  owner */\n      sload(0x01)\n        /* \"debug.sol\":990:1015  owner.transfer(0.5 ether) */\n      mload(0x40)\n      sub(shl(0xa0, 0x01), 0x01)\n        /* \"debug.sol\":990:995  owner */\n      swap1\n      swap2\n      and\n      swap1\n      0x00\n      swap1\n        /* \"debug.sol\":1005:1014  0.5 ether */\n      0x06f05b59d3b20000\n      swap1\n        /* \"debug.sol\":990:995  owner */\n      dup3\n        /* \"debug.sol\":990:1015  owner.transfer(0.5 ether) */\n      dup2\n        /* \"debug.sol\":990:995  owner */\n      dup2\n        /* \"debug.sol\":990:1015  owner.transfer(0.5 ether) */\n      dup2\n        /* \"debug.sol\":1005:1014  0.5 ether */\n      dup6\n        /* \"debug.sol\":990:995  owner */\n      dup9\n      dup4\n        /* \"debug.sol\":990:1015  owner.transfer(0.5 ether) */\n      call\n      swap4\n      pop\n      pop\n      pop\n      pop\n      iszero\n      dup1\n      iszero\n      tag_41\n      jumpi\n      returndatacopy(0x00, 0x00, returndatasize)\n      revert(0x00, returndatasize)\n    tag_41:\n      pop\n        /* \"debug.sol\":1050:1111  User({player: lotteryPlayer, balance: lotteryPlayer.balance}) */\n      0x40\n      dup1\n      mload\n      dup1\n      dup3\n      add\n      dup3\n      mstore\n      sub(shl(0xa0, 0x01), 0x01)\n      dup1\n      dup6\n      and\n      dup1\n      dup4\n      mstore\n        /* \"debug.sol\":1088:1109  lotteryPlayer.balance */\n      dup1\n      balance\n        /* \"debug.sol\":1050:1111  User({player: lotteryPlayer, balance: lotteryPlayer.balance}) */\n      0x20\n      dup1\n      dup6\n      add\n      swap2\n      dup3\n      mstore\n        /* \"debug.sol\":1024:1047  User memory playerToAdd */\n      0x00\n        /* \"debug.sol\":1120:1151  playersList.push(lotteryPlayer) */\n      dup1\n      sload\n      0x01\n      dup2\n      dup2\n      add\n      dup4\n      sstore\n      0x290decd9548b62a8d60345a988386fc84ba6bc95484008f6362f93160ef3e563\n      swap1\n      swap2\n      add\n      dup1\n      sload\n      not(sub(shl(0xa0, 0x01), 0x01))\n      swap1\n      dup2\n      and\n      dup8\n      or\n      swap1\n      swap2\n      sstore\n        /* \"debug.sol\":1160:1182  players[lotteryPlayer] */\n      swap5\n      dup3\n      mstore\n        /* \"debug.sol\":1160:1167  players */\n      0x03\n        /* \"debug.sol\":1160:1182  players[lotteryPlayer] */\n      swap1\n      swap3\n      mstore\n      swap6\n      dup7\n      keccak256\n        /* \"debug.sol\":1160:1196  players[lotteryPlayer] = playerToAdd */\n      dup6\n      mload\n      dup2\n      sload\n      swap6\n      and\n      swap5\n      swap1\n      swap4\n      and\n      swap4\n      swap1\n      swap4\n      or\n      dup3\n      sstore\n      mload\n      swap2\n      add\n      sstore\n        /* \"debug.sol\":1220:1238  playersList.length */\n      swap1\n      sload\n        /* \"debug.sol\":1220:1250  playersList.length * 0.5 ether */\n      tag_43\n      swap1\n        /* \"debug.sol\":1241:1250  0.5 ether */\n      0x06f05b59d3b20000\n        /* \"debug.sol\":1220:1250  playersList.length * 0.5 ether */\n      tag_44\n      jump\t// in\n    tag_43:\n        /* \"debug.sol\":1205:1217  lotteryPrice */\n      0x02\n        /* \"debug.sol\":1205:1250  lotteryPrice = playersList.length * 0.5 ether */\n      sstore\n        /* \"debug.sol\":1290:1301  playersList */\n      0x00\n        /* \"debug.sol\":1290:1308  playersList.length */\n      sload\n        /* \"debug.sol\":1264:1309  AddPlayers(lotteryPlayer, playersList.length) */\n      0x40\n      dup1\n      mload\n      sub(shl(0xa0, 0x01), 0x01)\n        /* \"#utility.yul\":1314:1346   */\n      dup7\n      and\n        /* \"#utility.yul\":1296:1347   */\n      dup2\n      mstore\n        /* \"#utility.yul\":1378:1380   */\n      0x20\n        /* \"#utility.yul\":1363:1381   */\n      dup2\n      add\n        /* \"#utility.yul\":1356:1390   */\n      swap3\n      swap1\n      swap3\n      mstore\n        /* \"debug.sol\":1264:1309  AddPlayers(lotteryPlayer, playersList.length) */\n      0x707554343ccda6a95560c92a29daeabb253f16cbbf99d2d75584c80a81b3ca64\n      swap2\n        /* \"#utility.yul\":1269:1287   */\n      add\n        /* \"debug.sol\":1264:1309  AddPlayers(lotteryPlayer, playersList.length) */\n      mload(0x40)\n      dup1\n      swap2\n      sub\n      swap1\n      log1\n      pop\n        /* \"debug.sol\":1325:1329  true */\n      0x01\n      swap3\n        /* \"debug.sol\":813:1336  function addPlayers(address  payable  lotteryPlayer) public payable returns(bool) {... */\n      swap2\n      pop\n      pop\n      jump\t// out\n        /* \"debug.sol\":1389:1841  function pickWiner()  _owner() public payable returns(address, uint256) {... */\n    tag_26:\n        /* \"debug.sol\":1883:1888  owner */\n      sload(0x01)\n        /* \"debug.sol\":1443:1450  address */\n      0x00\n      swap1\n      dup2\n      swap1\n      sub(shl(0xa0, 0x01), 0x01)\n        /* \"debug.sol\":1883:1888  owner */\n      and\n        /* \"debug.sol\":1892:1902  msg.sender */\n      caller\n        /* \"debug.sol\":1883:1902  owner == msg.sender */\n      eq\n        /* \"debug.sol\":1875:1928  require(owner == msg.sender, \"you must be the owner\") */\n      tag_48\n      jumpi\n      mload(0x40)\n      shl(0xe5, 0x461bcd)\n      dup2\n      mstore\n        /* \"#utility.yul\":2749:2751   */\n      0x20\n        /* \"debug.sol\":1875:1928  require(owner == msg.sender, \"you must be the owner\") */\n      0x04\n      dup3\n      add\n        /* \"#utility.yul\":2731:2752   */\n      mstore\n        /* \"#utility.yul\":2788:2790   */\n      0x15\n        /* \"#utility.yul\":2768:2786   */\n      0x24\n      dup3\n      add\n        /* \"#utility.yul\":2761:2791   */\n      mstore\n      shl(0x59, 0x3cb7ba9036bab9ba103132903a34329037bbb732b9)\n        /* \"#utility.yul\":2807:2825   */\n      0x44\n      dup3\n      add\n        /* \"#utility.yul\":2800:2851   */\n      mstore\n        /* \"#utility.yul\":2868:2886   */\n      0x64\n      add\n        /* \"debug.sol\":1875:1928  require(owner == msg.sender, \"you must be the owner\") */\n      tag_38\n        /* \"#utility.yul\":2547:2892   */\n      jump\n        /* \"debug.sol\":1875:1928  require(owner == msg.sender, \"you must be the owner\") */\n    tag_48:\n        /* \"debug.sol\":1503:1564  abi.encodePacked(block.coinbase, block.timestamp, msg.sender) */\n      mload(0x40)\n      not(0xffffffffffffffffffffffff)\n        /* \"debug.sol\":1520:1534  block.coinbase */\n      coinbase\n        /* \"#utility.yul\":3118:3120   */\n      0x60\n        /* \"#utility.yul\":3114:3129   */\n      swap1\n      dup2\n      shl\n        /* \"#utility.yul\":3110:3163   */\n      dup3\n      and\n        /* \"debug.sol\":1503:1564  abi.encodePacked(block.coinbase, block.timestamp, msg.sender) */\n      0x20\n      dup5\n      add\n        /* \"#utility.yul\":3098:3164   */\n      mstore\n        /* \"debug.sol\":1536:1551  block.timestamp */\n      timestamp\n        /* \"#utility.yul\":3180:3192   */\n      0x34\n      dup5\n      add\n        /* \"#utility.yul\":3173:3201   */\n      mstore\n        /* \"debug.sol\":1553:1563  msg.sender */\n      caller\n        /* \"#utility.yul\":3235:3250   */\n      swap1\n      shl\n        /* \"#utility.yul\":3231:3284   */\n      and\n        /* \"#utility.yul\":3217:3229   */\n      0x54\n      dup3\n      add\n        /* \"#utility.yul\":3210:3285   */\n      mstore\n        /* \"debug.sol\":1470:1482  uint256 hash */\n      0x00\n      swap1\n        /* \"#utility.yul\":3301:3313   */\n      0x68\n      add\n        /* \"debug.sol\":1503:1564  abi.encodePacked(block.coinbase, block.timestamp, msg.sender) */\n      0x40\n      dup1\n      mload\n      not(0x1f)\n      dup2\n      dup5\n      sub\n      add\n      dup2\n      mstore\n      swap2\n      swap1\n      mstore\n        /* \"debug.sol\":1493:1565  keccak256(abi.encodePacked(block.coinbase, block.timestamp, msg.sender)) */\n      dup1\n      mload\n        /* \"debug.sol\":1503:1564  abi.encodePacked(block.coinbase, block.timestamp, msg.sender) */\n      0x20\n        /* \"debug.sol\":1493:1565  keccak256(abi.encodePacked(block.coinbase, block.timestamp, msg.sender)) */\n      swap1\n      swap2\n      add\n      keccak256\n        /* \"debug.sol\":1485:1566  uint256(keccak256(abi.encodePacked(block.coinbase, block.timestamp, msg.sender))) */\n      0x00\n        /* \"debug.sol\":1626:1644  playersList.length */\n      dup1\n      sload\n        /* \"debug.sol\":1493:1565  keccak256(abi.encodePacked(block.coinbase, block.timestamp, msg.sender)) */\n      swap2\n      swap3\n      pop\n        /* \"debug.sol\":1485:1566  uint256(keccak256(abi.encodePacked(block.coinbase, block.timestamp, msg.sender))) */\n      swap1\n        /* \"debug.sol\":1600:1622  hash % block.timestamp */\n      tag_54\n        /* \"debug.sol\":1607:1622  block.timestamp */\n      timestamp\n        /* \"debug.sol\":1493:1565  keccak256(abi.encodePacked(block.coinbase, block.timestamp, msg.sender)) */\n      dup5\n        /* \"debug.sol\":1600:1622  hash % block.timestamp */\n      tag_55\n      jump\t// in\n    tag_54:\n        /* \"debug.sol\":1599:1644  (hash % block.timestamp) * playersList.length */\n      tag_56\n      swap2\n      swap1\n      tag_44\n      jump\t// in\n    tag_56:\n        /* \"debug.sol\":1577:1644  uint256 randomIndex = (hash % block.timestamp) * playersList.length */\n      swap1\n      pop\n        /* \"debug.sol\":1655:1677  address payable winner */\n      0x00\n        /* \"debug.sol\":1688:1699  playersList */\n      0x00\n        /* \"debug.sol\":1700:1711  randomIndex */\n      dup3\n        /* \"debug.sol\":1688:1712  playersList[randomIndex] */\n      dup2\n      sload\n      dup2\n      lt\n      tag_58\n      jumpi\n      tag_58\n      tag_59\n      jump\t// in\n    tag_58:\n      0x00\n      swap2\n      dup3\n      mstore\n      0x20\n      dup3\n      keccak256\n      add\n      sload\n        /* \"debug.sol\":1740:1752  lotteryPrice */\n      sload(0x02)\n        /* \"debug.sol\":1724:1753  winner.transfer(lotteryPrice) */\n      mload(0x40)\n      sub(shl(0xa0, 0x01), 0x01)\n        /* \"debug.sol\":1688:1712  playersList[randomIndex] */\n      swap1\n      swap3\n      and\n      swap4\n      pop\n      dup4\n      swap3\n        /* \"debug.sol\":1724:1753  winner.transfer(lotteryPrice) */\n      dup2\n      iszero\n      0x08fc\n      mul\n      swap3\n      swap1\n      dup2\n        /* \"debug.sol\":1688:1712  playersList[randomIndex] */\n      dup2\n        /* \"debug.sol\":1724:1753  winner.transfer(lotteryPrice) */\n      dup2\n        /* \"debug.sol\":1740:1752  lotteryPrice */\n      dup6\n        /* \"debug.sol\":1688:1712  playersList[randomIndex] */\n      dup9\n        /* \"debug.sol\":1724:1753  winner.transfer(lotteryPrice) */\n      dup9\n      call\n      swap4\n      pop\n      pop\n      pop\n      pop\n      iszero\n      dup1\n      iszero\n      tag_62\n      jumpi\n      returndatacopy(0x00, 0x00, returndatasize)\n      revert(0x00, returndatasize)\n    tag_62:\n      pop\n        /* \"debug.sol\":1782:1794  lotteryPrice */\n      sload(0x02)\n        /* \"debug.sol\":1767:1795  Winner(winner, lotteryPrice) */\n      0x40\n      dup1\n      mload\n      sub(shl(0xa0, 0x01), 0x01)\n        /* \"#utility.yul\":1314:1346   */\n      dup5\n      and\n        /* \"#utility.yul\":1296:1347   */\n      dup2\n      mstore\n        /* \"#utility.yul\":1378:1380   */\n      0x20\n        /* \"#utility.yul\":1363:1381   */\n      dup2\n      add\n        /* \"#utility.yul\":1356:1390   */\n      swap3\n      swap1\n      swap3\n      mstore\n        /* \"debug.sol\":1767:1795  Winner(winner, lotteryPrice) */\n      0x9c2270628a9b29d30ae96b6c4c14ed646ee134febdce38a5b77f2bde9cea2e20\n      swap2\n        /* \"#utility.yul\":1269:1287   */\n      add\n        /* \"debug.sol\":1767:1795  Winner(winner, lotteryPrice) */\n      mload(0x40)\n      dup1\n      swap2\n      sub\n      swap1\n      log1\n        /* \"debug.sol\":1814:1820  winner */\n      swap4\n      pop\n        /* \"debug.sol\":1822:1833  randomIndex */\n      swap2\n      pop\n      pop\n        /* \"debug.sol\":1389:1841  function pickWiner()  _owner() public payable returns(address, uint256) {... */\n      swap1\n      swap2\n      jump\t// out\n        /* \"#utility.yul\":14:194   */\n    tag_10:\n        /* \"#utility.yul\":73:79   */\n      0x00\n        /* \"#utility.yul\":126:128   */\n      0x20\n        /* \"#utility.yul\":114:123   */\n      dup3\n        /* \"#utility.yul\":105:112   */\n      dup5\n        /* \"#utility.yul\":101:124   */\n      sub\n        /* \"#utility.yul\":97:129   */\n      slt\n        /* \"#utility.yul\":94:146   */\n      iszero\n      tag_66\n      jumpi\n        /* \"#utility.yul\":142:143   */\n      0x00\n        /* \"#utility.yul\":139:140   */\n      0x00\n        /* \"#utility.yul\":132:144   */\n      revert\n        /* \"#utility.yul\":94:146   */\n    tag_66:\n      pop\n        /* \"#utility.yul\":165:188   */\n      calldataload\n      swap2\n        /* \"#utility.yul\":14:194   */\n      swap1\n      pop\n      jump\t// out\n        /* \"#utility.yul\":631:925   */\n    tag_21:\n        /* \"#utility.yul\":698:704   */\n      0x00\n        /* \"#utility.yul\":751:753   */\n      0x20\n        /* \"#utility.yul\":739:748   */\n      dup3\n        /* \"#utility.yul\":730:737   */\n      dup5\n        /* \"#utility.yul\":726:749   */\n      sub\n        /* \"#utility.yul\":722:754   */\n      slt\n        /* \"#utility.yul\":719:771   */\n      iszero\n      tag_70\n      jumpi\n        /* \"#utility.yul\":767:768   */\n      0x00\n        /* \"#utility.yul\":764:765   */\n      0x00\n        /* \"#utility.yul\":757:769   */\n      revert\n        /* \"#utility.yul\":719:771   */\n    tag_70:\n        /* \"#utility.yul\":793:816   */\n      dup2\n      calldataload\n      sub(shl(0xa0, 0x01), 0x01)\n        /* \"#utility.yul\":845:876   */\n      dup2\n      and\n        /* \"#utility.yul\":835:877   */\n      dup2\n      eq\n        /* \"#utility.yul\":825:895   */\n      tag_71\n      jumpi\n        /* \"#utility.yul\":891:892   */\n      0x00\n        /* \"#utility.yul\":888:889   */\n      0x00\n        /* \"#utility.yul\":881:893   */\n      revert\n        /* \"#utility.yul\":825:895   */\n    tag_71:\n        /* \"#utility.yul\":914:919   */\n      swap4\n        /* \"#utility.yul\":631:925   */\n      swap3\n      pop\n      pop\n      pop\n      jump\t// out\n        /* \"#utility.yul\":1990:2255   */\n    tag_44:\n        /* \"#utility.yul\":2063:2072   */\n      dup1\n      dup3\n      mul\n        /* \"#utility.yul\":2094:2103   */\n      dup2\n      iszero\n        /* \"#utility.yul\":2111:2126   */\n      dup3\n      dup3\n      div\n        /* \"#utility.yul\":2105:2127   */\n      dup5\n      eq\n        /* \"#utility.yul\":2091:2128   */\n      or\n        /* \"#utility.yul\":2081:2249   */\n      tag_77\n      jumpi\n        /* \"#utility.yul\":2171:2181   */\n      0x4e487b71\n        /* \"#utility.yul\":2166:2169   */\n      0xe0\n        /* \"#utility.yul\":2162:2182   */\n      shl\n        /* \"#utility.yul\":2159:2160   */\n      0x00\n        /* \"#utility.yul\":2152:2183   */\n      mstore\n        /* \"#utility.yul\":2206:2210   */\n      0x11\n        /* \"#utility.yul\":2203:2204   */\n      0x04\n        /* \"#utility.yul\":2196:2211   */\n      mstore\n        /* \"#utility.yul\":2234:2238   */\n      0x24\n        /* \"#utility.yul\":2231:2232   */\n      0x00\n        /* \"#utility.yul\":2224:2239   */\n      revert\n        /* \"#utility.yul\":2081:2249   */\n    tag_77:\n        /* \"#utility.yul\":1990:2255   */\n      swap3\n      swap2\n      pop\n      pop\n      jump\t// out\n        /* \"#utility.yul\":3324:3533   */\n    tag_55:\n        /* \"#utility.yul\":3356:3357   */\n      0x00\n        /* \"#utility.yul\":3382:3383   */\n      dup3\n        /* \"#utility.yul\":3372:3504   */\n      tag_82\n      jumpi\n        /* \"#utility.yul\":3426:3436   */\n      0x4e487b71\n        /* \"#utility.yul\":3421:3424   */\n      0xe0\n        /* \"#utility.yul\":3417:3437   */\n      shl\n        /* \"#utility.yul\":3414:3415   */\n      0x00\n        /* \"#utility.yul\":3407:3438   */\n      mstore\n        /* \"#utility.yul\":3461:3465   */\n      0x12\n        /* \"#utility.yul\":3458:3459   */\n      0x04\n        /* \"#utility.yul\":3451:3466   */\n      mstore\n        /* \"#utility.yul\":3489:3493   */\n      0x24\n        /* \"#utility.yul\":3486:3487   */\n      0x00\n        /* \"#utility.yul\":3479:3494   */\n      revert\n        /* \"#utility.yul\":3372:3504   */\n    tag_82:\n      pop\n        /* \"#utility.yul\":3518:3527   */\n      mod\n      swap1\n        /* \"#utility.yul\":3324:3533   */\n      jump\t// out\n        /* \"#utility.yul\":3538:3665   */\n    tag_59:\n        /* \"#utility.yul\":3599:3609   */\n      0x4e487b71\n        /* \"#utility.yul\":3594:3597   */\n      0xe0\n        /* \"#utility.yul\":3590:3610   */\n      shl\n        /* \"#utility.yul\":3587:3588   */\n      0x00\n        /* \"#utility.yul\":3580:3611   */\n      mstore\n        /* \"#utility.yul\":3630:3634   */\n      0x32\n        /* \"#utility.yul\":3627:3628   */\n      0x04\n        /* \"#utility.yul\":3620:3635   */\n      mstore\n        /* \"#utility.yul\":3654:3658   */\n      0x24\n        /* \"#utility.yul\":3651:3652   */\n      0x00\n        /* \"#utility.yul\":3644:3659   */\n      revert\n\n    auxdata: 0xa264697066735822122049747ea8bf892f42caead2e402e51608fe4b09d7da833bdd7d3ba1afd0d5259c64736f6c634300081b0033\n}\n",
				"bytecode": {
					"linkReferences": {},
					"object": "60806040525f546016906706f05b59d3b20000602f565b600255600180546001600160a01b031916331790556057565b8082028115828204841417605157634e487b7160e01b5f52601160045260245ffd5b92915050565b610502806100645f395ff3fe608060405260043610610049575f3560e01c80637319b43e1461004d5780638da5cb5b14610089578063a0d249cc146100a8578063a97ed232146100cb578063dbea52d8146100f2575b5f5ffd5b348015610058575f5ffd5b5061006c61006736600461042c565b610115565b6040516001600160a01b0390911681526020015b60405180910390f35b348015610094575f5ffd5b5060015461006c906001600160a01b031681565b6100bb6100b6366004610443565b61013c565b6040519015158152602001610080565b6100d36102ca565b604080516001600160a01b039093168352602083019190915201610080565b3480156100fd575f5ffd5b5061010760025481565b604051908152602001610080565b5f8181548110610123575f80fd5b5f918252602090912001546001600160a01b0316905081565b5f6706f05b59d3b200003410156101a95760405162461bcd60e51b815260206004820152602660248201527f696e73756666696369656e742062616c616e636520746f20656e74657220746860448201526565206472617760d01b60648201526084015b60405180910390fd5b6001546040516001600160a01b03909116905f906706f05b59d3b200009082818181858883f193505050501580156101e3573d5f5f3e3d5ffd5b506040805180820182526001600160a01b03808516808352803160208085019182525f8054600181810183557f290decd9548b62a8d60345a988386fc84ba6bc95484008f6362f93160ef3e56390910180546001600160a01b03199081168717909155948252600390925295862085518154951694909316939093178255519101559054610279906706f05b59d3b20000610470565b6002555f54604080516001600160a01b038616815260208101929092527f707554343ccda6a95560c92a29daeabb253f16cbbf99d2d75584c80a81b3ca64910160405180910390a150600192915050565b6001545f9081906001600160a01b031633146103205760405162461bcd60e51b81526020600482015260156024820152743cb7ba9036bab9ba103132903a34329037bbb732b960591b60448201526064016101a0565b6040516bffffffffffffffffffffffff1941606090811b8216602084015242603484015233901b1660548201525f9060680160408051601f1981840301815291905280516020909101205f80549192509061037b4284610499565b6103859190610470565b90505f5f828154811061039a5761039a6104b8565b5f9182526020822001546002546040516001600160a01b039092169350839281156108fc029290818181858888f193505050501580156103dc573d5f5f3e3d5ffd5b50600254604080516001600160a01b038416815260208101929092527f9c2270628a9b29d30ae96b6c4c14ed646ee134febdce38a5b77f2bde9cea2e20910160405180910390a193509150509091565b5f6020828403121561043c575f5ffd5b5035919050565b5f60208284031215610453575f5ffd5b81356001600160a01b0381168114610469575f5ffd5b9392505050565b808202811582820484141761049357634e487b7160e01b5f52601160045260245ffd5b92915050565b5f826104b357634e487b7160e01b5f52601260045260245ffd5b500690565b634e487b7160e01b5f52603260045260245ffdfea264697066735822122049747ea8bf892f42caead2e402e51608fe4b09d7da833bdd7d3ba1afd0d5259c64736f6c634300081b0033",
					"opcodes": "PUSH1 0x80 PUSH1 0x40 MSTORE PUSH0 SLOAD PUSH1 0x16 SWAP1 PUSH8 0x6F05B59D3B20000 PUSH1 0x2F JUMP JUMPDEST PUSH1 0x2 SSTORE PUSH1 0x1 DUP1 SLOAD PUSH1 0x1 PUSH1 0x1 PUSH1 0xA0 SHL SUB NOT AND CALLER OR SWAP1 SSTORE PUSH1 0x57 JUMP JUMPDEST DUP1 DUP3 MUL DUP2 ISZERO DUP3 DUP3 DIV DUP5 EQ OR PUSH1 0x51 JUMPI PUSH4 0x4E487B71 PUSH1 0xE0 SHL PUSH0 MSTORE PUSH1 0x11 PUSH1 0x4 MSTORE PUSH1 0x24 PUSH0 REVERT JUMPDEST SWAP3 SWAP2 POP POP JUMP JUMPDEST PUSH2 0x502 DUP1 PUSH2 0x64 PUSH0 CODECOPY PUSH0 RETURN INVALID PUSH1 0x80 PUSH1 0x40 MSTORE PUSH1 0x4 CALLDATASIZE LT PUSH2 0x49 JUMPI PUSH0 CALLDATALOAD PUSH1 0xE0 SHR DUP1 PUSH4 0x7319B43E EQ PUSH2 0x4D JUMPI DUP1 PUSH4 0x8DA5CB5B EQ PUSH2 0x89 JUMPI DUP1 PUSH4 0xA0D249CC EQ PUSH2 0xA8 JUMPI DUP1 PUSH4 0xA97ED232 EQ PUSH2 0xCB JUMPI DUP1 PUSH4 0xDBEA52D8 EQ PUSH2 0xF2 JUMPI JUMPDEST PUSH0 PUSH0 REVERT JUMPDEST CALLVALUE DUP1 ISZERO PUSH2 0x58 JUMPI PUSH0 PUSH0 REVERT JUMPDEST POP PUSH2 0x6C PUSH2 0x67 CALLDATASIZE PUSH1 0x4 PUSH2 0x42C JUMP JUMPDEST PUSH2 0x115 JUMP JUMPDEST PUSH1 0x40 MLOAD PUSH1 0x1 PUSH1 0x1 PUSH1 0xA0 SHL SUB SWAP1 SWAP2 AND DUP2 MSTORE PUSH1 0x20 ADD JUMPDEST PUSH1 0x40 MLOAD DUP1 SWAP2 SUB SWAP1 RETURN JUMPDEST CALLVALUE DUP1 ISZERO PUSH2 0x94 JUMPI PUSH0 PUSH0 REVERT JUMPDEST POP PUSH1 0x1 SLOAD PUSH2 0x6C SWAP1 PUSH1 0x1 PUSH1 0x1 PUSH1 0xA0 SHL SUB AND DUP2 JUMP JUMPDEST PUSH2 0xBB PUSH2 0xB6 CALLDATASIZE PUSH1 0x4 PUSH2 0x443 JUMP JUMPDEST PUSH2 0x13C JUMP JUMPDEST PUSH1 0x40 MLOAD SWAP1 ISZERO ISZERO DUP2 MSTORE PUSH1 0x20 ADD PUSH2 0x80 JUMP JUMPDEST PUSH2 0xD3 PUSH2 0x2CA JUMP JUMPDEST PUSH1 0x40 DUP1 MLOAD PUSH1 0x1 PUSH1 0x1 PUSH1 0xA0 SHL SUB SWAP1 SWAP4 AND DUP4 MSTORE PUSH1 0x20 DUP4 ADD SWAP2 SWAP1 SWAP2 MSTORE ADD PUSH2 0x80 JUMP JUMPDEST CALLVALUE DUP1 ISZERO PUSH2 0xFD JUMPI PUSH0 PUSH0 REVERT JUMPDEST POP PUSH2 0x107 PUSH1 0x2 SLOAD DUP2 JUMP JUMPDEST PUSH1 0x40 MLOAD SWAP1 DUP2 MSTORE PUSH1 0x20 ADD PUSH2 0x80 JUMP JUMPDEST PUSH0 DUP2 DUP2 SLOAD DUP2 LT PUSH2 0x123 JUMPI PUSH0 DUP1 REVERT JUMPDEST PUSH0 SWAP2 DUP3 MSTORE PUSH1 0x20 SWAP1 SWAP2 KECCAK256 ADD SLOAD PUSH1 0x1 PUSH1 0x1 PUSH1 0xA0 SHL SUB AND SWAP1 POP DUP2 JUMP JUMPDEST PUSH0 PUSH8 0x6F05B59D3B20000 CALLVALUE LT ISZERO PUSH2 0x1A9 JUMPI PUSH1 0x40 MLOAD PUSH3 0x461BCD PUSH1 0xE5 SHL DUP2 MSTORE PUSH1 0x20 PUSH1 0x4 DUP3 ADD MSTORE PUSH1 0x26 PUSH1 0x24 DUP3 ADD MSTORE PUSH32 0x696E73756666696369656E742062616C616E636520746F20656E746572207468 PUSH1 0x44 DUP3 ADD MSTORE PUSH6 0x652064726177 PUSH1 0xD0 SHL PUSH1 0x64 DUP3 ADD MSTORE PUSH1 0x84 ADD JUMPDEST PUSH1 0x40 MLOAD DUP1 SWAP2 SUB SWAP1 REVERT JUMPDEST PUSH1 0x1 SLOAD PUSH1 0x40 MLOAD PUSH1 0x1 PUSH1 0x1 PUSH1 0xA0 SHL SUB SWAP1 SWAP2 AND SWAP1 PUSH0 SWAP1 PUSH8 0x6F05B59D3B20000 SWAP1 DUP3 DUP2 DUP2 DUP2 DUP6 DUP9 DUP4 CALL SWAP4 POP POP POP POP ISZERO DUP1 ISZERO PUSH2 0x1E3 JUMPI RETURNDATASIZE PUSH0 PUSH0 RETURNDATACOPY RETURNDATASIZE PUSH0 REVERT JUMPDEST POP PUSH1 0x40 DUP1 MLOAD DUP1 DUP3 ADD DUP3 MSTORE PUSH1 0x1 PUSH1 0x1 PUSH1 0xA0 SHL SUB DUP1 DUP6 AND DUP1 DUP4 MSTORE DUP1 BALANCE PUSH1 0x20 DUP1 DUP6 ADD SWAP2 DUP3 MSTORE PUSH0 DUP1 SLOAD PUSH1 0x1 DUP2 DUP2 ADD DUP4 SSTORE PUSH32 0x290DECD9548B62A8D60345A988386FC84BA6BC95484008F6362F93160EF3E563 SWAP1 SWAP2 ADD DUP1 SLOAD PUSH1 0x1 PUSH1 0x1 PUSH1 0xA0 SHL SUB NOT SWAP1 DUP2 AND DUP8 OR SWAP1 SWAP2 SSTORE SWAP5 DUP3 MSTORE PUSH1 0x3 SWAP1 SWAP3 MSTORE SWAP6 DUP7 KECCAK256 DUP6 MLOAD DUP2 SLOAD SWAP6 AND SWAP5 SWAP1 SWAP4 AND SWAP4 SWAP1 SWAP4 OR DUP3 SSTORE MLOAD SWAP2 ADD SSTORE SWAP1 SLOAD PUSH2 0x279 SWAP1 PUSH8 0x6F05B59D3B20000 PUSH2 0x470 JUMP JUMPDEST PUSH1 0x2 SSTORE PUSH0 SLOAD PUSH1 0x40 DUP1 MLOAD PUSH1 0x1 PUSH1 0x1 PUSH1 0xA0 SHL SUB DUP7 AND DUP2 MSTORE PUSH1 0x20 DUP2 ADD SWAP3 SWAP1 SWAP3 MSTORE PUSH32 0x707554343CCDA6A95560C92A29DAEABB253F16CBBF99D2D75584C80A81B3CA64 SWAP2 ADD PUSH1 0x40 MLOAD DUP1 SWAP2 SUB SWAP1 LOG1 POP PUSH1 0x1 SWAP3 SWAP2 POP POP JUMP JUMPDEST PUSH1 0x1 SLOAD PUSH0 SWAP1 DUP2 SWAP1 PUSH1 0x1 PUSH1 0x1 PUSH1 0xA0 SHL SUB AND CALLER EQ PUSH2 0x320 JUMPI PUSH1 0x40 MLOAD PUSH3 0x461BCD PUSH1 0xE5 SHL DUP2 MSTORE PUSH1 0x20 PUSH1 0x4 DUP3 ADD MSTORE PUSH1 0x15 PUSH1 0x24 DUP3 ADD MSTORE PUSH21 0x3CB7BA9036BAB9BA103132903A34329037BBB732B9 PUSH1 0x59 SHL PUSH1 0x44 DUP3 ADD MSTORE PUSH1 0x64 ADD PUSH2 0x1A0 JUMP JUMPDEST PUSH1 0x40 MLOAD PUSH12 0xFFFFFFFFFFFFFFFFFFFFFFFF NOT COINBASE PUSH1 0x60 SWAP1 DUP2 SHL DUP3 AND PUSH1 0x20 DUP5 ADD MSTORE TIMESTAMP PUSH1 0x34 DUP5 ADD MSTORE CALLER SWAP1 SHL AND PUSH1 0x54 DUP3 ADD MSTORE PUSH0 SWAP1 PUSH1 0x68 ADD PUSH1 0x40 DUP1 MLOAD PUSH1 0x1F NOT DUP2 DUP5 SUB ADD DUP2 MSTORE SWAP2 SWAP1 MSTORE DUP1 MLOAD PUSH1 0x20 SWAP1 SWAP2 ADD KECCAK256 PUSH0 DUP1 SLOAD SWAP2 SWAP3 POP SWAP1 PUSH2 0x37B TIMESTAMP DUP5 PUSH2 0x499 JUMP JUMPDEST PUSH2 0x385 SWAP2 SWAP1 PUSH2 0x470 JUMP JUMPDEST SWAP1 POP PUSH0 PUSH0 DUP3 DUP2 SLOAD DUP2 LT PUSH2 0x39A JUMPI PUSH2 0x39A PUSH2 0x4B8 JUMP JUMPDEST PUSH0 SWAP2 DUP3 MSTORE PUSH1 0x20 DUP3 KECCAK256 ADD SLOAD PUSH1 0x2 SLOAD PUSH1 0x40 MLOAD PUSH1 0x1 PUSH1 0x1 PUSH1 0xA0 SHL SUB SWAP1 SWAP3 AND SWAP4 POP DUP4 SWAP3 DUP2 ISZERO PUSH2 0x8FC MUL SWAP3 SWAP1 DUP2 DUP2 DUP2 DUP6 DUP9 DUP9 CALL SWAP4 POP POP POP POP ISZERO DUP1 ISZERO PUSH2 0x3DC JUMPI RETURNDATASIZE PUSH0 PUSH0 RETURNDATACOPY RETURNDATASIZE PUSH0 REVERT JUMPDEST POP PUSH1 0x2 SLOAD PUSH1 0x40 DUP1 MLOAD PUSH1 0x1 PUSH1 0x1 PUSH1 0xA0 SHL SUB DUP5 AND DUP2 MSTORE PUSH1 0x20 DUP2 ADD SWAP3 SWAP1 SWAP3 MSTORE PUSH32 0x9C2270628A9B29D30AE96B6C4C14ED646EE134FEBDCE38A5B77F2BDE9CEA2E20 SWAP2 ADD PUSH1 0x40 MLOAD DUP1 SWAP2 SUB SWAP1 LOG1 SWAP4 POP SWAP2 POP POP SWAP1 SWAP2 JUMP JUMPDEST PUSH0 PUSH1 0x20 DUP3 DUP5 SUB SLT ISZERO PUSH2 0x43C JUMPI PUSH0 PUSH0 REVERT JUMPDEST POP CALLDATALOAD SWAP2 SWAP1 POP JUMP JUMPDEST PUSH0 PUSH1 0x20 DUP3 DUP5 SUB SLT ISZERO PUSH2 0x453 JUMPI PUSH0 PUSH0 REVERT JUMPDEST DUP2 CALLDATALOAD PUSH1 0x1 PUSH1 0x1 PUSH1 0xA0 SHL SUB DUP2 AND DUP2 EQ PUSH2 0x469 JUMPI PUSH0 PUSH0 REVERT JUMPDEST SWAP4 SWAP3 POP POP POP JUMP JUMPDEST DUP1 DUP3 MUL DUP2 ISZERO DUP3 DUP3 DIV DUP5 EQ OR PUSH2 0x493 JUMPI PUSH4 0x4E487B71 PUSH1 0xE0 SHL PUSH0 MSTORE PUSH1 0x11 PUSH1 0x4 MSTORE PUSH1 0x24 PUSH0 REVERT JUMPDEST SWAP3 SWAP2 POP POP JUMP JUMPDEST PUSH0 DUP3 PUSH2 0x4B3 JUMPI PUSH4 0x4E487B71 PUSH1 0xE0 SHL PUSH0 MSTORE PUSH1 0x12 PUSH1 0x4 MSTORE PUSH1 0x24 PUSH0 REVERT JUMPDEST POP MOD SWAP1 JUMP JUMPDEST PUSH4 0x4E487B71 PUSH1 0xE0 SHL PUSH0 MSTORE PUSH1 0x32 PUSH1 0x4 MSTORE PUSH1 0x24 PUSH0 REVERT INVALID LOG2 PUSH5 0x6970667358 0x22 SLT KECCAK256 BLOBHASH PUSH21 0x7EA8BF892F42CAEAD2E402E51608FE4B09D7DA833B 0xDD PUSH30 0x3BA1AFD0D5259C64736F6C634300081B0033000000000000000000000000 "
				},
				"gasEstimates": {
					"creation": {
						"codeDepositCost": "256400",
						"executionCost": "48817",
						"totalCost": "305217"
					},
					"external": {
						"addPlayers(address)": "infinite",
						"lotteryPrice()": "2360",
						"owner()": "2325",
						"pickWiner()": "infinite",
						"playersList(uint256)": "4577"
					}
				},
				"methodIdentifiers": {
					"addPlayers(address)": "a0d249cc",
					"lotteryPrice()": "dbea52d8",
					"owner()": "8da5cb5b",
					"pickWiner()": "a97ed232",
					"playersList(uint256)": "7319b43e"
				}
			},
			"storageLayout": {
				"storage": [
					{
						"astId": 4,
						"contract": "debug.sol:Lottery",
						"label": "playersList",
						"offset": 0,
						"slot": "0",
						"type": "t_array(t_address)dyn_storage"
					},
					{
						"astId": 6,
						"contract": "debug.sol:Lottery",
						"label": "owner",
						"offset": 0,
						"slot": "1",
						"type": "t_address_payable"
					},
					{
						"astId": 12,
						"contract": "debug.sol:Lottery",
						"label": "lotteryPrice",
						"offset": 0,
						"slot": "2",
						"type": "t_uint256"
					},
					{
						"astId": 22,
						"contract": "debug.sol:Lottery",
						"label": "players",
						"offset": 0,
						"slot": "3",
						"type": "t_mapping(t_address,t_struct(User)17_storage)"
					}
				],
				"types": {
					"t_address": {
						"encoding": "inplace",
						"label": "address",
						"numberOfBytes": "20"
					},
					"t_address_payable": {
						"encoding": "inplace",
						"label": "address payable",
						"numberOfBytes": "20"
					},
					"t_array(t_address)dyn_storage": {
						"base": "t_address",
						"encoding": "dynamic_array",
						"label": "address[]",
						"numberOfBytes": "32"
					},
					"t_mapping(t_address,t_struct(User)17_storage)": {
						"encoding": "mapping",
						"key": "t_address",
						"label": "mapping(address => struct Lottery.User)",
						"numberOfBytes": "32",
						"value": "t_struct(User)17_storage"
					},
					"t_struct(User)17_storage": {
						"encoding": "inplace",
						"label": "struct Lottery.User",
						"members": [
							{
								"astId": 14,
								"contract": "debug.sol:Lottery",
								"label": "player",
								"offset": 0,
								"slot": "0",
								"type": "t_address"
							},
							{
								"astId": 16,
								"contract": "debug.sol:Lottery",
								"label": "balance",
								"offset": 0,
								"slot": "1",
								"type": "t_uint256"
							}
						],
						"numberOfBytes": "64"
					},
					"t_uint256": {
						"encoding": "inplace",
						"label": "uint256",
						"numberOfBytes": "32"
					}
				}
			},
			"userdoc": {
				"kind": "user",
				"methods": {},
				"version": 1
			}
		}
	}
}